:4000000000100020CD120000C9120000C9120000F8B51148114A1AE055689368D4689D4209D0002104E06E1877683668C0C30831A142F8D100E01B191469002103E00025CA
:40004000002660C30831A142F9D1143201380028E2D106F04DF9C04601000000906F0000F8B572B65A4C251C123562792379607812021A43237800021843A37800211B049F
:400080001843E37806341B06184306F0EBF8AC42EBD14F49802214314E4806F063F84E4A0021131C143318684B4AFF27C4B24E00B8433832071C9219201C06E0167855780D
:4000C000F61901383570C0B202320028F6D1434A043309199342E6D1414A80235B001380404B01221A70404AC0239B0413603F4A3F4B40491A60404BC1221A603F4A083377
:400100001A603F4AC0235B0313603E4BF1221A603D4A08331A603D4A99231B041360043211603B49802292050A603A4A1360103213608A231B0604321360374A374B1A6073
:40014000374B022219780A431A70197806220A431A70344A80231168DB020B431360324B197801331A780D3B587A2F2810D99879997ADA7A2F280BD9D878D9791A7A2F283B
:4001800006D9187819795A792F2801D959789A78264B0520196004331A60254B1A78254B1A6001F015FB244B35221A60234B10221A60234A80231B061360043A1360802358
:4001C000DB02043A13601F4A1F4B1A60F8BDC046E469000000320F40646A00009C6A000000600F4002600F400000014003EE00030C00014000000280000004400700F80020
:40020000080204400003044086EDFB0000500F4008500F4020500F400000012038500F4000700F4000010B40CCF1FF0F1CFF0B40FDF1FF0F28FF0B402CFF0B40300202402A
:4002400008010B40030000800000024000B5034B1A78002A01D10120187000BD8005002008B504480368002B03D0034B002B00D0984708BDC80000200000000008B501F0D4
:4002800005FA002801D1012000E0002000F06CF801F0F4F9002801D1012000E0002000F07DF801F0E3F9002801D1012000E0002000F08EF801F0F2F9002801D1012000E03D
:4002C000002000F0B7F808BD08B51B4B1B4A13601B4A13601B4B1C4A13601C4A13601C4B1C4A1A601C4B1D4A1A601D4A1D4B1A6000F0C0F901F07AF901F02BF83C2001F049
:4003000035F9002001F03CF9002000F077F8104B186800F075FF104B186800F00DFF114B186800F0A5FE00F00DFA00F0F5FD00F08BFAFFF7A3FFEAE700008242CC050020D9
:40034000D00500200000F041C8050020C4050020B40500200AD7A33CB8050020295C0F3DAE47613DBC05002038B5051C00280DDD084B1A68002A09D15B68074A9B009C582A
:400380009B182068596A03F0ABF92060014B1D6038BDC04684050020CC00002038B5051C00280DDD084B9A68002A09D15B68074A9B009C589B182068596A03F025FE20601F
:4003C000014B9D6038BDC04684050020CC00002000B5002809DD064BDA68002A05D15A68044B9200D358044A1A60014BD86000BD84050020CC0000200000000000B50A4A59
:400400000A4B526883B09200D31800220092002803DD986C7321002302E0986C044B732101F00EF803B000BD84050020CC000020FF0F000038B5051C00280CDD094C636973
:40044000002B08D10120FFF7D9FF60680921013003F0AAF861600020FFF7D0FF014B5D6138BDC04684050020F0B5354C83B00E1C216801921F1C051C03F0B4FC6168009086
:40048000301C03F0AFFC011C009803F029F92D4B00901968019803F0A5FC011C009803F01FF9294903F01CF9011C281C03F0C0FA264B196803F096FC254B196803F010F926
:4004C00038602168281C03F08DFC6168051C301C03F088FC011C281C03F002F9194B041C1968019803F07EFC011C201C03F0F8F8154903F0F5F8011C301C03F099FA154B4B
:40050000196803F06FFC144B196803F0E9F8089B124918603C68201C03F0A2F8002800D00E4C089B3C601C680C49201C03F098F8002800D0094C089B03B01C60F0BDC0464A
:40054000A0050020380100200000803FC8050020CC050020C4050020D005002000000000F0B583B0009201930C1C05F0D7FC061C201C0F1C05F0D2FC0D1C041C01F048F92D
:40058000021C0B1C301C391C04F07EFE05F01CFD009B291C1860201C01F092F9021C0B1C301C391C04F070FE05F00EFD019B03B01860F0BDF0B583B0041C081C00920193C9
:4005C00005F0ACFC061C201C0F1C05F0A7FC041C0D1C221C2B1C301C391C01F0CDF905F0F3FC019B221C1860291C2B1C201C04F04BFE321C0D1C3B1C041C391C301C04F059
:4006000043FE021C0B1C201C291C03F0DFFE01F0B7F905F0D9FC009B03B01860F0BD70B582B00D1C161C6B4601AA041C09680068FFF7C0FF0099301C03F052F82B1C011CC3
:400640000090221C0198FFF78BFF02B070BD08B51A1CFFF7E4FF08BD08B5011C101C1A1CFFF7DDFF08BD08B5081C111C1A1CFFF7D6FF08BD194B1A4A1A4913601A4A136007
:400680001A4A13601A4A13601A4A13601A4A0A601A490A601A490B601A490A601A490A601A490B601A490B601A490B601A490A601A490B601A490B601A490A601A490A6045
:4006C0001A490A601A490A601A490A601A490A601A490A601A4A13607047C0460000803FEC050020FC050020940600203006002038060020B0060020000080BF00060020CB
:400700006C060020F40500204C06002068060020100600207C060020AC0600202C060020DC050020E005002024060020F00500203C060020A4060020900600201C06002089
:4007400034060020204B1A68204B1A60204B1A68204B1A60204B1A68204B1A60204B1A68204B1A60204B1A68204B1A60204B1A68204B1A60204B1A68204B1A60204B1A6874
:40078000204B1A60204B1A68204B1A60204B1A68204B1A60204B1A68204B1A60204B1A68204B1A60204B1A68204B1A60204B1A68204B1A60204B1A68204B1A60204B1A68A9
:4007C000204B1A607047C04608060020D80500209C0600205C060020D405002088060020E405002074060020A806002060060020A00600208C0600204006002054060020F2
:40080000280600200C060020140600207806002004060020200600204406002050060020640600205806002080060020E80500209806002018060020F80500208406002092
:400840004806002070060020F0B5FF4A87B0106802F02EFFFD4BC4B2186802F029FFFC4AC5B2106802F024FFFA4BC6B2186802F01FFF0022291CC3B20092201C321C00F0E1
:4008800024FEF54B186802F013FFF44AC4B2106802F00EFFF24BC5B2186802F009FFF14AC6B2106802F004FFEF4A291CC3B20092201C321C00F009FEE34B186802F0F8FE3D
:4008C000E24AC4B2106802F0F3FEE84BC5B2186802F0EEFEE64AC6B2106802F0E9FE0022291CC3B20092201C321C00F0EEFDDA4B186802F0DDFED94AC4B2106802F0D8FEDC
:40090000DC4BC5B2186802F0D3FEDB4AC6B2106802F0CEFED44A291CC3B20092201C321C00F0D3FDC84B186802F0C2FEC74AC4B2106802F0BDFED14FC5B2386802F0B8FE7F
:40094000CF4BC6B2186802F0B3FE0022291CC3B20092201C321C00F0B8FDBF4B186802F0A7FEBE4AC4B2106802F0A2FEC54BC5B2186802F09DFEC44AC6B2106802F098FE62
:40098000B94A291CC3B20092201C321C00F09DFDAF4B186802F08CFEAE4AC4B2106802F087FEBA4BC5B2186802F082FEB84AC6B2106802F07DFE0022291CC3B20092201C0A
:4009C000321C00F082FDA64B186802F071FEA54AC4B2106802F06CFEAE4BC5B2186802F067FEAD4AC6B2106802F062FE9E4A291CC3B20092201C321C00F067FD944B18683E
:400A000002F056FE934AC4B2106802F051FEA34BC5B2186802F04CFEA14AC6B2106802F047FE0022291CC3B20092201C321C00F04CFD8B4B186802F03BFE8A4AC4B21068BD
:400A400002F036FE974BC5B2186802F031FE964AC6B2106802F02CFE834A291CC3B20092201C321C00F031FD386802F021FE844BC4B2186802F01CFE884AC5B2106802F074
:400A800017FE874BC6B2186802F012FE0022291CC3B20092201C321C00F017FD794B186802F006FE784AC4B2106802F001FE7D4BC5B2186802F0FCFD7B4AC6B2106802F02D
:400AC000F7FD694A291CC3B20092201C321C00F0FCFC386802F0ECFD694BC4B2186802F0E7FD724AC5B2106802F0E2FD704BC6B2186802F0DDFD0022291CC3B20092201CF1
:400B0000321C00F0E2FC5F4B186802F0D1FD5E4AC4B2106802F0CCFD664BC5B2186802F0C7FD654AC6B2106802F0C2FD4E4A291CC3B20092201C321C00F0C7FC5B4B186869
:400B400002F0B6FD5A4AC6B2106802F0B1FD5B4CC7B2206802F0ACFD594DC0B20390286802F0A6FD0022391CC3B20092301C039A00F0ABFC4F4B186802F09AFD4E4AC0B2DE
:400B80000390106802F094FD4E4EC0B20490306802F08EFD4C4FC0B20590386802F088FD314A0499C3B200920398059A00F08DFC206802F07DFDC0B20390286802F078FD75
:400BC000364BC0B20490186802F072FD344AC0B20590106802F06CFD00220499C3B200920398059A00F071FC306802F061FDC0B20390386802F05CFD2A4BC0B20490186805
:400C000002F056FD284AC0B20590106802F050FD154A0499C3B200920398059A00F055FC206802F045FDC0B20390286802F040FD164BC4B2186802F03BFD154AC5B2106872
:400C400002F036FD42E0C046D8050020780600205C0600202006002008060020140600209C06002004060020FF0F00007406002058060020E4050020640600206006002031
:400C8000E8050020A8060020800600208806002050060020D4050020440600208C06002018060020A0060020980600200C06002070060020280600204806002054060020BA
:400CC0008406002040060020F80500200022211CC3B2009203982A1C00F0F7FB306802F0E7FCC6B2386802F0E3FC764BC4B2186802F0DEFC744AC5B2106802F0D9FC734A94
:400D0000211CC3B20092301C2A1C00F0DEFB704B186802F0CDFC6F4AC4B2106802F0C8FC6D4BC5B2186802F0C3FC6C4AC6B2106802F0BEFC0022291CC3B20092201C321C17
:400D400000F0C3FB664B186802F0B2FC654AC4B2106802F0ADFC5B4BC5B2186802F0A8FC594AC6B2106802F0A3FC584A291CC3B20092201C321C00F0A8FB554B186802F048
:400D800097FC544AC4B2106802F092FC564BC5B2186802F08DFC554AC6B2106802F088FC0022291CC3B20092201C321C00F08DFB4B4B186802F07CFC4A4AC4B2106802F018
:400DC00077FC4B4BC5B2186802F072FC494AC6B2106802F06DFC3D4A291CC3B20092201C321C00F072FB444B186802F061FC434AC4B2106802F05CFC354BC5B2186802F06F
:400E000057FC344AC6B2106802F052FC0022291CC3B20092201C321C00F057FB384BF024186802F045FC374AC5B2106802F040FC2B4BC6B2186802F03BFC2A4AC7B2106893
:400E400002F036FC2401311C3A1CC3B2281C009400F03BFB2C4B186802F02AFC2B4AC5B2106802F025FC1C4BC6B2186802F020FC1A4AC7B2106802F01BFC0022311CC3B2DE
:400E80000092281C3A1C00F020FB214B186802F00FFC204AC5B2106802F00AFC094BC6B2186802F005FC084AC7B2106802F000FC311CC3B23A1C281C009400F006FB07B0B9
:400EC000F0BDC046D405002044060020FF0F000074060020580600208806002050060020E4050020640600200C0600207006002028060020480600205C06002020060020B3
:400F00009C06002004060020D805002078060020080600201406002000B52D4B83B000932C4B18682C4B19682C4B1A682C4BFFF79BFA2C4B00932C4B18682C4B19682C4B75
:400F40001A682C4BFFF790FA2B4B00932B4B18682B4B19682B4B1A682B4BFFF785FA2B4B00932B4B18682B4B19682B4B1A682B4BFFF77AFA2A4B00932A4B18682A4B19685E
:400F80002A4B1A682A4BFFF76FFA2A4B00932A4B18682A4B19682A4B1A682A4BFFF764FA294B0093294B1868294B1968294B1A68294BFFF759FA294B0093294B1868294BA1
:400FC0001968294B1A68294BFFF74EFA03B000BD14060020EC0500209406002030060020080600200406002038060020B0060020FC0500209C0600204406002000060020FE
:401000006C060020F4050020D4050020640600204C0600206806002010060020E4050020800600207C060020AC0600202C060020A806002098060020DC050020E005002045
:4010400024060020A0060020F8050020F00500203C060020A40600204006002048060020900600201C060020340600202806002010B5041C231C18481849194AFFF7E7FA6F
:40108000231C18481849194AFFF7E1FA231C18481849194AFFF7DBFA231C18481849194AFFF7D5FA231C18481849194AFFF7CFFA231C18481849194AFFF7C9FA231C1848C9
:4010C0001849194AFFF7C3FA18481949194A231CFFF7BDFA10BDC046EC050020940600203006002038060020B0060020FC050020000600206C060020F40500204C060020DC
:4011000068060020100600207C060020AC0600202C060020DC050020E005002024060020F00500203C060020A4060020900600201C0600203406002010B5041C231C1848BE
:401140001849194AFFF788FA231C18481849194AFFF782FA231C18481849194AFFF77CFA231C18481849194AFFF776FA231C18481849194AFFF770FA231C18481849194AA0
:40118000FFF76AFA231C18481849194AFFF764FA18481949194A231CFFF75EFA10BDC046EC050020940600203006002038060020B0060020FC050020000600206C0600206B
:4011C000F40500204C06002068060020100600207C060020AC0600202C060020DC050020E005002024060020F00500203C060020A4060020900600201C06002034060020F7
:4012000010B5041C231C18481849194AFFF72BFA231C18481849194AFFF725FA231C18481849194AFFF71FFA231C18481849194AFFF719FA231C18481849194AFFF713FA8F
:40124000231C18481849194AFFF70DFA231C18481849194AFFF707FA18481949194A231CFFF701FA10BDC046EC050020940600203006002038060020B0060020FC05002016
:40128000000600206C060020F40500204C06002068060020100600207C060020AC0600202C060020DC050020E005002024060020F00500203C060020A4060020900600201A
:4012C0001C0600203406002000B5FEE7014B9D46014B1847001000201100000008B500220023032B01D90A4901E00A4989580A48013381500432302BF3D1FEF7B1FE074B89
:4013000000221A608023DB0501221A6008BDC046C91200000000000000000020C000002010B5041C00F0C2F911231842FAD080204000204380B200F0BFF910BD10B5041C94
:4013400000F0B4F911231842FAD0A0B200F0B4F910BD08B52920FFF7F1FF08BDF0B589B00793364B0C1C1978161C05915A78071C06929D781E3F6F432B20013FDF19FFF767
:40138000DDFF82231C1BE4B2201CFFF7C9FF0698013D01382418E0B28324A41BFFF7C0FFE4B22A20FFF7CAFF201CFFF7B9FF05987D1901382418E0B2FFF7B2FF2C20FFF73B
:4013C000BDFF2C1C039530E06378012104930191002225E0019B04990B4201D10E9D00E0079D019A04995300DBB20B4201D10E9E00E0079EFF2728115B00DBB238400193B2
:40140000FFF78EFF33051B0F2D01181C3D402843FFF786FF301C3840FFF782FF029A02320292029B05998B42D4DB069A0399013C531A1B190133C7D109B0F0BDD463000029
:40144000F0B5171C85B00D1C0837061C039310353C1C0EE00A9B221C0093291C039B0834FFF77CFF832C01DD10353C1C832D03DC013630780028EDD105B0F0BDF8B5832579
:40148000041C2C1BE4B22B200F1C161CFFF756FF201CFFF745FF201CEC1BFFF741FFE4B22A20FFF74BFF201CFFF73AFF201CFFF737FF2C20FFF742FF3011C0B23601FFF7F7
:4014C0002FFFF0B2FFF72CFFF8BDF0B587B004930D1C0499061C0592131A4A1B01D4012102E00121524249420391002B01DB012702E001275B427F4252005B000292301CF0
:401500000C9A291C0193FFF7B9FF019A029B9A4214DD54101C1B0DE0002C03DB0399019A6D18A41AF619029B301C291C0C9AE418FFF7A4FF05998E42EED115E0029A019B9B
:4015400054101C1B0DE0002C02DB0299F619641A039A019BAD18301C291C0C9AE418FFF78DFF04998D42EED107B0F0BD10B5041C2520FFF7E3FE7F202040FFF7D1FE10BDDE
:40158000F8B5041C2B20FFF7D9FE0020FFF7C8FE8320FFF7C5FE2A20FFF7D0FE0020FFF7BFFE8320FFF7BCFE2C20FFF7C7FE2701FF2326111F4022121E4017430025301C96
:4015C000FFF7AEFE381CFFF7ABFEE0B2FFF7A8FE044B01359D42F2D1034B00221A605A60F8BDC04684210000A805002008B500F0C7F8142000F0ECF8002000F02BF8C820A1
:4016000000F0F0F8FF2000F025F8C82000F0EAF81120FFF793FE0320FFF790FE2920FFF78DFE3A20FFF78AFE0320FFF779FE3620FFF784FE2520FFF781FE3020FFF770FE1F
:401640000020FFF77BFE3C20FFF790FF0020FFF797FF08BD044BBF22196880010A404021084010431860704700020440024B18680006C00F7047C04604030440024B186825
:40168000012318407047C04604000440024B18688006C00F7047C04604030440024B18680006C00F7047C04604000440014B18787047C04662000F4000B5034B1B785A0797
:4016C000FBD5024B188000BD62000F4084100F4010B501E00E4B1B880E4B1B789A06F9D400F06FF80C4B01211A780A43D2B21A701C78FE2214401C7001331C782143C9B2F1
:40170000197019780A401A7000F05FF810BDC046A4100F4060000F4092000F4008B5074B11221A70FFF7D4FF054B064A1B78064B1B7800231370023A137008BD81000F4068
:4017400062000F4082000F4060000F4008B500F038F80A4B202219780A431A700133197810221143C9B21970023B19780A43D2B21A7000F02AF800F011F808BD91000F4034
:4017800010B5054C2378002B03D1FFF7C7FF01232370FFF7DBFF10BDB0050020034A802311681B060B4313607047C046000002400230800804D0C0460138FDD1C046C046A3
:4017C0007047EFF3108072B6704780F31088704708B5034B1B795843FFF7EAFF08BDC0463C01002010B5041C04E0D068FFF7E0FF054BE41880231B02044A9C42F5D890680B
:401800006043FFF7D5FF10BD0080FFFF3C01002010B5274C021C27480B1C214086B081421DDD2548814205DD101C191C03F05AFF06B010BD02AC101C191C221C00F000FADA
:401840000323184001281BD002280FD0002822D120686168A268E36800F0FAFCE8E7101C191C124B104A00F0F3FCE1E7A268E3682068616800F0ECFC80231B06C918D7E7B7
:40188000A268E36800900298039901F039FA80231B06C918CCE7A268E368206861680124009401F02DFAC3E70000000000000000FFFFFF7FFB21E93FFFFFEF7FC046C04638
:4018C00010B5294C021C29480B1C214086B081421FDD2748814205DD101C191C03F002FF06B010BD02AC101C191C221C00F0A8F903231840012821D0022813D0002824D116
:40190000A268E368206861680124009401F0F8F9E6E700210091101C191C124B104A01F0EFF9DDE7A268E368206861680124009401F0E6F980231B06C918D1E7A268E36851
:401940000298039900F084FCCAE7A268E3682068616800F07DFC80231B06C918C0E7C0460000000000000000FFFFFF7FFB21E93FFFFFEF7FC046C04608B500F061F808BDAC
:40198000F0B557464646C0B48BB0041C0D1C00F077FB294A061C0023D3560F1C9046013330D0201C291C01F0ABFC8246002829D1201C291C1F4B1E4A01F018FE002821D073
:4019C00001236E46009342461C4B34617561B460F5601478019353460893002C19D015491348021C0B1C03F05FF8B061F161022C13D104F0B1FB21230360336A002B12D1A1
:401A0000F769B6690BB0301C391C0CBC90469A46F0BD084C064BB361F461684601F080FC0028EAD1E5E704F097FB336A0360E7E700000000000000004C010020446C000057
:401A4000F0B55F4656464D464446F0B4784C85B00192261C1E40019FB146019E7F423743FF0F4E463E43734FB3460093A0460D1C03918246BC46BB4515D846460C1C34402F
:401A8000A04644420443E40F4646344364450AD8009F694EBC19002C0ED1019F002F0BD101F0E2F901E002F091FC05B03CBC90469946A246AB46F0BD009C039FA417A4461A
:401AC000664602242640FC0F34434646002E08D15746002F05D1022C39D0022C2FDC002CE3DA4E46002E02D1019F002F22D0514EB1452FD04F4EB0451CD046464F46F51B05
:401B00002D153C2D20DC3C3536DB02F0CDFF01F04BFB01F0A9F9012C2AD0022C32D0002CC3D02E4B2C4A03F0DDFD2D4A2D4B03F0D9FDBAE7002D18DB2B482C49B5E7032CF6
:401B4000CFD12B482B49B0E727482849E3E724482449AAE7C84520D0012C29D0012C2ADD022CF4D0032CC5D1EBE7234823499CE780263606891998E7009D002DC5DA204825
:401B80002049C8E7154B144A03F0ACFD021C0B1C1348144903F0A6FD87E7012C13D0012C14DD022C0CD0032CC4D1174817497CE71748184979E7002C9CD11148114974E7CD
:401BC0001548164971E7164816496EE7002CB1D11548164969E7C046075C143326A6A13C182D4454FB210940182D4454FB21F93F182D4454FB2109C0182D4454FB21F9BFC6
:401C00000000000000000000D221337F7CD902C00000000000000080D221337F7CD90240182D4454FB21E9BF182D4454FB21E93FFFFFFF7F0000F07F000010C0C046C046A3
:401C4000F0B557464646C0B4C74CC84B91B00C4002900391151C0F1C9C4200DC8CE0C44B9C4222DC02980399AE4BAD4A002F00DC8EE103F037FDBF4B061C0F1C9C4200D10F
:401C800090E0A94AA94B03F02DFD021C0B1C2A606B60301C391C03F025FDA34AA34B03F021FD0126A860E9606DE0B34B9C4200DC92E0B24B02980399021C9C4200DD68E031
:401CC000AF48211540180105631A191C8246101C0292039304F0A4F804F0D6F80B1C0AA9021C8846029803990A920B9303F0FAFC8F4A904B03F0C8FA0290039104F090F80D
:401D000004F0C2F84446021C0B1CA260E3600298039903F0E7FC864A864B03F0B5FA424610615161844A854B0CAC032601F058FC002809D0206861687F4A804B013E083CBA
:401D400001F04EFC0028F5D1022300938D4B40460193291C331C524600F09EFB061C002F11DA6B68802424061B196B6008356B6846421B196B6006E06F4B704C10605160EB
:401D80009360D460002611B0301C0CBC90469A46F0BD0B1C03F0A6FC0026A860E96028606960F0E7664A674B03F09CFC664A674B061C0F1C03F096FC021C0B1C2A606B6088
:401DC000301C391C03F08EFC5F4A604B03F08AFC0126A860E960D6E70298039901F0E4F95B4A5C4B0290039103F04EFA5A4A5B4B02F0ECFA04F014F8061C04F045F8584AFB
:401E0000584B0690079103F03FFA021C0B1C0298039902F0DBFA444A444B029003910698079903F031FA049005911F2E28DC721E554B9200D358A34222D0049A059B0298AD
:401E4000039903F04FFC021C0B1C2A606B600298039903F047FC049A059B03F043FC2C1C0834A860E960002F00DB8CE76B68802109065B186B60636876425B18636082E7DD
:401E8000049A059B0298039903F02CFC2415A0463E4C0B1C090D021C21404046411A2A606B601029D3DD264A264B0698079903F0EBF904900591049A059B0298039903F088
:401EC00011FC08900991089A099B0298039903F009FC049A059B03F005FC1B4A1B4B029003910698079903F0CFF9029A039B03F0F9FB04900591049A059B0898099903F055
:401F0000F1FB0B1C090D0C404146021C0C1B2A606B60312C73DC089809990290039196E700004054FB21F93F3163621A61B4D03D00000000000070410000000000000000AF
:401F40000000601A61B4D03D7370032E8A19A33B83C8C96D305FE43F000000000000E03F00004054FB21F9BFFFFFFF7FFB21E93F7BD90240FB21F93FFB213941FFFFEF7FCA
:401F8000EAFBFFFFCC6C00004C6C0000FF07000002F01CFA384B061C0F1C9C4214D02D4B2B4A02F013FA021C0B1C2A606B60301C391C03F097FB274B254A02F007FA012607
:401FC000A860E9607642DEE6234A244B02F0FEF9234A244B061C0F1C02F0F8F9021C0B1C2A606B60301C391C03F07CFB1C4A1D4B02F0ECF90126A860E9607642C3E61A4ABC
:402000001A4B0698079903F03FF904900591049A059B0898099903F065FB02900391029A039B0898099903F05DFB049A059B03F059FB0F4A0F4B049005910698079903F055
:4020400023F9049A059B03F04DFB04900591F4E63163621A61B4D03D0000601A61B4D03D7370032E8A19A33B0000002E8A19A33BC14920259A837B39FB21F93FC046C04635
:40208000F0B55F4656464D464446F0B40D1C6C49041C021C281C084083B02B1C884200D1AAE0002D00DC89E02E15002E00D191E06449654F0B408021F71949030197194370
:4020C000FF0700D575E0D00F49000B18002480215200A3460020890345189D4202DC68185B1B8B44D50F5B0001345B1952004908162CF1D10025AC46802109066646A946E9
:402100008A468C19984211DB944201D883420DD080465B00D00F01351B1852004908202D1AD0664640468C199842EDDA564626406718B046BC46D04530D080461B1A9442F9
:4021400000D9013B121BD00F5B00013589441B1852004908202DE4D1002B25D04A46013259D001234C4623404B445B085E46F60702D5802212061343019F34497E10360583
:402180005A4676185710F5191C1C03B0291C201C3CBC90469946A246AB46F0BD56463742CBD1471CB846C9E7002AD7D149464B08DCE7D00F49000918520084E7690001D163
:4021C000002CE2D0002B2DD10026D30A153E5205002BFAD080204003034220D100215B0001310342FBD02020401A141C0136C440761A23438A405BE7221C2B1C201C291C52
:4022000003F042F8021C0B1C201C291C02F0DEF8041C0D1CB9E701239B440023A6E720200021E2E7221C2B1C201C291C03F05AFA021C0B1C02F038FC041C0D1CA5E7C0468A
:402240000000F07FFFFF0F0001FCFFFF0000E03FF0B5474680B488B002920393884A894B0A409046061C0F1C984563DC03F0D8FD002800D1DBE0321C3B1C301C391C03F01C
:4022800003F86E4B6C4A041C0D1C02F0FDFF6C4A6C4B02F09BF8221C2B1C02F0F5FF6A4A6A4B03F01FFA221C2B1C02F0EDFF684A684B02F08BF8221C2B1C02F0E5FF664A63
:4022C000664B03F00FFA221C2B1C02F0DDFF644A644B02F07BF8221C2B1C02F0D5FF04900591201C291C604A604B02F0CDFF049A059B00900191201C291C02F0C5FF029AE0
:40230000039B041C0D1C301C391C02F0BDFF021C0B1C201C291C03F0E5F9021C0B1C0098019903F0DFF9021C0B1C5148514903F0D9F971E0321C3B1C02F0A6FF3F4B3E4AB2
:40234000041C0D1C02F0A0FF3D4A3E4B02F03EF8221C2B1C02F098FF3B4A3C4B03F0C2F9221C2B1C02F090FF394A3A4B02F02EF8221C2B1C02F088FF374A384B03F0B2F9BD
:40238000221C2B1C02F080FF354A364B02F01EF82B1C221C02F078FF3B4B0490059198459FDD3A4B98453BDD3349344A00910192009A019B2E482F4903F094F92A4A2B4B02
:4023C00006900791201C291C02F05EFF009A019B03F088F9049A059B00900191201C291C02F052FF029A039B041C0D1C301C391C02F04AFF021C0B1C201C291C03F072F98E
:40240000021C0B1C0098019903F06CF9021C0B1C0698079903F066F908B004BC9046F0BD1B4900220B1C434400920193C0E710481049F1E7C046C046D43888BEE9FAA8BDCD
:40244000C4B1B4BD9EEE213EAD529C804F7E923E9015CB19A001FA3E7751C1166CC1563F4C5555555555A53F000000000000E03F000000000000F03F000000000000D23FD8
:40248000FFFFFF7FFFFF3F3E3233D33F0000E93F0000E0FFC046C046F0B55F4656464D464446F0B4864C8046A544A298099308918449141C8300099A5B58013AE01E1821BC
:4024C0000693039201F01AF80B90002801DA00F0BCFB0B980699C3435A00D318DB00039A1B1905938F1816D4841AA39BA5005CAE5D19E71907E0286803F0C6FC043503C6D5
:40250000BC4208D00134002CF5DA64496248043503C6BC42F6D1069C002C01DA00F0E8FB099C069B6946039A30311B19E40007918B4691460093A246039C002C00DAB6E1F9
:402540004846C5005CA94D190024544F524E40460319186859682A686B6802F095FE021C0B1C301C391C01F031FF0834061C0F1C083D5445EBD1594608310122009B8B46D8
:4025800091440839C0C19945D6D1069A93465C460798E3001B181E685F68002C27DD013CE4000AA984AD04198A463D4A3D4B301C391C02F069FE03F033FC03F065FC3A4ABD
:4025C0003A4B0090019102F05FFE321C3B1C01F0FDFE03F025FC2268636801C50098019901F0F4FE083C061C0F1C5445DDD1301C391C059A00F098FE2D4A2E4B041C0D1C39
:4026000002F042FE00F0D8FD2B4A2C4B02F03CFE021C0B1C201C291C01F0D8FE0D1C041C03F0FEFB071C03F02FFC021C0B1C201C291C03F057F8059A051C0E1C002A00DC90
:4026400005E15B46013B84249B00A400E41868462258059C1821091B101C08413F188840111A84208000C01817236A461B1B815019410291029B002B45DD5C460137002C05
:4026800000DC1CE15846810084AB8020C9180024400421E0C046C0460000000000000000000000000000703E00000000000070C1000000000000C03F00000000000020C03F
:4026C0009CFDFFFFD86D0000002A02D0821A1A60012404338B4209D01A68002CF4D0CA4CA21A1A60043301248B42F5D10598002805DD012800D1C7E0022800D1B5E0029AC9
:40270000022A00D18AE0281C311CB44BB24A00F067FF002800D1D4E05C46069B013CA3420FDC069984A8A5008A00431983A8801800221968043B0A438342FAD1002A00D081
:40274000E8E1069B8422013B9B009200D2186C461359002B00D0B0E0069B84A8023B9B00C31801211A680131043B002AFAD05A46594401320A918A424ADC0B9B099801334C
:402780005B44A39C9B00E418031C07985B44D200D9008218A1465CAC641802920A99099A00948918D2009B46049192464B46186803F06AFB009C20606160039800282ADB5A
:4027C0005946CD005CAA55190024844F824E40460319186859682A686B6802F055FD021C0B1C301C391C01F0F1FD0834061C0F1C083D5445EBD10299009BC0C10124049846
:4028000004220833A3440291914400938345CDD10A998B46BBE6714F6F4EECE72A1C331C6F48704902F05EFF051C0E1C002C00D169E7059A6A486B4900F076FD021C0B1CF1
:40284000281C311C02F04EFF051C0E1C5BE7059B002B23D15B46013B84249B00A400E41868462358DB15029304E75B46013B84229B009200D21868461158644A0A40842195
:402880008900C9180A503AE75B46013B84229B009200D218684611585D4AEFE7524A534B00F0C2FE002805D1002102912BE74B4F494E60E602220292DFE6012157E70024DF
:4028C00014E70497002800D00EE2059B281C5A42311C00F029FD464A464B041C0D1C00F0A3FE002800D1B4E1434A444B201C291C02F0CAFC03F094FA03F0C6FA404A414B4F
:40290000061C584680008046301C0F1C02F0BCFC021C0B1C201C291C01F058FD03F080FA0123059C424684A99B445050183458460594391C8400301C03F072FA84218900C9
:4029400009196A468850059A2548264900F0ECFC5A46061C0F1C002A00DA7CE00798950084ABD4000AA95D1904198846286803F08BFA321C3B1C02F087FC1F4A1F4B20604D
:402980006160301C391C02F07FFC083C061C0F1C043D4445EAD101229246DA4450461D4C03900698A14634AB10240027A1449A4680465B464446DE1B002C00DA96E0002F6E
:4029C00000DA8EE0079AF600044C034B4D46009301949619002423E00000000000000000000000000000F03F000000000000E03F0000000000007041000000000000703E1C
:402A000000000000000070C1FFFFFF00FFFF3F00FFFF7F00D86D000008350836BC4210DC326873682868696802F02EFC021C0B1C0098019901F0CAFC013400900191A045A8
:402A4000EADAFB0053440099019A19605A60039A01379742ADD1A29C022C4CDC002C00DC1FE15B46002B00DA16E134A95A468846D4000023444432AD0026191C301C22685A
:402A8000636801F0A3FC083C061CAC42F6D10B1C029C002C59D0802109065818089C021C311C2160626034983599321C02F01AFE5A46002A09DD4446D5006519A268E36840
:402AC000083401F083FCAC42F8D1029B002B02D0802424060919031C08980C1C8360C4600CE0864A844900910192AAE78349824800900191A5E7A298032828D0049B072056
:402B0000184099239B009D443CBC90469946A246AB46F0BD049784208000059A401969464358183A0592002B00D0B3E0631E84AA9B00D318059A211C18680139183A043BFE
:402B40000028F9D005928B46FDE6181CA6E75946002900DC99E05A4634A9D2005C468846131C013C4344E4001868596844440090019132A992468946251C009A019B286831
:402B8000696801F023FC061C0F1C321C286869683B1C02F0A7FD009A019B01F017FC2E606F60A860E960083D009601974D45E4D15A46012A6BDD5346434419685A680091A2
:402BC0000192226863680098019901F0FFFB051C0E1C2A1C20686168331C02F083FD021C0B1C0098019901F0F1FB25606660A060E160083C009501964445E2D1444645468C
:402C0000544408350020002122686368083C01F0DDFBAC42F8D1029B002B26D0349B089A4446136063688022089C12069B18636042469368A360D3688024089A24061B1935
:402C40000919D3601061516158E700230B93FFF740FC5B46201C291C9E0003F0E1F88424A400A419694660506DE6089A349B359C1360546042469368D468089A9360D46072
:402C8000031C0C1C1361546138E734AA904600200021C0E7A34656E634AC00260023A046F6E6002C00D029E75846002819DB5946CB0034ACE41832AD002000212268636858
:402CC000083C01F083FBAC42F8D1029A002A02D080231B06C918031C08980C1C036044600CE700200021F0E75C46013CA50012E768463030079048E40000000000000000E6
:402D0000F0B589B0029203930D1C554B2A1C1A40544B041C9A4204DC291C03F081F8002866D0221C2B1C201C291C02F0ADFA221C2B1C061C0F1C02F0A7FA3C4B3A4A0090F9
:402D40000191301C391C02F09FFA394A394B02F0C9FC321C3B1C02F097FA374A374B01F035FB321C3B1C02F08FFA354A354B02F0B9FC321C3B1C02F087FA334A334B01F0C1
:402D800025FB0E9B04900591002B35D0304A314B0298039902F078FA049A059B069007910098019902F070FA021C0B1C0698079902F098FC321C3B1C02F066FA029A039B2C
:402DC00002F090FC244A254B061C0F1C0098019902F05AFA021C0B1C301C391C01F0F6FA021C0B1C201C291C02F07CFC041C0D1C09B0291C201CF0BD049A059B301C391CAC
:402E000002F042FA144A154B02F06CFC009A019B02F03AFA021C0B1C201C291C01F0D6FA041C0D1CE4E7C0467CD5CF5A3AD9E53DEB9C2B8AE6E55A3E7DFEB157E31DC73E79
:402E4000D561C119A0012A3FA6F810111111813F000000000000E03F495555555555C53FFFFFFF7FFFFF3F3EF0B557464646C0B4C14EC24B0E4083B0051C0C1C88469E42B5
:402E80000DDDBF4B9E4200DDA2E09E4200D19CE04146BC4D002900DCDAE0BB4CA0E0BB4B9E4200DDAFE0BA4B9E4200DC9FE0012359428A462A1C231C281C211C02F0E4F9E6
:402EC000021C0B1C0090019102F0DEF98B4B8A4A061C0F1C02F0D8F9894A8A4B01F076FA321C3B1C02F0D0F9874A884B01F06EFA321C3B1C02F0C8F9854A864B01F066FA39
:402F0000321C3B1C02F0C0F9834A844B01F05EFA321C3B1C02F0B8F9814A824B01F056FA009A019B02F0B0F97F4A804B00900191301C391C02F0A8F97D4A7E4B02F0D2FB31
:402F4000321C3B1C02F0A0F97B4A7C4B02F0CAFB321C3B1C02F098F9794A7A4B02F0C2FB321C3B1C02F090F9774A784B02F0BAFB321C3B1C02F088F90B1C5146021C01310E
:402F800000D167E05146CE00824976180098019901F01CFA2A1C231C02F076F9326A736A02F0A0FB2A1C231C02F09CFB0B1C021C3068716802F096FB4346051C0C1C002BD2
:402FC0000EDA8021090664180AE0002800D15FE7281C211C2A1C231C01F0F8F9051C0C1C03B0281C211C0CBC90469A46F0BD584A584B01F0EBF9584A584B00F00BFB002887
:4030000000D154E7ECE700F0CFF8634B041C0D1C9E4230DC614B9E4256DC221C2B1C01F0D5F94D4A4D4B02F05DFB4D4A4D4B061C0F1C201C291C01F0C9F90B1C021C391C52
:40304000301C01F031FD0023051C0C1C9A4631E7534CC5E70098019901F0B8F92A1C231C02F012F9021C0B1C281C211C02F03AFB051C0C1CB4E74B4B9E421ADC3A4A3B4B99
:4030800002F030FB384A394B061C0F1C201C291C02F0FAF8304A314B01F098F90B1C021C391C301C01F000FD0223051C0C1C9A4600E7221C2B1C2E482E4901F0F5FC0C1C3E
:4030C0000321051C8A46F5E6234A244B02F00AFB214A224B061C0F1C201C291C01F076F9021C0B1C301C391C01F0DEFC0C1C0121051C8A46DEE6C04611DA22E33AAD903FAB
:40310000EB0D76244B7BA93F513DD0A0660DB13F6E204CC5CD45B73FFF8300922449C23F0D5555555555D53F2F6C6A2C44B4A2BF9AFDDE522DDEAD3F6D9A74AFF2B0B33FF5
:40314000711623FEC671BC3FC4EB98999999C93F9C7500883CE4377E000000000000F03F0000000000000040000000000000F83F000000000000F0BFFFFFFF7FFFFF0F44CB
:403180000000F07F182D4454FB21F93FFFFFDB3FFFFF1F3E286E0000FFFFF23FFFFFE53FFB21F9BFFF7F034010B5024A0C1C111C214010BDFFFFFF7FF0B557464E4645460F
:4031C000E0B4021C0B1C041C0D1C88468146824649004748490D0E18132E20DC002E49DB444C34411C4242D0101C191C3D4B3C4A01F0ECF83C4A3D4B00F00CFA00284AD06E
:403200004346002B53DB4146A14300240B1C221C101C191C1CBC90469946A246F0BD332E0ADD8021C9008E42F2D1101C191C01F0CDF8021C0B1CEBE72F480F180120404281
:40324000F840071C1042E3D0101C191C254B244A01F0BCF8244A254B00F0DCF900281DD0002D29DB4146BC430B1C221CD0E7002ACED0B9E7101C191C1A4B194A01F0A6F85F
:40328000194A1A4B00F0C6F9002807D0002D07DB00240021E8E741465446E5E7291CE3E7690001D1002C13D000241449DCE780235B0333419844A6E7142E0CD03424A61BD6
:4032C0000124B4404C44A145CCD901218844C9E7291C0024C8E701208044C3E7C046C0469C7500883CE4377E000000000000000001FCFFFFFFFF0F00EDFBFFFF0000F0BF3E
:40330000054A43420343101CDB0F08401843034B181AC00F7047C046FFFFFF7F0000F07F002070470000000070B54B005B0D141C051C0E1C0A1C002B26D1510021D0354B8F
:40334000334A281C311C01F09FFF394B051C0E1C0A1C9C4227DB4B005B0D363B35491B198B4218DD2A1C331C2B482C4900F06CF8294A2A4B01F088FF051C0E1C281C311C36
:4033800070BD0028FAD0DAE72B498B4225D029491B198B42E6DC002B0CDD28491B050A401E1C1643EAE71E4A1E4B01F06DFF051C0E1CE3E7191C353118DA214B9C42D1DCA8
:4033C0002A1C331C1648174900F03EF8144A154B01F05AFF051C0E1CD0E7281C311C2A1C331C00F0F3FF051C0E1CC7E7134936331B050A401E1C1643281C311C0A4A0B4B4C
:4034000001F042FF051C0E1CB8E7C046C046C04600000000000050439C7500883CE4377E59F3F8C21F6EA501000000000000903CB03CFFFFFE070000FF070000FFFF0F80D6
:4034400050C30000C046C046F0B51F1C80231B06024A3B400A40191C1143F0BDFFFFFF7F002934D00123002210B488422CD301242407A14204D2814202D209011B01F8E721
:40348000E400A14204D2814202D249005B00F8E7884201D3401A1A434C08A04202D3001B5C0822438C08A04202D3001B9C082243CC08A04202D3001BDC082243002803D0B8
:4034C0001B0901D00909E3E7101C10BC7047002801D00020C04307B4024802A14018029003BDC046D90000000029F0D003B5FFF7B9FF0EBC4243891A1847C046002941D01F
:4035000010B4041C4C40A44601230022002900D54942002800D5404288422CD301242407A14204D2814202D209011B01F8E7E400A14204D2814202D249005B00F8E78842F4
:4035400001D3401A1A434C08A04202D3001B5C0822438C08A04202D3001B9C082243CC08A04202D3001BDC082243002803D01B0901D00909E3E7101C6446002C00D540424E
:4035800010BC7047002806D003DB0020C043400801E08020000607B4024802A14018029003BDC046190000000029EBD003B5FFF7A7FF0EBC4243891A1847C0467047C046FD
:4035C0008446101C62468C46191C634600E0C0461FB501F0E5FD002801D40021C8421FBD10B501F037FD4042013010BD10B501F0D7FD002801DB002010BD012010BDC04613
:4036000010B501F0CDFD002801DD002010BD012010BDC04610B501F051FD002801DC002010BD012010BDC04610B501F047FD002801DA002010BD012010BDC0468446081C6D
:403640006146FFE71FB500F087FB002801D40021C8421FBD10B500F00FFB4042013010BD10B500F079FB002801DB002010BD012010BDC04610B500F06FFB002801DD0020E1
:4036800010BD012010BDC04610B500F01DFB002801DC002010BD012010BDC04610B500F013FB002801DA002010BD012010BDC04610B50A49041CFFF7F1FF002803D1201C99
:4036C00000F060FE10BD0549201C00F09DFC00F059FE80210B06C018F4E7C0460000004FF8B542004C004702120EC50F240E4802C90FBF098009131B8D4247D0002B00DC63
:4037000090E0002C08D100285DD0013B002B00D0B0E03E1A141C0AE0FF2A62D08024E60430431B2B00DC8CE00126BE1B141C720100D472E0A3490E40301C02F0EFFC331C21
:4037400005388340844265DC041B01342022161B1F1CB3401E1CE740731E9E413E43012300240F273740042F01D00436631C72013CD4F6081A1C231C002E3FD19248DBB2AE
:403780003040DB05ED0718432843F8BD002B62DD002C1CD0FF2A24D08026F10408431B2B00DC80E00126F619141C730135D50134FF2C00D19DE08548631C30400126064088
:4037C00041080E43CDE7531C3E1C141CC9E70028F9D0013B002B02D1C619141CE5E7FF2ADDD180233E1C5B00FF24BAE7FF2B26D0764A1640F6085A1C002EBFD0D4B2012CBF
:40380000BCDC002B0BD08020C00330436E4EDBB23040B6E76D4E241A1E40631CA1E76A483040AEE7002B29D1531CDCB2012C55DD3E1A730130D5C61B141C0D1C7CE700209A
:403840009FE72024E61A011CB040061CD940731E9E410E4369E7002B4FD1541CE1B2012933DDFF2C45D0C31901261E405A081643631C76E7FF2A00D053E7B2E75B42002AD2
:403880001BD0FF2C4DD08022D5042F431B2B54DD0126861B0D1C4AE7002E14D1002501230426002463E72026F11A041C8840061CDC40731E9E41264375E7002F37D1631CF9
:4038C000061C0D1C4DE7141C36E7002A65D1002F00D09AE0061C0123002442E7002A14D1002F3ED10028D9D0061C0D1C0123002437E780214B00042639E75B42002A26D1CD
:40390000002F72D1631C061C2BE7002F33D1002807D1802700257B002D4EFF2427E7FF2CB4D1061C80200D1C4300FF2419E7013B002BF4D1C61B0D1CF9E620263D1CDD406A
:40394000F31A3E1C9E40731E9E412E43A1E7FF2C42D08021CA0417431B2B4BDD0126361823E700283DD03E1A720158D5C61B0D1C01230024F5E6002800D132E78022FF0891
:40398000D3031F4204D0C008184201D1071C0D1C8020FE004300FF24E3E6002F1CD0002800D11EE78024FF08E3031F4207D0C6081E4204D18027F6007B00FF24D1E63E1CBE
:4039C000F8E7C046FFFFFF03FFFF7F00FFFFFFFBFCFFFF03FF2CBFD18021061C4B00FF24BFE63E1C01230024BBE6013B002BF1D1C619DAE620263A1CDA40F31A3E1C9E40D9
:403A0000731E9E4116433618CFE60028E9D0C619720107D50548022306400124A1E6002E00D13BE7012300249BE6C046FFFFFFFBF8B55F4656464D464446F0B44400450225
:403A4000240EC00F0F1C6D0A8046002C56D1002D00D09DE078007E0204230122000E9A469146760AFF0F002859D0FF2800D17AE0802213041E43F6007F38002253464146CF
:403A8000134379400F2B53D9241A6D017601A346B54200D3B9E001204742BB441B240022631E1F1C01206B0007405200B34200D2BAE09B1B0243013C002C00DCAFE0002FD8
:403AC0000CD01D1C5B005200B34201D2002D01DA9B1B0243013C002C00DCA0E05F005200B74200D398E0002B00DA95E07B00013C5200B342ECD2002FECDAE9E7FF2C1FD069
:403B000080210B0400221D43ED007F3C9246914678007E02000E760AFF0F0028A5D1002E2CD1012253464146134379400F2BABD89B009A464D4B9C46534663441B689F46F3
:403B4000002D16D10822022392469946E0E7FF230020DB05CE07184330433CBC90469946A246AB46F8BD002E01D1022286E7032284E70C22032392469946C9E7301C02F04A
:403B8000CDFA7623421F59429640081A002275E7281C02F0C3FA76240023411F66428D40341A9A469946B3E700230020D1E7304800212F4DFF232840CBE7351C391C022AE9
:403BC000C5D0032A4ED0012AEED05B467F33002B2EDD0F262E40042E00D004352A0102D5244A01331540FE2BB1DCAC01600ADBB2AFE78021C80305420BD0064209D1304389
:403C0000391CD6E741464A46D9E7AD1B1A24012246E728434146CCE7BF1B024366E71D1C6B1E9D411543D0E7002D00DB43E740E70127FB1A1B2BB7DC2E1C2022DE40D31A7F
:403C40009D406B1E9D4135430F202840042800D004356B0102D5012300207AE7AC01600A002376E78027F8032843A2E7686E0000FFFF7F00FFFFFFF7F0B5430245004A02E5
:403C80005B0A2E0E550A1A1C4C00571EBA41C00F240EC90F002A01D0FF2E03D0002D03D1AB4205D00120F0BDFF2CFBD0AB42F9D1A642F7D1884204D0301C431E98411043D9
:403CC000F1E70020EFE7C046F0B5474680B4430245004E024A005B0A2C0EC00F750A120EC90F002B18D1002D1DD15F425F41664266413740BC466F426F41564256413E403B
:403D000002D06746002F11D16746002F10D0002914D10121484203E0FF2CE4D10220404204BC9046F0BDFF2ADFD1F7E70020F7E7002E01D1884203D00028EAD10120EFE7A7
:403D40009442F9DC944203DBAB42F5D8AB42EDD20028DED00120E3E7F0B5474680B4430246004A024C005B0A350EC00F520A240EC90F002B01D0FF2D14D0002A10D15F429F
:403D80005F416E426E413740BC4657425741664266413E400AD06746002F07D0002002E0FF2CECD1022004BC9046F0BD6746002F04D0002908D101204042F4E7002E01D181
:403DC000884203D00028F6D10120ECE7A542F9DCA54203DB9342F5D89342DFD20028EAD00120E0E7F8B55F4656464D464446F0B4450044022D0EC00F0F1C640A8046002D00
:403E000042D1002C74D178007E0204230122000E9A469146760AFF0F002846D0FF285CD0802213041E43F6007F38002253464146134379400F2B41D94019A2B2B5B283468F
:403E4000101C6843360C230C72435D43040C17195E437B199D4200D9A2E084B21F043D19AC01601E84411B0CA80EF21804439601231C33431A0100D4A5E0012401221C40C5
:403E80005E089344344351E0FF2D1FD080210B0400221C43E4007F3D9246914678007E02000E760AFF0F0028B8D1002E2CD1012253464146134379400F2BBDD89B009A4676
:403EC0004E4B9C46534663441B689F46002C0AD10822022392469946E0E7002E01D10222A4E70322A2E70C22032392469946D5E7201C02F013F976250023411F6E428C40D3
:403F0000351A9A469946C9E7301C02F007F97623421F59429640081A002287E70F1C4A46022A14D0032A33D0012A44D05B467F33002B3BDD0F202040042800D004342201B2
:403F400002D52F4D01332C40FE2B37DD0F1CFF230020DB05F907184308433CBC90469946A246AB46F8BD341C391CD9E70F1C341CD6E78021CB031C4216D01E4214D1341CFE
:403F8000391C05E0474641464A46C9E71D4C00218026F00320431B4C0F1C2040FF23D8E780277D02761958E74146F1E70126F31A1B2B0ADD0F1C00230020CAE7A701780A1D
:403FC000DBB20F1CC5E71C1CB0E72020C51A221CAC40DA40631E9C4114430F232340042B00D00434630103D50F1C01230020B0E7A701780A00230F1CABE7C046A86E000042
:40400000FFFFFFF7FFFF7F00F8B543029F09BC464F02BF0942004C00C50F78427841120E240EC90F002801D1FF2C01D001267140131B8D424BD0002B00DC95E0002C09D1F3
:40404000002861D1013B002B00D0B6E06346DE1B141C0BE0FF2A66D08024E60437431B2B00DC91E001266046861B141C700100D475E0A1480640301C02F050F8331C0538E9
:404080008340844268DC041B013420273E1B1A1CB3401E1CE240731E9E411643012300240F223240042A01D00436631C01273D4071013DD4F6081A1C231C002E40D18F489D
:4040C000DBB23040DB05ED0718432843F8BD002B64DD002C1CD0FF2A25D08024E1040F431B2B00DC84E001266644141C720136D50134FF2C00D1A4E0814830400126430892
:4041000006401E43631CCBE7531C6646141CC7E70028F9D1013B002B03D160463E18141CE4E7FF2ADCD1802366465B00FF24B7E7FF2B27D0724C5A1C2640F608002EBED0D4
:40414000D1B20129BBDC002B0BD08020C00330436A4EDBB23040B5E7694E241A1E40631C9EE766483040ADE7002B2AD1561CF4B2012C5ADD6046C61B730132D53E1A141C99
:404180000D1C78E700209DE72026F01A391C87403E1CD940731E9E410E4364E7002B54D1541CE6B2012E36DDFF2C4AD0674401263E4079080E43631C72E7FF2A00D04EE7E1
:4041C000B1E75B42002A1DD0FF2C54D080266046F504284384461B2B5ADD0126BE1B0D1C44E7002E15D100250123042600245FE72021CE1A381CB7403E1CD840731E9E4192
:40420000064371E76246002A3BD1631C3E1C0D1C46E7141C2FE76146002A75D1002900D09DE03E1C012300243AE7002A16D16246002A43D10028D6D13E1C0D1C01230024A9
:404240002EE780225300042632E75B42002A29D16146002972D1631C3E1C21E76246002A37D1002807D0802700257B00254EFF241EE7FF2CAFD10D1C80213E1C4B00FF2444
:404280000EE7013B002BF4D16346FE1A0D1CEDE662462020DA406646C31A9E40731E9E4116439BE7FF2C40D080216046CE04304384461B2B48DD0126F61917E7002839D10A
:4042C0006346DE1B700155D5FE1A0D1C01230024E6E6002800D026E76346DE088023DB031E4204D0FF081F4201D13E1C0D1C8021F6004B00FF24D3E6FFFFFF03FFFF7F00EB
:40430000FFFFFFFBFCFFFF0300290ED0002800D009E78024CA08E3031A4202D0FE081E42E5D0161CE3E7FF2CC3D180203E1C4300FF24B5E6664601230024B1E6013B002B4C
:40434000F1D16246BE18D1E662462020DA406646C31A9E40731E9E411643F619C6E60028E8D16246BE18730107D5054F02233E40012495E6002E00D135E7012300248FE63B
:40438000FFFFFFFB10B5430041021B0E4C0AC20F7E2B11DD9D2B0CDC802001042143952B0CDC9624E01AC140081C002A03D0404201E0054C101910BD0020FCE71C1C963CE5
:4043C000A140081CF1E7C046FFFFFF7FF8B557464646C0B4041C0803CD0FDF0F4E00400A610F0843B846111C1F03AC467A0A5D004B0F1A43760D6D0D9246E400C900721BE6
:40440000C44500D196E0002A00DCFFE0002D0DD15346002B02D1002900D1C3E0013A002A00D044E15546611A431B1FE0B34B9E4200D1C3E0802357461D042F43BA46382AB4
:4044400000DD0BE11F2A00DD48E12025AB1A57460D1C9F409940D5403D430F1C791E8F415346291C3943D340611AC31A8C42A4411B19351C0C1C66461F0200D4C4E0A04F1C
:404480001F40002F00D1E4E0381C01F047FE021C083A1F2A00DDD7E02023211C981A9740C1400F439440954200DDAAE0521B01321F2A00DD00E12023991A201C3D1CD04062
:4044C0008D408C400543631E9C413B1C2C43D340002501220F212140042905D0211DA142A4411B1B6A1C0C1C1F0200D56CE08349101C5F07E40808402A1C3C43DB0801283A
:4045000000DC70E07F4D0A402B407F4F002000210F407A497D4D3B430A40201C1D4014057B4B25431D40F607291C31430CBC90469A46F8BD002A00DC9FE0002D2DD06F4B8C
:404540009E423BD0802357461D042F43BA46382A00DC0EE15246002A02D1002900D15EE10023012109191D18A14280412B1A0C1C351C1F020ED5614A0135954200D148E1CE
:40458000644E01272740334060083C1CD90704430C435B086A1C66469CE75346002B06D1002904D1721C351C031C664692E7013A002A00D1F8E0514B9E42C8D18027031C54
:4045C00066463A014D4D85E74C498A4239D051484A490340501C5F07E40808403C43DB08012800DD8EE7002C01D1002B07D0002A3FD080274349380303430B403F490A4008
:4046000083E7444BAD1A3B406A1C63E7002A00D082E03A4D771C2F40012F00DCE0E05246631A851A9C429241AF183D0200D498E00C1B5246131AA1428041351C1F18464663
:404640001FE70023002460E7271C28388740002429E7201C01F062FD203018E75246002A04D1002902D100230021FDE600230121FAE6244A1340002247E7002A00D0E2E081
:40468000751C1E4B2F1C1F40012F00DC99E09D4200D1BEE00A195646A242A44133181B1BDF0754083C435B086A1C664612E7134B9E4200D0C3E681E7202A00D17DE0402034
:4046C000811A3D1C8D402B1C1C43203A631E9C41D7403C43012200230025FBE6202A6ED04027BB1A55469D402B1C1943203A57464B1E9941D74039430023B5E6FF07000049
:40470000FFFF7F00FFFF0F000000F0FFFFFF0F80FFFFFF7FFFFF7FFF5242002E3BD0BC4B9D4200D1B1E0802637043843382A00DDBDE01F2A00DD4EE12026B31A071C261C61
:404740009F409C40D640631E9C413E43031C3443D34052460C1BD01AA1429241831846468AE6002F01D1002B4DD0351C1C1C664687E61F2A56DC2025AB1A57460D1C9F40D5
:404780009940D5403D430F1C791E8F415346291C3943D340E6E600287ED1002C7CD16A1C53460C1C464695E60A1955462F18A242A4413B1B351C141CDBE6002384E700236B
:4047C00093E7002E00D0D1E0002800D02BE1002C00D028E153460C1C66460122002579E6002E3ED1002800D088E0002C00D085E05346002B01D1002905D053460C1C464694
:404800000122002566E60026012200230421002569E68022664612010023042163E6002300219FE6202A00D1D3E04027BB1A55469D402B1C1943203A57464B1E9941D740AE
:40484000394300238EE65242002E38D1002800D0D3E0002C00D0D0E06A1C53460C1C664638E6002861D1002C5FD15246002A0CD100290AD18020042400260201654B614255
:4048800031E6634B9D4200D050E7802253460C1C464612015E4D1DE6013A002AF1D156460C1B331AA14289415B184646E4E5002802D1002C00D19DE00023012449E7544B65
:4048C0009D427AD0802637043843382A00DDA3E01F2A00DDCAE02026B31A071C261C9F409C40D640631E9C413E43031C3443D340641853448C4292419B1A3AE65546002D7F
:4049000001D1002960D0621A5646871B94429B41FB181F0200D49CE00C1B321AA14289415318464601220025D4E55346002B02D1002900D142E680264507E408C0083303AF
:404940002C43184200D182E05546EA081A4200D07DE0CF086C07101C3C434646C200630F80211343E4000A01294DB3E5002801D1002C22D05746002F02D1002900D11DE6C8
:4049800080264207E408C00833031443184200D17DE05546EA081A4279D1C9086C07131C0C434646600F8025DB002A010343E400174D8FE5164B9D4287D180252A015346A1
:4049C0000C1C6646124D85E5031C66460122002580E500232EE7202A57D04026B31A071C9F403B1C1C43203A631E9C41D04004430023AEE600230024ABE6013A002AD9D161
:404A000056460C1933188C42B6419B1BB1E5C046FF070000FFFF7F00002801D1002C22D00023012464E75246002A01D10029CBD0091955462B18A142A4411B1B1E0229D5B1
:404A400018480C1C034066460222012542E5664684E7002B02D1002A00D1D4E6141C66460122002536E50023002441E7202A16D04026B31A071C9F403B1C1C43203A631EE0
:404A80009C41D0400443002332E70023AAE7031C664687E70C1C6646012200251AE50023EBE7C046FFFF7FFFF0B55F4656464D464446F0B41F1C4B00161C0C035B0DCA0F58
:404AC00087B0051C240B98469146002B1CD1002C00D0FBE0002800D174E101F01FFB2030031C0B3B1C2B00DD44E21D210838CA1A291C8440D1400C438540B748C21A9046F2
:404B00000022934601920EE0B44880453AD0802043031C43B2496A0F0020E4001443ED00884483460190391C4B003F03CA0F5B0D301C3F0B9246002B2ED1002F00D0C9E0A4
:404B4000002E00D144E101F0E9FA2030031C0B3B1C2B00DD08E21D210838CA1A311C8740D1400F4386409C484946C31A5046484000220290584610430F2823D89949800034
:404B800041588F46002C02D1002D00D114E10C239B4603230193C6E7904A934200D18CE08020420317438E48710FFF000F43F6001B180022504649464840029058461043D1
:404BC0000F28DBD94046C11A0591BC4200D8E2E061086B08E4072343ED078A4601930395350E3F022F43B8B235023E0C8146311C5046FEF735FC49464143041C88465046D6
:404C0000311CFEF771FC019A0904130C1943884507D9C919013C8F4203D8884501D9013CC9194346CB1A181C311C9B46FEF718FC4946414380468A465846311CFEF754FCB2
:404C400068460B04011D0A8813439A4506D901225242DB1990449F4200D8A7E14146240450460C43A1B2AAB21B1A280C904682464A434843019283465246200C4146414366
:404C80005043019A120C94468C44DC44614502D980214A0280186246110C120494464018019A51490A4062440192834200D2AFE0834200D1A8E0039AC2E0002F01D003226B
:404CC00078E7002EFBD1371C022273E7201C01F025FA05E7381C01F021FA37E7029B3F4A00240026414F002000210F40301C404E27433E4012053F4C16432640311CDB07F2
:404D000007B019433CBC90469946A246AB46F0BD029B002200240026E4E751463C1C0291022ADBD0032A00D18BE1012AF0D0059A31481318002B00DC3EE10F273740042F62
:404D400004D0351DB542B641A41B2E1CE20102D52A4901330C402A4A934200DC10E1029B013200240026BDE780231B031C421FD01F421DD13C1C1C43534608E04A460292DC
:404D80002E1C019ACCE701251E4C00236E421D49124A0C40A6E7B54202D9BC4200D117E705980022013805900195A246039217E71C432E1C4B46EAE708218B4602212C1CB0
:404DC0000191B0E604218B460121041C0191AAE6371C0122EEE6C04602FCFFFFFF07000001FCFFFFE86E0000FFFF00000000F0FFFFFF0F80FFFFFF7FFF030000FFFFFFFE9B
:404E0000FE070000FFFF0F000399914200D352E70399013C4A19AA428941791A8B465B449F4203D3BB420BD1954209D8984200D8AFE05219AA428941791A8C46013C6344FD
:404E40000199181A511A8A429B41C01883460191BB4500D1D5E0311CFEF702FB4A4642430390311C58460492FEF73EFB01980A04030C0499134399420AD9039ADB19013AD1
:404E800003929F4204D8994202D9013A0392DB190498311C1B1A181C0493FEF7E1FA49464143834689460498311CFEF71DFB6A46131D1E8809043143894509D9012672423A
:404EC000C91993448F4203D8894501D99344C91903985A4606044B461643B2B25046C91A43465343504301938346330C5046584342465A43814601989046020C9246C2441A
:404F00005A465244904502D9802358028144130C1204904601984D4A9C464B4610406344804499420BD34246501E8241994204D0994269D001210E43F9E6002AF8D0C91905
:404F4000013E8F422DD88B4203D88B4229D1454527D26A00AA42AD4140467F1B821A013EC919501E8241E3E7071C283FBE40371C0026F8E5041C283CA5402C1C0025BCE5B9
:404F80006207F6081643324A64021A40240B029BA8E6984200D053E70199914200D84FE747E740462A1A501E8241C1E79A4500D854E69044DB1951E60120C31A382B00DD3D
:404FC000A6E61F2B24DC2022D11A201C351C88408E40DD400543371C781E87412E1C3E43DC400F233340042B04D0301DB042B641A41B061C21021AD5029B012200240026B3
:4050000070E60120464292E6002A00D18FE691E7202B14D04021CD1A271CAF403D1C2E43203BDC40721E964126430024D9E76207F60864021643240B029B002252E6002502
:40504000EDE780252F033C43029BA0E6FFFF0000FF070000F0B594461A030D034C00061C170BC80FDA0F5900134B640D2D0B490D9C4213D0104B994215D08C4201D0012091
:40508000F0BDBD42FBD16645F9D1904211D0002CF5D13543281C431E9841F1E7002DEED1002EECD1E6E7002FE9D16346002BE6D1E3E70020E4E7C046FF070000F0B5574675
:4050C0004E464546E0B491461A030D034C00061CC80F110B8C46DA0F5900304B640D2D0B490D9C4248D02D4B99424CD0002C17D000239A46002905D16746002F02D14B4650
:40510000002B13D00027B8465346002B13D0002A18D1012670421CBC90469946A246F0BD2F1C37437B427B419A46E3E75746002F30D00020EFE74746002F01D1904203D0AA
:405140000028E6D10120E6E78C42F9DC8C420FDB6545F5D86246AB1A5A425341002B01D04E45EDD8654503D3002BE2D0B145E0D90028CED00120CEE7002D01D1002EB2D048
:4051800002204042C7E76346002BF9D14F46002FF6D1ABE701239846B6E7C046FF070000F0B557464E464546E0B494461A030D034C00CF0F061C5900100BDA0F314B640DA5
:4051C0002D0BB946490D9C422CD02E4B994211D0002C17D00027BA46002901D100282AD00027B8465346002B12D0002A18D10120404202E000281AD002201CBC9046994698
:40520000A246F0BD2B1C33435F425F41BA46E3E74746002F17D191451AD04F46002FE6D10120EAE7002DE7D1002EE5D1CDE76346002BE1D1CCE76346002BD1D15746002F48
:405240001DD00020D9E74B46002BD0D10120D4E78C42F8DC8C420EDB8542F4D82B1A5A425341002B01D06645EDD8854203D3002BE7D0B445E5D94F46002FB8D0D0E70123FE
:405280009846AFE7FF070000F0B55F4656464D464446F0B41F1C4B00161C0C035B0DCA0F8BB0051C240B98469146002B1CD1002C00D02EE1002800D19EE100F02FFF20307C
:4052C000031C0B3B1C2B00DDC1E11D210838CA1A291C8440D1400C438540CA48C21A90460022934603920EE0C74880453DD0802043031C43C5496A0F0020E4001443ED00BC
:40530000884483460390391C4A003F03CB0F520D301C3F0B9A46002A31D1002F00D0FCE0002E00D18AE100F0F9FE2030031C0B3B1C2B00DD85E11D210838CA1A311C8740A8
:40534000D1400F438640AF480021C21A484653464340584608430F2826D880008346AC4884465846604400688746002C02D1002D00D15DE10C239B4603230393C3E7A24B2C
:405380009A4200D1BCE0802043031F439F48710FFF000F43F60012180021484653464340584608430F28D8D942440492AAB29446B0B26146360C714342438946290C934635
:4053C0000A1C42430D1C754390465A46AA46150C4D4445440195A84500D9FEE0019D2A0490465A4695B24544BAB20595654655433F0CA94665467D43AC460D1C55437943D7
:40540000AB464D468846290C614459448B4502D980256D02A8440D0CAC464D46ADB20904C444A8468844A1B20D1C4543A9460D1C7543240C03954D462D0C6043AB46039D90
:405440006643AB448344584502D98025680236185D46280C361828044D46ADB2A9460D1C554362437C437943A3462C0C0F19B9184844A9468A4202D980277A029344019F0F
:405480000D043A0C424452444245A441A8464D46AFB2B84445461218644265446545BF41824280412D194042A542A44182467F42701964423C43B042B6410D0C5044611921
:4054C0005045A441764267423743CC194502D10D29435502059A5C446402C60D15436A1E954134430D43E70123D5049A012668083540E1070132054304920D43640818E05E
:40550000002F01D0032148E7002EFBD1371C022143E7201C00F002FED2E6381C00F0FEFD04E703991A1C02291BD003294DD001295ED00499374FCA19002A54DD0F202840EF
:40554000042804D02E1DAE42AD41641B351CE00102D5314901320C4030498A4200DC7CE01A1C294E002400252D4F002000210F40281C2C4D27433D4034052B4B25431D40EA
:40558000D607291C0BB031433CBC90469946A246AB46F0BD52463C1C351C5346C3E71A1C3C1C351CBFE780231B031C4219D01F4217D13C1C351C534607E04A464B46039927
:4055C000B1E70125194C6D42002380221003174904430C401A1C0C4EC6E780225502AA44FCE64B46F1E70120821A382A3EDD1A1C002600240025B7E704218B460121041CEA
:40560000039180E602FCFFFFFF07000001FCFFFF286F0000FF030000FFFFFFFEFE0700000000F0FFFFFF0F80FFFFFF7FFFFF0F0008218B4602212C1C039164E6371C01211D
:40564000ABE6071C283FBE40371C00267BE6041C283CA5402C1C00253FE6214E6707ED08640216403D43240B1A1C7DE71F2A1DDC2026B11A201C2F1C88408D40D7402E1C95
:405680000743751EAE413D1C3543D4400F222A40042A04D02E1DAE42AD41641B351C220213D51A1C0126002400255DE7202A14D04020811A271C8F403E1C3543203AD44032
:4056C000691E8D4125430024E0E76707ED0864023D43240B1A1C002646E70026EDE7C046FF070000F8B557464646C0B4041C0F03CD0F4E00780A610F0843171CAC4680462D
:405700005D001803D90FBE4B400A520FFF006D0D760DE4001043BA469D4200D1F6E001235940721B8C4500D19CE0002A00DC10E1002D14D1002803D15146002900D1F1E0CD
:40574000013A002A00D069E15346E21A45462B1A9442AD415B19141C351C664624E0A84B9E4200D1EAE080210F043843382A00DD1CE11F2A00DD67E120218F1A5346011CF5
:40578000D340B94019435346BB401D1C6B1E9D41031C2943D340611A42468C42A441D01A0319351C0C1C6646190200D4CFE0954F1F40002F00D1EBE0381C00F0AFFC021C15
:4057C000083A1F2A00DDECE02020211C831A9740D9400F439440954200DDB5E0521B01321F2A00DD1FE12023991A201C3D1CD0408D408C400543631E9C413B1C2C43D34083
:40580000002501220F21214004295FD0211DA142BF410124DB1B6A1C26400C1C190259D47749101C5F07E40808402A1C3C43DB0801285DDD74480A400340744D00200021BF
:405840000D406F49201C0A401405714A2B431A40704B22431A40F607111C31430CBC90469A46F8BD002A00DCAFE0002D55D0644B9E4263D0802739040843382A00DC22E19D
:40588000002803D15146002900D177E1002301210819A042924143449B1A041C351C1E020ED5574A0135954200D161E15A49012626400B406708341CD8073C4304435B0835
:4058C0000F2121406A1C664604299FD1012006401902A5D54A498A4257D04F4D48492B40501C5F07E40808403C43DB080128A1DC002C01D1002B07D0002A62D08027424992
:405900003D032B430B403E490A4096E7002800D007E7002F00D004E701E7002807D15146002904D1721C351C434666466AE7013A002A00D1E4E0324B9E429ED18027434678
:4059400066463A012E4D5DE7334BAD1A3B406A1C58E7002A00D087E0294D771C2F40012F00DCEBE05246A31A45462F1A9C429241BF183A0200D49EE053461C1B401BA245FB
:405980009B41351CC7180E1C13E70023002454E7201C00F0C3FB2030021C083A1F2A00DC12E7271C28388740002414E7002805D15546002D02D100230021ECE60023012100
:4059C000E9E6114A1340002237E7002A00D0E9E0751C0B4B2F1C1F40012F00DC9EE09D4200D1C5E051460E194246A642A44181180B1BDF0774083C435B086A1C664601E787
:405A0000FF070000FFFF7F00FFFF0F000000F0FFFFFF0F80FFFFFF7FFFFF7FFFC34B9E4200D0A3E68AE7202A74D04020811A3D1C8D402B1C1C43203A631E9C41D7403C4307
:405A4000012200230025DDE6202A65D040239F1A051CBD40291C53461943203A4B1E9941D0400143002396E65242002E3DD0AF4B9D4200D1B8E0802346461F043E43B0469B
:405A8000382A00DDC3E01F2A00DD65E12026B31A4746261C9F409C40D640631E9C413E4343463443D3405246141BC21AA245804113180E1C78E6002F01D1002B52D0351C56
:405AC0001C1C664675E61F2A5BDC20218F1A051C5146BD40D14029435546BD402B1C5D1EAB411943031CD340D2E64346002B00D081E0002C7FD16A1C031C54460E1C81E60E
:405B000053461A1945464719A242A4413B1B351C141CC4E600238DE700219CE7002E00D0DDE04346002B00D03BE1002C00D038E1031C544666460122002563E64346002E0C
:405B40003FD1002B00D08FE0002C00D08CE0002802D15546002D05D0031C54460E1C012200254FE60026012200230421002554E6802066460201002304214EE6002300214C
:405B800086E6202A00D1E5E04025AF1A031CBB40191C55462943203A4B1E9941D0400143002375E65242002E3AD14346002B00D0E5E0002C00D0E2E06A1C031C54466646E7
:405BC00020E6002B69D1002C67D100280CD15646002E09D1802404212201554B49421CE6524B9D4200D04BE78022031C54460E1C12014E4D06E6013A002AF1D15646341B65
:405C00004246861AA245BF41F3190E1CCCE54646002E02D1002C00D1AEE00023012442E7424B9D4200D189E080264146370439438846382A00DDACE01F2A00DDD2E02023A7
:405C40009F1A211C4646BC40BE40D140231C31435C1EA3410C1C1C434346D34054441B18544580411B1A1AE6002802D15646002E6BD05346E21A45462F1A94429B41FB18DB
:405C80001E0200D4A4E05246141B421BA245804113180E1C01220025B4E5002803D15246002A00D14AE645466E07EA088025E4082B0334431A4200D188E0C5081D4200D0F2
:405CC00084E05646F40847072A1C3C430E1CD100630F80200B43E4000201144D92E54646002E01D1002C29D0002803D15246002A00D123E645466B07E40880271C43EA0851
:405D00003B031A4200D182E0C5081D4200D07EE05646F40840072B1C04430E1C620FDB0080211343E4000A01004D6BE5FF070000FFFF7F00384B9D4200D07AE780252A01F0
:405D4000031C54466646344D5CE5434666460122002557E500211CE7202A56D04027BB1A46469E40331C1C43631E9C41203A4346D3401C43002396E60023002493E6013A0E
:405D8000002AD7D14646544481195445B6418B1B85E54246002A01D1002C33D0002301245CE7002802D15546002DCED05646321941464618A242A441331B1D020DD51748D1
:405DC000141C03406646022201251BE566467EE7002B02D1002A00D1C4E6141C6646012200250FE5202A15D04027B91A46468E40331C1C43203A4146631E9C41D1400C435E
:405E000000232BE70023002428E70023ABE7131C664683E70023ECE7FF070000FFFF7FFF70B54B00124A051C5B0D0803040BC90F934214DD0F4A93420EDC0F4E80204203FE
:405E4000F61A22431F2E0CDD0C48C61AF240101C002903D0404201E0094C081970BD0020FCE7084C281C1D19F040AA401043EFE7FE0300001D04000033040000130400005F
:405E8000FFFFFF7FEDFBFFFF70B5041C00282FD0C50F002D00D04442201C00F03FF9164B164E181A361A1F2E17DD154B154E191A154A8C40344002400026144B0020002134
:405EC0000B402343124C301C1C401605114A34431440ED07211C294370BD221C0E4BB240161CC118074ACC401440074A0240E4E7002500220026E0E71E04000033040000B0
:405F000013040000FFFF0F00FF0700000000F0FFFFFF0F80FFFFFF7FEDFBFFFF70B54100090E4202C50F481CC3B2540A012B16DD6607E024A300120BCC181D4B00200021B0
:405F40000B401C491A431C4B0C40301C134026051A4A33431340ED07191C294370BD002916D1002C1BD0201C00F0D8F80A2819DC0B23061C1A1A211C1536D140B4400A1C27
:405F8000261C0F4C0F49241A0A480A400440D4E7002C03D06607120B064CCEE7054C00220026CAE7061C0B3EB440221C0026E8E70000F0FFFF070000FFFF0F80FFFFFF7FA9
:405FC00089030000FFFF0F0070B54B000A03460F5B0DCD0F520A4A49041C3243C600581C014001293FDD47481918FE2912DD802043000422FF21500121D4D208181C0B1C33
:40600000002A24D14048DBB21040DB05ED071843284370BD00293FDDA401601E8441700F261C0643D000394A9B18321C02430F2010400428DFD004324B1C5001DDD5FF2B21
:4060400031D0334C581C2240D208002ADAD0C1B20129D7DC002B10D08026F00310432A4ADBB21040D1E7002B0AD1002A17D1002E15D1012304220021BDE723481040C4E72B
:40608000002A01D1002EB2D08026B3048021D2001A434B00FF21CAE70C1C173405DA012305220021A7E70020AFE78020000410431E22541A1F2C0FDC164A9918321CE2408D
:4060C0008E40141C331C021C8A40591E8B411A43224301230021AAE7202C0ED00E4A9C18021CA24032430224531E9A4163425E1AF04002430123002199E70022F2E7C0461B
:40610000FF07000080FCFFFFFFFF7F0081FCFFFFFFFFFFFB82FCFFFFA2FCFFFF1C2101231B04984201D3000C10391B0A984201D3000A08391B09984201D30009043902A27A
:40614000105C40187047C04604030202010101010000000000000000014B18687047C04650010020F0B585B0032A09D8002A05D00023CC5CC45401339342FAD105B0F0BD15
:406180008218031C032403E00D7801311D70013303252342F8D10D403DD1D41A22E00D68403C1D604D685D608D689D60CD68DD600D691D614D695D618D699D61CD69DD61EF
:4061C0000D6A1D624D6A5D628D6A9D62CD6ADD620D6B1D634D6B5D638D6B9D63CD6B4031DD6340333F2CDADCD41A0AE00D68103C1D604D685D608D689D60CD681031DD60B5
:4062000010330F2CF2DCD41A02E020C9043C20C3032CFADC23E0EF006C42029704270E597D1BED000095B446D51A0C190FE0266867460196029E0431F7400397009E019F99
:40624000043DB740039E3E43019F40C3BC460434032DECDC03E00C7801311C7001339342F9D38BE730B5C9B2032A08D8002A05D0031C1218197001339342FBD130BD8418E7
:40628000031C032201E0197001331342FBD10A02521815045219E51A11E01A605A609A60DA601A615A619A61DA611A625A629A62DA621A635A639A63DA63403D40333F2DDD
:4062C000EBDCE51A05E01A605A609A60DA60103D10330F2DF7DCE51A01E004C3043D032DFBDC01E0197001339C42FBD8C6E7C04608B500F01DF80A4B002B01D1002000E0E7
:406300001868084B002B01D1002100E019680022F9F7DAFF044B002B01D000E000BFFEE7000000000000000000000000FEE7000070B50D4D0D4E761BB610002E05D0002414
:4063400008CD01349847A642FAD800F00FFE084D084E761BB610002E05D0002408CD01349847A642FAD870BD786F0000786F0000786F0000806F00005820726F74617469D5
:406380006F6E005920726F746174696F6E005A20726F746174696F6E00582070657273706563746976650059207065727370656374697665005A207065727370656374699F
:4063C00076650058207363616C650059207363616C650000081010000000000000000000000000000810100000000000000000000000000000000000000000000000000071
:40640000000000000000183C3C3C181818001818000000000063636322000000000000000000000000000036367F3636367F3636000000000C0C3E6361603E030343633EB3
:406440000C0C000000000000006163060C183363000000000000001C36361C3B6E66663B000000000030303060000000000000000000000000000C18183030303018180C04
:40648000000000000000180C0C060606060C0C18000000000000000042663CFF3C6642000000000000000000181818FF1818180000000000000000000000000000001818DE
:4064C0001830000000000000000000FF00000000000000000000000000000000000018180000000000000103070E1C3870E0C0800000000000003E6363636B6B6363633E84
:406500000000000000000C1C3C0C0C0C0C0C0C3F0000000000003E6303060C183061637F0000000000003E6303031E030303633E000000000000060E1E3666667F06060FF2
:406540000000000000007F6060607E030363733E0000000000001C3060607E636363633E0000000000007F630306060C0C1818180000000000003E6363633E636363633ED0
:406580000000000000003E636363633F0303063C000000000000000000181800000018180000000000000000001818000000181818300000000000060C18306030180C066E
:4065C000000000000000000000007E00007E0000000000000000006030180C060C1830600000000000003E6363060C0C0C000C0C0000000000003E63636F6B6B6E60603E36
:40660000000000000000081C366363637F6363630000000000007E3333333E333333337E0000000000001E33616060606061331E0000000000007C36333333333333367C16
:406640000000000000007F3331343C343031337F0000000000007F3331343C34303030780000000000001E336160606F6363371D000000000000636363637F6363636363FC
:406680000000000000003C18181818181818183C0000000000000F06060606060666663C000000000000733336363C36363333730000000000007830303030303031337F59
:4066C00000000000000063777F6B6363636363630000000000006363737B7F6F676363630000000000001C36636363636363361C0000000000007E3333333E3030303078CF
:406700000000000000003E6363636363636B6F3E0607000000007E3333333E36363333730000000000003E6363301C060363633E000000000000FFDB991818181818183C6E
:406740000000000000006363636363636363633E00000000000063636363636363361C0800000000000063636363636B6B7F3636000000000000C3C3663C18183C66C3C321
:40678000000000000000C3C3C3663C181818183C0000000000007F6343060C183061637F0000000000003C30303030303030303C00000000000080C0E070381C0E0703019B
:4067C0000000000000003C0C0C0C0C0C0C0C0C3C00000000081C3663000000000000000000000000000000000000000000000000FF00000018180C000000000000000000C9
:406800000000000000000000003C46063E66663B0000000000007030303C36333333336E0000000000000000003E63606060633E0000000000000E06061E36666666663B6C
:406840000000000000000000003E63637E60633E0000000000001C3632307C30303030780000000000000000003B666666663E06663C00000000703030363B3333333373F4
:406880000000000000000C0C001C0C0C0C0C0C1E0000000000000606000E060606060666663C000000007030303333363C3633730000000000001C0C0C0C0C0C0C0C0C1EEC
:4068C0000000000000000000006E7F6B6B6B6B6B0000000000000000006E3333333333330000000000000000003E63636363633E0000000000000000006E333333333E30E1
:406900003078000000000000003B666666663E06060F000000000000006E3B33303030780000000000000000003E63380E03633E0000000000000818187E181818181B0ED5
:406940000000000000000000006666666666663B000000000000000000636336361C1C080000000000000000006363636B6B7F3600000000000000000063361C1C1C3663CC
:4069800000000000000000000063636363633F03063C000000000000007F660C1830637F0000000000000E18181870181818180E000000000000181818181800181818183D
:4069C000180000000000701818180E18181818700000000000003B6E00000000000000000000000000300F40000280320F40800100400F4000040000070038000AD4102855
:406A000001200090040000000490002056900900040E00910439004260B00000002404000490002000B00000023800E87F070800200000280000410023051000000ECD0FE5
:406A40001DFFFFFF02007008040000000900000004040404000000010000C00040011011C0010011400140010000000000000000000000000000000001000F4037300F40E8
:406A800026310F4025320F4043330F4002400F4002410F4008430F4002600F4081110002020D0409060628052A0A2C032E0C300F3A02544058045B045F01804481048208D4
:406AC000850788378B048C088E34910492019408950196E0970699019A809B069C379F03A034A104A203A437A504A808AAD0AC37B03CB201B4C0B507B602BA02BB20BE4460
:406B0000D602D72CD804D904DB04DF0100040102044007440E250F8012021320140115041622172119021C521D801E06252027082D042E0137693C043E12601062406308FA
:406B400065026D046E116F157602C0DCC2F0C4F3CAC0CCF0CEE0D88E84048609880E9405960AAC03AE04B20FB60FB888C032C101C250C7B0C820C901CAFFCBFFCC23CE8097
:406B8000CF08D004D804DA04DF01E2C0E440E501E610E711E8C0E901EB11EC40ED01EE40EF0100140510076109080C010D200E2912021502171418111D101F4124042508BC
:406BC0002612276828202B202C012E212F20360437613BC03C043E104004410843404580472848014E024F045101564057645C205E025F4467028C018D109211940498015C
:406C00009A209B159E409F60A001A1A0A201A612A744AE04C0F6C2F4C471CAF0CCF0CE60D07ED218D6F0D8106202D840AE02EA40570461028D028F04D402D802E002E40854
:406C4000100111017371727400000000FB21F93FFB2109407CD91240FB2119407A6A1F407CD92240BBFD2540FB2129403A462C407A6A2F405C4731407CD932409C6B344021
:406C8000BBFD3540DB8F3740FB2139401BB43A403A463C405AD83D407A6A3F404C7E40405C4741406C1042407CD942408CA243409C6B4440AC344540BBFD4540CBC64640A2
:406CC000DB8F4740EB584840FB21494083F9A200444E6E00FC291500D1572700DD34F50062DBC0003C999500419043006351FE00BBDEAB00B761C5003A6E2400D24D42000B
:406D00004906E00009EA2E001C92D100EB1DFE0029B11C00E83EA700F535820044BB2E009CE98400B4267000417E5F00D6913900538339009CF439008B5F840028F9BD00AD
:406D4000F81F3B00DEFF97000F980500112FEF000A5A8B006D1F6D00CF7E360009CB2700464FB7009E663F002DEA5F00BA277500E5EBC7003D7BF100F739070092528A00CC
:406D8000FB6BEA001FB15F00085D8D00300356007BFC4600F0AB6B0020BCCF0036F49A00E3A91D005E619100081BE60085996500A0145F008D40680080D8FF0027734D009C
:406DC00006063100CA561500C9A873007BE260006B8CC000000000000200000003000000040000000600000000000040FB21F93F000000002D44743E000000809846F83C71
:406E00000000006051CC783B00000080831BF0390000004020257A38000000802282E336000000001DF369354FBB610567ACDD3F182D4454FB21E93F9BF681D20B73EF3F69
:406E4000182D4454FB21F93FE2652F227F2B7A3C075C143326A6813CBDCBF07A8807703C075C143326A6913C883A00004E3B0000A83B0000BA3B0000A83B0000AE3B000057
:406E8000A83B0000BA3B00004E3B00004E3B0000AE3B0000BA3B0000043C0000043C0000043C0000F23B0000383E00006C3F00006C3F0000663F00001C3F00001C3F0000F6
:406EC0008C3F0000663F00001C3F00008C3F00001C3F0000663F0000843F0000843F0000843F0000723F0000C44B0000DC4C0000104D00001A4D0000104D0000864D0000D7
:406F0000104D00001A4D0000DC4C0000DC4C0000864D00001A4D00007C4D00007C4D00007C4D0000684D0000A85300009E5500009E5500009455000022550000225500003B
:406F4000C25500009455000022550000C25500002255000094550000BA550000BA550000BA550000A655000043000000F8B5C046F8BC08BC9E46704761020000DD120000A0
:406F8000F8B5C046F8BC08BC9E4670474D02000000000000A86F0000C8000020B8040000380100000000000000000000C0050020B4050020B8050020BC050020A005002087
:406FC000A405002038010020C8050020C4050020000000000AD7A33B0AD7A33B0AD7A33B0AD7A33C0AD7A33C0AD7A33C0000404000004040CA63000078630000836300002E
:407000008E63000099630000A7630000B5630000C3630000CB630000CDCC4C3E006CDC023000000080BB00000000C05D010000005801002000000000000000004404002016
:40704000AC04002014050020000000000000000000000000000000000000000000000000000000000000000000000000686F00000000000000000000000000000000000030
:4070800000000000000000000000000000000000000000000000000000000000000000000000000000000000000000000000000000000000000000000000000000000000D0
:4070C000000000000000000000000000000000000000000000000000000000000000000001000000000000000E33CDAB34126DE6ECDE05000B000000000000000000000063
:40710000000000000000000000000000000000000000000000000000000000000000000000000000000000000000000000000000000000000000000000000000000000004F
:40714000000000000000000000000000000000000000000000000000000000000000000000000000000000000000000000000000000000000000000000000000000000000F
:4071800000000000000000000000000000000000000000000000000000000000000000000000000000000000000000000000000000000000000000000000000000000000CF
:4071C000000000000000000000000000000000000000000000000000000000000000000000000000000000000000000000000000000000000000000000000000000000008F
:0200000490303A
:020000006E632D
:0200000490501A
:0C000000000204C81193110104ED7FF60A
:0200000490600A
:0100000001FE
:0200000490402A
