:020000040800F2
:1000000000000220DDDF00081D1400081F14000896
:100010002114000823140008251400080000000023
:10002000000000000000000000000000216B00083C
:100030002714000800000000C16B0008EB610008F5
:100040002DE000082DE000082DE000082DE000085C
:100050002DE000082DE000082DE000082DE000084C
:100060002DE000082DE000082DE000082DE000083C
:100070002DE000082DE000082DE000082DE000082C
:100080002DE000082DE000082DE000082DE000081C
:100090002DE000082DE000082DE0000829140008DC
:1000A0002DE000082DE000082DE000082DE00008FC
:1000B0002DE00008351400082DE000082DE00008B0
:1000C0002DE000082DE000082DE000082DE00008DC
:1000D0002DE000082DE000082DE000082DE00008CC
:1000E0002DE000082DE000082DE000082DE00008BC
:1000F0002DE000082DE000082DE000082DE00008AC
:100100002DE000082DE000082DE000082DE000089B
:100110002DE000082DE000082DE00008451400083F
:100120002DE000082DE000082DE000082DE000087B
:100130002DE000082DE000082DE000082DE000086B
:100140002DE000082DE000082DE000082DE000085B
:100150002DE000082DE000082DE0000855140008EF
:100160002DE000082DE000082DE000082DE000083B
:100170002DE000082DE000082DE000080000000040
:080180002DE000082DE000084D
:1001900010B5054C237833B9044B13B10448AFF3C1
:1001A00000800123237010BD4805002000000000DE
:1001B000B49A010808B5034B1BB103490348AFF3D8
:1001C000008008BD000000004C050020B49A010822
:1001D00081F0004102E000BF83F0004330B54FEAF8
:1001E00041044FEA430594EA050F08BF90EA020F65
:1001F0001FBF54EA000C55EA020C7FEA645C7FEAF8
:10020000655C00F0E2804FEA5454D4EB5555B8BF1A
:100210006D420CDD2C4480EA020281EA030382EA8B
:10022000000083EA010180EA020281EA0303362D1D
:1002300088BF30BD11F0004F4FEA01314FF4801CF0
:100240004CEA113102D0404261EB410113F0004F02
:100250004FEA03334CEA133302D0524263EB4303B9
:1002600094EA050F00F0A780A4F10104D5F1200E57
:100270000DDB02FA0EFC22FA05F2801841F10001B2
:1002800003FA0EF2801843FA05F359410EE0A5F186
:1002900020050EF1200E012A03FA0EFC28BF4CF0B7
:1002A000020C43FA05F3C01851EBE37101F000456D
:1002B00007D54FF0000EDCF1000C7EEB00006EEB7A
:1002C0000101B1F5801F1BD3B1F5001F0CD3490804
:1002D0005FEA30004FEA3C0C04F101044FEA44525B
:1002E00012F5800F80F09A80BCF1004F08BF5FEAE2
:1002F000500C50F1000041EB045141EA050130BDC2
:100300005FEA4C0C404141EB0101013C28BFB1F5D3
:10031000801FE9D291F0000F04BF01460020B1FA1E
:1003200081F308BF2033A3F10B03B3F120020CDAF1
:100330000C3208DD02F1140CC2F10C0201FA0CF0CF
:1003400021FA02F10CE002F11402D8BFC2F1200C34
:1003500001FA02F120FA0CFCDCBF41EA0C019040EA
:10036000E41AA2BF01EB0451294330BD6FEA040433
:100370001F3C1CDA0C340EDC04F11404C4F120021E
:1003800020FA04F001FA02F340EA030021FA04F330
:1003900045EA030130BDC4F10C04C4F1200220FA87
:1003A00002F001FA04F340EA0300294630BD21FAC5
:1003B00004F0294630BD94F0000F83F4801306BF8B
:1003C00081F480110134013D4EE77FEA645C18BF7F
:1003D0007FEA655C29D094EA050F08BF90EA020F16
:1003E00005D054EA000C04BF1946104630BD91EA0E
:1003F000030F1EBF0021002030BD5FEA545C05D111
:100400004000494128BF41F0004130BD14F580044F
:100410003CBF01F5801130BD01F0004545F0FE41C3
:1004200041F470014FF0000030BD7FEA645C1ABFF8
:10043000194610467FEA655C1CBF0B46024650EA2F
:10044000013406BF52EA033591EA030F41F400215B
:1004500030BD00BF90F0000F04BF0021704730B5E1
:100460004FF4806404F132044FF000054FF00001B6
:1004700050E700BF90F0000F04BF0021704730B577
:100480004FF4806404F1320410F0004548BF40424C
:100490004FF000013EE700BF42004FEAE2014FEAA1
:1004A00031014FEA02701FBF12F07F4393F07F4F7C
:1004B00081F06051704732F07F4208BF704793F07F
:1004C0007F4F04BF41F40021704730B54FF4607492
:1004D00001F0004521F000411CE700BF50EA010295
:1004E00008BF704730B54FF000050AE050EA01023E
:1004F00008BF704730B511F0004502D5404261EBAE
:1005000041014FF4806404F132045FEA915C3FF4EE
:10051000D8AE4FF003025FEADC0C18BF03325FEA8B
:10052000DC0C18BF033202EBDC02C2F1200300FA3C
:1005300003FC20FA02F001FA03FE40EA0E0021FA61
:1005400002F11444BDE600BF70B54FF0FF0C4CF44F
:10055000E06C1CEA11541DBF1CEA135594EA0C0F01
:1005600095EA0C0F00F0DEF82C4481EA030621EA3C
:100570004C5123EA4C5350EA013518BF52EA033577
:1005800041F4801143F4801338D0A0FB02CE4FF029
:100590000005E1FB02E506F00042E0FB03E54FF059
:1005A0000006E1FB03569CF0000F18BF4EF0010E51
:1005B000A4F1FF04B6F5007F64F5407404D25FEA4D
:1005C0004E0E6D4146EB060642EAC62141EA555100
:1005D0004FEAC52040EA5E504FEACE2EB4F1FD0C42
:1005E00088BFBCF5E06F1ED8BEF1004F08BF5FEAC0
:1005F000500E50F1000041EB045170BD06F0004672
:1006000046EA010140EA020081EA0301B4EB5C041E
:10061000C2BFD4EB0C0541EA045170BD41F4801116
:100620004FF0000E013C00F3AB8014F1360FDEBF3B
:10063000002001F0004170BDC4F10004203C35DA17
:100640000C341BDC04F11404C4F1200500FA05F39A
:1006500020FA04F001FA05F240EA020001F000423B
:1006600021F0004110EBD37021FA04F642EB0601B1
:100670005EEA430E08BF20EAD37070BDC4F10C04DB
:10068000C4F1200500FA04F320FA05F001FA04F29F
:1006900040EA020001F0004110EBD37041F100018B
:1006A0005EEA430E08BF20EAD37070BDC4F1200596
:1006B00000FA05F24EEA020E20FA04F301FA05F2FE
:1006C00043EA020321FA04F001F0004121FA04F2A6
:1006D00020EA020000EBD3705EEA430E08BF20EA76
:1006E000D37070BD94F0000F0FD101F000464000B0
:1006F00041EB010111F4801F08BF013CF7D041EA32
:10070000060195F0000F18BF704703F00046520035
:1007100043EB030313F4801F08BF013DF7D043EA06
:100720000603704794EA0C0F0CEA135518BF95EABC
:100730000C0F0CD050EA410618BF52EA4306D1D143
:1007400081EA030101F000414FF0000070BD50EA62
:10075000410606BF1046194652EA430619D094EAEC
:100760000C0F02D150EA013613D195EA0C0F05D1D6
:1007700052EA03361CBF104619460AD181EA03012A
:1007800001F0004141F0FE4141F470014FF00000E2
:1007900070BD41F0FE4141F4780170BD70B54FF07D
:1007A000FF0C4CF4E06C1CEA11541DBF1CEA1355FD
:1007B00094EA0C0F95EA0C0F00F0A7F8A4EB0504DF
:1007C00081EA030E52EA03354FEA013100F08880D6
:1007D0004FEA03334FF0805545EA131343EA12639F
:1007E0004FEA022245EA111545EA10654FEA002654
:1007F0000EF000419D4208BF964244F1FD0404F50D
:10080000407402D25B084FEA3202B61A65EB030568
:100810005B084FEA32024FF480104FF4002CB6EB25
:10082000020E75EB030E22BFB61A754640EA0C00A5
:100830005B084FEA3202B6EB020E75EB030E22BFE5
:10084000B61A754640EA5C005B084FEA3202B6EB26
:10085000020E75EB030E22BFB61A754640EA9C00E5
:100860005B084FEA3202B6EB020E75EB030E22BFB5
:10087000B61A754640EADC0055EA060E18D04FEA73
:10088000051545EA16754FEA06164FEAC30343EA13
:1008900052734FEAC2025FEA1C1CC0D111F4801FE0
:1008A0000BD141EA00014FF000004FF0004CB6E7D9
:1008B00011F4801F04BF01430020B4F1FD0C88BF78
:1008C000BCF5E06F3FF6AFAEB5EB030C04BFB6EB83
:1008D000020C5FEA500C50F1000041EB045170BD76
:1008E0000EF0004E4EEA113114EB5C04C2BFD4EBA3
:1008F0000C0541EA045170BD41F480114FF0000E27
:10090000013C90E645EA060E8DE60CEA135594EAA2
:100910000C0F08BF95EA0C0F3FF43BAF94EA0C0FA5
:100920000AD150EA01347FF434AF95EA0C0F7FF41A
:1009300025AF104619462CE795EA0C0F06D152EA6E
:1009400003353FF4FDAE1046194622E750EA410652
:1009500018BF52EA43067FF4C5AE50EA41047FF463
:100960000DAF52EA43057FF4EBAE12E74FF0FF3CC8
:1009700006E000BF4FF0010C02E000BF4FF0010C99
:100980004DF804CD4FEA410C7FEA6C5C4FEA430C12
:1009900018BF7FEA6C5C1BD001B050EA410C0CBF61
:1009A00052EA430C91EA030F02BF90EA020F0020C3
:1009B000704710F1000F91EA030F58BF994208BF2A
:1009C00090422CBFD8176FEAE37040F001007047E7
:1009D0004FEA410C7FEA6C5C02D150EA013C07D13E
:1009E0004FEA430C7FEA6C5CD6D152EA033CD3D089
:1009F0005DF8040B704700BF8446104662468C4683
:100A00001946634600E000BF01B5FFF7B7FF0028B5
:100A100048BF10F1000F01BD4DF808EDFFF7F4FFDE
:100A20000CBF012000205DF808FB00BF4DF808ED69
:100A3000FFF7EAFF34BF012000205DF808FB00BF8C
:100A40004DF808EDFFF7E0FF94BF012000205DF8AE
:100A500008FB00BF4DF808EDFFF7CEFF94BF012063
:100A600000205DF808FB00BF4DF808EDFFF7C4FF5C
:100A700034BF012000205DF808FB00BF4FEA4102AF
:100A800012F5001215D211D56FF47873B3EB6252E0
:100A900012D94FEAC12343F0004343EA505311F007
:100AA000004F23FA02F018BF404270474FF0000099
:100AB000704750EA013005D111F0004008BF6FF0D7
:100AC000004070474FF00000704700BF4A0011D24D
:100AD00012F5001211D20DD56FF47873B3EB625298
:100AE0000ED44FEAC12343F0004343EA505323FAA4
:100AF00002F070474FF00000704750EA013002D119
:100B00004FF0FF3070474FF0000070474FEA41024E
:100B1000B2F1E04324BFB3F5001CDCF1FE5C0DD95B
:100B200001F0004C4FEAC0024CEA5070B2F1004FA5
:100B300040EB830008BF20F00100704711F0804FA8
:100B400021D113F13872BCBF01F00040704741F46D
:100B500080114FEA5252C2F11802C2F1200C10FA71
:100B60000CF320FA02F018BF40F001004FEAC12355
:100B70004FEAD32303FA0CFC40EA0C0023FA02F3F9
:100B80004FEA4303CCE77FEA625307D150EA0133CF
:100B90001EBF4FF0FE4040F44000704701F000409F
:100BA00040F0FE4040F40000704700BF7BB972B9CE
:100BB0000029BEBF00204FF0004106E008BF00281A
:100BC0001CBF6FF000414FF0FF3000F0BFB9ADF136
:100BD000080C6DE904CE002909DB002B1ADB00F0BC
:100BE0004DF8DDF804E0DDE9022304B0704740422F
:100BF00061EB4101002B1BDB00F040F8DDF804E065
:100C0000DDE9022304B0404261EB4101524263EB53
:100C100043037047524263EB430300F02FF8DDF8C3
:100C200004E0DDE9022304B0404261EB410170477A
:100C3000524263EB430300F021F8DDF804E0DDE904
:100C4000022304B0524263EB4303704753B94AB9DD
:100C5000002908BF00281CBF4FF0FF314FF0FF30C4
:100C600000F074B9ADF1080C6DE904CE00F006F89F
:100C7000DDF804E0DDE9022304B070472DE9F04718
:100C8000089D04468E46002B4DD18A42944669D970
:100C9000B2FA82F252B101FA02F3C2F1200120FA53
:100CA00001F10CFA02FC41EA030E94404FEA1C48A1
:100CB000210CBEFBF8F61FFA8CF708FB16E341EA9D
:100CC000034306FB07F199420AD91CEB030306F123
:100CD000FF3080F01F81994240F21C81023E634444
:100CE0005B1AA4B2B3FBF8F008FB103344EA0344E8
:100CF00000FB07F7A7420AD91CEB040400F1FF33FD
:100D000080F00A81A74240F207816444023840EA39
:100D10000640E41B00261DB1D4400023C5E9004372
:100D20003146BDE8F0878B4209D9002D00F0EF80F5
:100D30000026C5E9000130463146BDE8F087B3FA28
:100D400083F6002E4AD18B4202D3824200F2F98010
:100D5000841A61EB030301209E46002DE0D0C5E913
:100D6000004EDDE702B9FFDEB2FA82F2002A40F05F
:100D70009280A1EB0C014FEA1C471FFA8CFE012662
:100D8000200CB1FBF7F307FB131140EA01410EFB06
:100D900003F0884208D91CEB010103F1FF3802D2AD
:100DA000884200F2CB804346091AA4B2B1FBF7F0A7
:100DB00007FB101144EA01440EFB00FEA64508D9CA
:100DC0001CEB040400F1FF3102D2A64500F2BB8007
:100DD0000846A4EB0E0440EA03409CE7C6F1200756
:100DE000B34022FA07FC4CEA030C20FA07F401FA9C
:100DF00006F31C43F9404FEA1C4900FA06F3B1FB25
:100E0000F9F8200C1FFA8CFE09FB181140EA014189
:100E100008FB0EF0884202FA06F20BD91CEB010126
:100E200008F1FF3A80F08880884240F28580A8F17E
:100E300002086144091AA4B2B1FBF9F009FB1011D0
:100E400044EA014100FB0EFE8E4508D91CEB01016E
:100E500000F1FF346CD28E456AD90238614440EA11
:100E60000840A0FB0294A1EB0E01A142C846A64691
:100E700056D353D05DB1B3EB080261EB0E0101FA1A
:100E800007F722FA06F3F1401F43C5E90071002677
:100E90003146BDE8F087C2F12003D8400CFA02FCCD
:100EA00021FA03F3914001434FEA1C471FFA8CFEDD
:100EB000B3FBF7F007FB10360B0C43EA064300FBCD
:100EC0000EF69E4204FA02F408D91CEB030300F16B
:100ED000FF382FD29E422DD9023863449B1B89B222
:100EE000B3FBF7F607FB163341EA034106FB0EF3AB
:100EF0008B4208D91CEB010106F1FF3816D28B4258
:100F000014D9023E6144C91A46EA004638E72E4623
:100F1000284605E70646E3E61846F8E64B45A9D21B
:100F2000B9EB020864EB0C0E0138A3E74646EAE78A
:100F3000204694E74046D1E7D0467BE7023B614438
:100F400032E7304609E76444023842E7704700BFA1
:100F500010F8012B11F8013B012A28BF9A42F7D063
:100F6000D01A7047034613F8012B002AFBD1181A38
:100F70000138704700000000000000000000000081
:100F800001F0FF01102A2BDB10F0070F08D010F83A
:100F9000013B013A8B422DD010F0070F42B3F6D13E
:100FA000F0B441EA012141EA014122F007047FF057
:100FB00000070023F0E80256083C85EA010586EAAE
:100FC000010685FA47F5A3FA87F586FA47F6A5FAEA
:100FD00087F68EB9EED1F0BC01F0FF0102F00702F6
:100FE00032B110F8013B013A83EA010313B1F8D1A1
:100FF0000020704701387047002D06BF3546033882
:10100000073815F0010F07D1013015F4807F02BFBA
:10101000013015F4C03F0130F0BC0138704700BF0B
:101020004FEA410C7FEA6C5C02D150EA013C0AD1E4
:101030004FEA430C7FEA6C5C02D152EA033C02D1D6
:101040004FF0000070474FF00100704738B50022A4
:10105000002304460D46FFF7E9FC28B9204629463F
:10106000BDE8384000F00AB8204605F1004100F024
:1010700005F8404261EB410138BD00BFD0B50C4BD3
:10108000002206460F46FFF75FFAFFF71FFD0446F2
:10109000FFF7E0F9074B0022FFF756FA02460B462E
:1010A00030463946FFF798F8FFF710FD2146D0BDCE
:1010B0000000F03D0000F04108B50268034B9A4281
:1010C00000D008BD01F07CFBFBE700BF001400402E
:1010D00072B6FEE700B595B03022002108A813F0E3
:1010E0008BFA0023039304930593069307930193CC
:1010F000204A116C41F080511164126C02F0805250
:101100000192019A02931C4B1A6842F480421A60C1
:101110001B6803F480430293029B012308934FF45E
:101120008033099302220E924FF480030F9304231D
:101130001093A82111911292139308A800F008FEB1
:1011400098B90F23039302230493002305934FF4CC
:10115000A05306934FF480530793052103A801F091
:101160005DF820B915B05DF804FBFFF7B1FFFFF79C
:10117000AFFF00BF003802400070004008B501F02A
:1011800005FBFFF7A7FF00F017F802F09BFB02F04A
:10119000FFFB02F059FC07F08BFE07F00DFE02F09A
:1011A000F5FC02F0D9FC02F02DFC05F02BF801F063
:1011B00097FE05F039F8FEE72DE9F0478CB00024E2
:1011C0000794089409940A940B940194584B1A6B51
:1011D00042F010021A631A6B02F010020192019A97
:1011E00002941A6B42F080021A631A6B02F08002BA
:1011F0000292029A03941A6B42F001021A631A6B6C
:1012000002F001020392039A04941A6B42F0040262
:101210001A631A6B02F004020492049A05941A6B82
:1012200042F002021A631A6B02F002020592059A5A
:1012300006941A6B42F008021A631B6B03F0080352
:101240000693069BDFF8F49022461021484601F0F1
:10125000D2F9384F22464FF49861384601F0CBF965
:10126000DFF8DC8022464FF40051404601F0C3F91C
:10127000314E22460121304601F0BDF91E2307936D
:1012800008940125099507A9304601F0BBF82023F1
:1012900007934FF4441308934FF0020ACDF824A0AB
:1012A00007A9304601F0AEF8402307930894CDF823
:1012B00024A007A9304601F0A5F81023079308954C
:1012C00009940A9407A9484601F09CF84FF48063FA
:1012D0000793089509940A9407A9384601F092F8F3
:1012E0004FF400530793089509940A9407A94046C0
:1012F00001F088F8C02307931123089309940A94F6
:1013000007A9384601F07EF80795089509940A94D4
:1013100007A9304601F076F822460521172001F092
:10132000EFF9172001F024FA0CB0BDE8F08700BFF8
:101330000038024000040240001002400008024051
:10134000000C024038B50221334801F04DF920B3BA
:1013500000240421304801F047F908B944F004049E
:1013600008212D4801F040F908B944F00804102183
:10137000294801F039F908B944F010042021264821
:1013800001F032F901280AD04021234801F02CF95C
:10139000012807D04CB9204638BD0224D9E744F0D3
:1013A0002004F1E744F04004F4E70A2005F052F885
:1013B0000221194801F018F928B300250421164824
:1013C00001F012F908B945F004050821124801F0AE
:1013D0000BF908B945F0080510210F4801F004F990
:1013E00008B945F0100520210B4801F0FDF801284F
:1013F0000BD04021084801F0F7F8012808D0AC4292
:10140000C9D00024C7E70225D8E745F02005F0E75A
:1014100045F04005F3E700BF00100240FEE7FEE79D
:10142000FEE7FEE7FEE7704708B5202001F0EAF886
:1014300008BD000008B5024800F050F908BD00BF23
:10144000A05E012008B5024800F048F908BD00BFC1
:101450007813002008B5024808F022F808BD00BF44
:101460003013002000B583B0002200920D4B596C60
:1014700041F480415964596C01F480410091009914
:101480000192196C41F0805119641B6C03F0805378
:101490000193019B0F216FF0010001F031F903B0BE
:1014A0005DF804FB0038024030B4036A026A22F09F
:1014B000010202624268846924F073040D682C43BF
:1014C00023F0020C8B6843EA0C03104DA84203D0B2
:1014D00005F58065A84205D123F00803CD682B43AC
:1014E00023F00403094DA84203D005F58065A84206
:1014F00005D122F440724D692A438D692A43426026
:1015000084614A684263036230BC70470000014056
:1015100030B4036A026A22F4807202624268C469CB
:1015200024F0730C0C6844EA0C0523F400738C68F7
:1015300043EA0423114CA04203D004F58064A04286
:1015400006D123F40063CC6843EA042323F48063C8
:101550000A4CA04203D004F58064A04207D122F4D3
:1015600040524C6942EA04128C6942EA0412426019
:10157000C5614A68C263036230BC70470000014025
:1015800030B4036A026A22F4805202624468C2697B
:1015900022F4E6420D6842EA052223F400538D68E6
:1015A00043EA0533094DA84203D005F58065A842FA
:1015B00004D124F480444D6944EA85144460C26136
:1015C0004A680264036230BC704700BF00000140FB
:1015D00090F83D30DBB2012B32D1022380F83D3050
:1015E0000368194A934220D0B3F1804F1DD0A2F571
:1015F0007C42934219D002F58062934215D002F5E5
:101600008062934211D002F5784293420DD002F5E8
:101610007052934209D0A2F59432934205D01A68D1
:1016200042F001021A60002070479A6802F0070237
:10163000062A07D01A6842F001021A60002070479B
:1016400001207047002070470000014090F83D30B5
:10165000DBB2012B37D1022380F83D300268D3681A
:1016600043F00103D3600368194A934220D0B3F1D9
:10167000804F1DD0A2F57C42934219D002F58062C2
:10168000934215D002F58062934211D002F5784260
:1016900093420DD002F57052934209D0A2F59432D4
:1016A000934205D01A6842F001021A600020704788
:1016B0009A6802F00702062A07D01A6842F001026F
:1016C0001A6000207047012070470020704700BF5B
:1016D00000000140704770477047704770B504467E
:1016E0000368DE681D6915F0020F10D016F0020FB6
:1016F0000DD06FF002021A610123037703689B6922
:1017000013F0030F5ED0FFF7E6FF0023237715F0F9
:10171000040F12D016F0040F0FD023686FF00402EC
:101720001A610223237723689B6913F4407F4FD00B
:101730002046FFF7D0FF0023237715F0080F12D0C3
:1017400016F0080F0FD023686FF008021A61042307
:1017500023772368DB6913F0030F40D02046FFF79F
:10176000BAFF0023237715F0100F12D016F0100FD8
:101770000FD023686FF010021A61082323772368C3
:10178000DB6913F4407F31D02046FFF7A4FF00232C
:10179000237715F0010F02D016F0010F2DD115F0AF
:1017A000800F02D016F0800F2FD115F0400F02D01D
:1017B00016F0400F31D115F0200F02D016F0200F97
:1017C00033D170BDFFF786FF2046FFF785FF9CE70A
:1017D0002046FFF77FFF2046FFF77EFFABE720465E
:1017E000FFF778FF2046FFF777FFBAE72046FFF7BD
:1017F00071FF2046FFF770FFC9E723686FF0010211
:101800001A612046FFF758FCC9E723686FF0800291
:101810001A61204600F09BFAC7E723686FF0400288
:101820001A612046FFF759FFC5E723686FF02002D1
:101830001A61204600F08AFAC3E700000368344AC0
:10184000904212D0B0F1804F0FD0A2F57C4290426E
:101850000BD002F58062904207D002F58062904280
:1018600003D002F57842904203D123F070034A6816
:101870001343274A90422AD0B0F1804F27D0A2F5D7
:101880007C42904223D002F5806290421FD002F544
:10189000806290421BD002F57842904217D002F548
:1018A0007052904213D002F5806290420FD002F540
:1018B000806290420BD0A2F59832904207D002F598
:1018C0008062904203D002F58062904203D123F4FB
:1018D0004073CA68134323F080034A6913430360CB
:1018E0008B68C3620B688362094B984203D003F58F
:1018F0008063984201D10B6903630123436103694B
:1019000013F0010F03D0036923F001030361704753
:101910000000014040B310B5044690F83D30F3B1EB
:10192000022384F83D30214651F8040BFFF786FF6F
:10193000012384F8463084F83E3084F83F3084F840
:10194000403084F8413084F8423084F8433084F8E1
:10195000443084F8453084F83D30002010BD80F8D4
:101960003C3007F061FADBE70120704740B310B567
:10197000044690F83D30F3B1022384F83D3021460F
:1019800051F8040BFFF75AFF012384F8463084F81E
:101990003E3084F83F3084F8403084F8413084F899
:1019A000423084F8433084F8443084F8453084F879
:1019B0003D30002010BD80F83C3007F015FADBE721
:1019C0000120704730B4036A026A22F010020262FA
:1019D0004468826922F4E6420D6842EA052223F057
:1019E00020038D6843EA0513114DA84203D005F585
:1019F0008065A84206D123F08003CD6843EA051331
:101A000023F040030A4DA84203D005F58065A842A3
:101A100007D124F440644D6944EA85048D6944EAA1
:101A20008504446082614A688263036230BC704707
:101A30000000014038B590F83C30012B66D00446D8
:101A40000D46012380F83C300C2A5AD8DFE802F01A
:101A5000075959591B595959305959594400006867
:101A6000FFF722FD2268936943F00803936122681F
:101A7000936923F0040393612268936929690B43F6
:101A8000936100203EE00068FFF79CFF22689369A5
:101A900043F4006393612268936923F48063936144
:101AA00022689369296943EA01239361002029E0B0
:101AB0000068FFF72DFD2268D36943F00803D36166
:101AC0002268D36923F00403D3612268D3692969AA
:101AD0000B43D361002015E00068FFF751FD226839
:101AE000D36943F40063D3612268D36923F480632C
:101AF000D3612268D369296943EA0123D3610020B5
:101B000000E00120002384F83C3038BD0220FCE7CF
:101B100001F01F01012303FA01FC036A23EA0C030D
:101B20000362036A02FA01F10B430362704700008B
:101B300010B504460846002942D194F83E30DBB285
:101B4000013B18BF0123002B6ED1002851D1022385
:101B500084F83E30012201462068FFF7D9FF236850
:101B6000334A934203D002F58062934203D15A6C08
:101B700042F400425A6423682D4A934249D0B3F19B
:101B8000804F46D0A2F57C42934242D002F580625B
:101B900093423ED002F5806293423AD002F57842F9
:101BA000934236D002F57052934232D0A2F594326D
:101BB00093422ED01A6842F001021A60002032E0EF
:101BC000042908D008290DD094F84130DBB2013B3C
:101BD00018BF0123B7E794F83F30DBB2013B18BFD1
:101BE0000123B0E794F84030DBB2013B18BF01237A
:101BF000A9E7042805D0082807D0022384F841303B
:101C0000A8E7022384F83F30A4E7022384F8403099
:101C1000A0E79A6802F00702062A07D01A6842F085
:101C200001021A60002010BD0120FCE70020FAE745
:101C30000000014038B504460D4600220068FFF759
:101C400067FF23681D4A934218D002F580629342D1
:101C500014D02368196A41F21112114208D1196A8D
:101C600040F24442114203D11A6822F001021A6084
:101C70009DB9012384F83E30002038BD196A41F235
:101C800011121142E5D1196A40F244421142E0D1E9
:101C90005A6C22F400425A64DBE7042D05D0082D6B
:101CA00007D0012384F84130E6E7012384F83F3070
:101CB000E2E7012384F84030DEE700BF0000014086
:101CC00090F83C30012B3DD010B4012380F83C301B
:101CD000022380F83D3003685A689C6822F0700C3B
:101CE0000A6842EA0C025A600368174A93421AD003
:101CF000B3F1804F17D0A2F57C42934213D002F586
:101D0000806293420FD002F5806293420BD002F5BD
:101D10007842934207D002F57052934203D0A2F565
:101D20009432934204D124F080044A6814439C60A6
:101D3000012380F83D30002380F83C3018465DF8E0
:101D4000044B704702207047000001407047704705
:101D5000002800F0E08170B582B00446036813F0FB
:101D6000010F3BD09F4B9B6803F00C03042B2CD03E
:101D70009C4B9B6803F00C03082B21D06368B3F5E0
:101D8000803F4FD0B3F5A02F52D0964B1A6822F463
:101D900080321A601A6822F480221A606368002B6D
:101DA00050D000F019FD05468E4B1B6813F4003F20
:101DB00014D100F011FD401B6428F5D90320B1E1D6
:101DC000884B5B6813F4800FD8D0864B1B6813F4E4
:101DD000003F03D06368002B00F09F81236813F05D
:101DE000020F54D07F4B9B6813F00C0F3ED07D4BFD
:101DF0009B6803F00C03082B33D0E368002B68D0FA
:101E0000794B01221A6000F0E7FC0546754B1B6810
:101E100013F0020F54D100F0DFFC401B0228F5D96B
:101E200003207FE16F4A136843F480331360B5E702
:101E30006C4B1A6842F480221A601A6842F48032AD
:101E40001A60ABE700F0C8FC0546664B1B6813F44C
:101E5000003FC3D000F0C0FC401B6428F5D903202C
:101E600060E1604B5B6813F4800FC6D15D4B1B686B
:101E700013F0020F03D0E368012B40F05081594A60
:101E8000136823F0F803216943EAC1031360236850
:101E900013F0080F42D063696BB3534B0122C3F8B0
:101EA000802E00F099FC05464E4B5B6F13F0020F3D
:101EB00034D100F091FC401B0228F5D9032031E118
:101EC000484A136823F0F803216943EAC103136009
:101ED000DDE7454B00221A6000F07EFC0546414BD1
:101EE0001B6813F0020FD2D000F076FC401B0228D2
:101EF000F5D9032016E13C4B0022C3F8802E00F0F8
:101F00006BFC0546374B5B6F13F0020F06D000F0F9
:101F100063FC401B0228F5D9032003E1236813F07A
:101F2000040F77D02F4B1B6C13F0805F33D100234D
:101F300001932C4B1A6C42F080521A641B6C03F014
:101F400080530193019B0125284B1B6813F4807F6C
:101F500023D0A368012B34D0052B38D0214B1A6F26
:101F600022F001021A671A6F22F004021A67A368AE
:101F7000002B3DD000F030FC06461A4B1B6F13F0CF
:101F8000020F46D100F028FC801B41F288339842B2
:101F9000F3D90320C6E00025D6E7144A136843F4BA
:101FA0008073136000F018FC0646104B1B6813F496
:101FB000807FCED100F010FC801B0228F5D90320D1
:101FC000B0E0084A136F43F001031367CFE7054BF6
:101FD0001A6F42F004021A671A6F42F001021A6780
:101FE000C5E700BF003802400000474200700040D3
:101FF00000F0F2FB0646524B1B6F13F0020F08D0A5
:1020000000F0EAFB801B41F288339842F3D90320A9
:1020100088E0EDB9A369002B00F08380484A9268FC
:1020200002F00C02082A51D0022B17D0454B002297
:102030001A6600F0D1FB0446414B1B6813F0007F89
:1020400042D000F0C9FB001B0228F5D9032069E04B
:102050003B4A136C23F080531364DBE7394B0022B7
:102060001A6600F0B9FB0546354B1B6813F0007F7C
:1020700006D000F0B1FB401B0228F5D9032051E047
:10208000E369226A1343626A43EA8213A26A52082E
:10209000013A43EA0243E26A43EA0263284A536090
:1020A000284B01221A6600F097FB0446244B1B685C
:1020B00013F0007F06D100F08FFB001B0228F5D93A
:1020C00003202FE000202DE000202BE0012B2BD05F
:1020D0001B4B5B6803F48001E269914226D103F057
:1020E0003F02216A8A4223D1616A47F6C0721A40D0
:1020F000B2EB811F1ED103F44031A26A5208013AAB
:10210000B1EB024F18D103F07063E26AB3EB026FD8
:1021100014D1002006E001207047012002E00120D8
:1021200000E0002002B070BD0120FBE70120F9E7CC
:102130000120F7E70120F5E70120F3E70120F1E7AF
:10214000003802400000474208B5314B9B6803F05D
:102150000C03042B57D0082B57D12D4B5A6802F093
:102160003F025B6813F4800F2AD0294B5968C1F3F2
:10217000881C4FEA4C11B1EB0C006EEB0E0E4FEACF
:102180008E1343EA90638101091A63EB0E03DB00AF
:1021900043EA5173C90011EB0C0C43F100035902DF
:1021A00000234FEA4C2041EADC51FEF74FFD184B6B
:1021B0005B68C3F3014301335B00B0FBF3F025E040
:1021C000134B5968C1F3881C4FEA4C11B1EB0C005A
:1021D0006EEB0E0E4FEA8E1343EA90638101091AEB
:1021E00063EB0E03DB0043EA5173C90011EB0C0CE7
:1021F00043F10003990200234FEA8C2041EA9C51ED
:10220000FEF724FDD3E7034800E0034808BD00BF04
:102210000038024000127A000024F400002800F088
:102220009B8070B50D4604464F4B1B6803F00703B7
:102230008B4208D2CBB24C4A1370136803F00703E9
:102240008B4240F08B80236813F0020F17D013F0FD
:10225000040F04D0454A936843F4E0539360236825
:1022600013F0080F04D0414A936843F4604393602D
:102270003E4A936823F0F003A1680B439360236800
:1022800013F0010F32D06368012B21D09A1E012A6E
:1022900025D9364A126812F0020F61D033498A6894
:1022A00022F0030213438B6000F096FA06462F4B90
:1022B0009B6803F00C036268B3EB820F16D000F04A
:1022C0008BFA801B41F288339842F0D9032042E018
:1022D000264A126812F4003FE0D101203BE0234A75
:1022E000126812F0007FD9D1012034E01E4B1B6828
:1022F00003F00703AB4207D9EAB21B4B1A701B6805
:1023000003F00703AB422DD1236813F0040F06D06E
:10231000164A936823F4E053E1680B439360236803
:1023200013F0080F07D0114A936823F46043216922
:1023300043EAC1039360FFF707FF0C4B9B68C3F3AD
:1023400003130B4AD35CD8400A4B18600A4B186839
:1023500001F0A0FC002070BD012070470120FAE7C9
:102360000120F8E70120F6E7003C02400038024077
:102370005CF30108700000206C000020014B18681D
:10238000704700BF7000002008B5FFF7F7FF044B4F
:102390009B68C3F38223034AD35CD84008BD00BFC7
:1023A000003802406CF3010808B5FFF7E7FF044B63
:1023B0009B68C3F34233034AD35CD84008BD00BFD7
:1023C000003802406CF301080F2303600B4B9A683E
:1023D00002F0030242609A6802F0F00282609A689A
:1023E00002F4E052C2609B68DB0803F4E05303612F
:1023F000034B1B6803F007030B6070470038024073
:10240000003C024000230F2B00F2E48070B582B044
:1024100060E085685E000324B44025EA0405CC68CA
:10242000B4402C438460456825EA02054C68C4F337
:1024300000129A402A4342605AE0DC08083450F8FF
:10244000246003F0070295000F22AA4026EA020E3C
:102450000A69AA4042EA0E0240F824205CE0072202
:1024600000E0002202FA0EF22A4302345A4D45F8E7
:1024700024205A4A94686FEA0C0224EA0C054E683C
:1024800016F4801F01D04CEA0405544CA560E468A2
:1024900002EA04054E6816F4001F01D04CEA040558
:1024A0004E4CE560646802EA04054E6816F4003F8D
:1024B00001D04CEA0405494C6560246822404D680F
:1024C00015F4803F01D04CEA0402444C22600133F1
:1024D0000F2B7DD801229A400C6804EA020C32EAE4
:1024E0000404F4D14C6804F00304013C012C90D99D
:1024F0004A6802F00302032A09D0C4685D0003227F
:10250000AA4024EA02048A68AA402243C2604A68B8
:1025100002F00302022A90D004684FEA430E03221D
:1025200002FA0EF224EA02044A6802F0030202FAF6
:102530000EF2224302604A6812F4403FC7D00022E4
:102540000192274A546C44F480445464526C02F45F
:1025500080420192019A9C08A51C1F4A52F82550FE
:1025600003F003024FEA820E0F2202FA0EF225EA6E
:1025700002051C4A90423FF474AF02F5806290421B
:102580001AD002F58062904218D002F58062904223
:1025900016D002F58062904214D002F5806290421B
:1025A00012D002F58062904210D002F58062904213
:1025B0003FF455AF082255E7012253E7022251E7C5
:1025C00003224FE704224DE705224BE7062249E7A5
:1025D00002B070BD704700BF00380140003C0140B0
:1025E00000380240000002400369194201D0012076
:1025F0007047002070470AB181617047090481610A
:102600007047000008B5054B5B69034200D108BD67
:10261000024B586101F02EF9F9E700BF003C014080
:1026200070B50446866D00F0D7F894F83530DBB20B
:10263000022B06D080236365002384F83430012008
:1026400070BD05462268136823F0160313602268E4
:10265000536923F080035361236CE3B1226813684C
:1026600023F0080313602268136823F0010313604A
:1026700023681B6813F0010F11D000F0ADF8431B65
:10268000052BF5D920236365032084F8350000234A
:1026900084F83430D4E7A36C002BDFD1E3E7E26D9C
:1026A0003F239340B360012384F83530002084F841
:1026B0003400C5E790F83530DBB2022B03D080231D
:1026C000436501207047052380F8353002681368A0
:1026D00023F001031360002070470000074AD3680D
:1026E00023F4E0631B041B0C000200F4E0600343CE
:1026F00043F0BF6343F40033D360704700ED00E064
:1027000000B5194BDB68C3F30223C3F1070CBCF11E
:10271000040F28BF4FF0040C03F1040EBEF1060FA6
:1027200018D9033B4FF0FF3E0EFA0CFC21EA0C01D6
:1027300099400EFA03F322EA0303194300280BDB46
:102740000901C9B200F1604000F5614080F8001352
:102750005DF804FB0023E5E700F00F000901C9B2B2
:10276000024B1954F4E700BF00ED00E014ED00E067
:10277000002807DB00F01F02400901239340024AB2
:1027800042F82030704700BF00E100E008B50B4B75
:102790001A6842F400721A601A6842F480621A6081
:1027A0001A6842F480721A600320FFF797FF0F2027
:1027B00001F070FAFEF756FE002008BD003C024012
:1027C000034A1168034B1B780B441360704700BF2A
:1027D000A407002068000020014B1868704700BF64
:1027E000A407002038B50446FFF7F6FF0546B4F10C
:1027F000FF3F02D0044B1B781C44FFF7EDFF401B4A
:10280000A042FAD338BD00BF68000020034AD2F8C6
:10281000883043F47003C2F88830704700ED00E060
:1028200030B585B03CE040281ED1AC490B7803EBB5
:102830004303AB4A02EB83039879087005F090FEDE
:102840004FF4967003F006FE0EE0A4490B7803EBFC
:102850004303A34A02EB83035878087005F080FE17
:102860004FF4967003F0F6FD9E4D9F4C94E80F00D8
:1028700085E80F00E068FDF70FFE02460B46A168F1
:102880000291616801912168009198480AF048FF1F
:102890001022002120460BF04FFB012003F0DAFD4F
:1028A000FEF750FD0028F8D02028BCD80228DBD342
:1028B000831E1E2BD8D801A252F823F04B28000803
:1028C00069280008592900086928000869280008B3
:1028D000692800081F2A00086928000869280008DC
:1028E0006928000869280008692800086928000884
:1028F00069280008392900086928000869280008A3
:102900006928000869280008692800086928000863
:102910006928000869280008692800086928000853
:102920006928000869280008692800086928000843
:1029300069280008012B000868490B7803EB430362
:10294000674A02EB83039878087005F009FE4FF49C
:10295000967003F07FFD87E7604B9B880C2B11D0AE
:102960000D2B13D05D490B7803EB43035C4A02EB5C
:102970008303D878087005F0F3FD4FF4967003F0E8
:1029800069FD71E75A4B01221A806DE74FF496708A
:1029900003F060FD514B5B89032B3FF665AFDFE829
:1029A00003F00217232F504BD3ED037A9FED517A9A
:1029B000F4EEC77AF1EE10FA06D59FED4F7A77EE76
:1029C000877AC3ED037A4FE7474B4C4ADA604BE70F
:1029D000454B1B68082B03DC0133434A136043E774
:1029E000414B09221A603FE73F4B5B683B2B03DCFE
:1029F00001333D4A536037E73B4B3C225A6033E793
:102A0000394B9B6842F20F72934203DC6433364ABF
:102A1000936029E7344B42F210729A6024E72F4BFF
:102A20009B880C2B11D00D2B13D02C490B7803EB6A
:102A300043032B4A02EB83031879087005F090FDDD
:102A40004FF4967003F006FD0EE7294B00221A8022
:102A50000AE74FF4967003F0FDFC204B5B89032BD3
:102A60003FF602AFDFE803F00215212D1E4BD3ED38
:102A7000037AF5EEC07AF1EE10FA06DD9FED1E7ACC
:102A800077EEC77AC3ED037AEEE6174B0022DA60E1
:102A9000EAE6154B1B68002B03DD013B124A13606D
:102AA000E2E6114B00221A60DEE60F4B5B68002B5A
:102AB00003DD013B0C4A5360D6E60B4B00225A6003
:102AC000D2E6094B9B68642B03DD643B064A9360A6
:102AD000CAE6054B64229A60C6E600BF7400002077
:102AE00054010020C80700204001002074F30108B1
:102AF000800000200000B442CDCCCC3D0000B442A8
:102B0000164B9A88A2F10C039BB2012B08D80D2A10
:102B100016D00C2A7FF4A8AE11480AF0C3FEA3E633
:102B20000E490B7803EB43030E4A02EB83035879FB
:102B3000087005F015FD4FF4967003F08BFC93E6DA
:102B4000064A538901339BB2538103F00303538137
:102B50004FF4FA7003F07EFC86E600BF740000209C
:102B600030130020540100202DE980488FB007F079
:102B7000BFF99A4B98614FF4FA7003F06BFC9848D8
:102B80000AF090FE0BF000F9964C1022002120462E
:102B90000BF00CF9D4ED037AF5EEC07AF1EE10FAF1
:102BA0007BDB9FED917AF4EEC77AF1EE10FA74D8E0
:102BB00023462468092C70D85E683C2E6DD89F6827
:102BC000A7F1640242F2AC639A4266D8874D854B06
:102BD0000FCB85E80F0017EE900AFDF75DFC02466B
:102BE0000B4602970196009481480AF099FD54E043
:102BF0004FF0FF320021022003F0D7FB07F014FA58
:102C00007C4B1A88754B1A807B4A12885A807B4A03
:102C100012889A807A4A1288DA807A4A12881A814F
:102C2000794A12885A81794A1268DA60784A1268B9
:102C30001A61784A12685A6101221A6270490B8837
:102C40001AB20B8819B26F4803881BB2008800B211
:102C500000FB03F301FB02336B490A8812B20988B7
:102C600009B201FB0233614A1268C2F10A024FF451
:102C7000FA6101FB02F2934240F3AC80574B012210
:102C8000DA61654B1B882BB1644B93F80132032B3F
:102C900000F0CE80322003F0DDFB504B9B692BB15E
:102CA0005F4B9B88022BA3D00C2BA1D04B4B9B6975
:102CB000002BC3D05A4B9B88042BBFD94FF0FF3257
:102CC0000021022003F071FB07F0AEF9494B1A888E
:102CD000424B1A80484A12885A80484A12889A8081
:102CE000474A1288DA80474A12881A81464A12886F
:102CF0005A81464A1268DA60454A12681A61454AA2
:102D000012685A61464BDA889B889A4202D0334A4D
:102D100000215162092B21D00A2B3DD0082B8DD1E7
:102D20002E4B5B6A9F2B0DDC2C4B5A6A511C59624F
:102D3000364B19683B4B03EB82031960384B082272
:102D4000DA807BE7374C4FF41F72211D204611F0CB
:102D50002BFC2E4B1B68C4F87C32EFE71F4B5B6AE1
:102D60009F2B0DDC1D4B5A6A511C5962284B196868
:102D70002D4B03EB82031960294B0922DA805DE7B2
:102D8000294C4FF41F72211D204611F00DFC204BE1
:102D90001B68C4F87C32EFE7104B5B6A9F2B0DDC9D
:102DA0000E4B5A6A511C59621A4B19681F4B03EBA0
:102DB000820319601A4B0A22DA803FE71B4C4FF45A
:102DC0001F72211D204611F0EFFB124B1B68C4F847
:102DD0007C32EFE7014B0022DA6152E71801002054
:102DE00030130020C80700200000B442400100203A
:102DF00098F30108E85E0120EA5E0120EC5E012004
:102E0000FC5E0120FE5E0120005F0120F05E0120DB
:102E1000F45E0120F85E012080000020285F012080
:102E200074000020D8070020580A0020580F002006
:102E3000234C608803F00EFB224B1D882DB25E8868
:102E400036B29F883FB2B3F806800FFA88F8B3F81D
:102E500008900FFA89F9B3F80AA00FFA8AFAD3F8A2
:102E60000CB093ED048AD3ED058A174B5868FDF733
:102E700013FBCDE90C01043418EE900AFDF70CFBAE
:102E8000CDE90A0118EE100AFDF706FBCDE90801AD
:102E90005846FDF701FBCDE90601CDF814A0CDF8A9
:102EA0001090CDF80C80029701960095DDE90C2377
:102EB000064920460AF04AFC20460AF0E1FCE9E611
:102EC000800000201801002000010020BCF3010850
:102ED00008B50AF0B9FE012003F0BCFAF9E70000DA
:102EE00008B5124A0021124803F0C4F9114B1860CA
:102EF000114A0021114803F0BDF9114B1860114A25
:102F00000021114803F0B6F9104B1860104A002157
:102F1000104803F0AFF9104B1860104A0021104818
:102F200003F0A8F90F4B186008BD00BFECF40108CE
:102F300075320008B407002094F401082128000825
:102F4000AC070020B8F40108692B0008B007002086
:102F500070F401084D340008A807002010F501089E
:102F6000D12E0008B807002038B5431EDBB2062B6F
:102F700000D938BD0C460B4B33F810200A4B93FB9D
:102F8000F2F30A4D2A68D362EB605B08536303F0E7
:102F900067F92044064B186000212846FEF7C8FD5B
:102FA000E7E700BFDCF4010840420F00A05E01200B
:102FB000BC07002038B50EF075F904460EF07AF91A
:102FC00003462246002108460CF0C8F84FF07F4027
:102FD0000CF004F8002449E00CF0F6F884480BF0FB
:102FE000FDFF0EF05FF904460EF064F90346224639
:102FF000002108460CF0B2F87E4B5B88002B00F0F5
:10300000B88064210720FFF7AFFF38BD012B46D001
:10301000022B4AD0032B4ED0042B52D0764B83FB8D
:103020000423E517C5EBA30505EB8505A4EB4505D2
:10303000032D4CD0062D60D0092D74D06F480BF0B5
:10304000D8FF04F10A02DC239200C82128200CF0EA
:10305000E5FBDC234FF48C72C82128200BF04CFBDD
:103060003C2C76D0142003F0F5F901343C2CC3DC61
:10307000604B5B88002BAFD15F4A82FB0432E317C1
:10308000C3EB620303EB8303E31ABFD13C2CBDD037
:10309000B023D822302158200CF060F8BEE730224F
:1030A000582157480CF024FBB8E7302258215548E6
:1030B0000CF01EFBB2E73022582153480CF018FBED
:1030C000ACE73022582151480CF012FBA6E7BE2392
:1030D0004FF49B72AA21FA200CF040F84C480BF0F8
:1030E00088FF4C480BF09CFFAA22FA214A480CF0BA
:1030F00097FA0A2003F0AEF99CE7BE234FF49B72C7
:10310000AA21FA200CF02AF841480BF072FF41483E
:103110000BF086FFAA22FA2140480CF081FA0A201F
:1031200003F098F988E7BE234FF49B72AA21FA2096
:103130000CF014F836480BF05CFF36480BF070FFCB
:10314000AA22FA2136480CF06BFA0A2003F082F921
:1031500074E734480BF04DFF33480BF061FFCC228D
:10316000842132480CF05CFA4FF4FA7003F072F9E3
:1031700078E70CF029F81E480BF030FF0EF092F8BB
:1031800004460EF097F803462246002108460BF04D
:10319000E5FF27480BF044FF26480BF02AFF0022EA
:1031A000114625480CF0A4FA60224C2123480CF06B
:1031B00037FA104B5B88ABB10CF006F860226A213D
:1031C0001F480CF02DFA7E2272211E480CF028FABE
:1031D000084B5B88002B7FF414AF4FF4FA6003F0C8
:1031E00039F90EE74FF47A7003F034F9E4E700BFE1
:1031F000D0D0D0FF740000206766666600A5FFFF90
:10320000C4950308D8150408EC950408B015030804
:103210008080FFFFCCAE010804F4010808F4010827
:103220000CF401082A2AA5FFFC9E010814F40108E9
:103230000C5702080000FFFF9C9502081CF40108CF
:103240002CF4010838F4010808B5084B1B6803B9D1
:1032500008BD03F005F8054B1B689842F8D3002120
:10326000024B19600248FEF7E5FCF1E7BC070020BD
:10327000A05E012010B52DED028B06F0DBFB91E086
:103280004FF0FF320021012003F08FF84FF47A70E5
:1032900003F0E0F806F0DEFB604B83ED000A5F4BC5
:1032A000DB681BB95E4BDB69002B70D05D4B5B6844
:1032B000002B6CDD5C4B1B6893B902F0D1FF5A4BBD
:1032C00018606AE0594C4FF41F72211D204611F01E
:1032D0006BF984ED9F8A95E0504B0022DA60DEE7BF
:1032E00002F0BEFF4F4B5B684F4A14684FF47A728E
:1032F00002FB0343984207D30023494AD361474A5C
:10330000D360494A136048E002F0AAFF221A02F58E
:10331000EA4230324648A0FB0230400B454BA3FB4B
:103320000041C90801EB8101A0EB4101424C218021
:103330004248A0FB02108009A3FB00C1C90801EBB1
:103340008101A0EB410161803D49A1FB02014909D6
:10335000A3FB01C0C00800EB8000A1EB400080B2DD
:10336000A080A3FB0212D208A3FB0213DB0803EB2D
:103370008303A2EB4303E380012803D0032801D099
:1033800005280AD16421C0B2FFF7EEFD05E02A4B03
:103390002022DA809A805A801A80FFF755FF012098
:1033A00003F058F8274B9B88012B3FF469AF0C2B97
:1033B0003FF466AF042B7FF472AF4FF0FF32002171
:1033C000012002F0F2FF642003F044F806F042FB13
:1033D000B0EE408A114B83ED000ADFED1B7AB4EEAC
:1033E000E70AF1EE10FA7FF55AAF1B699F2B3FF702
:1033F00069AF0A4B1A69511C19610C4B03EB82032C
:1034000083ED000A054BD3ED057AB4EEE78AF1EEC1
:1034100010FAFFF661AF0122DA6040E700010020F8
:103420001801002040010020D8110020D80C0020F5
:103430005917B7D1CDCCCCCCC0070020D34D6210EA
:103440001F85EB51740000200000B44280B58EB09F
:10345000AE48FEF7BDF80BF011FFFFF7ABFD012101
:10346000AB4B186802F068FF022002F0F3FF2EE079
:103470001E4601221A81A74C0023A360A64B1A62A4
:103480000DF10C0E9C46BCE80F00AEE80F00BCE846
:103490000F00AEE80F009CE803008EE8030004F183
:1034A0000C0393E807008DE8070094E80E00284617
:1034B00005F08CF833787370984B1B7813B9974BE1
:1034C00001221A70FFF7C0FE642002F0C3FF934B85
:1034D0005A781D78AA42CBD1904B00221A815A808B
:1034E0009B88013B0C2BE7D801A252F823F000BFC8
:1034F0002535000887350008B9340008DF35000895
:10350000B9340008B9340008B93400089F360008FF
:103510005F3600081F360008B9340008DF3600089F
:10352000E13700087B4B93ED007AD3ED017AB4EEDE
:10353000677AF1EE10FA1AD01F460123BB6003AC84
:10354000754E0FCE0FC40FCE0FC496E8030084E86B
:10355000030007F10C0393E807008DE8070097E8E4
:103560000E00284605F032F83B687B60A4E7694B03
:1035700000229A600121664B186802F0DDFE0220ED
:1035800002F068FF98E7644B1B6A63B9624B1B6AE1
:10359000002B91D10221624B186802F0CDFE02206F
:1035A00002F058FF88E75B4FDFF86C8103AC4646BA
:1035B0000FCE0FC40FCE0FC496E8030084E80300BB
:1035C00007F10C0393E807008DE8070097E80E0069
:1035D000284604F0FBFF0023C8F82030D6E701217D
:1035E0004B4B186802F0A8FE022002F033FF494E50
:1035F00003AC494D0FCD0FC40FCD0FC495E80300A8
:1036000084E8030006F10C0393E807008DE8070047
:1036100096E80E004148007804F0D8FF4CE70221FC
:103620003F4B186802F088FE022002F013FF394E6B
:1036300003AC394D0FCD0FC40FCD0FC495E8030077
:1036400084E8030006F10C0393E807008DE8070007
:1036500096E80E003148007804F0B8FF2CE702210C
:103660002F4B186802F068FE022002F0F3FE294E8C
:1036700003AC294D0FCD0FC40FCD0FC495E8030047
:1036800084E8030006F10C0393E807008DE80700C7
:1036900096E80E002148007804F098FF0CE702211C
:1036A0001F4B186802F048FE022002F0D3FE194EAC
:1036B00003AC194D0FCD0FC40FCD0FC495E8030017
:1036C00084E8030006F10C0393E807008DE8070087
:1036D00096E80E001148007804F078FFECE6114BF4
:1036E0001B88012B20D0022B7FF4E6AE0A4B1B6A0D
:1036F000002B50D1084B1B6A002B68D0094B0122CC
:103700001A80322002F0A6FED6E600BFA05E01209D
:10371000B4070020000100201801002074000020E0
:10372000B0070020FC0000203A4B93ED007AD3ED67
:10373000017AB4EE677AF1EE10FA20D01F46012329
:10374000BB6003AC344E0FCE0FC40FCE0FC496E84F
:10375000030084E8030007F10C0393E807008DE8F9
:10376000070097E80E00284604F030FF3B687B60B6
:103770002A4B02221A80322002F06CFE9CE6254B76
:1037800000229A600121264B186802F0D5FD022024
:1037900002F060FEECE71F4FDFF87C8003AC46468A
:1037A0000FCE0FC40FCE0FC496E8030084E80300C9
:1037B00007F10C0393E807008DE8070097E80E0077
:1037C000284604F003FF0023C8F8203092E70221C6
:1037D000144B186802F0B0FD022002F03BFE8DE7AA
:1037E0000C4F03AC0C4E0FCE0FC40FCE0FC496E897
:1037F000030084E8030007F10C0393E807008DE859
:10380000070097E80E00284604F0E0FEC82002F00A
:1038100021FE51E60001002018010020FC000020DC
:10382000B4070020B007002030B58FB00E4D012343
:10383000AB600DF10C0C0D4C0FCCACE80F000FCCB5
:10384000ACE80F0094E803008CE8030005F10C03DA
:1038500093E807008DE8070095E80E00044800781B
:1038600004F0B4FE0FB030BD0001002018010020AC
:1038700074000020202800D0704708B520210E4891
:10388000FEF7B2FE012800D008BD0C4B9B880C2B24
:10389000FAD00D2BF8D0094B1A7802EB42020849F6
:1038A00001EB820252791A7000225A7001225A806A
:1038B000FFF7BAFFE8E700BF0010024074000020E5
:1038C0005401002008B50548054B036000F034FAA8
:1038D00000B908BDFDF7FCFBFBE700BFDC110020D1
:1038E000003002400268094B9A4200D0704782B013
:1038F00000230193064B1A6B42F480521A631B6B30
:1039000003F480530193019B02B0704700300240E2
:1039100000380240F0B587B000230193029303936F
:1039200004930593164B1B680BB107B0F0BD144B05
:1039300001221A6000260096124B9A6B42F0010297
:103940009A639B6B03F001030093009B4FF6807317
:10395000019302270297032504950C24059401A9DD
:103960000948FEF74FFD4CF6B37301930297039697
:103970000495059401A90548FEF744FDD5E700BF6D
:10398000E41100200038024000100240000C024008
:1039900010B588B00022019202920392049205921F
:1039A0000692079214484FF02043036003F5827398
:1039B00043608260C2600261102141618261C26124
:1039C000026242624FF480538362C26202634263C6
:1039D00082634264022301930F24029403930493AD
:1039E00005911123069301A900F030FA08B908B037
:1039F00010BDFDF76DFBFAE7E811002008B5FFF7F1
:103A000089FF08BD08B50E480E4B03604FF4827362
:103A1000436000238360C360036143614FF400721D
:103A200082611022C2610362436283620A23C3621D
:103A300000F0E2FA00B908BDFDF74AFBFBE700BF62
:103A4000381200200030014008B50F480F4B0360CA
:103A50004FF48273436000238360C360036143615A
:103A60004FF4802282612822C261036243624FF4D4
:103A7000005383620A23C36200F0BEFA00B908BD96
:103A8000FDF726FBFBE700BF901200200038004046
:103A900000B58BB000230593069307930893099311
:103AA0000368284A934205D0274A934225D00BB099
:103AB0005DF804FB00210191244B5A6C42F48052C2
:103AC0005A645A6C02F480520192019A02911A6B64
:103AD00042F001021A631B6B03F001030293029B85
:103AE000E0230593022306930323089305230993F8
:103AF00005A91748FEF786FCD9E700210391134B6F
:103B00001A6C42F480421A641A6C02F480420392E6
:103B1000039A04911A6B42F002021A631B6B03F0C2
:103B200002030493049B4FF470430593022306930E
:103B3000032308930523099305A90648FEF762FCB1
:103B4000B5E700BF003001400038004000380240B7
:103B5000000002400004024008B50A480A4B036016
:103B60004FF4E133436000238360C36003610C22A0
:103B700042618361C36105F008FB00B908BDFDF730
:103B8000A7FAFBE7E81200200010014008B50A4838
:103B90000A4B03604FF4E133436000238360C3604A
:103BA00003610C2242618361C36105F0EEFA00B942
:103BB00008BDFDF78DFAFBE730130020001401402B
:103BC00010B58AB0002305930693079308930993D1
:103BD00003682B4A934204D02A4A934225D00AB064
:103BE00010BD00210191284B5A6C42F010025A641A
:103BF0005A6C02F010020192019A02911A6B42F083
:103C000001021A631B6B03F001030293029B4FF442
:103C1000C0630593022306930323089307230993A4
:103C200005A91A48FEF7EEFBD9E700240394164BCA
:103C30005A6C42F020025A645A6C02F0200203923D
:103C4000039A04941A6B42F004021A631B6B03F08C
:103C500004030493049BC0230593022306930323C8
:103C600008930823099305A90948FEF7CBFB2246D0
:103C700005214720FEF744FD4720FEF779FDAEE71A
:103C800000100140001401400038024000000240D2
:103C90000008024030B589B0044600230193214B4F
:103CA0001A6C42F020021A641B6C03F0200301938B
:103CB000019B02A903A8FEF787FB069BCBB9FEF781
:103CC00063FB03461848A0FB03239B0C013B1748EA
:103CD000174A026040F2E732C2604360002303618A
:103CE00083608361FDF716FE054630B1284609B0B2
:103CF00030BDFEF749FB4300E4E70C48FDF7A6FCA6
:103D000005460028F2D13720FEF732FD0F2C01D9ED
:103D10000125EBE7002221463720FEF7F1FC054B99
:103D20001C60E3E70038024083DE1B437813002069
:103D3000001400406C00002058B110B504464379CF
:103D40001BB101236371002010BD0371FFF7CAFD91
:103D5000F7E701207047000010B40A6850F82230DD
:103D600023F0010340F822308B68082B25D0002473
:103D70004A6822431343CA6813430A6913434A69D2
:103D80001343CA6913430A6A13434A6A13438A6A8C
:103D90001343CA6A13430A6B13438A691343CA6BFA
:103DA0001343096850F82140054A22401A4340F85D
:103DB000212000205DF8044B70474024D8E700BF65
:103DC0008000F0FF10B5013250F8223003F0404C73
:103DD0000B684C6843EA04138C6843EA0423CC68FC
:103DE00043EA04430C6904F1FF3E43EA0E534C6975
:103DF000A4F1020E43EA0E6389690B434CEA030304
:103E000040F82230002010BDB3F5804F05D06FF090
:103E1000704340F822300020704730B450F8223010
:103E2000094C1C400B684D6843EA05138D6843EA52
:103E300005238D692B43C96843EA0143234340F8B6
:103E40002230002030BC70470000F0CF40B370B586
:103E50000E461546044690F84930E3B1214651F824
:103E6000080BFFF779FFA26831462068FFF7AAFF29
:103E7000236BA26829466068FFF7C6FF2268A16825
:103E800052F8213043F0010342F82130012384F835
:103E90004930002070BD80F84830FFF7AFFDDDE706
:103EA000012070472DE9F04782B005468846174645
:103EB0001E46FEF791FC0A9B1B1A03EB0609FEF750
:103EC0008BFC82462B4B1B68C3F3CB3309FB03F3FC
:103ED00001932B689C6838EA04030CBF4FF0010C77
:103EE0004FF0000CBC4540D0B6F1FF3FF1D0FEF7DB
:103EF00073FCA0EB0A0048450AD2B9F1000F07D0C5
:103F0000019A02B14A46019B013B01939146E0E7C9
:103F10002A68536823F0E00353606B68B3F5827F2F
:103F20000BD0AB6AB3F5005F14D0012385F8513094
:103F3000002385F85030032018E0AB68B3F5004F3C
:103F400002D0B3F5806FECD12A68136823F04003E8
:103F50001360E6E72A68136823F4005313602A68A5
:103F6000136843F400531360DFE7002002B0BDE89C
:103F7000F08700BF7000002070B584B004460D4685
:103F8000164600920B4601220221FFF78BFFD0B9A3
:103F9000174B1B68174AA2FB03235B0D4FF47A7281
:103FA00002FB03F303936368B3F5827F11D0039B95
:103FB0003BB1039B013B039323689B6813F0800F85
:103FC000F5D104B070BD636D43F020036365032039
:103FD000F7E700962B46002280212046FFF762FF7C
:103FE0000028EED0636D43F0200363650320E8E70B
:103FF00070000020819F5E16002860D010B5044636
:10400000436A33B94368B3F5827F05D00023C361A7
:1040100002E000230361436194F85130002B44D047
:10402000022384F851302268136823F040031360A0
:10403000636803F48273A26802F404421343E268E3
:1040400002F400621343226902F002021343626920
:1040500002F001021343A26902F400721343E26901
:1040600002F038021343226A02F080021343A26A6C
:1040700002F40052216813430B60638B03F00403C6
:10408000626A02F01002216813434B60A36AB3F521
:10409000005F10D02268D36923F40063D36100204D
:1040A0006065012384F8513010BD84F850302046FB
:1040B000FFF7EEFCB4E72368A28D1A61EAE701205E
:1040C00070472DE9F04385B01F460C9D00230393F4
:1040D00090F85030012B00F08C81044688469146C0
:1040E000012380F85030FEF777FB064694F85130F4
:1040F000DBB26268012B0AD0B2F5827F40F06581A5
:10410000A268002A40F06981042B40F06881B8F170
:10411000000F00F06681B9F1000F00F06481002FFC
:1041200000F0638194F85130DBB2042B02D00523F8
:1041300084F8513000236365C4F83890E787A78777
:10414000C4F83080E786A78623646364A36AB3F566
:10415000005F13D023681A6812F0400F03D11A6869
:1041600042F040021A60E368B3F5006F11D0636853
:10417000002B7FD0012F7DD00127BCE0226813687F
:1041800023F4005313602268136843F40053136050
:10419000E0E763681BB1012F01D001273DE0226BEE
:1041A00023681288DA60236B02332363E38E9BB2A9
:1041B000013B9BB2E386E38E9BB2002BEDD1A36A59
:1041C000B3F5005FE9D12268136843F480531360AC
:1041D000E3E72268136843F480531360002700E08C
:1041E000002723689A6812F0010F0ED0E28F92B276
:1041F0005AB1DA68A36B1A80A36B0233A363E38F0F
:104200009BB2013B9BB2E3870127FEF7E5FA801BD7
:10421000A84202D3B5F1FF3F27D1E38E9BB223B969
:10422000E38F9BB2002B00F0918023689A6812F014
:10423000020FD6D0E28E92B2002AD2D0002FD0D078
:10424000226B1288DA60236B02332363E38E9BB206
:10425000013B9BB2E386E38E9BB2002BC0D1A36AE5
:10426000B3F5005FB5D00027BBE7012384F85130D8
:104270000327ABE0226B236812781A73236B013398
:104280002363E38E9BB2013B9BB2E386E38E9BB23A
:10429000002B7FF471AFA36AB3F5005F7FF46CAFBE
:1042A0002268136843F48053136065E7226813683B
:1042B00043F480531360002700E0002723689A68C6
:1042C00012F0010F0ED0E28F92B25AB1DA68A36BEE
:1042D0001A70A36B0133A363E38F9BB2013B9BB2C4
:1042E000E3870127FEF778FA831BAB4202D3B5F1CF
:1042F000FF3F26D12DB3E38E9BB213B9E38F9BB260
:1043000023B323689A6812F0020FD7D0E28E92B2DC
:10431000002AD3D0002FD1D0226B12781A73236BCE
:1043200001332363E38E9BB2013B9BB2E386E38EB2
:104330009BB2002BC1D1A36AB3F5005FB6D00027B2
:10434000BCE7012384F8513003273FE0A36AB3F5AB
:10435000005F0DD023689A6812F0100F1BD0626DB9
:1043600042F0020262654FF6EF729A60012713E095
:1043700000962B46012211462046FFF793FD20B9F7
:104380002368DB680393039BE4E7636D43F0020358
:10439000636503271AE00027324629462046FFF7C7
:1043A000EBFD70B9A36833B902932368DA6802920F
:1043B0009B680293029B636DCBB9012384F8513053
:1043C00004E020236365012700E00227002384F82E
:1043D0005030384605B0BDE8F0830227F6E70227E3
:1043E000F4E70127F2E70127F0E70127EEE70127CD
:1043F000ECE70227EDE700F1080343604FF0FF32DE
:104400008260C3600361002303607047002303617F
:10441000704743684B609A688A6051609960086190
:10442000036801330360704730B40D68B5F1FF3F96
:1044300011D000F108031C465B681A68AA42FAD939
:1044400063684B6099608C60616008610368013348
:10445000036030BC70470469F2E703694168826811
:104460008A60416851605A68824206D00022026127
:104470001A68013A1A601868704782685A60F5E74E
:104480000346406A18B11B6B1868C0F138007047CA
:1044900010B5044602F056FBA26BE36B9A4204D0BF
:1044A000002402F071FB204610BD0124F9E710B58D
:1044B000044602F047FBA36B23B9012402F064FB1E
:1044C000204610BD0024F9E770B504461546866BFA
:1044D000026C5AB903681BB100200136A66370BD97
:1044E000806801F04DFA0023A360F6E76DB94068DB
:1044F00010F05AF8226C636813446360A268934218
:1045000019D3236863602846E7E7C06810F04CF8C9
:10451000226C5142E3689B1AE3602268934202D204
:10452000A3680B44E360022D01D00020D5E726B13B
:10453000013E0020D1E72846CFE70020CDE7034623
:10454000026C6AB110B50846D9681144D9609C68FC
:10455000A14201D31968D960D96810F025F810BDBF
:10456000704738B5054602F0EDFA95F8454064B25B
:1045700001E0013C64B2002C0ADD6B6A43B105F135
:10458000240001F001F90028F3D001F091F9F0E7DF
:10459000FF2385F8453002F0F7FA02F0D3FA95F8D8
:1045A000444064B201E0013C64B2002C0ADD2B6996
:1045B00043B105F1100001F0E7F80028F3D001F055
:1045C00077F9F0E7FF2385F8443002F0DDFA38BDD3
:1045D00038B5E0B10D46044602F0B4FA2368E26B48
:1045E000216C01FB0230A0600020A0636360013AEF
:1045F00002FB0133E360FF2384F8443084F8453044
:10460000FDB9236963B902F0BFFA012038BD4FF04C
:10461000500383F31188BFF36F8FBFF34F8FFEE713
:1046200004F1100001F0B0F80028ECD04FF0E023C6
:104630004FF08052C3F8042DBFF34F8FBFF36F8F3D
:10464000E1E704F11000FFF7D6FE04F12400FFF7C4
:10465000D2FED8E738B51D46049C0B4649B9246004
:10466000E063236401212046FFF7B2FF84F84C5039
:1046700038BD2260F4E740B94FF0500383F311884E
:10468000BFF36F8FBFF34F8FFEE710B584B01C46AA
:10469000844653B192B189B94FF0500383F3118826
:1046A000BFF36F8FBFF34F8FFEE74FF0500383F3DD
:1046B0001188BFF36F8FBFF34F8FFEE76AB15023AE
:1046C0000393039B502B13D04FF0500383F31188B7
:1046D000BFF36F8FBFF34F8FFEE70029EFD04FF08E
:1046E000500383F31188BFF36F8FBFF34F8FFEE743
:1046F000039B012384F8463000949DF818306046EF
:10470000FFF7A8FF204604B010BD40B94FF050039A
:1047100083F31188BFF36F8FBFF34F8FFEE7F0B5C0
:1047200083B00D461446064601FB00F0503002F0FF
:10473000E1F8074650B1002380F846300090234648
:1047400000F1500229463046FFF784FF384603B097
:10475000F0BD40B94FF0500383F31188BFF36F8F62
:10476000BFF34F8FFEE710B582B00C46884208D2E7
:104770004FF0500383F31188BFF36F8FBFF34F8F58
:10478000FEE702230093134600221146FFF773FF52
:1047900000B1846302B010BD40B94FF0500383F301
:1047A0001188BFF36F8FBFF34F8FFEE710B50C4634
:1047B000884208D24FF0500383F31188BFF36F8F04
:1047C000BFF34F8FFEE702220021FFF79EFF00B1EB
:1047D000846310BDF0B585B0019288B10F461D46C7
:1047E0000446B1B1022D20D1E36B012B1DD04FF057
:1047F000500383F31188BFF36F8FBFF34F8FFEE732
:104800004FF0500383F31188BFF36F8FBFF34F8FC7
:10481000FEE7036C002BE5D04FF0500383F31188C3
:10482000BFF36F8FBFF34F8FFEE701F04DF80646E1
:1048300058B9019B002B48D04FF0500383F31188E7
:10484000BFF36F8FBFF34F8FFEE700263DE02A4690
:1048500039462046FFF738FE636A7BB948B14FF00E
:10486000E0234FF08052C3F8042DBFF34F8FBFF306
:104870006F8F02F089F9012005B0F0BD04F124002A
:1048800000F082FF0028F4D04FF0E0234FF0805278
:10489000C3F8042DBFF34F8FBFF36F8FE9E702F02A
:1048A00073F90020E8E702A800F0B4FF012619E040
:1048B000002384F8443021E0002384F8453023E0CD
:1048C0002046FFF74EFE00F03FFE02F03BF9A26BE0
:1048D000E36B9A42BBD3022DB9D0019B002BDED0F3
:1048E000002EE0D002F050F900F08CFD02F02AF921
:1048F00094F8442052B2B2F1FF3FD9D094F8452049
:1049000052B2B2F1FF3FD7D002F03EF901A902A89E
:1049100000F08CFFD8B92046FFF7BAFD0028CFD0B1
:10492000019904F1100000F0FBFE2046FFF719FE8C
:1049300000F00AFE0028C8D14FF0E0234FF080526B
:10494000C3F8042DBFF34F8FBFF36F8FBDE7204631
:10495000FFF707FE00F0F8FD00208DE748B108B52D
:10496000002181600160C1600B460A46FFF732FFFB
:1049700008BD704710B5024600210120FFF7C5FEB3
:104980000446FFF7EBFF204610BD10B582B00B4682
:104990000090002211460120FFF76DFE0446FFF74C
:1049A000DDFF204602B010BD38B538B10446856839
:1049B00000F084FF85420AD0002038BD4FF050033C
:1049C00083F31188BFF36F8FBFF34F8FFEE7E36868
:1049D000013BE3600BB10120EFE71A461946204680
:1049E000FFF7F8FE0120E8E72DE9F84390B10F4604
:1049F00016461C460546B1B1022C20D1EB6B012BAB
:104A00001DD04FF0500383F31188BFF36F8FBFF3B6
:104A10004F8FFEE74FF0500383F31188BFF36F8F82
:104A2000BFF34F8FFEE7036C002BE5D04FF0500330
:104A300083F31188BFF36F8FBFF34F8FFEE702F050
:104A4000A7F9EFF311894FF0500383F31188BFF3F7
:104A50006F8FBFF34F8FAA6BEB6B9A4206D3022C7A
:104A600004D0002089F31188BDE8F88395F84580CB
:104A70004FFA88F8AB6B224639462846FFF724FDEB
:104A8000B8F1FF3F06D008F101035BB285F845306D
:104A90000120E7E76B6A0BB90120E3E705F1240089
:104AA00000F072FE18B126B101203060DAE7012073
:104AB000D8E70120D6E7F0B585B0019290B10F4656
:104AC0000446C1B100F000FF064600BB019B002B6D
:104AD0005ED04FF0500383F31188BFF36F8FBFF3A5
:104AE0004F8FFEE74FF0500383F31188BFF36F8FB2
:104AF000BFF34F8FFEE7036C002BE3D04FF0500362
:104B000083F31188BFF36F8FBFF34F8FFEE700264B
:104B10003EE039462046FFF712FD013DA5632369BB
:104B200023B902F031F8012005B0F0BD04F1100006
:104B300000F02AFE0028F4D04FF0E0234FF080521E
:104B4000C3F8042DBFF34F8FBFF36F8FE9E702F077
:104B50001BF80020E8E702A800F05CFE012621E037
:104B6000002384F8443029E0002384F845302BE00A
:104B70002046FFF7F6FC00F0E7FC09E02046FFF7CF
:104B8000F0FC00F0E1FC2046FFF791FC00283FD14B
:104B900001F0D8FFA56B002DBBD1019B002BD6D017
:104BA000002ED8D001F0F0FF00F02CFC01F0CAFF7D
:104BB00094F844305BB2B3F1FF3FD1D094F8453064
:104BC0005BB2B3F1FF3FCFD001F0DEFF01A902A835
:104BD00000F02CFE0028D1D12046FFF768FC002809
:104BE000C6D0019904F1240000F09AFD2046FFF799
:104BF000B8FC00F0A9FC0028CAD14FF0E0234FF028
:104C00008052C3F8042DBFF34F8FBFF36F8FBFE700
:104C1000002089E770B584B0019158B10446036C57
:104C20008BB14FF0500383F31188BFF36F8FBFF345
:104C30004F8FFEE74FF0500383F31188BFF36F8F60
:104C4000BFF34F8FFEE700F03FFE054650B9019BD2
:104C50005BB14FF0500383F31188BFF36F8FBFF345
:104C60004F8FFEE70026354655E0064653E0013BF0
:104C7000A36323683BB123694BB901F085FF01268B
:104C8000304604B070BD00F013FFA060F3E704F1FC
:104C9000100000F079FD0028EFD04FF0E0234FF036
:104CA0008052C3F8042DBFF34F8FBFF36F8FE4E73B
:104CB00046B14FF0500383F31188BFF36F8FBFF3FA
:104CC0004F8FFEE701F060FFDAE702A800F0A2FDD7
:104CD00001252AE0002384F8443032E0002384F8E0
:104CE000453034E001F02EFFA06800F0FDFD0646DF
:104CF00001F04AFF3BE02046FFF733FC00F024FCC4
:104D000009E02046FFF72DFC00F01EFC2046FFF7CF
:104D1000CEFB002842D101F015FFA36B002BA6D1DA
:104D2000019B002BC4D0002DCFD001F02DFF00F04F
:104D300069FB01F007FF94F844305BB2B3F1FF3F29
:104D4000C8D094F845305BB2B3F1FF3FC6D001F054
:104D50001BFF01A902A800F069FD0028D1D120465F
:104D6000FFF7A5FB0028C6D02368002BBAD0019915
:104D700004F1240000F0D4FC2046FFF7F2FB00F021
:104D8000E3FB0028C7D14FF0E0234FF08052C3F877
:104D9000042DBFF34F8FBFF36F8FBCE70EB9002612
:104DA0006EE701F0CFFE2046FFF76AFB0146A068E0
:104DB00000F02EFE01F0E8FEF1E780B170B50C4680
:104DC0000546866800F07AFD864211D021462846C5
:104DD000FFF720FF80B1EB680133EB600CE04FF090
:104DE000500383F31188BFF36F8FBFF34F8FFEE73C
:104DF000EB680133EB60012070BD2DE9F843B0B1E1
:104E00000D4616460446D9B101F0C2FFEFF31188F2
:104E10004FF0500383F31188BFF36F8FBFF34F8FB1
:104E2000A76BCFB9002088F31188BDE8F8834FF055
:104E3000500383F31188BFF36F8FBFF34F8FFEE7EB
:104E4000036C002BE0D04FF0500383F31188BFF3C5
:104E50006F8FBFF34F8FFEE794F844904FFA89F9B4
:104E600029462046FFF76BFB013FA763B9F1FF3FDF
:104E700006D009F101035BB284F844300120D2E787
:104E800023690BB90120CEE704F1100000F07CFC8F
:104E900018B126B101203060C5E70120C3E7012029
:104EA000C1E700000023072B0CD8074A52F8332033
:104EB0000AB10133F7E7044A42F8331002EBC303A7
:104EC00058607047704700BFC01300200023072BB5
:104ED0000FD8084A02EBC3025268824201D0013364
:104EE000F5E7044A002142F8331002EBC30359608E
:104EF00070477047C013002038B110B50446FFF763
:104F0000E5FF94F846304BB110BD4FF0500383F3EA
:104F10001188BFF36F8FBFF34F8FFEE7204601F07C
:104F200067FDF1E770B504460D46164601F00AFE2E
:104F300094F844305BB2B3F1FF3F0DD094F84530A4
:104F40005BB2B3F1FF3F0BD001F01EFEA36B5BB170
:104F50002046FFF706FB70BD002384F84430EDE7E0
:104F6000002384F84530EFE73246294604F1240057
:104F700000F0EEFBECE70000084B1B681B6823B950
:104F8000074B4FF0FF321A607047044B1B68DB6819
:104F9000DB685A68024B1A60704700BF0414002097
:104FA000AC1800202DE9F04780460D46174699467B
:104FB000089EDDF824A00A9C9200A521206B0FF02A
:104FC0001BFB236B07F18042013A03EB820727F0BA
:104FD0000707B5B34FF0000CBCF10F0F0BD815F855
:104FE0000C2004EB0C0383F8342015F80C3013B1BB
:104FF0000CF1010CF0E7002384F84330372E00D980
:105000003726E662E66400252565201DFFF7FEF9D8
:1050100004F11800FFF7FAF92461C6F13806A66119
:105020006462656584F858504A464146384601F046
:105030005BFD2060BAF1000F01D0CAF80040BDE866
:10504000F087002384F83430D8E7000038B5002416
:1050500007E004EB840293000E481844FFF7CBF9F5
:105060000134372CF5D90C4D2846FFF7C4F90B4C09
:105070002046FFF7C0F90A48FFF7BDF90948FFF7D6
:10508000BAF90948FFF7B7F9084B1D60084B1C60D7
:1050900038BD00BF0C140020801800209418002098
:1050A000B8180020E4180020D018002004140020B4
:1050B0000814002010B5044601F044FD224A13688C
:1050C00001331360214B1B685BB1214B1B686BB92B
:1050D0001E4B1B68DA6AE36A9A4207D81B4B1C60B6
:1050E00004E01A4B1C601368012B29D0194A13687D
:1050F000013313606364E06A174B1B68984201D95F
:10510000154B186000EB8000211D144B03EB800051
:10511000FFF77FF901F038FD0D4B1B687BB10B4B9E
:105120001B68DA6AE36A9A4209D24FF0E0234FF033
:105130008052C3F8042DBFF34F8FBFF36F8F10BDA4
:10514000FFF784FFD2E700BF6C1800200014002096
:10515000CC180020781800207C1800200C140020A7
:1051600010B5044690F8593063B1012B11D0022BD1
:105170000ED04FF0500383F31188BFF36F8FBFF34E
:105180004F8FFEE7006B01F033FC204601F030FC4E
:1051900010BD01F02DFCFBE70F4B1B68D3B110B520
:1051A00001F0D0FC0D4BDB68DC68201DFFF755F9E2
:1051B0000B4A1368013B1360074A1368013B1360F5
:1051C00001F0E2FC2046FFF7CBFF034B1B68002BEE
:1051D000E6D110BD704700BF70180020E418002011
:1051E0006C18002008B5FFF7D7FF074B1B68012B91
:1051F000F9D94FF0E0234FF08052C3F8042DBFF3EC
:105200004F8FBFF36F8FEEE70C14002070B504468C
:105210000D46174B1E68174B18680430FFF71DF931
:10522000B4F1FF3F0DD03444124B1B685C60A642C2
:1052300010D9114B18680F4B19680431FFF7F4F8B7
:1052400070BD002DEFD00B4B196804310B48FFF7F0
:10525000E0F8F5E70A4B1868064B19680431FFF7C8
:10526000E3F8084B1B68A342EAD9064B1C60E7E74A
:10527000F81800200014002008140020D018002086
:1052800004140020AC18002030B587B00B9C7CB112
:105290000C9DB5B15C250495049D5C2D1AD04FF092
:1052A000500383F31188BFF36F8FBFF34F8FFEE777
:1052B0004FF0500383F31188BFF36F8FBFF34F8F0D
:1052C000FEE74FF0500383F31188BFF36F8FBFF3F6
:1052D0004F8FFEE7049D0C9D2C63022485F85940F6
:1052E00000240394029505AC01940A9C0094FFF7F6
:1052F00059FE0C98FFF7DEFE059807B030BD2DE98A
:10530000F04385B00746884614461E46900001F0DB
:10531000F1FA00B381465C2001F0ECFA0546B0B129
:10532000C0F83090E5B1002385F859300393029519
:105330000D9B01930C9B0093334622464146384611
:10534000FFF730FE2846FFF7B5FE012005E048468E
:1053500001F04EFBE6E74FF0FF3005B0BDE8F0830B
:105360004FF0FF30F9E7000010B588B00024059435
:10537000069407AA06A905A801F03EFA059B029328
:10538000069B019300942346079A18491848FFF793
:105390007BFF184B186040B100F06AFD012806D071
:1053A000B0F1FF3F18D008B010BD0020F6E74FF075
:1053B000500383F31188BFF36F8FBFF34F8F0E4BF2
:1053C0004FF0FF321A600D4B01221A600C4B002285
:1053D0001A6001F051FCE6E74FF0500383F31188A7
:1053E000BFF36F8FBFF34F8FFEE700BF44930208F8
:1053F000E5510008A8180020AC180020CC180020A7
:10540000F8180020024A136801331360704700BF88
:1054100074180020014B1868704700BFF81800206E
:1054200008B501F0B5FC014B186808BDF81800205C
:10543000F8B53A4B1B68002B69D1394B1D68013513
:105440001D60C5B9374B1B681B6843B14FF0500353
:1054500083F31188BFF36F8FBFF34F8FFEE7314A9D
:105460001168314B186810601960304A13680133B5
:105470001360FFF781FD2E4B1B68AB423DD900271F
:105480002C4B1B68DB6A03EB83039A002A4B9B5867
:10549000012B00D90127294B1B68002B3CD0012789
:1054A0003AE001271F4B1B681B6843B31D4B1B6869
:1054B000DB68DC6863689D4226D3261D3046FEF714
:1054C000CCFFA36A1BB104F11800FEF7C6FFE36A24
:1054D0001B4A1268934201D9194A136003EB8303F4
:1054E0009A00314614481044FEF793FFE26A114BCC
:1054F0001B68DB6A9A42D4D2D4E70027D2E70C4B70
:105500004FF0FF321A60BBE7094A1360B8E70D4A53
:1055100013680133136000273846F8BD7418002063
:10552000F81800200414002008140020B0180020EF
:10553000AC180020001400200C140020FC180020DF
:105540007C180020B418002038B5354B1B6843B9CF
:105550004FF0500383F31188BFF36F8FBFF34F8F6A
:10556000FEE701F0EFFA2E4B1A68013A1A601B6849
:10557000002B4FD12B4B1B680BB900244BE00024B0
:10558000294B1B681BB3284BDB68DC6804F118004F
:10559000FEF763FF251D2846FEF75FFFE06A234BF9
:1055A0001B68984201D9214B186000EB8000294606
:1055B0001F4B03EB8000FEF72CFFE26A1D4B1B68BC
:1055C000DB6A9A42DCD31C4B01221A60D8E70CB18B
:1055D000FFF7D2FC194B1C6884B9174B1C68D4B177
:1055E0004FF0E0234FF08052C3F8042DBFF34F8FEC
:1055F000BFF36F8F01240EE0013C07D0FFF718FFC7
:105600000028F9D00C4B01221A60F5E70B4B002261
:105610001A60E2E7002401F0B7FA204638BD00BF67
:10562000741800206C180020B81800207C18002086
:105630000C14002000140020FC180020B4180020D6
:1056400010B5A8B10446104B1B6843B14FF050038E
:1056500083F31188BFF36F8FBFF34F8FFEE7FFF720
:10566000D1FE00212046FFF7D1FDFFF76DFF48B9BD
:105670004FF0E0234FF08052C3F8042DBFF34F8F5B
:10568000BFF36F8F10BD00BF741800201F4B1B6845
:105690001BB11F4B01221A6070471D4B00221A607C
:1056A0001C4B1B6803EB83018A001B498A585AB9BB
:1056B0000BB1013BF6E74FF0500383F31188BFF3C2
:1056C0006F8FBFF34F8FFEE703EB830082000A4426
:1056D00050684068506003EB830C4FEA8C0208323C
:1056E000114488420BD003EB830291000A4A0A441A
:1056F0005268D168094A1160064A136070474068D1
:1057000062469100044A0A445060ECE77418002095
:10571000FC1800207C1800200C140020001400202D
:1057200058B110B50C46094A11681831FEF77CFED5
:1057300001212046FFF76AFD10BD4FF0500383F3AF
:105740001188BFF36F8FBFF34F8FFEE70014002067
:1057500038B570B10D4614460A4A11681831FEF783
:1057600058FE0CB14FF0FF3521462846FFF74EFD9D
:1057700038BD4FF0500383F31188BFF36F8FBFF331
:105780004F8FFEE70014002038B5C368DC6824B3EF
:1057900004F118052846FEF760FE184B1B682BBB6A
:1057A000251D2846FEF759FEE06A154B1B689842F6
:1057B00001D9134B186000EB80002946114B03EB15
:1057C0008000FEF726FEE26A0F4B1B68DB6A9A42F6
:1057D00011D901200D4B186038BD4FF0500383F3F1
:1057E0001188BFF36F8FBFF34F8FFEE7294608483C
:1057F000FEF70FFEE7E70020EEE700BF7418002079
:105800007C1800200C14002000140020FC1800203C
:10581000B8180020034B1B680360034B1B684360F0
:10582000704700BFB0180020F8180020F8B5C8B1C4
:105830000C460546F9B101F085F91B4B19686B68F8
:10584000C81A2268B2F1FF3F26D0184E36682F687A
:10585000B74201D08B4224D9824215D8002323605D
:1058600001241AE04FF0500383F31188BFF36F8FC8
:10587000BFF34F8FFEE74FF0500383F31188BFF360
:105880006F8FBFF34F8FFEE75B1A134423602846E8
:10589000FFF7C0FF002400E0002401F075F9204666
:1058A000F8BD0124F9E700BFF8180020B018002067
:1058B000014B01221A607047FC180020014B186848
:1058C000704700BF00140020054B1B6833B1054B27
:1058D0001B680BB100207047022070470120704701
:1058E000CC1800207418002000283ED038B504469B
:1058F000C36A204A1268D26A93422ED28269002A71
:1059000005DB1C4A1268D26AC2F138028261616901
:1059100003EB8303184A02EB8303994205D0154B2E
:105920001B68DB6AE362012038BD251D2846FEF7AF
:1059300094FD104B1B68D86AE062104B1B689842BC
:1059400001D90E4B186000EB800029460A4B03EB8F
:105950008000FEF75EFD0120E6E7C26C054B1B6888
:10596000DB6A9A4203D30020DEE700207047012063
:10597000DAE700BF001400200C1400207C1800207F
:1059800000283BD038B504461E4B1B68834208D024
:105990004FF0500383F31188BFF36F8FBFF34F8F26
:1059A000FEE7036D43B94FF0500383F31188BFF353
:1059B0006F8FBFF34F8FFEE7013B0365C16AC26C77
:1059C00091421DD00BB1002038BD051D2846FEF7C1
:1059D00044FDE06CE062C0F13803A3610A4B1B6830
:1059E000984201D9084B186000EB80002946074B0C
:1059F00003EB8000FEF70DFD0120E5E70020704776
:105A00000020E1E7001400207C1800200C14002086
:105A1000002846D038B50446036D43B94FF0500313
:105A200083F31188BFF36F8FBFF34F8FFEE7C26C14
:105A30008A4200D20A46E16A914201D0012B00D08D
:105A400038BD184B1B68A34222D0E262A369002B29
:105A500002DBC2F13802A261626901EB8101124BE3
:105A600003EB81018A42EBD1251D2846FEF7F5FCA8
:105A7000E06A0E4B1B68984201D90C4B186000EB92
:105A800080002946084B03EB8000FEF7C2FCD7E7F5
:105A90004FF0500383F31188BFF36F8FBFF34F8F25
:105AA000FEE77047001400200C1400207C18002032
:105AB000054B1B6823B1044B1A68136D0133136542
:105AC000014B1868704700BF00140020F8B5064667
:105AD0000F4614461D4601F035F8214B1B6893F81C
