:020000040800F2
:10000000000002203D4F0008B1060008B3060008BA
:10001000B5060008B7060008B90600080000000091
:100020000000000000000000000000006140000827
:10003000BB0600080000000001410008FF3900086D
:100040008D4F00088D4F00088D4F00088D4F000820
:100050008D4F00088D4F00088D4F00088D4F000810
:100060008D4F00088D4F00088D4F00088D4F000800
:100070008D4F00088D4F00088D4F00088D4F0008F0
:100080008D4F00088D4F00088D4F00088D4F0008E0
:100090008D4F00088D4F00088D4F00088D4F0008D0
:1000A0008D4F00088D4F00088D4F00088D4F0008C0
:1000B0008D4F00088D4F00088D4F00088D4F0008B0
:1000C0008D4F00088D4F00088D4F00088D4F0008A0
:1000D0008D4F00088D4F00088D4F00088D4F000890
:1000E0008D4F00088D4F00088D4F00088D4F000880
:1000F0008D4F00088D4F00088D4F00088D4F000870
:100100008D4F00088D4F00088D4F00088D4F00085F
:100110008D4F00088D4F00088D4F0008BD06000868
:100120008D4F00088D4F00088D4F00088D4F00083F
:100130008D4F00088D4F00088D4F00088D4F00082F
:100140008D4F00088D4F00088D4F00088D4F00081F
:100150008D4F00088D4F00088D4F00088D4F00080F
:100160008D4F00088D4F00088D4F00088D4F0008FF
:100170008D4F00088D4F00088D4F000800000000D3
:080180008D4F00088D4F0008AF
:1001900010B5054C237833B9044B13B10448AFF3C1
:1001A00000800123237010BD4400002000000000E7
:1001B000A48F000808B5034B1BB103490348AFF3F4
:1001C000008008BD0000000048000020A48F000847
:1001D00053B94AB9002908BF00281CBF4FF0FF31AE
:1001E0004FF0FF3000F074B9ADF1080C6DE904CEAA
:1001F00000F006F8DDF804E0DDE9022304B0704702
:100200002DE9F047089D04468E46002B4DD18A42C9
:10021000944669D9B2FA82F252B101FA02F3C2F1FC
:10022000200120FA01F10CFA02FC41EA030E94408D
:100230004FEA1C48210CBEFBF8F61FFA8CF708FBAE
:1002400016E341EA034306FB07F199420AD91CEB86
:10025000030306F1FF3080F01F81994240F21C81B8
:10026000023E63445B1AA4B2B3FBF8F008FB103300
:1002700044EA034400FB07F7A7420AD91CEB040435
:1002800000F1FF3380F00A81A74240F20781644405
:10029000023840EA0640E41B00261DB1D44000238A
:1002A000C5E900433146BDE8F0878B4209D9002DEE
:1002B00000F0EF800026C5E9000130463146BDE878
:1002C000F087B3FA83F6002E4AD18B4202D38242E2
:1002D00000F2F980841A61EB030301209E46002D91
:1002E000E0D0C5E9004EDDE702B9FFDEB2FA82F2E6
:1002F000002A40F09280A1EB0C014FEA1C471FFA44
:100300008CFE0126200CB1FBF7F307FB131140EA2A
:1003100001410EFB03F0884208D91CEB010103F1F7
:10032000FF3802D2884200F2CB804346091AA4B2B9
:10033000B1FBF7F007FB101144EA01440EFB00FE8D
:10034000A64508D91CEB040400F1FF3102D2A645F2
:1003500000F2BB800846A4EB0E0440EA03409CE791
:10036000C6F12007B34022FA07FC4CEA030C20FA3E
:1003700007F401FA06F31C43F9404FEA1C4900FA5E
:1003800006F3B1FBF9F8200C1FFA8CFE09FB1811DB
:1003900040EA014108FB0EF0884202FA06F20BD94E
:1003A0001CEB010108F1FF3A80F08880884240F29E
:1003B0008580A8F102086144091AA4B2B1FBF9F0E2
:1003C00009FB101144EA014100FB0EFE8E4508D9DD
:1003D0001CEB010100F1FF346CD28E456AD9023862
:1003E000614440EA0840A0FB0294A1EB0E01A14247
:1003F000C846A64656D353D05DB1B3EB080261EBB5
:100400000E0101FA07F722FA06F3F1401F43C5E98E
:10041000007100263146BDE8F087C2F12003D840C4
:100420000CFA02FC21FA03F3914001434FEA1C4706
:100430001FFA8CFEB3FBF7F007FB10360B0C43EAF8
:10044000064300FB0EF69E4204FA02F408D91CEBA8
:10045000030300F1FF382FD29E422DD902386344A6
:100460009B1B89B2B3FBF7F607FB163341EA034146
:1004700006FB0EF38B4208D91CEB010106F1FF3895
:1004800016D28B4214D9023E6144C91A46EA00468C
:1004900038E72E46284605E70646E3E61846F8E61E
:1004A0004B45A9D2B9EB020864EB0C0E0138A3E767
:1004B0004646EAE7204694E74046D1E7D0467BE748
:1004C000023B614432E7304609E76444023842E7C0
:1004D000704700BF08B50268034B9A4200D008BDC0
:1004E00001F00CF8FBE700BF0014004072B6FEE715
:1004F00000B595B03022002108A808F04BFD00237C
:10050000039304930593069307930193204A116C78
:1005100041F080511164126C02F080520192019AF4
:1005200002931C4B1A6842F480421A601B6803F461
:1005300080430293029B012308934FF48033099375
:1005400002230E934FF480020F920C221092A822E5
:10055000119212930423139308A800F033FB98B967
:100560000F23039302230493002305934FF4A05316
:1005700006934FF480530793052103A800F070FD04
:1005800020B915B05DF804FBFFF7B0FFFFF7AEFF31
:10059000003802400070004008B500F095FFFFF7FA
:1005A000A7FF00F011F801F09DF801F001F901F04A
:1005B00039F901F091F901F0EBF903F02DFA01F0AE
:1005C0005BF803F03BFAFEE72DE9F0418CB0002424
:1005D00006940794089409940A940B94304B1A6B70
:1005E00042F010021A631A6B02F010020592059A8B
:1005F0001A6B42F080021A631A6B02F080020492B6
:10060000049A1A6B42F002021A631A6B02F0020299
:100610000392039A1A6B42F008021A631A6B02F0F3
:1006200008020292029A1A6B42F001021A631B6BD3
:1006300003F001030193019B1A4F4FF08263BB61EA
:10064000194E4FF00053B3611E23069301250A95FE
:10065000DFF8588006A9404600F05AF86023069358
:10066000079402230A9306A9404600F051F84FF47C
:10067000826306930795089409940A9406A938465C
:1006800000F046F84FF40053069307950894099438
:100690000A9406A9304600F03BF80CB0BDE8F081A2
:1006A0000038024000040240000C024000100240EA
:1006B000FEE7FEE7FEE7FEE7FEE7704708B5024803
:1006C00000F036F908BD00BFA802002000B583B0D5
:1006D000002200920D4B596C41F480415964596CD1
:1006E00001F48041009100990192196C41F0805110
:1006F00019641B6C03F080530193019B0F216FF071
:10070000010000F09BFE03B05DF804FB00380240DE
:10071000F0B40A6892FAA2F212B1B2FA82F264E07C
:10072000202262E08E68856893FAA3F4DCB1B4FA03
:1007300084F464004FF0030C0CFA04F425EA040579
:1007400093FAA3F48CB1B4FA84F4640006FA04F4C6
:100750002C438460CD68446824EA030403FB05F558
:100760002C43446050E02024E3E72024EDE72024DC
:1007700052E020245DE0202473E020247DE04F69D6
:10078000466A1C0A94FAA4F5002D7CD0B5FA85F5CA
:10079000AD004FF00F0C0CFA05F526EA050594FAAA
:1007A000A4F4002C71D0B4FA84F4A40007FA04F481
:1007B0002C4344624E68056893FAA3F4002C66D07B
:1007C000B4FA84F464004FF0030C0CFA04F425EA44
:1007D000040493FAA3F3002B5BD0B3FA83F35B001A
:1007E00006FA03F32343036001320B6833FA02F481
:1007F00051D04FF0010C0CFA02FC1CEA0303F3D0B9
:100800004C68013C012C8DD90E69C56893FAA3F49C
:10081000002CACD0B4FA84F464004FF0030C0CFA52
:1008200004F425EA040593FAA3F4002CA1D0B4FA49
:1008300084F4640006FA04F42C43C4604C68022C6F
:10084000B8D193FAA3F4002C99D0B4FA84F4072C0D
:1008500095D84E69056A93FAA3F4002C8BD0B4FAAC
:1008600084F4A4000F2707FA04F425EA040593FA98
:10087000A3F4002C81D0B4FA84F4A40006FA04F4A2
:100880002C43046296E7202582E720248DE720246C
:1008900098E72023A3E70020F0BC704770470000D2
:1008A00090F83D30DBB2012B37D1022380F83D3088
:1008B0000268D36843F00103D3600368194A934286
:1008C00020D0B3F1804F1DD0A2F57C42934219D0C5
:1008D00002F58062934215D002F58062934211D0F6
:1008E00002F5784293420DD002F57052934209D03E
:1008F000A2F59432934205D01A6842F001021A60C0
:10090000002070479A6802F00702062A07D01A688A
:1009100042F001021A600020704701207047002059
:10092000704700BF00000140704770477047704734
:1009300070B504460368DE681D6915F0020F10D01B
:1009400016F0020F0DD06FF002021A610123037737
:1009500003689B6913F0030F5ED0FFF7E6FF0023E7
:10096000237715F0040F12D016F0040F0FD0236870
:100970006FF004021A610223237723689B6913F442
:10098000407F4FD02046FFF7D0FF0023237715F09C
:10099000080F12D016F0080F0FD023686FF008026E
:1009A0001A61042323772368DB6913F0030F40D017
:1009B0002046FFF7BAFF0023237715F0100F12D05F
:1009C00016F0100F0FD023686FF010021A61082381
:1009D00023772368DB6913F4407F31D02046FFF78B
:1009E000A4FF0023237715F0010F02D016F0010FAA
:1009F0002DD115F0800F02D016F0800F2FD115F0F9
:100A0000400F02D016F0400F31D115F0200F02D068
:100A100016F0200F33D170BDFFF786FF2046FFF799
:100A200085FF9CE72046FFF77FFF2046FFF77EFF0C
:100A3000ABE72046FFF778FF2046FFF777FFBAE7DE
:100A40002046FFF771FF2046FFF770FFC9E72368D4
:100A50006FF001021A612046FFF73CFDC9E72368E9
:100A60006FF080021A61204600F0ABF8C7E72368F8
:100A70006FF040021A612046FFF759FFC5E723686F
:100A80006FF020021A61204600F09AF8C3E70000D8
:100A90000368344A904212D0B0F1804F0FD0A2F5D3
:100AA0007C4290420BD002F58062904207D002F562
:100AB0008062904203D002F57842904203D123F045
:100AC00070034A681343274A90422AD0B0F1804FFE
:100AD00027D0A2F57C42904223D002F5806290425A
:100AE0001FD002F5806290421BD002F578429042FE
:100AF00017D002F57052904213D002F580629042F6
:100B00000FD002F5806290420BD0A2F5983290424D
:100B100007D002F58062904203D002F580629042D5
:100B200003D123F44073CA68134323F080034A6956
:100B3000134303608B68C3620B688362094B98425E
:100B400003D003F58063984201D10B69036301234D
:100B50004361036913F0010F03D0036923F001031C
:100B6000036170470000014040B310B5044690F89F
:100B70003D30F3B1022384F83D30214651F8040B97
:100B8000FFF786FF012384F8463084F83E3084F86E
:100B90003F3084F8403084F8413084F8423084F8A3
:100BA000433084F8443084F8453084F83D300020E8
:100BB00010BD80F83C30FFF771FEDBE70120704785
:100BC00070477047002800F0E08170B582B004469D
:100BD000036813F0010F3BD09F4B9B6803F00C039D
:100BE000042B2CD09C4B9B6803F00C03082B21D0CA
:100BF0006368B3F5803F4FD0B3F5A02F52D0964B2A
:100C00001A6822F480321A601A6822F480221A606C
:100C10006368002B50D000F07DFC05468E4B1B68AE
:100C200013F4003F14D100F075FC401B6428F5D983
:100C30000320B1E1884B5B6813F4800FD8D0864B5A
:100C40001B6813F4003F03D06368002B00F09F8102
:100C5000236813F0020F54D07F4B9B6813F00C0FE6
:100C60003ED07D4B9B6803F00C03082B33D0E36828
:100C7000002B68D0794B01221A6000F04BFC05462E
:100C8000754B1B6813F0020F54D100F043FC401B5E
:100C90000228F5D903207FE16F4A136843F48033BB
:100CA0001360B5E76C4B1A6842F480221A601A6828
:100CB00042F480321A60ABE700F02CFC0546664B2C
:100CC0001B6813F4003FC3D000F024FC401B6428D1
:100CD000F5D9032060E1604B5B6813F4800FC6D147
:100CE0005D4B1B6813F0020F03D0E368012B40F04B
:100CF0005081594A136823F0F803216943EAC1037C
:100D00001360236813F0080F42D063696BB3534B31
:100D10000122C3F8802E00F0FDFB05464E4B5B6FB1
:100D200013F0020F34D100F0F5FB401B0228F5D977
:100D3000032031E1484A136823F0F803216943EAAC
:100D4000C1031360DDE7454B00221A6000F0E2FBAF
:100D50000546414B1B6813F0020FD2D000F0DAFBBE
:100D6000401B0228F5D9032016E13C4B0022C3F8B2
:100D7000802E00F0CFFB0546374B5B6F13F0020F60
:100D800006D000F0C7FB401B0228F5D9032003E181
:100D9000236813F0040F77D02F4B1B6C13F0805F88
:100DA00033D1002301932C4B1A6C42F080521A6409
:100DB0001B6C03F080530193019B0125284B1B689A
:100DC00013F4807F23D0A368012B34D0052B38D0B7
:100DD000214B1A6F22F001021A671A6F22F00402E7
:100DE0001A67A368002B3DD000F094FB06461A4B0F
:100DF0001B6F13F0020F46D100F08CFB801B41F2F9
:100E000088339842F3D90320C6E00025D6E7144A78
:100E1000136843F48073136000F07CFB0646104BAC
:100E20001B6813F4807FCED100F074FB801B022876
:100E3000F5D90320B0E0084A136F43F001031367AC
:100E4000CFE7054B1A6F42F004021A671A6F42F09F
:100E500001021A67C5E700BF0038024000004742A0
:100E60000070004000F056FB0646524B1B6F13F01B
:100E7000020F08D000F04EFB801B41F288339842ED
:100E8000F3D9032088E0EDB9A369002B00F083803B
:100E9000484A926802F00C02082A51D0022B17D05F
:100EA000454B00221A6600F035FB0446414B1B6897
:100EB00013F0007F42D000F02DFB001B0228F5D973
:100EC000032069E03B4A136C23F080531364DBE793
:100ED000394B00221A6600F01DFB0546354B1B6896
:100EE00013F0007F06D000F015FB401B0228F5D957
:100EF000032051E0E369226A1343626A43EA8213E2
:100F0000A26A5208013A43EA0243E26A43EA0263F0
:100F1000284A5360284B01221A6600F0FBFA044667
:100F2000244B1B6813F0007F06D100F0F3FA001B7E
:100F30000228F5D903202FE000202DE000202BE02F
:100F4000012B2BD01B4B5B6803F48001E2699142BB
:100F500026D103F03F02216A8A4223D1616A47F613
:100F6000C0721A40B2EB811F1ED103F44031A26A55
:100F70005208013AB1EB024F18D103F07063E26AF4
:100F8000B3EB026F14D1002006E00120704701206E
:100F900002E0012000E0002002B070BD0120FBE76C
:100FA0000120F9E70120F7E70120F5E70120F3E749
:100FB0000120F1E7003802400000474208B5254B08
:100FC0009B6803F00C03042B3FD0082B3FD1214B2F
:100FD0005A6802F03F025B6813F4800F12D01D4B79
:100FE0005968C1F388111C480023A1FB0001FFF7D9
:100FF000EFF8184B5B68C3F3014301335B00B0FBB0
:10100000F3F025E0134B5968C1F3881C4FEA4C11EB
:10101000B1EB0C006EEB0E0E4FEA8E1343EA9063B9
:101020008101091A63EB0E03DB0043EA5173C90027
:1010300011EB0C0C43F10003990200234FEA8C20C2
:1010400041EA9C51FFF7C4F8D3E7034800E00348A6
:1010500008BD00BF0038024000366E010024F400D5
:10106000002800F09B8070B50D4604464F4B1B686E
:1010700003F007038B4208D2CBB24C4A13701368BB
:1010800003F007038B4240F08B80236813F0020FBC
:1010900017D013F0040F04D0454A936843F4E0538B
:1010A0009360236813F0080F04D0414A936843F417
:1010B000604393603E4A936823F0F003A1680B43BA
:1010C0009360236813F0010F32D06368012B21D0A5
:1010D0009A1E012A25D9364A126812F0020F61D0F1
:1010E00033498A6822F0030213438B6000F012FA3E
:1010F00006462F4B9B6803F00C036268B3EB820F2C
:1011000016D000F007FA801B41F288339842F0D9DC
:10111000032042E0264A126812F4003FE0D1012089
:101120003BE0234A126812F0007FD9D1012034E05D
:101130001E4B1B6803F00703AB4207D9EAB21B4BF7
:101140001A701B6803F00703AB422DD1236813F01C
:10115000040F06D0164A936823F4E053E1680B436A
:101160009360236813F0080F07D0114A936823F4A3
:101170006043216943EAC1039360FFF71FFF0C4BF3
:101180009B68C3F303130B4AD35CD8400A4B186027
:101190000A4B186800F050FC002070BD0120704719
:1011A0000120FAE70120F8E70120F6E7003C0240C1
:1011B00000380240409C00083C000020380000201D
:1011C000014B1868704700BF3C00002008B5FFF7CE
:1011D000F7FF044B9B68C3F38223034AD35CD840D8
:1011E00008BD00BF00380240509C00080F23036078
:1011F0000B4B9A6802F0030242609A6802F0F00218
:1012000082609A6802F4E052C2609B68DB0803F4D3
:10121000E0530361034B1B6803F007030B60704747
:1012200000380240003C024000230F2B00F2E48013
:1012300070B582B060E085685E000324B44025EAA2
:101240000405CC68B4402C438460456825EA020557
:101250004C68C4F300129A402A4342605AE0DC080A
:10126000083450F8246003F0070295000F22AA40CA
:1012700026EA020E0A69AA4042EA0E0240F8242039
:101280005CE0072200E0002202FA0EF22A43023458
:101290005A4D45F824205A4A94686FEA0C0224EA11
:1012A0000C054E6816F4801F01D04CEA0405544C1E
:1012B000A560E46802EA04054E6816F4001F01D038
:1012C0004CEA04054E4CE560646802EA04054E6889
:1012D00016F4003F01D04CEA0405494C65602468CF
:1012E00022404D6815F4803F01D04CEA0402444C82
:1012F000226001330F2B7DD801229A400C6804EA4A
:10130000020C32EA0404F4D14C6804F00304013CFA
:10131000012C90D94A6802F00302032A09D0C4685C
:101320005D000322AA4024EA02048A68AA402243FC
:10133000C2604A6802F00302022A90D004684FEAB1
:10134000430E032202FA0EF224EA02044A6802F073
:10135000030202FA0EF2224302604A6812F4403F8E
:10136000C7D000220192274A546C44F4804454644C
:10137000526C02F480420192019A9C08A51C1F4AFB
:1013800052F8255003F003024FEA820E0F2202FAB0
:101390000EF225EA02051C4A90423FF474AF02F5B2
:1013A000806290421AD002F58062904218D002F515
:1013B0008062904216D002F58062904214D002F50D
:1013C0008062904212D002F58062904210D002F505
:1013D000806290423FF455AF082255E7012253E75F
:1013E000022251E703224FE704224DE705224BE793
:1013F000062249E702B070BD704700BF00380140C7
:10140000003C014000380240000002400AB1816106
:101410007047090481617047074AD36823F4E06389
:101420001B041B0C000200F4E060034343F0BF63A5
:1014300043F40033D360704700ED00E000B5194B72
:10144000DB68C3F30223C3F1070CBCF1040F28BF10
:101450004FF0040C03F1040EBEF1060F18D9033B44
:101460004FF0FF3E0EFA0CFC21EA0C0199400EFAF7
:1014700003F322EA0303194300280BDB0901C9B275
:1014800000F1604000F5614080F800135DF804FB56
:101490000023E5E700F00F000901C9B2024B19541F
:1014A000F4E700BF00ED00E014ED00E0002807DBEA
:1014B00000F01F02400901239340024A42F8203005
:1014C000704700BF00E100E008B50B4B1A6842F41A
:1014D00000721A601A6842F480621A601A6842F454
:1014E00080721A600320FFF797FF0F2000F0A4FA24
:1014F000FFF7ECF8002008BD003C0240034A1168E9
:10150000034B1B780B441360704700BFE0010020C1
:1015100034000020014B1868704700BFE001002034
:1015200038B50446FFF7F6FF0546B4F1FF3F02D099
:10153000044B1B781C44FFF7EDFF401BA042FAD37D
:1015400038BD00BF34000020034B9B68C3F3031376
:10155000024AD35CD840704700380240409C0008E3
:10156000034B9B68C3F38223024AD35CD840704785
:1015700000380240509C0008034B9B68C3F3423381
:10158000024AD35CD840704700380240509C0008A3
:101590000F4B5B6803F4800323B90E4B082803D07C
:1015A000002070470C4BF9E7094A506800F03F00F3
:1015B000B3FBF0F05368C3F3881303FB00F05368E8
:1015C000C3F3014301335B00B0FBF3F0704700BF8E
:1015D000003802400024F40000366E0108B5084BC4
:1015E0009B6803F00C03042B05D0082B05D10820C1
:1015F000FFF7CEFF02E0034800E0034808BD00BF4C
:101600000038024000366E010024F40010B5044694
:10161000FFF7E4FF2060FFF797FF6060FFF7A0FF90
:10162000A0606068FFF7A8FFE06010BD034AD2F831
:10163000883043F47003C2F88830704700ED00E052
:1016400008B5012002F078FAFBE708B5012002F0A6
:1016500073FAFBE708B5012002F06EFAFBE708B564
:1016600004F096F94FF0FF3004F06EF804F036F90C
:10167000012002F061FAFBE708B50E4A00210E488E
:1016800002F0F8F90D4B18600D4A00210D4802F0E8
:10169000F1F90D4B18600D4A00210D4802F0EAF9EE
:1016A0000C4B18600C4A00210C4802F0E3F90C4B7B
:1016B000186008BDC89C000841160008EC01002015
:1016C000A49C00084B160008E8010020EC9C0008D0
:1016D00055160008F0010020809C00085F160008E5
:1016E000E401002008B50548054B036000F0F6F959
:1016F00000B908BDFEF7FAFEFBE700BFF4010020C9
:10170000003002400268094B9A4200D0704782B014
:1017100000230193064B1A6B42F480521A631B6B31
:1017200003F480530193019B02B0704700300240E4
:1017300000380240F0B587B0002301930293039371
:1017400004930593164B1B680BB107B0F0BD144B07
:1017500001221A6000260096124B9A6B42F0010299
:101760009A639B6B03F001030093009B4FF6807319
:10177000019302270297032504950C24059401A9DF
:101780000948FFF751FD4CF6B37301930297039696
:101790000495059401A90548FFF746FDD5E700BF6C
:1017A000FC0100200038024000100240000C024002
:1017B00010B588B000220192029203920492059221
:1017C0000692079214484FF02043036003F582739A
:1017D00043608260C2600261102141618261C26126
:1017E000026242624FF480538362C26202634263C8
:1017F00082634264022301930F24029403930493AF
:1018000005911123069301A900F0F2F908B908B077
:1018100010BDFEF76BFEFAE70002002008B5FFF7E7
:1018200089FF08BD30B58FB00024089409940A944C
:101830000B940C940D9402940394049405940694D0
:101840000794224D2B6B43F002032B632B6B03F0A9
:1018500002030193019BC0230293022303930323FA
:101860000493012305930423079302A91848FEF764
:101870004FFF2B6C43F400132B642B6C03F4001309
:101880000093009BA5F5F235EB6823F00103EB60B4
:101890002B6823F040032B602B6823F080032B6020
:1018A00008940C4B09930A940B944FF480630C93A7
:1018B0004FF480430D9308A9284600F0C5F9EB6862
:1018C00023F0FE03EB600FB030BD00BF00380240D4
:1018D00000040240A086010008B50F480F4B0360CA
:1018E0004FF48273436000238360C36003614361EC
:1018F0004FF4802282612822C261036243624FF466
:10190000005383620A23C36200F020FA00B908BDC5
:10191000FEF7ECFDFBE700BF50020020003800405E
:1019200000B589B0002303930493059306930793AE
:101930000268154B9A4202D009B05DF804FB002101
:10194000019103F500331A6C42F480421A641A6C58
:1019500002F480420192019A02911A6B42F0020253
:101960001A631B6B03F002030293029B4FF4704354
:10197000039302230493032306930523079303A9E8
:101980000248FFF751FCD7E700380040000402404E
:1019900010B590B0002409940A940B940C940D9403
:1019A0000E940F9403940494059406940794089459
:1019B0001F4B5A6C42F010025A645A6C02F010022B
:1019C0000292029A1A6B42F001021A631B6B03F037
:1019D00001030193019B4FF4C0630393022304931B
:1019E000032305930723089303A91248FEF790FEEB
:1019F0004FF4E13309930A940B940C940C230D9348
:101A00000E940F9404F1804404F5883409A920460B
:101A100000F002FA236923F490432361636923F001
:101A20002A036361E36843F40053E36010B010BD20
:101A3000003802400000024030B589B0044600235F
:101A40000193214B1A6C42F020021A641B6C03F0C4
:101A500020030193019B02A903A8FFF7C7FB069B84
:101A6000CBB9FFF7B3FB03461848A0FB03239B0C3D
:101A7000013B1748174A026040F2E732C2604360F8
:101A80000023036183608361FFF76EF8054630B180
:101A9000284609B030BDFFF799FB4300E4E70C4846
:101AA000FEF7FEFE05460028F2D13720FFF7FEFCC8
:101AB0000F2C01D90125EBE7002221463720FFF743
:101AC000BDFC054B1C60E3E70038024083DE1B438E
:101AD000A8020020001400403800002058B110B5C2
:101AE000044643791BB101236371002010BD0371CB
:101AF000FFF708FEF7E701207047000010B40A68FE
:101B000050F8223023F0010340F822308B68082B74
:101B100025D000244A6822431343CA6813430A6944
:101B200013434A691343CA6913430A6A13434A6A4F
:101B300013438A6A1343CA6A13430A6B13438A69BD
:101B40001343CA6B1343096850F82140054A2240E9
:101B50001A4340F8212000205DF8044B70474024D0
:101B6000D8E700BF8000F0FF10B5013250F82230F6
:101B700003F0404C0B684C6843EA04138C6843EA5A
:101B80000423CC6843EA04430C6904F1FF3E43EAB2
:101B90000E534C69A4F1020E43EA0E6389690B43AC
:101BA0004CEA030340F82230002010BDB3F5804F0B
:101BB00005D06FF0704340F822300020704730B4F9
:101BC00050F82230094C1C400B684D6843EA05135D
:101BD0008D6843EA05238D692B43C96843EA0143B5
:101BE000234340F82230002030BC70470000F0CF83
:101BF00040B370B50E461546044690F84930E3B13F
:101C0000214651F8080BFFF779FFA268314620689A
:101C1000FFF7AAFF236BA26829466068FFF7C6FF9B
:101C20002268A16852F8213043F0010342F82130C4
:101C3000012384F84930002070BD80F84830FFF758
:101C4000EDFDDDE701207047F0B585B004460D4697
:101C5000036823F0010303606846FFF7D7FC029A8C
:101C60006B68AE683648A0FB021C4FEA9C41606876
:101C700020F03F0040EA9C406060206A20F03F0076
:101C8000304FBB4237D80131014321622D498B428D
:101C90004DD9002E39D103EB4303B2FBF3F2C2F36B
:101CA0000B03002B3DD042F4004246EA0203E269F6
:101CB00022F44F4222F0FF021A43E261EA686969A6
:101CC000A36823F4034323F0FF030A431343A360F1
:101CD0002B68226822F01A0213432360236843F022
:101CE000010323602B69226822F48062134323607E
:101CF000002005B0F0BD4FF4967707FB01F1124FBD
:101D0000A7FB017189090131BEE703EB830303EBF4
:101D10008303B2FBF3F2C2F30B032BB142F4004294
:101D2000C3E748F20102C0E748F20102BDE75B00E9
:101D3000B2FBF3F340F6FC721342B8D10423B6E7CA
:101D400083DE1B43A0860100D34D6210002860D0C3
:101D500010B50446436A33B94368B3F5827F05D0B2
:101D60000023C36102E000230361436194F8513012
:101D7000002B44D0022384F851302268136823F0EA
:101D800040031360636803F48273A26802F40442A0
:101D90001343E26802F400621343226902F0020274
:101DA0001343626902F001021343A26902F4007254
:101DB0001343E26902F038021343226A02F0800200
:101DC0001343A26A02F40052216813430B60638B31
:101DD00003F00403626A02F01002216813434B60AF
:101DE000A36AB3F5005F10D02268D36923F40063BF
:101DF000D36100206065012384F8513010BD84F860
:101E000050302046FFF78CFDB4E72368A28D1A619D
:101E1000EAE7012070470000C36813F4005F01D0B7
:101E20000120704730B585B004460D46C36823F4E1
:101E3000164323F00C034A68C9680A4329690A4318
:101E4000A9690A431343C360AB68026922F4405294
:101E5000134303616B69426922F440721343436187
:101E60006846FFF7D3FB434B9C4210D0424B9C4249
:101E700014D0424B9C4213D0414B9C4212D0414B58
:101E80009C4211D0404B9C4210D001206FE003983F
:101E900000286BD02B685BB9012068E00298F7E757
:101EA0000298F5E70398F3E70298F1E70298EFE765
:101EB000AA69B2F5004F2CD000210218494112182E
:101EC00041F10001C90041EA5271D20010184FEAF5
:101ED00083024FEA937341F10001FEF779F92B4930
:101EE000A1FB00235B091A0192B2642505FB1303D1
:101EF0001B013233A1FB0313C3F34F1303F0F001B3
:101F00000A4492B203F00F0313449BB2A360002073
:101F10002DE00025021845EB0501121841F10001E2
:101F2000C90041EA5271D200101841F10001DA18DB
:101F300045EB0503FEF74CF91449A1FB00235B09AF
:101F40001A0192B2642505FB1303DB003233A1FBB7
:101F50000313C3F34F13590001F4F8710A4492B20A
:101F600003F0070313449BB2A360D0E7012005B040
:101F700030BD00BF00100140004400400048004058
:101F800000140140004C0040005000401F85EB5100
:101F900000F1080343604FF0FF328260C3600361C9
:101FA00000230360704700230361704743684B6060
:101FB0009A688A6051609960086103680133036020
:101FC000704730B40D68B5F1FF3F11D000F1080340
:101FD0001C465B681A68AA42FAD963684B6099602C
:101FE0008C606160086103680133036030BC704736
:101FF0000469F2E70369416882688A604168516058
:102000005A68824206D0002202611A68013A1A60B8
:102010001868704782685A60F5E70346406A18B14D
:102020001B6B1868C0F13800704710B5044602F009
:1020300029F8A26BE36B9A4204D0002402F044F822
:10204000204610BD0124F9E710B5044602F01AF845
:10205000A36B23B9012402F037F8204610BD0024F9
:10206000F9E770B504461546866B026C5AB90368E9
:102070001BB100200136A66370BD806801F0F0F945
:102080000023A360F6E76DB9406806F05BFF226CA1
:10209000636813446360A268934219D32368636042
:1020A0002846E7E7C06806F04DFF226C5142E3681E
:1020B0009B1AE3602268934202D2A3680B44E36058
:1020C000022D01D00020D5E726B1013E0020D1E746
:1020D0002846CFE70020CDE70346026C6AB110B571
:1020E0000846D9681144D9609C68A14201D3196897
:1020F000D960D96806F026FF10BD704738B505468F
:1021000001F0C0FF95F8454064B201E0013C64B2C3
:10211000002C0ADD6B6A43B105F1240001F0A4F83C
:102120000028F3D001F034F9F0E7FF2385F84530BB
:1021300001F0CAFF01F0A6FF95F8444064B201E047
:10214000013C64B2002C0ADD2B6943B105F110009B
:1021500001F08AF80028F3D001F01AF9F0E7FF2324
:1021600085F8443001F0B0FF38BD38B5E0B10D4618
:10217000044601F087FF2368E26B216C01FB02300B
:10218000A0600020A0636360013A02FB0133E360BA
:10219000FF2384F8443084F84530FDB9236963B9DE
:1021A00001F092FF012038BD4FF0500383F31188F6
:1021B000BFF36F8FBFF34F8FFEE704F1100001F004
:1021C00053F80028ECD04FF0E0234FF08052C3F8D2
:1021D000042DBFF34F8FBFF36F8FE1E704F11000C1
:1021E000FFF7D6FE04F12400FFF7D2FED8E738B59A
:1021F0001D46049C0B4649B92460E0632364012119
:102200002046FFF7B2FF84F84C5038BD2260F4E757
:1022100040B94FF0500383F31188BFF36F8FBFF3C2
:102220004F8FFEE710B584B01C46844653B192B17F
:1022300089B94FF0500383F31188BFF36F8FBFF359
:102240004F8FFEE74FF0500383F31188BFF36F8F7A
:10225000BFF34F8FFEE76AB150230393039B502BCC
:1022600013D04FF0500383F31188BFF36F8FBFF388
:102270004F8FFEE70029EFD04FF0500383F3118812
:10228000BFF36F8FBFF34F8FFEE7039B012384F8EB
:10229000463000949DF818306046FFF7A8FF2046AE
:1022A00004B010BD40B94FF0500383F31188BFF361
:1022B0006F8FBFF34F8FFEE7F0B583B00D46144626
:1022C000064601FB00F0503001F0B8FD074650B162
:1022D000002380F846300090234600F15002294642
:1022E0003046FFF784FF384603B0F0BD40B94FF0E9
:1022F000500383F31188BFF36F8FBFF34F8FFEE757
:1023000010B582B00C46884208D24FF0500383F3D8
:102310001188BFF36F8FBFF34F8FFEE70223009347
:10232000134600221146FFF773FF00B1846302B029
:1023300010BD40B94FF0500383F31188BFF36F8F86
:10234000BFF34F8FFEE710B50C46884208D24FF01E
:10235000500383F31188BFF36F8FBFF34F8FFEE7F6
:1023600002220021FFF79EFF00B1846310BDF0B58B
:1023700085B0019288B10F461D460446B1B1022DC9
:1023800020D1E36B012B1DD04FF0500383F3118854
:10239000BFF36F8FBFF34F8FFEE74FF0500383F310
:1023A0001188BFF36F8FBFF34F8FFEE7036C002BD5
:1023B000E5D04FF0500383F31188BFF36F8FBFF365
:1023C0004F8FFEE700F0F0FF064658B9019B002B47
:1023D00048D04FF0500383F31188BFF36F8FBFF3E2
:1023E0004F8FFEE700263DE02A4639462046FFF79C
:1023F00038FE636A7BB948B14FF0E0234FF080525A
:10240000C3F8042DBFF34F8FBFF36F8F01F05CFE55
:10241000012005B0F0BD04F1240000F025FF0028E4
:10242000F4D04FF0E0234FF08052C3F8042DBFF3F7
:102430004F8FBFF36F8FE9E701F046FE0020E8E71A
:1024400002A800F057FF012619E0002384F8443069
:1024500021E0002384F8453023E02046FFF74EFEBC
:1024600000F0E2FD01F00EFEA26BE36B9A42BBD3DB
:10247000022DB9D0019B002BDED0002EE0D001F060
:1024800023FE00F037FD01F0FDFD94F8442052B228
:10249000B2F1FF3FD9D094F8452052B2B2F1FF3FDC
:1024A000D7D001F011FE01A902A800F02FFFD8B982
:1024B0002046FFF7BAFD0028CFD0019904F11000A3
:1024C00000F09EFE2046FFF719FE00F0ADFD00284B
:1024D000C8D14FF0E0234FF08052C3F8042DBFF372
:1024E0004F8FBFF36F8FBDE72046FFF707FE00F069
:1024F0009BFD00208DE748B108B500218160016097
:10250000C1600B460A46FFF732FF08BD704710B5A1
:10251000024600210120FFF7C5FE0446FFF7EBFF4E
:10252000204610BD10B582B00B4600900022114627
:102530000120FFF76DFE0446FFF7DDFF204602B0E5
:1025400010BD38B538B10446856800F027FF8542D4
:102550000AD0002038BD4FF0500383F31188BFF339
:102560006F8FBFF34F8FFEE7E368013BE3600BB172
:102570000120EFE71A4619462046FFF7F8FE012032
:10258000E8E72DE9F84390B10F4616461C4605468C
:10259000B1B1022C20D1EB6B012B1DD04FF05003B9
:1025A00083F31188BFF36F8FBFF34F8FFEE74FF0B8
:1025B000500383F31188BFF36F8FBFF34F8FFEE794
:1025C000036C002BE5D04FF0500383F31188BFF369
:1025D0006F8FBFF34F8FFEE701F07AFEEFF31189A3
:1025E0004FF0500383F31188BFF36F8FBFF34F8F0A
:1025F000AA6BEB6B9A4206D3022C04D0002089F31D
:102600001188BDE8F88395F845804FFA88F8AB6BE0
:10261000224639462846FFF724FDB8F1FF3F06D091
:1026200008F101035BB285F845300120E7E76B6AEA
:102630000BB90120E3E705F1240000F015FE18B105
:1026400026B101203060DAE70120D8E70120D6E783
:10265000F0B585B0019290B10F460446C1B100F0CB
:10266000A3FE064600BB019B002B5ED04FF050033B
:1026700083F31188BFF36F8FBFF34F8FFEE74FF0E7
:10268000500383F31188BFF36F8FBFF34F8FFEE7C3
:10269000036C002BE3D04FF0500383F31188BFF39A
:1026A0006F8FBFF34F8FFEE700263EE0394620468E
:1026B000FFF712FD013DA563236923B901F004FD75
:1026C000012005B0F0BD04F1100000F0CDFD0028A0
:1026D000F4D04FF0E0234FF08052C3F8042DBFF345
:1026E0004F8FBFF36F8FE9E701F0EEFC0020E8E7C2
:1026F00002A800F0FFFD012621E0002384F8443009
:1027000029E0002384F845302BE02046FFF7F6FC53
:1027100000F08AFC09E02046FFF7F0FC00F084FCA2
:102720002046FFF791FC00283FD101F0ABFCA56BE0
:10273000002DBBD1019B002BD6D0002ED8D001F0AC
:10274000C3FC00F0D7FB01F09DFC94F844305BB271
:10275000B3F1FF3FD1D094F845305BB2B3F1FF3F06
:10276000CFD001F0B1FC01A902A800F0CFFD0028F4
:10277000D1D12046FFF768FC0028C6D0019904F1AA
:10278000240000F03DFD2046FFF7B8FC00F04CFCB3
:102790000028CAD14FF0E0234FF08052C3F8042D37
:1027A000BFF34F8FBFF36F8FBFE7002089E770B58E
:1027B00084B0019158B10446036C8BB14FF05003C3
:1027C00083F31188BFF36F8FBFF34F8FFEE74FF096
:1027D000500383F31188BFF36F8FBFF34F8FFEE772
:1027E00000F0E2FD054650B9019B5BB14FF050038C
:1027F00083F31188BFF36F8FBFF34F8FFEE700267F
:10280000354655E0064653E0013BA36323683BB1E0
:1028100023694BB901F058FC0126304604B070BD65
:1028200000F0B6FEA060F3E704F1100000F01CFD1C
:102830000028EFD04FF0E0234FF08052C3F8042D72
:10284000BFF34F8FBFF36F8FE4E746B14FF05003F4
:1028500083F31188BFF36F8FBFF34F8FFEE701F053
:1028600033FCDAE702A800F045FD01252AE0002349
:1028700084F8443032E0002384F8453034E001F03D
:1028800001FCA06800F0A0FD064601F01DFC3BE045
:102890002046FFF733FC00F0C7FB09E02046FFF7B6
:1028A0002DFC00F0C1FB2046FFF7CEFB002842D1F3
:1028B00001F0E8FBA36B002BA6D1019B002BC4D039
:1028C000002DCFD001F000FC00F014FB01F0DAFB8A
:1028D00094F844305BB2B3F1FF3FC8D094F8453070
:1028E0005BB2B3F1FF3FC6D001F0EEFB01A902A835
:1028F00000F00CFD0028D1D12046FFF7A5FB0028F1
:10290000C6D02368002BBAD0019904F1240000F04E
:1029100077FC2046FFF7F2FB00F086FB0028C7D1CA
:102920004FF0E0234FF08052C3F8042DBFF34F8FD8
:10293000BFF36F8FBCE70EB900266EE701F0A2FB74
:102940002046FFF76AFB0146A06800F0D1FD01F0C8
:10295000BBFBF1E780B170B50C460546866800F018
:102960001DFD864211D021462846FFF720FF80B189
:10297000EB680133EB600CE04FF0500383F31188F8
:10298000BFF36F8FBFF34F8FFEE7EB680133EB6050
:10299000012070BD0023072B0CD8074A52F83320C2
:1029A0000AB10133F7E7044A42F8331002EBC303DC
:1029B00058607047704700BFF00200200023072BCB
:1029C0000FD8084A02EBC3025268824201D0013399
:1029D000F5E7044A002142F8331002EBC3035960C3
:1029E00070477047F002002038B110B50446FFF779
:1029F000E5FF94F846304BB110BD4FF0500383F320
:102A00001188BFF36F8FBFF34F8FFEE7204601F0B1
:102A100093FAF1E770B504460D46164601F032FB15
:102A200094F844305BB2B3F1FF3F0DD094F84530D9
:102A30005BB2B3F1FF3F0BD001F046FBA36B5BB180
:102A40002046FFF75BFB70BD002384F84430EDE7C0
:102A5000002384F84530EFE73246294604F124008C
:102A600000F0E6FBECE70000084B1B681B6823B98D
:102A7000074B4FF0FF321A607047044B1B68DB684E
:102A8000DB685A68024B1A60704700BF34030020AD
:102A9000DC0700202DE9F04780460D461746994691
:102AA000089EDDF824A00A9C9200A521206B06F068
:102AB00071FA236B07F18042013A03EB820727F09A
:102AC0000707B5B34FF0000CBCF10F0F0BD815F88A
:102AD0000C2004EB0C0383F8342015F80C3013B1F0
:102AE0000CF1010CF0E7002384F84330372E00D9B5
:102AF0003726E662E66400252565201DFFF753FAB8
:102B000004F11800FFF74FFA2461C6F13806A661F8
:102B10006462656584F858504A464146384601F07B
:102B200087FA2060BAF1000F01D0CAF80040BDE872
:102B3000F087002384F83430D8E7000038B500244B
:102B400007E004EB840293000E481844FFF720FAD4
:102B50000134372CF5D90C4D2846FFF719FA0B4CE8
:102B60002046FFF715FA0A48FFF712FA0948FFF75F
:102B70000FFA0948FFF70CFA084B1D60084B1C6060
:102B800038BD00BF3C030020B0070020C407002070
:102B9000E80700201408002000080020340300206B
:102BA0003803002010B5044601F06CFA224A13687D
:102BB00001331360214B1B685BB1214B1B686BB960
:102BC0001E4B1B68DA6AE36A9A4207D81B4B1C60EB
:102BD00004E01A4B1C601368012B29D0194A1368B2
:102BE000013313606364E06A174B1B68984201D994
:102BF000154B186000EB8000211D144B03EB800087
:102C0000FFF7D4F901F060FA0D4B1B687BB10B4B59
:102C10001B68DA6AE36A9A4209D24FF0E0234FF068
:102C20008052C3F8042DBFF34F8FBFF36F8F10BDD9
:102C3000FFF784FFD2E700BF9C070020300300208D
:102C4000FC070020A8070020AC0700203C03002060
:102C500010B5044690F8593063B1012B11D0022B06
:102C60000ED04FF0500383F31188BFF36F8FBFF383
:102C70004F8FFEE7006B01F05FF9204601F05CF931
:102C800010BD01F059F9FBE70F4B1B68D3B110B52C
:102C900001F0F8F90D4BDB68DC68201DFFF7AAF99D
:102CA0000B4A1368013B1360074A1368013B13602A
:102CB00001F00AFA2046FFF7CBFF034B1B68002BFD
:102CC000E6D110BD704700BFA00700201408002007
:102CD0009C07002008B5FFF7D7FF074B1B68012BA7
:102CE000F9D94FF0E0234FF08052C3F8042DBFF321
:102CF0004F8FBFF36F8FEEE73C03002070B50446A3
:102D00000D46174B1E68174B18680430FFF772F911
:102D1000B4F1FF3F0DD03444124B1B685C60A642F7
:102D200010D9114B18680F4B19680431FFF749F996
:102D300070BD002DEFD00B4B196804310B48FFF725
:102D400035F9F5E70A4B1868064B19680431FFF7A7
:102D500038F9084B1B68A342EAD9064B1C60E7E729
:102D6000280800203003002038030020000800203D
:102D700034030020DC07002030B587B00B9C7CB109
:102D80000C9DB5B15C250495049D5C2D1AD04FF0C7
:102D9000500383F31188BFF36F8FBFF34F8FFEE7AC
:102DA0004FF0500383F31188BFF36F8FBFF34F8F42
:102DB000FEE74FF0500383F31188BFF36F8FBFF32B
:102DC0004F8FFEE7049D0C9D2C63022485F859402B
:102DD00000240394029505AC01940A9C0094FFF72B
:102DE00059FE0C98FFF7DEFE059807B030BD2DE9BF
:102DF000F04385B00746884614461E46900001F011
:102E00001DF800B381465C2001F018F80546B0B10A
:102E1000C0F83090E5B1002385F85930039302954E
:102E20000D9B01930C9B0093334622464146384646
:102E3000FFF730FE2846FFF7B5FE012005E04846C3
:102E400001F07AF8E6E74FF0FF3005B0BDE8F08317
:102E50004FF0FF30F9E7000010B588B0002405946A
:102E6000069407AA06A905A800F06AFF059B02932D
:102E7000069B019300942346079A18491848FFF7C8
:102E80007BFF184B186040B100F0FCFB012806D016
:102E9000B0F1FF3F18D008B010BD0020F6E74FF0AA
:102EA000500383F31188BFF36F8FBFF34F8F0E4B27
:102EB0004FF0FF321A600D4B01221A600C4B0022BA
:102EC0001A6001F079F9E6E74FF0500383F31188B7
:102ED000BFF36F8FBFF34F8FFEE700BF109D000859
:102EE000D52C0008D8070020DC070020FC070020B4
:102EF00028080020024A136801331360704700BF9E
:102F0000A4070020014B1868704700BF2808002064
:102F1000F8B53A4B1B68002B69D1394B1D68013558
:102F20001D60C5B9374B1B681B6843B14FF0500398
:102F300083F31188BFF36F8FBFF34F8FFEE7314AE2
:102F40001168314B186810601960304A13680133FA
:102F50001360FFF789FD2E4B1B68AB423DD900275C
:102F60002C4B1B68DB6A03EB83039A002A4B9B58AC
:102F7000012B00D90127294B1B68002B3CD00127CE
:102F80003AE001271F4B1B681B6843B31D4B1B68AE
:102F9000DB68DC6863689D4226D3261D3046FFF758
:102FA00029F8A36A1BB104F11800FFF723F8E36ABC
:102FB0001B4A1268934201D9194A136003EB830339
:102FC0009A00314614481044FEF7F0FFE26A114BB4
:102FD0001B68DB6A9A42D4D2D4E70027D2E70C4BB5
:102FE0004FF0FF321A60BBE7094A1360B8E70D4A99
:102FF00013680133136000273846F8BDA40700208A
:10300000280800203403002038030020E0070020B7
:10301000DC070020300300203C0300202C080020A7
:10302000AC070020E407002038B5354B1B6843B9D6
:103030004FF0500383F31188BFF36F8FBFF34F8FAF
:10304000FEE701F01FF82E4B1A68013A1A601B6860
:10305000002B4FD12B4B1B680BB900244BE00024F5
:10306000294B1B681BB3284BDB68DC6804F1180094
:10307000FEF7C0FF251D2846FEF7BCFFE06A234B84
:103080001B68984201D9214B186000EB800029464B
:103090001F4B03EB8000FEF789FFE26A1D4B1B68A4
:1030A000DB6A9A42DCD31C4B01221A60D8E70CB1D0
:1030B000FFF7DAFC194B1C6884B9174B1C68D4B1B4
:1030C0004FF0E0234FF08052C3F8042DBFF34F8F31
:1030D000BFF36F8F01240EE0013C07D0FFF718FF0C
:1030E0000028F9D00C4B01221A60F5E70B4B0022A7
:1030F0001A60E2E7002400F0E7FF204638BD00BF79
:10310000A40700209C070020E8070020AC0700204F
:103110003C030020300300202C080020E40700209E
:1031200010B5A8B10446104B1B6843B14FF05003D3
:1031300083F31188BFF36F8FBFF34F8FFEE7FFF765
:10314000D9FE00212046FFF7D9FDFFF76DFF48B9F2
:103150004FF0E0234FF08052C3F8042DBFF34F8FA0
:10316000BFF36F8F10BD00BFA40700201F4B1B686B
:103170001BB11F4B01221A6070471D4B00221A60C1
:103180001C4B1B6803EB83018A001B498A585AB900
:103190000BB1013BF6E74FF0500383F31188BFF307
:1031A0006F8FBFF34F8FFEE703EB830082000A446B
:1031B00050684068506003EB830C4FEA8C02083281
:1031C000114488420BD003EB830291000A4A0A445F
:1031D0005268D168094A1160064A13607047406816
:1031E00062469100044A0A445060ECE7A4070020BC
:1031F0002C080020AC0700203C03002030030020F6
:1032000058B110B50C46094A11681831FEF7D9FEBD
:1032100001212046FFF772FD10BD4FF0500383F3EC
:103220001188BFF36F8FBFF34F8FFEE7300300208D
:1032300038B570B10D4614460A4A11681831FEF7C8
:10324000B5FE0CB14FF0FF3521462846FFF756FD7D
:1032500038BD4FF0500383F31188BFF36F8FBFF376
:103260004F8FFEE73003002038B5C368DC6824B315
:1032700004F118052846FEF7BDFE184B1B682BBB52
:10328000251D2846FEF7B6FEE06A154B1B689842DE
:1032900001D9134B186000EB80002946114B03EB5A
:1032A0008000FEF783FEE26A0F4B1B68DB6A9A42DE
:1032B00011D901200D4B186038BD4FF0500383F336
:1032C0001188BFF36F8FBFF34F8FFEE72946084881
:1032D000FEF76CFEE7E70020EEE700BFA407002042
:1032E000AC0700203C030020300300202C08002005
:1032F000E8070020034B1B680360034B1B68436017
:10330000704700BFE007002028080020F8B5C8B1CA
:103310000C460546F9B100F0B5FE1B4B19686B6809
:10332000C81A2268B2F1FF3F26D0184E36682F68BF
:10333000B74201D08B4224D9824215D800232360A2
:1033400001241AE04FF0500383F31188BFF36F8F0D
:10335000BFF34F8FFEE74FF0500383F31188BFF3A5
:103360006F8FBFF34F8FFEE75B1A1344236028462D
:10337000FFF7C0FF002400E0002400F0A5FE204677
:10338000F8BD0124F9E700BF28080020E00700206D
:10339000014B01221A6070472C080020014B18686D
:1033A000704700BF30030020054B1B6833B1054B4D
:1033B0001B680BB100207047022070470120704746
:1033C000FC070020A407002000283ED038B50446A2
:1033D000C36A204A1268D26A93422ED28269002AB6
:1033E00005DB1C4A1268D26AC2F138028261616947
:1033F00003EB8303184A02EB8303994205D0154B74
:103400001B68DB6AE362012038BD251D2846FEF7F4
:10341000F1FD104B1B68D86AE062104B1B689842A4
:1034200001D90E4B186000EB800029460A4B03EBD4
:103430008000FEF7BBFD0120E6E7C26C054B1B6870
:10344000DB6A9A4203D30020DEE7002070470120A8
:10345000DAE700BF300300203C030020AC07002067
:1034600000283BD038B504461E4B1B68834208D069
:103470004FF0500383F31188BFF36F8FBFF34F8F6B
:10348000FEE7036D43B94FF0500383F31188BFF398
:103490006F8FBFF34F8FFEE7013B0365C16AC26CBC
:1034A00091421DD00BB1002038BD051D2846FEF706
:1034B000A1FDE06CE062C0F13803A3610A4B1B6818
:1034C000984201D9084B186000EB80002946074B51
:1034D00003EB8000FEF76AFD0120E5E7002070475E
:1034E0000020E1E730030020AC0700203C0300206F
:1034F000002846D038B50446036D43B94FF0500359
:1035000083F31188BFF36F8FBFF34F8FFEE7C26C59
:103510008A4200D20A46E16A914201D0012B00D0D2
:1035200038BD184B1B68A34222D0E262A369002B6E
:1035300002DBC2F13802A261626901EB8101124B28
:1035400003EB81018A42EBD1251D2846FEF752FD8F
:10355000E06A0E4B1B68984201D90C4B186000EBD7
:1035600080002946084B03EB8000FEF71FFDD7E7DC
:103570004FF0500383F31188BFF36F8FBFF34F8F6A
:10358000FEE77047300300203C030020AC0700201A
:10359000054B1B6823B1044B1A68136D0133136587
:1035A000014B1868704700BF30030020064B1A68B3
:1035B00013682BB90123036023B9D36818687047D7
:1035C0000023F8E7002070473008002008B541606C
:1035D000006191420CD8D21A83699A4201D301202A
:1035E00008BD011D094B1868FEF7EBFC0020F7E74A
:1035F0009A4201D2994206D2011D054B1868FEF786
:10360000E0FC0020ECE70120EAE700BF34080020DE
:103610003008002030B583B000F034FD114B1B683A
:103620001BB100F051FD03B030BD0F4D2846FEF731
:10363000AFFC0E4C2046FEF7ABFC0D4B1D600D4B56
:103640001C60002300930C4B0C4A10210A20FEF74B
:10365000DFFD044B18600028E3D00949FFF79AF911
:10366000DFE700BF54090020D8080020EC08002044
:103670003008002034080020040900203808002009
:10368000189D000810B588B0FFF7C4FF124B1B68E7
:10369000CBB100240594069407AA06A905A800F05A
:1036A0005BFB059B0293069B019302230093234639
:1036B000079A0A490A48FFF75FFB0A4B186010B1E6
:1036C000012008B010BD4FF0500383F31188BFF301
:1036D0006F8FBFF34F8FFEE754090020209D000835
:1036E000E939000858090020B8B19C46034618483B
:1036F000006858B300B585B0009101920293052986
:103700001CDCFFF751FE022810D000231A46694640
:103710000F480068FEF72BFE15E04FF0500383F3CF
:103720001188BFF36F8FBFF34F8FFEE70023069A18
:10373000694607480068FEF71AFE04E00023624667
:103740006946FEF71EFF05B05DF804FB00207047D8
:103750005409002070B582B01B4B1B681A6862B315
:10376000DB681E68DC68251D2846FEF743FC236ADB
:103770002046984794F8283013F0040FECD0A36942
:1037800033449E4207D26360246129460E4B186879
:10379000FEF717FCE0E7002100910B463246204679
:1037A000FFF7A2FF0028D7D14FF0500383F3118811
:1037B000BFF36F8FBFF34F8FFEE7044A10680249D3
:1037C0000860136002B070BD30080020340800208B
:1037D00038B50546FFF796FB0446074B1B68834246
:1037E00005D800232B60044B1C60204638BDFFF732
:1037F000B1FF01232B60F6E70009002070B582B00D
:1038000006460D4617490968C968CC68201DFEF7B1
:10381000F1FB94F828C01CF0040F08D12CF0010C27
:1038200084F828C0236A2046984702B070BDA16979
:1038300033462A4631442046FFF7C8FE0028F1D01F
:10384000002100910B4632462046FFF74DFF00282D
:10385000E8D14FF0500383F31188BFF36F8FBFF3AC
:103860004F8FFEE73008002070B582B006460C4648
:10387000FFF740FB01A8FFF7ABFF019B33BB0546F9
:103880000CB9B04219D224B1124A12681268DAB9DE
:1038900001242246711B104B1868FFF7BBF8FFF795
:1038A000C3FBA8B94FF0E0234FF08052C3F8042DBA
:1038B000BFF34F8FBFF36F8F0AE0FFF7B5FB2946C9
:1038C0003046FFF79BFF03E01C46E2E7FFF7ACFB47
:1038D00002B070BD340800205409002010B588B033
:1038E00002E0049B002B0FDA002204A93D4B18686C
:1038F000FEF7AEFE002873D0049B002BF1DA079987
:103900000698059B9847ECE7069C636913B1201D58
:10391000FEF770FB03A8FFF75BFF049B092BE3D8BE
:10392000DFE803F00505053037500505303794F81A
:10393000283043F0010384F82830059BA169024632
:1039400019442046FFF742FE0028CDD0236A2046C6
:10395000984794F8283013F0040FC5D0A2690021CD
:1039600000910B46059802442046FFF7BDFE002853
:10397000BAD14FF0500383F31188BFF36F8FBFF3B9
:103980004F8FFEE794F8283023F0010384F82830A5
:10399000AAE794F8283043F0010384F82830059909
:1039A000A16131B10346024601442046FFF70EFEF5
:1039B0009AE74FF0500383F31188BFF36F8FBFF383
:1039C0004F8FFEE794F8283013F0020F04D023F055
:1039D000010384F8283087E7204600F0ADFA83E73A
:1039E00008B010BD5409002000B583B001A8FFF74E
:1039F000DDFD0199FFF738FFFFF770FFF6E708B527
:103A00004FF0E0231B69FFF7CFFC012800D108BD70
:103A100000F0A8FBFBE70000EFF305832BB9064B92
:103A2000186828B901221A6070476FF005007047C6
:103A30004FF0FF30704700BFB80B0020EFF3058355
:103A400073B90A4B1B68012B0DD110B50024084B2C
:103A5000DC77064B02221A60FFF7FEF9204610BD04
:103A60006FF0050070474FF0FF307047B80B002033
:103A700000ED00E0F0B587B000240594EFF3058475
:103A800074BB68B322B31568936903B918235C1E2D
:103A9000372C49D8546814F0010F47D156696EB1DC
:103AA0004FEA960C94682CB1D7685B2F02D917693E
:103AB00007B1C6B92CB14FF0FF340EE04FF0800CC7
:103AC000F0E7D4688CB9146994B14FF0FF3404E086
:103AD0001546002418234FF0800C012C0AD0ACB1FD
:103AE000059807B0F0BD0124F7E74FF0FF34F4E785
:103AF0000024F2E7146992680292019400930B4645
:103B000062462946FFF738F90590E9E705AA0192D0
:103B100000930B461FFA8CF22946FFF768F901283B
:103B2000DED000230593DBE70020DAE70020D8E7AA
:103B300008B5FFF733FC08BD08B5EFF3058333B9CB
:103B400008B9002008BDFFF7EBFA0020FAE76FF094
:103B50000500F7E770B5EFF30583002B3FD104466E
:103B600000B1436813F0010600D0012613F0080FDE
:103B700038D14CB3A16811B1E3684F2B19D899B172
:103B80004FF0FF334BBB1EB30420FEF7C0FC0546CD
:103B90002DB104B1246821462846FEF7FBFEFDB195
:103BA000F6B145F001051BE0E3687BB14FF0FF3350
:103BB000E8E726B10420FEF7B5FC0546E8E701205A
:103BC000FEF7B0FC0546E3E70023DBE70023D9E777
:103BD0000120FEF79CFC0546DAE70025DFE700251B
:103BE000284670BD0025FBE7EFF30582C2B910B58A
:103BF00003460C4620F0010003F0010398B13BB1ED
:103C0000FEF7A8FE012811D094B16FF001000EE07C
:103C1000FEF7CDFD01280ED07CB16FF0010006E06B
:103C20006FF0050070476FF0030000E0002010BD4A
:103C30006FF00200FBE70020F9E76FF00200F6E703
:103C4000EFF30582B2B908B5034620F0010003F096
:103C5000010390B12BB1FEF774FC012810D10020B4
:103C600008BD00231A461946FEF781FB01280AD138
:103C70000020F5E76FF0050070476FF00300EFE7F5
:103C80006FF00200ECE76FF00200E9E770B582B078
:103C9000EFF30583002B49D10E461446002849D086
:103CA000884249D34AB1956815B1D3684F2B14D8CF
:103CB000002D43D1E3680BB139E0002301280ED079
:103CC00073BB3146FEF735FB054685B304B1246866
:103CD00021462846FEF75EFE29E00123EEE7B3B950
:103CE000032200210120FEF7DDFA0546002DECD06D
:103CF000002EEAD000231A4619462846FEF737FB65
:103D00000128E2D02846FEF76FFE00250FE0A368E9
:103D10000322009200221146FEF77AFA0546E5E7F3
:103D2000A2683146FEF7E2FA0546CEE700252846AE
:103D300002B070BD0025FAE70025F8E70025F6E798
:103D4000034B0360034B0B6080231360704700BF7D
:103D50005C0B00205C090020034B0360034B0B60ED
:103D60004FF4807313607047BC0F0020BC0B002021
:103D7000134A12F0070F1FD0D11D21F00701C1F522
:103D8000EA43303313440A460E4802600021416082
:103D90001344083B23F007030B4803605960196084
:103DA000991A51601360094B1960094B1960094B4E
:103DB0004FF000421A60704747F23053E4E700BF0B
:103DC0001C10002060850020181000205485002061
:103DD000508500204C850020164B1A461B688342F4
:103DE000FBD3516802EB010C844509D0416800EB1C
:103DF000010C634509D00360904219D010607047F0
:103E00004068014451601046F0E710B40A4C246841
:103E1000A3420BD05B681944416013681B680360C0
:103E2000904200D010605DF8044B70470460F7E7E3
:103E3000704700BF608500201810002070B505464F
:103E4000FFF758F8364B1B68A3B1364B1B681D4271
:103E50004ED135B1083515F0070F02D025F0070512
:103E60000835002D46D0304B1B68AB4251D32F4A4A
:103E7000146804E0FFF77CFFE7E722461C4663680E
:103E8000AB4202D22368002BF7D1254B1B68A3421B
:103E900041D0166808362368136063685B1B102BDB
:103EA00010D9601910F0070F08D04FF0500383F3BA
:103EB0001188BFF36F8FBFF34F8FFEE743606560DC
:103EC000FFF78AFF626818490B689B1A0B60184954
:103ED00009688B4201D216490B60124B1B681343D1
:103EE000636000232360134A13680133136002E008
:103EF000002600E00026FFF797F816F0070F0CD019
:103F00004FF0500383F31188BFF36F8FBFF34F8FD0
:103F1000FEE70026EFE70026EDE7304670BD00BF64
:103F2000181000204C85002050850020608500205E
:103F30005485002058850020002834D038B5044628
:103F4000A0F1080550F8043C174A1268134208D142
:103F50004FF0500383F31188BFF36F8FBFF34F8F80
:103F6000FEE750F8081C41B14FF0500383F311886D
:103F7000BFF36F8FBFF34F8FFEE723EA020340F8D2
:103F8000043CFEF7B7FF54F8041C084A13680B44BE
:103F900013602846FFF720FF054A136801331360BA
:103FA000FFF742F838BD70474C850020508500204F
:103FB0005C85002082B0002301930D4B1B68B3F198
:103FC000FF3F08D04FF0500383F31188BFF36F8F8A
:103FD000BFF34F8FFEE74FF0500383F31188BFF319
:103FE0006F8FBFF34F8F019B002BFCD002B0704747
:103FF0004000002008480068006880F308884FF0FF
:10400000000080F3148862B661B6BFF34F8FBFF330
:104010006F8F00DF00BF000008ED00E0DFF80C004C
:10402000016841F4700101607047000088ED00E014
:104030004FF0807340F8043C21F0010140F8081C67
:10404000054B40F80C3C40F8202C6FF0020340F880
:10405000243C4438704700BFB53F00080000000012
:10406000074B19680868B0E8F04F80F30988BFF380
:104070006F8F4FF0000080F311887047AFF300801E
:10408000300300204FF0500383F31188BFF36F8F8C
:10409000BFF34F8F0B4A136801331360012B00D01D
:1040A00070474FF0E023D3F8043D13F0FF0FF7D033
:1040B0004FF0500383F31188BFF36F8FBFF34F8F1F
:1040C000FEE700BF40000020094B1B6843B94FF0DA
:1040D000500383F31188BFF36F8FBFF34F8FFEE759
:1040E000013B034A13600BB983F31188704700BF8B
:1040F0004000002000000000000000000000000060
:10410000EFF30980BFF36F8F154B1A681EF0100F85
:1041100008BF20ED108A20E9F04F10602DE909005A
:104120004FF0500080F31188BFF34F8FBFF36F8FB4
:10413000FFF71CF84FF0000080F3118809BC1968E4
:104140000868B0E8F04F1EF0100F08BFB0EC108AFE
:1041500080F30988BFF36F8F704700BFAFF3008013
:104160003003002008B54FF0500383F31188BFF3EC
:104170006F8FBFF34F8FFEF7CBFE28B14FF0E023D8
:104180004FF08052C3F8042D002383F3118808BD3B
:104190004FF0E022002313619361054B1B68054932
:1041A000A1FB03139B09013B536107231361704774
:1041B0003C000020D34D62104FF0E023D3F8002DD7
:1041C0003D4B9A421CD04FF0E023D3F8002D3B4BDF
:1041D0009A421ED030B583B0394B1A78D2B20192D0
:1041E000FF221A701B78DBB28DF803309DF8033084
:1041F00003F05003334A1370334B07221A601BE05D
:104200004FF0500383F31188BFF36F8FBFF34F8FCD
:10421000FEE74FF0500383F31188BFF36F8FBFF3B6
:104220004F8FFEE7284A1368013B13609DF8033067
:104230005B00DBB28DF803309DF8033013F0800F84
:10424000F0D1214B1B68032B08D04FF0500383F3B0
:104250001188BFF36F8FBFF34F8FFEE71B021A4A1F
:10426000136003F4E0631360019BDBB2144A137024
:104270004FF0E024D4F8203D43F47003C4F8203D0F
:10428000D4F8203D43F07043C4F8203DFFF780FF91
:1042900000250E4B1D60FFF7C1FED4F8343F43F0FC
:1042A0004043C4F8343FFFF7A5FEFEF75FFFFFF77A
:1042B00081FE284603B030BD71C20F4170C20F416C
:1042C00000E400E0688500206C85002040000020AC
:1042D000EFF305830F2B0FD9114A9B5CDBB2114A18
:1042E00012789A4208D94FF0500383F31188BFF334
:1042F0006F8FBFF34F8FFEE74FF0E023D3F80C3DF5
:1043000003F4E063084A1268934208D94FF050035F
:1043100083F31188BFF36F8FBFF34F8FFEE77047B2
:10432000F0E300E0688500206C85002010B50A4CA1
:1043300000224FF400512046FDF768F86420FDF795
:10434000EFF801224FF400512046FDF75FF864209A
:10435000FDF7E6F810BD00BF000C02404FF0C0436F
:10436000188070474FF0C043188003F50033198060
:10437000704710B504462020FFF7F4FF21462120A6
:10438000FFF7F0FF10BD70B501E0A0F5A070B0F52B
:10439000A07FFAD200E0F03AEF2AFCD8C0F59F7473
:1043A0000134C2F1EF0201E0A1F5A071B1F5A07FE7
:1043B000FAD200E0F03BEF2BFCD8C1F59F76013636
:1043C000C3F1EF039A4202D991B21A460B46B442A6
:1043D00002D9A1B234460E461B0299B295B22943C6
:1043E0004620FFF7BFFFB1B24720FFF7BBFFA4B2E3
:1043F00021464820FFF7B6FF29462046FFF7B9FFC0
:104400002220FFF7ABFF70BD08B5B0F5A07F02D248
:10441000C0F5A07080B2EF2902D8C1F1F00189B2D5
:10442000FFF7A7FF2220FFF799FF024B1A88188891
:1044300080B208BD0000026070B515461C46BDF88C
:10444000106000EB020CCB18013B0A460CF1FF3167
:10445000FFF799FF002102E003480680013104FBC9
:1044600005F08842F8D870BD0000026000B583B046
:10447000FFF75CFF42F204011120FFF773FF4FF4D6
:104480004C411320FFF76EFF4FF418511520FFF732
:1044900069FF42F22A511420FFF764FF33211220F2
:1044A000FFF760FF4CF604411320FFF75BFF01208C
:1044B000FDF736F84CF606411320FFF753FF0120B5
:1044C000FDF72EF84CF64F411320FFF74BFF01206C
:1044D000FDF726F846F24F711320FFF743FF42F233
:1044E00003011120FFF73EFF0120FDF719F842F20A
:1044F00009613020FFF736FF42F22C413120FFF7EF
:1045000031FF41F623713220FFF72CFF42F22541A3
:104510003320FFF727FF42F226213420FFF722FF46
:1045200042F223513520FFF71DFF41F61A41362094
:10453000FFF718FF41F21D313720FFF713FF40F658
:1045400011313820FFF70EFF41F210213920FFF71B
:1045500009FF41F215313A20FFF704FF43F21961D8
:104560003B20FFF7FFFE4FF450613C20FFF7FAFEBF
:104570000D213D20FFF7F6FE07211620FFF7F2FE82
:1045800013210220FFF7EEFE08210320FFF7EAFEC9
:1045900041F227010120FFF7E5FE0120FCF7C0FFF3
:1045A00040F203310820FFF7DDFE0B210A20FFF760
:1045B000D9FE03210B20FFF7D5FE00210C20FFF7C9
:1045C000D1FE00214120FFF7CDFE00215020FFF752
:1045D000C9FE05216020FFF7C5FE0B217020FFF703
:1045E000C1FE00217120FFF7BDFE00217820FFF7FA
:1045F000B9FE00217A20FFF7B5FE07217920FFF7E9
:10460000B1FE51210720FFF7ADFE0120FCF788FF26
:1046100053210720FFF7A6FE00217920FFF7A2FE15
:104620002220FFF79BFE01224FF480610648FCF731
:10463000EDFE00200090F0234FF4A0720146FFF73A
:10464000FBFE03B05DF804FB0004024038B5BDF882
:10465000105003FB02F400EB020C0B44013B0A4632
:104660000CF1FF31FFF78FFE02E0034A15801C4674
:10467000631E002CF9DC38BD0000026010B50B464B
:1046800014460A460146FFF77EFE014B1C8010BD12
:104690000000026008B54FF44841034800F014FEE2
:1046A000024801F0DFF808BD708500209C930008E7
:1046B000836801390D2914D8DFE801F0090B0D0FCB
:1046C00013131311071616070707002070475868C1
:1046D000704798687047D86870471869704798693C
:1046E00070474FF0FF30704701207047012901D11A
:1046F0000148704700207047B49A00088268002380
:104700000B804B80D368013B8B801369013BCB80CE
:10471000704700000939072911D8DFE801F00412B9
:104720000608100A0C0E08487047084870470848E9
:10473000704708487047084870470848704700208D
:1047400070470748704700BF4F48000801480008FD
:10475000E9470008934700088547000865470008B7
:104760003748000800B583B00023009301938DF80B
:10477000041000926A460421806900F0D5FB03B062
:104780005DF804FB08B500220621806900F0CCFB2F
:1047900008BD08B500220521806900F0C5FB08BDF1
:1047A00000B583B0002300930193009101926A4603
:1047B0000321806900F0B8FB03B05DF804FB38B555
:1047C0000446836823B1A068B0FA80F0400938BD80
:1047D0001C2000F01BFE0546A06023699B689847DB
:1047E00001F0F0FFA861EEE738B50546FFF7E7FFF7
:1047F000044600220121A86900F096FB204338BD41
:1048000070B582B005460C4616460023009301930E
:10481000FFF7D5FFAB6863B15A6902B922465A6106
:104820005C609E60009401966A460721A86900F0CA
:104830007BFB02B070BD70B505460C461646FFF70F
:10484000BEFFAB6813B1DC601E615C6170BD30B54A
:1048500083B004460D4600230193FFF7B0FFA36821
:1048600033B11D60019501AA0221A06900F05CFB33
:1048700003B030BD08B5084611469AB289B280B27D
:10488000FFF7FCFE08BD00002DE9F84F8146924677
:104890001F460A9C0B9DDDF830B093F80080661827
:1048A000404B1B681B7C13F0030303D0022B3BD04F
:1048B000BDE8F88FBBF1000F02D11DE0013DF7D03C
:1048C000C4F103035A00C2F10601C0230B4103EAFD
:1048D0000803D34031465BF8233052460136484640
:1048E000FFF7C8FF0134042CE8D197F801800137A5
:1048F0000024E3E7013DDBD0C4F103025200C2F122
:104900000601C0230B4103EA08033146D340524657
:1049100001364846FFF7AEFF0134042CEAD197F880
:10492000018001370024E5E7BBF1000F0AD125E043
:104930005BF82330524631464846FFF79BFF0CE0B8
:10494000013DB5D0C4F103035A00C2F10601C023F2
:104950000B4103EA0803D340EAD101360134042CA9
:10496000EED197F8018001370024E9E7524631463D
:104970004846FFF77FFF0CE0013D99D0C4F10303E7
:104980005A00C2F10601C0230B4103EA0803D340D9
:10499000ECD101360134042CEED197F801800137B7
:1049A0000024E9E7180000202DE9F84F81469246DF
:1049B0001F460A9C0B9DDDF830B093F80080661806
:1049C000404B1B681B7C13F0030303D0022B3BD02E
:1049D000BDE8F88FBBF1000F02D11DE0013DF7D01B
:1049E000C4F101039A00C2F10401F0230B4103EA70
:1049F0000803D34031465BF823305246013648461F
:104A0000FFF738FF0134022CE8D197F80180013715
:104A10000024E3E7013DDBD0C4F101029200C2F1C2
:104A20000401F0230B4103EA08033146D340524608
:104A300001364846FFF71EFF0134022CEAD197F8F1
:104A4000018001370024E5E7BBF1000F0AD125E022
:104A50005BF82330524631464846FFF70BFF0CE027
:104A6000013DB5D0C4F101039A00C2F10401F02365
:104A70000B4103EA0803D340EAD101360134022C8A
:104A8000EED197F8018001370024E9E7524631461C
:104A90004846FFF7EFFE0CE0013D99D0C4F1010359
:104AA0009A00C2F10401F0230B4103EA0803D3404A
:104AB000ECD101360134022CEED197F80180013798
:104AC0000024E9E7180000202DE9F84307460D46C9
:104AD00090461E46089CDDF82490254B1B681B7CE5
:104AE00013F0030303D0022B1FD0BDE8F883B9F104
:104AF000000F0BD116E016F8013B59F8233042465F
:104B000029463846FFF7B6FE013C0135002CF2DCA1
:104B1000EBE716F8013B424629463846FFF7AAFE66
:104B2000013C0135002CF4DCDFE7B9F1000F03D1C3
:104B300012E0013C01350136002CD6DD3378002B24
:104B4000F7D059F82330424629463846FFF792FEFF
:104B5000EFE7013C01350136002CC6DD3378002B30
:104B6000F7D0424629463846FFF784FEF1E700BFFA
:104B7000180000202DE9F04180460C4617461E46DD
:104B8000069D08E036F8023B3A4621464046FFF7CC
:104B900071FE013D0134002DF4DCBDE8F0812DE90A
:104BA000F04180460C4617461E46069D08E056F822
:104BB000043B3A4621464046FFF75CFE013D013486
:104BC000002DF4DCBDE8F08108B5084691B280B252
:104BD000FFF71AFC08BDF8B504460D461646FFF768
:104BE000F3FF074623699B68984787EA000332462C
:104BF00029462046FFF73EFEF8BD00002DE9F84F9C
:104C0000804691461F460A9C0B9D0C9BD3F800B032
:104C1000D3F804A00E192C4B1B681B7C03F0030374
:104C2000032B4ED8DFE803F00C2D212D5B464A46BE
:104C30004046FFF71FFE0134082C0AD0013D40D04A
:104C4000314601363A78802323411A42EED053464A
:104C5000EDE701370024F1E753464A463146404626
:104C6000FFF708FE06E0013D2BD03A788023234170
:104C70001A42F1D101360134082CF4D10137002455
:104C8000F1E703699B68984782460EE04A46314641
:104C90004046FFF799FF8AEA00034A4631464046FC
:104CA000FFF7E8FD06E0013D0BD03A788023234171
:104CB0001A42EBD101360134082CF4D1013700241B
:104CC000F1E7BDE8F88F00BF180000202DE9F04F94
:104CD00087B005460E4617469846DDF84090DDF849
:104CE00048A0139C119B013B1F2B21D8DFE803F048
:104CF000233C20552020206C2020202020202083B1
:104D0000202020202020202020202020202020952E
:104D1000159B02930195009623460BEB070205991C
:104D20004046FFF76BFF54440BF1010BCB45EFDB23
:104D300007B0BDE8F08F4FF0000B05914346804669
:104D4000149E1D46F2E7159B02930195009623469B
:104D50000BEB070205994046FFF796FD54440BF113
:104D6000010BCB45EFDBE3E74FF0000B059143462A
:104D70008046149E1D46F4E7159B0293019500960C
:104D800023460BEB070205994046FFF70DFE5444FE
:104D90000BF1010BCB45EFDBCAE74FF0000B0591A0
:104DA00043468046149E1D46F4E70196009523462F
:104DB0000BEB070205994046FFF786FE54440BF1C2
:104DC000010BCB45F1DBB3E74FF0000B05914346F8
:104DD0008046159E1D46F4E7CDF8008023460BEB78
:104DE000070231462846FFF7C5FE54440BF1010B7C
:104DF000CB45F1DB9CE74FF0000BF9E7CDF80080E5
:104E000023460BEB070231462846FFF7C8FE544401
:104E10000BF1010BCB45F1DB8AE74FF0000BF9E713
:104E20002DE9F04383B00746894615461E46DDF856
:104E30002880134B1B68DA6B14681B7C13F0010F7E
:104E40001AD188B2A9B2321A92B2A8EB01039BB26E
:104E500001330132A4B200949BB292B2FFF7F6FB89
:104E600003B0BDE8F0832A4621463846FFF7B3FE7B
:104E70000134B442F7DD01354545F1DC4C46F8E735
:104E80001800002000B583B000930B46FFF7C8FF61
:104E900003B05DF804FB00B583B00092FFF7C0FFDC
:104EA00003B05DF804FB704708B50020FEF752FE22
:104EB000044B1860002201210846FEF7E7FE024B72
:104EC000186008BD704D0120744D012008B5024BDB
:104ED0001868FEF7B5FE08BD704D012008B54FF00B
:104EE000FF31024B1868FEF77FFE08BD704D0120B0
:104EF00008B5FEF71DFE08BD08B500231A4608498F
:104F0000084800F069FEF0224FF4A071002001F083
:104F1000F5FCF0224FF4A071002001F007FD08BD60
:104F2000BC8F0008289D0008012904D108B5FFF7AF
:104F30009DFA002008BD4FF0FF307047DFF834D0F5
:104F4000FCF774FB0C480D490D4A002302E0D458CD
:104F5000C4500433C4188C42F9D30A4A0A4C0023C3
:104F600001E013600432A242FBD303F0C7FFFBF75A
:104F700013FB7047000002200000002044000020C6
:104F80006C9D000844000020284F0120FEE700002F
:104F9000C0F34513074AD15C074AC0F3C42300F0AD
:104FA0001F00D35C105C1B0403EB0123184440F08A
:104FB0007F407047FC9200083C930008C0F3072331
:104FC000064AD15C064AC0F30743C0B2D35C105C0A
:104FD000DB0203EB41131844704700BFFC8F00084D
:104FE000FC9000084FF6FF7070470000F0B5DFF846
:104FF00050E0DEF800E006460D4614461F46BEF1BE
:10500000000F03D0F446BDE8F0406047DFF834E01D
:105010000A4956F8042BC2F30723013C1EF803008B
:10502000C2F30743D2B2CB5C8A5C4FEAC32303EBE3
:10503000401313442B803D44EBD1F0BDFC9000089D
:1050400060000020FC8F0008F0B5164E766886469A
:105050000F4614461D461EB1B446BDE8F0406047F9
:1050600002F180410139501E07EB81010E4E0F4FB6
:1050700003FB00E00288D30A013C16F803E002F0CB
:105080001F03C2F34512F35CBA5C03EB0E4303EB60
:10509000022343F07F4341F80439A0EB0500E9D136
:1050A000F0BD00BF600000203C930008FC920008A7
:1050B000074B5A68013210B55A605A6B5C6A02EBB2
:1050C000C0014C60002102F83010586210BD00BFD2
:1050D000784D012010B50E4944680F2301EBC3023F
:1050E000126C94420A4A03D213F1FF33F6D210BD78
:1050F0000F2B0CD81168091B11608168C06801B1C1
:10510000486008B1016010BD02EBC303596410BDD3
:10511000784D0120F8B5274EF368B26B013B054688
:105120001344081883420C4605D34B591BB94368F6
:105130001D44FFF7CFFFB36B9C420AD954F8047C9F
:10514000E71B3B682BB97B6838461D44FFF7C2FF5D
:105150003C460F2306EBC302126C954203D213F1B7
:10516000FF33F7D223E00F2B21D8083306EBC3021D
:1051700060195168A160002284E82400246140F88D
:10518000045C04F1080001B1486006EBC303A160B0
:10519000E260586033680749EA1896F829303260AF
:1051A0002BB9CB689B1A8A68934288BF8B602846CC
:1051B000F8BD00BF784D01202DE9F74F244FFE6860
:1051C000BC6B013E83462644B84694E82800ABBB3E
:1051D00061198E4232D954F805A0BAF1000F2DD0D2
:1051E0007B6B13F83A30012B28D1D8F82C30D1F84A
:1051F0000490009320460191FFF76CFF0199D8F8C5
:105200003420086802EBC002204654604A4603F08E
:10521000A7FE009B9A4508BFD8F8343004EB09017B
:1052200008BF5B1B284608BFC8F83430FFF772FF81
:10523000BBF1000F01D0584505D24D462C44A64283
:10524000C3D8012000E0002003B0BDE8F08F00BF0C
:10525000784D012028B1034BDA6B026002B1506037
:10526000D8637047784D0120034B5B6B03EBC000A4
:1052700040680830704700BF784D0120054BDA695F
:105280000132DA615A6B12F83030013302F83030F3
:10529000FFF7EABF784D012030B50368094953F89C
:1052A000085C4C6B14F83530012B03D9CA690AB17C
:1052B000013ACA61013B04F8353000230360184607
:1052C00030BD00BF784D0120024B21F00301186072
:1052D000596070476800002010B5044680B100F0A6
:1052E000D3FC084B5B6B03EBC40359684868FFF7BA
:1052F00011FF2046FFF7DCFEBDE8104000F0BABC0D
:1053000010BD00BF784D01202DE9F041224CE36A29
:105310003BB9224B9D685B680835B3FBF5F5023558
:1053200003E023691D1D05EBD305E80000F0C0F87C
:10533000804660B3616B2269E76A01EBC003D2006B
:105340005E68174B08361B683046984722696663CB
:10535000C4F82C801346691E8B4205D2013306EB3C
:10536000C30040F8043CF7E706EBC3064FF0000823
:10537000C6F80480636862629B1A2B4463602561EF
:1053800038463FB1FFF7A8FF4046BDE8F081012055
:10539000BDE8F081BDE8F081784D01206800002073
:1053A0002400002070B5174A92F8283043BB01232F
:1053B00082F82830144B996811B9596889089960A6
:1053C0005A2111621026002102EBC10006FA01F5F4
:1053D000013110290B4C0564F6D158681968A16396
:1053E00002232361A0F114030B4401256363E060F1
:1053F0005D6065626560FFF78DFEFFF785FF2563E1
:1054000070BD00BF784D0120680000202DE9F041FB
:105410000746264E0337FFF7C5FF27F00307306C1A
:10542000F26B0437874238BF0746144634B154F84C
:10543000043C9F4223682CD01C46F7E7F368B26B0C
:1054400002EB030858F8045CC5EB08052B6833B180
:105450002046FFF7B1FE58F8045CC5EB08052B6841
:105460000BBB6B689F421EDC28461C1DFFF732FEFB
:10547000F3686868DB1BF3607369E41B3B44C01B83
:105480002C44736102D02946FFF744FE44F8047CA3
:1054900009E00BB161685960616801B10B60A2421B
:1054A00001D12368F3632046BDE8F081784D0120E7
:1054B0002DE9F843394E0446FFF774FF356C336825
:1054C000AC4224BF033424F003050C35AB42334C0B
:1054D0003ED3236B62689A420FD97368776A013BA7
:1054E0007360736B4FEAC70803EB0802526872627D
:1054F000012203F8372057B92AE0013B2363FFF765
:1055000003FF236B013323630028E6D020E00F2341
:1055100006EBC302126C95420CD213F1FF33F7D2A3
:1055200008E094682CB16268954214D9A268002AF8
:10553000F7D101330F2B03D806EBC302526CF6E709
:105540002846FFF739FE0028E1D03846FFF7B0FDC6
:105550000020BDE8F883D4F80490336CC5EB090251
:105560000C3320469A4238BF4D46FFF7B3FD736BAC
:10557000611998444D454FF00003C8F80440276076
:105580006560A360246141F8045C03DAC5EB09009F
:10559000FFF7C0FD3846BDE8F88300BF784D012015
:1055A00010B5044638B100F06FFB2046FFF780FFCE
:1055B000044600F05FFB204610BD000073B50546B1
:1055C00000F062FB2846FFF7EBFF064660B1FFF7ED
:1055D00055FE02AC074B44F8040D1B682A46002117
:1055E00098472046FFF758FE00F044FB304602B0D3
:1055F00070BD00BF28000020C3B2CAB29A1A92B28E
:1056000010B514B2002CBCBF524214B2C0F3072331
:10561000C1F307229B1A9BB2090C1AB2C1EB1041CD
:10562000002A89B208B2BCBF5B421AB20028BCBFD4
:10563000494208B2524304FB042280B200FB00201E
:1056400010BD000004483523037034238370C370F9
:1056500061230371704700BF0000002010B538B30C
:1056600009B30AB3B2F90040B1F90030A342A8BFB0
:1056700023460380B2F90240B1F90230A342A8BF29
:1056800023464380B2F90440B1F90430B2F9062050
:10569000A342B8BF23468380B1F906309342B8BF16
:1056A0001346C38010BD11460B6803604B6843600E
:1056B00010BD68B1038889B20B4403808388194404
:1056C0004388818092B213444380C3881A44C280C5
:1056D0007047000038B505460C4600F0D5FA044B7B
:1056E0001B685D849C8400F0C5FA002038BD00BFB3
:1056F00018000020B0F90220B1F906309A4214DCFB
:10570000B1F90220B0F906309A420EDCB0F900205F
:10571000B1F904309A4208DCB0F90400B1F9003064
:105720008342CCBF0020012070470020704708B59D
:1057300000F0AAFA01F0AAF801F010F902F0CEFF89
:10574000BDE8084000F096BA10B5044600F09CFA97
:10575000204600F00FFFBDE8104000F08BBA0000BB
:1057600070B504460D4600F08FFA094B1C80094BBA
:105770001D80094B1B685A7C084B53F82200C268F5
:105780002146166A2A46B047BDE8704000F072BA5A
:10579000604E0120504E012018000020884E01204C
:1057A00038B5194D194B03672B691A1DDA6303F1DC
:1057B00008029B631B6442615A7C154B044653F8F4
:1057C0002200C36804F108011B6B9847114B636604
:1057D0006B68E3612B690833636101232376E37609
:1057E00003F054F8032384F868306FF070432363A8
:1057F0006363A064E86800F0BDFEA86800F0C0FE26
:10580000054B064A1A6038BD08000020FC00002045
:10581000884E0120D48F0008804E0120EC8F0008B4
:1058200070B50A4D0A4E00243368EC677422214695
:105830002846984733680748082221469847064B70
:105840001D61064B1C70064B1C6070BD7C00002067
:1058500028000020884E012008000020704E012002
:105860004C4E0120014B5860704700BF08000020DB
:105870002DE9F34116461F4604460D4600F004FA92
:10588000042000F03BFB144B1B69DA6C1B6D804657
:1058900014441D4416441F446846ADF80040ADF85A
:1058A0000460ADF80250ADF8067002F097FE38B90A
:1058B000404600F023FB00F0DDF902B0BDE8F081C6
:1058C0003B4632462946204600F076FB02F0C4FDF6
:1058D0000028F5D1ECE700BF0800002010B500213A
:1058E0000846FFF7F7FE044943F6FF731A460846D9
:1058F000BDE81040FFF7BCBF01C0FFFFF0B51F4D72
:10590000EB6F85B0002B37D10123EB671C4B6A4648
:1059100003F108076E4618685968144603C4083333
:10592000BB422246F7D1186899889B79A371206001
:10593000A180144C334613F8012B04F8012B1A787C
:10594000002AF8D1FFF77EFE10F8013B224604F84A
:10595000013B0378002BF7D15370FEF79BFE00F05C
:10596000CFF9FFF7C9FA084B0848C5F8943005B0DD
:10597000BDE8F04000F08AB805B0F0BD7C00002022
:10598000DC8F0008FC0000202158000810010020D6
:1059900090B583B000AF344A334B1B6823F001034A
:1059A0001360324B01221A6000BF304B1B68002B82
:1059B000FBD12F4B2F4A1A602D4B1B682E4A934266
:1059C00000D0FEE7FFF79AFF2C4B2E221A70FFF74C
:1059D0006AFA2B48FFF7E4FE00F026FD786000F03D
:1059E000E5FE0346002B0CBF01230023DCB200F0D0
:1059F000E3FE0346002B0CBF01230023DBB223434D
:105A0000DBB2002B09D000F0C5FE044600F0C5FE55
:105A100003461946204600F0C3FE00210020FFF790
:105A20009FFE02F0BBFE00F091F9164B1B68002BA5
:105A300012D00DE0134B1B681B68002B03D0114BD9
:105A40001B681B6898470F4B1B685B680D4A136007
:105A50000C4B1B68002BEDD10B4B01221A707B689D
:105A600018460C37BD4690BD002000E008300240CB
:105A700000300240C2A507F4CDB5E8B5404E012084
:105A80007C000020F4000020684E012080B483B028
:105A900000AF7860064B1A687B685A60044A7B68DE
:105AA000136000BF0C37BD465DF8047B704700BF34
:105AB000F0000020012809DC054B53F8200020B13C
:105AC000C3681B681BB10068F9E770470020704786
:105AD000884E0120FFF7BEBB012BF8B506460D46E8
