:020000040800F2
:1000000000000220F16800089D0700089F07000813
:10001000A1070008A3070008A507000800000000CA
:10002000000000000000000000000000514900082E
:10003000A707000800000000F1490008E742000897
:1000400041690008416900084169000841690008E8
:1000500041690008416900084169000841690008D8
:1000600041690008416900084169000841690008C8
:1000700041690008416900084169000841690008B8
:1000800041690008416900084169000841690008A8
:100090004169000841690008416900084169000898
:1000A0004169000841690008416900084169000888
:1000B00041690008A9070008416900084169000872
:1000C0004169000841690008416900084169000868
:1000D00041690008B9070008416900084169000842
:1000E0004169000841690008416900084169000848
:1000F0004169000841690008416900084169000838
:100100004169000841690008416900084169000827
:10011000416900084169000841690008C9070008F1
:100120004169000841690008D907000841690008D1
:1001300041690008416900084169000841690008F7
:1001400041690008416900084169000841690008E7
:1001500041690008416900084169000841690008D7
:1001600041690008416900084169000841690008C7
:100170004169000841690008416900080000000069
:08018000416900084169000813
:1001900010B5054C237833B9044B13B10448AFF3C1
:1001A00000800123237010BD3C01002000000000EE
:1001B000DCB4000808B5034B1BB103490348AFF397
:1001C000008008BD0000000040010020DCB40008F1
:1001D00053B94AB9002908BF00281CBF4FF0FF31AE
:1001E0004FF0FF3000F074B9ADF1080C6DE904CEAA
:1001F00000F006F8DDF804E0DDE9022304B0704702
:100200002DE9F047089D04468E46002B4DD18A42C9
:10021000944669D9B2FA82F252B101FA02F3C2F1FC
:10022000200120FA01F10CFA02FC41EA030E94408D
:100230004FEA1C48210CBEFBF8F61FFA8CF708FBAE
:1002400016E341EA034306FB07F199420AD91CEB86
:10025000030306F1FF3080F01F81994240F21C81B8
:10026000023E63445B1AA4B2B3FBF8F008FB103300
:1002700044EA034400FB07F7A7420AD91CEB040435
:1002800000F1FF3380F00A81A74240F20781644405
:10029000023840EA0640E41B00261DB1D44000238A
:1002A000C5E900433146BDE8F0878B4209D9002DEE
:1002B00000F0EF800026C5E9000130463146BDE878
:1002C000F087B3FA83F6002E4AD18B4202D38242E2
:1002D00000F2F980841A61EB030301209E46002D91
:1002E000E0D0C5E9004EDDE702B9FFDEB2FA82F2E6
:1002F000002A40F09280A1EB0C014FEA1C471FFA44
:100300008CFE0126200CB1FBF7F307FB131140EA2A
:1003100001410EFB03F0884208D91CEB010103F1F7
:10032000FF3802D2884200F2CB804346091AA4B2B9
:10033000B1FBF7F007FB101144EA01440EFB00FE8D
:10034000A64508D91CEB040400F1FF3102D2A645F2
:1003500000F2BB800846A4EB0E0440EA03409CE791
:10036000C6F12007B34022FA07FC4CEA030C20FA3E
:1003700007F401FA06F31C43F9404FEA1C4900FA5E
:1003800006F3B1FBF9F8200C1FFA8CFE09FB1811DB
:1003900040EA014108FB0EF0884202FA06F20BD94E
:1003A0001CEB010108F1FF3A80F08880884240F29E
:1003B0008580A8F102086144091AA4B2B1FBF9F0E2
:1003C00009FB101144EA014100FB0EFE8E4508D9DD
:1003D0001CEB010100F1FF346CD28E456AD9023862
:1003E000614440EA0840A0FB0294A1EB0E01A14247
:1003F000C846A64656D353D05DB1B3EB080261EBB5
:100400000E0101FA07F722FA06F3F1401F43C5E98E
:10041000007100263146BDE8F087C2F12003D840C4
:100420000CFA02FC21FA03F3914001434FEA1C4706
:100430001FFA8CFEB3FBF7F007FB10360B0C43EAF8
:10044000064300FB0EF69E4204FA02F408D91CEBA8
:10045000030300F1FF382FD29E422DD902386344A6
:100460009B1B89B2B3FBF7F607FB163341EA034146
:1004700006FB0EF38B4208D91CEB010106F1FF3895
:1004800016D28B4214D9023E6144C91A46EA00468C
:1004900038E72E46284605E70646E3E61846F8E61E
:1004A0004B45A9D2B9EB020864EB0C0E0138A3E767
:1004B0004646EAE7204694E74046D1E7D0467BE748
:1004C000023B614432E7304609E76444023842E7C0
:1004D000704700BF08B50268034B9A4200D008BDC0
:1004E00001F07AFCFBE700BF0014004072B6FEE7A3
:1004F00000B595B03022002108A80AF0E7FF0023DC
:10050000039304930593069307930193204A116C78
:1005100041F080511164126C02F080520192019AF4
:1005200002931C4B1A6842F480421A601B6803F461
:1005300080430293029B012308934FF48033099375
:1005400002230E934FF480020F920C221092A822E5
:10055000119212930423139308A800F06DFD98B92B
:100560000F23039302230493002305934FF4A05316
:1005700006934FF480530793052103A800F0AAFFC8
:1005800020B915B05DF804FBFFF7B0FFFFF7AEFF31
:10059000003802400070004008B501F003FCFFF78E
:1005A000A7FF00F015F805F0C1FC01F0A5FD01F072
:1005B00009FE01F041FE01F099FE01F0F3FE05F0A5
:1005C0001BFD03F09DFE01F061FD03F0ABFEFEE7B5
:1005D0002DE9F0418CB00024069407940894099406
:1005E0000A940B94374B1A6B42F010021A631A6B81
:1005F00002F010020592059A1A6B42F080021A630B
:100600001A6B02F080020492049A1A6B42F0010203
:100610001A631A6B02F001020392039A1A6B42F0FA
:1006200002021A631A6B02F002020292029A1A6B19
:1006300042F008021A631B6B03F008030193019B4D
:10064000DFF88C804FF08263C8F818301E4F4FF0EF
:100650000053BB611D4E4FF48033B3611E230693DC
:1006600001250A9506A9304600F0E0F860230693BC
:10067000079402230A9306A9304600F0D7F84FF4F6
:10068000826306930795089409940A9406A9404644
:1006900000F0CCF84FF400530693079508940994A2
:1006A0000A9406A9384600F0C1F806950795089403
:1006B00009940A9406A9304600F0B8F80CB0BDE8D9
:1006C000F08100BF00380240000C024000100240E0
:1006D0000004024010B5304B1B6913F0020F26D006
:1006E00000242D4B1B6913F0040F01D144F00404C6
:1006F000294B1B6913F0080F01D144F00804264B65
:100700001B6913F0100F01D144F01004224B1B6938
:1007100013F0200F01D044F020041F4B1B6913F08D
:10072000400F01D044F040041CB9204610BD022403
:10073000D7E7142001F062FB174B1B6913F0020F7F
:1007400027D00023144A126912F0040F01D143F09C
:100750000403114A126912F0080F01D143F0080393
:100760000D4A126912F0100F01D143F010030A4A2A
:10077000126912F0200F01D043F02003064A1269DB
:1007800012F0400F01D043F040039C42CDD0002432
:10079000CBE70223D6E700BF00100240FEE7FEE7EA
:1007A000FEE7FEE7FEE7704708B5024800F0E2F911
:1007B00008BD00BF404F012008B5024805F0FEFD0E
:1007C00008BD00BF2804002008B5024800F0D2F997
:1007D00008BD00BF7004002008B5024801F09CF974
:1007E00008BD00BFC803002000B583B000220092FE
:1007F0000D4B596C41F480415964596C01F48041AE
:10080000009100990192196C41F0805119641B6CA0
:1008100003F080530193019B0F216FF0010001F061
:100820007BFA03B05DF804FB00380240F0B40A68BC
:1008300092FAA2F212B1B2FA82F264E0202262E0ED
:100840008E68856893FAA3F4DCB1B4FA84F464008A
:100850004FF0030C0CFA04F425EA040593FAA3F410
:100860008CB1B4FA84F4640006FA04F42C43846076
:10087000CD68446824EA030403FB05F52C43446077
:1008800050E02024E3E72024EDE7202452E0202458
:100890005DE0202473E020247DE04F69466A1C0A55
:1008A00094FAA4F5002D7CD0B5FA85F5AD004FF093
:1008B0000F0C0CFA05F526EA050594FAA4F4002CB1
:1008C00071D0B4FA84F4A40007FA04F42C4344620F
:1008D0004E68056893FAA3F4002C66D0B4FA84F449
:1008E00064004FF0030C0CFA04F425EA040493FAB4
:1008F000A3F3002B5BD0B3FA83F35B0006FA03F398
:100900002343036001320B6833FA02F451D04FF0F5
:10091000010C0CFA02FC1CEA0303F3D04C68013C06
:10092000012C8DD90E69C56893FAA3F4002CACD0C4
:10093000B4FA84F464004FF0030C0CFA04F425EAD2
:10094000040593FAA3F4002CA1D0B4FA84F4640053
:1009500006FA04F42C43C4604C68022CB8D193FA14
:10096000A3F4002C99D0B4FA84F4072C95D84E69DE
:10097000056A93FAA3F4002C8BD0B4FA84F4A40093
:100980000F2707FA04F425EA040593FAA3F4002CD0
:1009900081D0B4FA84F4A40006FA04F42C4304626F
:1009A00096E7202582E720248DE7202498E720235E
:1009B000A3E70020F0BC704730B4036A026A22F05B
:1009C000010202624268846924F073040D682C43BA
:1009D00023F0020C8B6843EA0C03104DA84203D0AD
:1009E00005F58065A84205D123F00803CD682B43A7
:1009F00023F00403094DA84203D005F58065A84201
:100A000005D122F440724D692A438D692A43426020
:100A100084614A684263036230BC70470000014051
:100A200030B4036A026A22F4807202624268C469C6
:100A300024F0730C0C6844EA0C0523F400738C68F2
:100A400043EA0423114CA04203D004F58064A04281
:100A500006D123F40063CC6843EA042323F48063C3
:100A60000A4CA04203D004F58064A04207D122F4CE
:100A700040524C6942EA04128C6942EA0412426014
:100A8000C5614A68C263036230BC70470000014020
:100A900030B4036A026A22F4805202624468C26976
:100AA00022F4E6420D6842EA052223F400538D68E1
:100AB00043EA0533094DA84203D005F58065A842F5
:100AC00004D124F480444D6944EA85144460C26131
:100AD0004A680264036230BC704700BF00000140F6
:100AE0007047000090F83D30DBB2012B37D1022374
:100AF00080F83D300268D36843F00103D360036897
:100B0000194A934220D0B3F1804F1DD0A2F57C4208
:100B1000934219D002F58062934215D002F58062AB
:100B2000934211D002F5784293420DD002F57052F3
:100B3000934209D0A2F59432934205D01A6842F04C
:100B400001021A60002070479A6802F00702062A24
:100B500007D01A6842F001021A6000207047012095
:100B600070470020704700BF000001407047704789
:100B70007047704770B504460368DE681D6915F05C
:100B8000020F10D016F0020F0DD06FF002021A61A2
:100B90000123037703689B6913F0030F5ED0FFF70F
:100BA000E6FF0023237715F0040F12D016F0040F90
:100BB0000FD023686FF004021A61022323772368A1
:100BC0009B6913F4407F4FD02046FFF7D0FF0023EE
:100BD000237715F0080F12D016F0080F0FD02368F6
:100BE0006FF008021A61042323772368DB6913F08E
:100BF000030F40D02046FFF7BAFF0023237715F0FC
:100C0000100F12D016F0100F0FD023686FF01002E3
:100C10001A61082323772368DB6913F4407F31D0FE
:100C20002046FFF7A4FF0023237715F0010F02D021
:100C300016F0010F2DD115F0800F02D016F0800FA5
:100C40002FD115F0400F02D016F0400F31D115F022
:100C5000200F02D016F0200F33D170BDFFF786FFB2
:100C60002046FFF785FF9CE72046FFF77FFF2046E1
:100C7000FFF77EFFABE72046FFF778FF2046FFF740
:100C800077FFBAE72046FFF771FF2046FFF770FFB6
:100C9000C9E723686FF001021A612046FFF71AFCCA
:100CA000C9E723686FF080021A61204600F0C3F99B
:100CB000C7E723686FF040021A612046FFF759FF2B
:100CC000C5E723686FF020021A61204600F0B2F9F0
:100CD000C3E700000368344A904212D0B0F1804F5D
:100CE0000FD0A2F57C4290420BD002F58062904278
:100CF00007D002F58062904203D002F5784290421C
:100D000003D123F070034A681343274A90422AD044
:100D1000B0F1804F27D0A2F57C42904223D002F55B
:100D2000806290421FD002F5806290421BD002F593
:100D30007842904217D002F57052904213D002F5DB
:100D4000806290420FD002F5806290420BD0A2F5F3
:100D50009832904207D002F58062904203D002F5AB
:100D60008062904203D123F44073CA68134323F096
:100D700080034A69134303608B68C3620B68836214
:100D8000094B984203D003F58063984201D10B6967
:100D9000036301234361036913F0010F03D0036967
:100DA00023F00103036170470000014040B310B518
:100DB000044690F83D30F3B1022384F83D302146DB
:100DC00051F8040BFFF786FF012384F8463084F8BE
:100DD0003E3084F83F3084F8403084F8413084F865
:100DE000423084F8433084F8443084F8453084F845
:100DF0003D30002010BD80F83C30FFF771FEDBE78E
:100E00000120704740B310B5044690F83D30F3B16F
:100E1000022384F83D30214651F8040BFFF75AFFB6
:100E2000012384F8463084F83E3084F83F3084F85B
:100E3000403084F8413084F8423084F8433084F8FC
:100E4000443084F8453084F83D30002010BD80F8EF
:100E50003C3005F085F8DBE70120704730B4036AC9
:100E6000026A22F0100202624468826922F4E642B9
:100E70000D6842EA052223F020038D6843EA05133A
:100E8000114DA84203D005F58065A84206D123F094
:100E90008003CD6843EA051323F040030A4DA842BE
:100EA00003D005F58065A84207D124F440644D695C
:100EB00044EA85048D6944EA8504446082614A6895
:100EC0008263036230BC70470000014038B590F87F
:100ED0003C30012B66D004460D46012380F83C309F
:100EE0000C2A5AD8DFE802F0075959591B595959A9
:100EF0003059595944000068FFF75EFD2268936934
:100F000043F0080393612268936923F0040393611B
:100F10002268936929690B43936100203EE00068D1
:100F2000FFF79CFF2268936943F400639361226892
:100F3000936923F48063936122689369296943EA82
:100F400001239361002029E00068FFF769FD226812
:100F5000D36943F00803D3612268D36923F0040303
:100F6000D3612268D36929690B43D361002015E05E
:100F70000068FFF78DFD2268D36943F40063D361F5
:100F80002268D36923F48063D3612268D369296915
:100F900043EA0123D361002000E00120002384F80C
:100FA0003C3038BD0220FCE790F83C30012B3DD0AE
:100FB00010B4012380F83C30022380F83D300368F0
:100FC0005A689C6822F0700C0A6842EA0C025A6067
:100FD0000368174A93421AD0B3F1804F17D0A2F595
:100FE0007C42934213D002F5806293420FD002F507
:100FF000806293420BD002F57842934207D002F50B
:101000007052934203D0A2F59432934204D124F05B
:1010100080044A6814439C60012380F83D3000231B
:1010200080F83C3018465DF8044B7047022070474A
:101030000000014070477047002800F0E08170B563
:1010400082B00446036813F0010F3BD09F4B9B68AE
:1010500003F00C03042B2CD09C4B9B6803F00C0377
:10106000082B21D06368B3F5803F4FD0B3F5A02F94
:1010700052D0964B1A6822F480321A601A6822F411
:1010800080221A606368002B50D000F0B1FE054644
:101090008E4B1B6813F4003F14D100F0A9FE401BD7
:1010A0006428F5D90320B1E1884B5B6813F4800F05
:1010B000D8D0864B1B6813F4003F03D06368002B25
:1010C00000F09F81236813F0020F54D07F4B9B6880
:1010D00013F00C0F3ED07D4B9B6803F00C03082BE4
:1010E00033D0E368002B68D0794B01221A6000F0FE
:1010F0007FFE0546754B1B6813F0020F54D100F0BC
:1011000077FE401B0228F5D903207FE16F4A136860
:1011100043F480331360B5E76C4B1A6842F48022C5
:101120001A601A6842F480321A60ABE700F060FE81
:101130000546664B1B6813F4003FC3D000F058FE11
:10114000401B6428F5D9032060E1604B5B6813F411
:10115000800FC6D15D4B1B6813F0020F03D0E3680C
:10116000012B40F05081594A136823F0F80321699C
:1011700043EAC1031360236813F0080F42D0636988
:101180006BB3534B0122C3F8802E00F031FE0546AD
:101190004E4B5B6F13F0020F34D100F029FE401B61
:1011A0000228F5D9032031E1484A136823F0F803F7
:1011B000216943EAC1031360DDE7454B00221A6051
:1011C00000F016FE0546414B1B6813F0020FD2D00B
:1011D00000F00EFE401B0228F5D9032016E13C4B1F
:1011E0000022C3F8802E00F003FE0546374B5B6FEC
:1011F00013F0020F06D000F0FBFD401B0228F5D9CA
:10120000032003E1236813F0040F77D02F4B1B6CEE
:1012100013F0805F33D1002301932C4B1A6C42F002
:1012200080521A641B6C03F080530193019B0125CB
:10123000284B1B6813F4807F23D0A368012B34D084
:10124000052B38D0214B1A6F22F001021A671A6F52
:1012500022F004021A67A368002B3DD000F0C8FDFD
:1012600006461A4B1B6F13F0020F46D100F0C0FD6B
:10127000801B41F288339842F3D90320C6E0002551
:10128000D6E7144A136843F48073136000F0B0FD8E
:101290000646104B1B6813F4807FCED100F0A8FDEA
:1012A000801B0228F5D90320B0E0084A136F43F0F1
:1012B00001031367CFE7054B1A6F42F004021A6768
:1012C0001A6F42F001021A67C5E700BF00380240FA
:1012D000000047420070004000F08AFD0646524B75
:1012E0001B6F13F0020F08D000F082FD801B41F24B
:1012F00088339842F3D9032088E0EDB9A369002B25
:1013000000F08380484A926802F00C02082A51D00B
:10131000022B17D0454B00221A6600F069FD0446E7
:10132000414B1B6813F0007F42D000F061FD001BB1
:101330000228F5D9032069E03B4A136C23F080535F
:101340001364DBE7394B00221A6600F051FD0546B5
:10135000354B1B6813F0007F06D000F049FD401BA1
:101360000228F5D9032051E0E369226A1343626A37
:1013700043EA8213A26A5208013A43EA0243E26A4C
:1013800043EA0263284A5360284B01221A6600F0A0
:101390002FFD0446244B1B6813F0007F06D100F09C
:1013A00027FD001B0228F5D903202FE000202DE0A7
:1013B00000202BE0012B2BD01B4B5B6803F480013A
:1013C000E269914226D103F03F02216A8A4223D189
:1013D000616A47F6C0721A40B2EB811F1ED103F456
:1013E0004031A26A5208013AB1EB024F18D103F022
:1013F0007063E26AB3EB026F14D1002006E00120B3
:101400007047012002E0012000E0002002B070BD22
:101410000120FBE70120F9E70120F7E70120F5E7CC
:101420000120F3E70120F1E70038024000004742C5
:1014300008B5254B9B6803F00C03042B3FD0082B09
:101440003FD1214B5A6802F03F025B6813F4800FD2
:1014500012D01D4B5968C1F388111C480023A1FB11
:101460000001FEF7B5FE184B5B68C3F3014301337F
:101470005B00B0FBF3F025E0134B5968C1F3881C07
:101480004FEA4C11B1EB0C006EEB0E0E4FEA8E13CF
:1014900043EA90638101091A63EB0E03DB0043EA20
:1014A0005173C90011EB0C0C43F1000399020023A6
:1014B0004FEA8C2041EA9C51FEF78AFED3E70348AD
:1014C00000E0034808BD00BF0038024000366E014E
:1014D0000024F400002800F09B8070B50D460446FF
:1014E0004F4B1B6803F007038B4208D2CBB24C4A28
:1014F0001370136803F007038B4240F08B8023685E
:1015000013F0020F17D013F0040F04D0454A93686C
:1015100043F4E0539360236813F0080F04D0414A6A
:10152000936843F4604393603E4A936823F0F0036A
:10153000A1680B439360236813F0010F32D06368F6
:10154000012B21D09A1E012A25D9364A126812F0A1
:10155000020F61D033498A6822F0030213438B6083
:1015600000F046FC06462F4B9B6803F00C036268B4
:10157000B3EB820F16D000F03BFC801B41F28833A6
:101580009842F0D9032042E0264A126812F4003F44
:10159000E0D101203BE0234A126812F0007FD9D14C
:1015A000012034E01E4B1B6803F00703AB4207D950
:1015B000EAB21B4B1A701B6803F00703AB422DD134
:1015C000236813F0040F06D0164A936823F4E053FF
:1015D000E1680B439360236813F0080F07D0114AAA
:1015E000936823F46043216943EAC1039360FFF7E2
:1015F0001FFF0C4B9B68C3F303130B4AD35CD8400B
:101600000A4B18600A4B186800F046FF002070BDB6
:10161000012070470120FAE70120F8E70120F6E7F2
:10162000003C0240003802408CC10008400000200D
:101630003C000020014B1868704700BF40000020AC
:1016400008B5FFF7F7FF044B9B68C3F38223034AF7
:10165000D35CD84008BD00BF003802409CC10008E0
:1016600008B5FFF7E7FF044B9B68C3F34233034A17
:10167000D35CD84008BD00BF003802409CC10008C0
:101680000F2303600B4B9A6802F0030242609A68D2
:1016900002F0F00282609A6802F4E052C2609B6835
:1016A000DB0803F4E0530361034B1B6803F00703FB
:1016B0000B60704700380240003C024000230F2BB3
:1016C00000F2E48070B582B060E085685E000324BB
:1016D000B44025EA0405CC68B4402C4384604568D6
:1016E00025EA02054C68C4F300129A402A4342607E
:1016F0005AE0DC08083450F8246003F00702950033
:101700000F22AA4026EA020E0A69AA4042EA0E0205
:1017100040F824205CE0072200E0002202FA0EF2EA
:101720002A4302345A4D45F824205A4A94686FEAF5
:101730000C0224EA0C054E6816F4801F01D04CEA16
:101740000405544CA560E46802EA04054E6816F4EA
:10175000001F01D04CEA04054E4CE560646802EAC3
:1017600004054E6816F4003F01D04CEA0405494CCC
:101770006560246822404D6815F4803F01D04CEA32
:101780000402444C226001330F2B7DD801229A4081
:101790000C6804EA020C32EA0404F4D14C6804F048
:1017A0000304013C012C90D94A6802F00302032A89
:1017B00009D0C4685D000322AA4024EA02048A68B2
:1017C000AA402243C2604A6802F00302022A90D073
:1017D00004684FEA430E032202FA0EF224EA0204DE
:1017E0004A6802F0030202FA0EF2224302604A68DB
:1017F00012F4403FC7D000220192274A546C44F4AF
:1018000080445464526C02F480420192019A9C0814
:10181000A51C1F4A52F8255003F003024FEA820E1E
:101820000F2202FA0EF225EA02051C4A90423FF40A
:1018300074AF02F5806290421AD002F58062904245
:1018400018D002F58062904216D002F58062904274
:1018500014D002F58062904212D002F5806290426C
:1018600010D002F5806290423FF455AF082255E750
:10187000012253E7022251E703224FE704224DE7FA
:1018800005224BE7062249E702B070BD704700BF52
:1018900000380140003C0140003802400000024096
:1018A0000369194201D001207047002070470AB136
:1018B00081617047090481617047000010B40368BA
:1018C000D9B210390C4AA2FB014212090B4CA25C9E
:1018D000C2655F2909D923F47F7323F0030304331E
:1018E0008365806D5DF8044B704723F47F7323F0AC
:1018F00003038365F5E700BFABAAAAAA84C1000869
:10190000836A826992B9012B0AD0022B02D00BB1F3
:1019100000207047C36A13F0807F28D100207047F1
:10192000C36AB3F1C07F24D000207047B2F5005FD6
:1019300009D0022B25D9032B25D1C36A13F0807F50
:1019400023D100207047032B03D8DFE803F01404F1
:10195000140A00207047C36A13F0807F0DD1002065
:101960007047C36AB3F1C07F09D0002070470120DF
:101970007047012070470120704701207047012007
:101980007047012070470020704701207047000019
:1019900070B5044600F02CFA002C5BD005460223FB
:1019A00084F83530002384F834302268136823F03B
:1019B0000103136023681A6812F0010F0AD000F0C7
:1019C00017FA431B052BF5D920236365032084F800
:1019D000350070BD1A68204810406168A2680A434B
:1019E000E1680A4321690A4361690A43A1690A431C
:1019F000E1690A43216A0A430243616A04291ED04D
:101A00001A602668756925F00705636A1D43042B73
:101A100007D1A36A1D43E36A1BB12046FFF770FF9D
:101A200090B975612046FFF749FFE26D3F2393406F
:101A3000836000206065012384F83530C9E7E16ADE
:101A4000206B01430A43DBE740236365012084F8F0
:101A50003500BEE70120BCE73F8010F070B50446BA
:101A6000866D00F0C5F994F83530DBB2022B06D054
:101A700080236365002384F83430012070BD05465F
:101A80002268136823F0160313602268536923F059
:101A900080035361236CE3B12268136823F00803C9
:101AA00013602268136823F00103136023681B6826
:101AB00013F0010F11D000F09BF9431B052BF5D952
:101AC00020236365032084F83500002384F8343034
:101AD000D4E7A36C002BDFD1E3E7E26D3F23934013
:101AE000B360012384F83530002084F83400C5E762
:101AF00090F83530DBB2022B03D080234365012000
:101B00007047052380F835300268136823F001031D
:101B10001360002070470000F0B583B00446002336
:101B20000193724B1D68724BA3FB0535AD0A876D9F
:101B30003E68C26D08239340334210D003681A6890
:101B400012F0040F0BD01A6822F004021A60C26D62
:101B500008239340BB60436D43F001034365E26D8E
:101B600001239340334209D02268526912F0800F5A
:101B700004D0BB60636D43F002036365E26D042330
:101B80009340334209D02268126812F0020F04D049
:101B9000BB60636D43F004036365E26D1023934003
:101BA000334224D02268126812F0080F1FD0BB60A5
:101BB00023681A6812F4802F0DD01B6813F4002FCD
:101BC00004D1236C9BB12046984710E0A36C73B1FD
:101BD000204698470BE01A6812F4807F03D11A68F8
:101BE00022F008021A60236C0BB120469847E26D80
:101BF00020239340334255D02268126812F0100F10
:101C000050D0BB6094F83530DBB2052B0ED0236882
:101C10001A6812F4802F33D01B6813F4002F2AD1D6
:101C2000636C002B3ED0204698473BE02268136847
:101C300023F0160313602268536923F08003536175
:101C4000236CA3B12268136823F008031360E26DCC
:101C50003F239340BB60012384F83530002384F890
:101C60003430236D002B3FD0204698473CE0A36CD6
:101C7000002BE7D1EBE7E36BA3B12046984711E0D7
:101C80001A6812F4807F09D11A6822F010021A60D3
:101C9000012384F83530002384F83430E36B0BB132
:101CA00020469847636DFBB1636D13F0010F17D0A9
:101CB000052384F835302268136823F0010313608C
:101CC000019B01330193AB4204D823681B6813F0D6
:101CD000010FF5D1012384F83530002384F8343026
:101CE000E36C0BB12046984703B0F0BD40000020E4
:101CF000B5814E1B074AD36823F4E0631B041B0C19
:101D0000000200F4E060034343F0BF6343F4003398
:101D1000D360704700ED00E000B5194BDB68C3F3FA
:101D20000223C3F1070CBCF1040F28BF4FF0040CD1
:101D300003F1040EBEF1060F18D9033B4FF0FF3E2E
:101D40000EFA0CFC21EA0C0199400EFA03F322EA88
:101D50000303194300280BDB0901C9B200F16040FD
:101D600000F5614080F800135DF804FB0023E5E70F
:101D700000F00F000901C9B2024B1954F4E700BF8B
:101D800000ED00E014ED00E0002807DB00F01F028A
:101D9000400901239340024A42F82030704700BFB7
:101DA00000E100E008B50B4B1A6842F400721A60BB
:101DB0001A6842F480621A601A6842F480721A60EB
:101DC0000320FFF797FF0F2000F066FBFEF70CFDE6
:101DD000002008BD003C0240034A1168034B1B78F9
:101DE0000B441360704700BFF00200203800002051
:101DF000014B1868704700BFF002002038B5044658
:101E0000FFF7F6FF0546B4F1FF3F02D0044B1B7805
:101E10001C44FFF7EDFF401BA042FAD338BD00BFC2
:101E200038000020034B9B68C3F30313024AD35CC2
:101E3000D8407047003802408CC10008034B9B68B3
:101E4000C3F38223024AD35CD84070470038024073
:101E50009CC10008034B9B68C3F34233024AD35C26
:101E6000D8407047003802409CC100080F4B5B68A7
:101E700003F4800323B90E4B082803D000207047D9
:101E80000C4BF9E7094A506800F03F00B3FBF0F053
:101E90005368C3F3881303FB00F05368C3F3014393
:101EA00001335B00B0FBF3F0704700BF0038024025
:101EB0000024F40000366E0108B5084B9B6803F05F
:101EC0000C03042B05D0082B05D10820FFF7CEFF0B
:101ED00002E0034800E0034808BD00BF00380240AC
:101EE00000366E010024F40010B50446FFF7E4FF4D
:101EF0002060FFF797FF6060FFF7A0FFA0606068B9
:101F0000FFF7A8FFE06010BD034AD2F8883043F421
:101F10007003C2F88830704700ED00E008B504F0A7
:101F2000B5FC04F0C3FC034B83ED000A012002F072
:101F300077FAFBE70C03002008B5012002F070FAE5
:101F4000FBE7000008B50EE0402809D105F07AFA59
:101F500006E0384A1178384B03EBC1035B78137005
:101F6000012002F05DFAFEF7B5FB344B1880002823
:101F7000F6D02028E8D80228F2D302381E28EFD85D
:101F800001A353F820F000BF531F0008611F000891
:101F900005200008611F0008611F0008611F00087C
:101FA00015200008611F0008611F0008611F00085C
:101FB000611F0008611F0008611F0008611F000801
:101FC00025200008611F0008611F0008611F00082C
:101FD000611F0008611F0008611F0008611F0008E1
:101FE000611F0008611F0008611F0008611F0008D1
:101FF000611F0008611F0008611F0008611F0008C1
:102000002F2000080B4A11780B4B03EBC1039B7880
:102010001370A5E7074A1178074B03EBC103DB7880
:1020200013709DE7064B1A78024B1A7098E705F07B
:1020300009FA95E7080300204C0000201003002057
:102040004400002008B505F057FA10E00B4B03EBF5
:10205000C2035B680A4C236005F0F4F923689847D3
:10206000084B1A78084B1A70012002F0D9F9054B79
:102070001A78054B1B789A42E8D1F5E74C0000200E
:1020800004030020080300204400002008B50E4A85
:1020900000210E4802F062F90D4B18600D4A002134
:1020A0000D4802F05BF90D4B18600D4A00210D48F8
:1020B00002F054F90C4B18600C4A00210C4802F055
:1020C0004DF90C4B186008BD14C200081D1F000814
:1020D000FC020020F0C10008451F0008F8020020A3
:1020E00038C20008391F000800030020CCC10008D6
:1020F00045200008F402002008B50548054B0360A0
:1021000000F01CFA00B908BDFEF7F0F9FBE700BFCC
:1021100014030020003002400268094B9A4200D0AC
:10212000704782B000230193064B1A6B42F4805231
:102130001A631B6B03F480530193019B02B0704739
:102140000030024000380240F0B587B00023019310
:102150000293039304930593164B1B680BB107B0CE
:10216000F0BD144B01221A6000260096124B9A6BA8
:1021700042F001029A639B6B03F001030093009B02
:102180004FF68073019302270297032504950C24D0
:10219000059401A90948FFF791FA4CF6B37301932E
:1021A000029703960495059401A90548FFF786FA5E
:1021B000D5E700BF1C030020003802400010024099
:1021C000000C024010B588B00022019202920392E6
:1021D000049205920692079214484FF02043036040
:1021E00003F5827343608260C26002611021416125
:1021F0008261C261026242624FF480538362C262B2
:102200000263426382634264022301930F240294B7
:102210000393049305911123069301A900F018FA82
:1022200008B908B010BDFEF761F9FAE720030020F5
:1022300008B5FFF789FF08BD30B58FB000240894BA
:1022400009940A940B940C940D94029403940494AE
:10225000059406940794224D2B6B43F002032B63E5
:102260002B6B03F002030193019BC0230293022313
:10227000039303230493012305930423079302A9E3
:102280001848FEF7D3FA2B6C43F400132B642B6C25
:1022900003F400130093009BA5F5F235EB6823F0DF
:1022A0000103EB602B6823F040032B602B6823F0C5
:1022B00080032B6008940C4B09930A940B944FF401
:1022C00080630C934FF480430D9308A9284600F0D7
:1022D000EBF9EB6823F0FE03EB600FB030BD00BFFD
:1022E0000038024000040240A086010008B50F48F3
:1022F0000F4B03604FF48273436000238360C3601D
:10230000036143614FF4802282612822C26103622B
:1023100043624FF4005383620A23C36200F046FA1B
:1023200000B908BDFEF7E2F8FBE700BF700300202C
:102330000038004000B589B000230393049305934F
:10234000069307930268154B9A4202D009B05DF8D4
:1023500004FB0021019103F500331A6C42F4804222
:102360001A641A6C02F480420192019A02911A6B6B
:1023700042F002021A631B6B03F002030293029BFA
:102380004FF470430393022304930323069305231E
:10239000079303A90248FFF791F9D7E700380040F7
:1023A0000004024008B50A480A4B03604FF4E133C9
:1023B000436000238360C36003610C224261836138
:1023C000C36103F03FFF00B908BDFEF78FF8FBE7DC
:1023D000280400200010014030B589B00023039389
:1023E0000493059306930793026803F1804303F572
:1023F00088339A4201D009B030BD044600250195CA
:1024000003F594335A6C42F010025A645A6C02F08D
:1024100010020192019A02951A6B42F001021A63AE
:102420001B6B03F001030293029B4FF4C063039301
:1024300002230493032306930723079303A9134856
:10244000FFF73CF91248134B03604FF00063436001
:102450008560C5604FF480630361456185614FF419
:102460008073C36105624562FFF792FA58B9084B61
:10247000E3639C63002205212520FFF74DFC252006
:10248000FFF782FCB7E7FEF731F8F0E70000024003
:10249000C80300204064024030B589B004460023E0
:1024A0000193214B1A6C42F020021A641B6C03F05A
:1024B00020030193019B02A903A8FFF7E1F8069B03
:1024C000CBB9FFF7BDF803461848A0FB03239B0CCC
:1024D000013B1748174A026040F2E732C26043608E
:1024E0000023036183608361FEF760FC054630B121
:1024F000284609B030BDFFF7A3F84300E4E70C48D5
:10250000FEF7F0FA05460028F2D13720FFF73CFC31
:102510000F2C01D90125EBE7002221463720FFF7D8
:10252000FBFB054B1C60E3E70038024083DE1B43E6
:1025300070040020001400403C00002058B110B589
:10254000044643791BB101236371002010BD037160
:10255000FFF7E2FDF7E701207047000010B40A68BA
:1025600050F8223023F0010340F822308B68082B0A
:1025700025D000244A6822431343CA6813430A69DA
:1025800013434A691343CA6913430A6A13434A6AE5
:1025900013438A6A1343CA6A13430A6B13438A6953
:1025A0001343CA6B1343096850F82140054A22407F
:1025B0001A4340F8212000205DF8044B7047402466
:1025C000D8E700BF8000F0FF10B5013250F822308C
:1025D00003F0404C0B684C6843EA04138C6843EAF0
:1025E0000423CC6843EA04430C6904F1FF3E43EA48
:1025F0000E534C69A4F1020E43EA0E6389690B4342
:102600004CEA030340F82230002010BDB3F5804FA0
:1026100005D06FF0704340F822300020704730B48E
:1026200050F82230094C1C400B684D6843EA0513F2
:102630008D6843EA05238D692B43C96843EA01434A
:10264000234340F82230002030BC70470000F0CF18
:1026500040B370B50E461546044690F84930E3B1D4
:10266000214651F8080BFFF779FFA2683146206830
:10267000FFF7AAFF236BA26829466068FFF7C6FF31
:102680002268A16852F8213043F0010342F821305A
:10269000012384F84930002070BD80F84830FFF7EE
:1026A000C7FDDDE701207047F0B585B004460D4653
:1026B000036823F0010303606846FFF715FC029AE4
:1026C0006B68AE683648A0FB021C4FEA9C4160680C
:1026D00020F03F0040EA9C406060206A20F03F000C
:1026E000304FBB4237D80131014321622D498B4223
:1026F0004DD9002E39D103EB4303B2FBF3F2C2F301
:102700000B03002B3DD042F4004246EA0203E2698B
:1027100022F44F4222F0FF021A43E261EA6869693B
:10272000A36823F4034323F0FF030A431343A36086
:102730002B68226822F01A0213432360236843F0B7
:10274000010323602B69226822F480621343236013
:10275000002005B0F0BD4FF4967707FB01F1124F52
:10276000A7FB017189090131BEE703EB830303EB8A
:102770008303B2FBF3F2C2F30B032BB142F400422A
:10278000C3E748F20102C0E748F20102BDE75B007F
:10279000B2FBF3F340F6FC721342B8D10423B6E760
:1027A00083DE1B43A0860100D34D6210002860D059
:1027B00010B50446436A33B94368B3F5827F05D048
:1027C0000023C36102E000230361436194F85130A8
:1027D000002B44D0022384F851302268136823F080
:1027E00040031360636803F48273A26802F4044236
:1027F0001343E26802F400621343226902F002020A
:102800001343626902F001021343A26902F40072E9
:102810001343E26902F038021343226A02F0800295
:102820001343A26A02F40052216813430B60638BC6
:1028300003F00403626A02F01002216813434B6044
:10284000A36AB3F5005F10D02268D36923F4006354
:10285000D36100206065012384F8513010BD84F8F5
:1028600050302046FFF766FDB4E72368A28D1A6159
:10287000EAE70120704700F1080343604FF0FF32A0
:102880008260C3600361002303607047002303611B
:10289000704743684B609A688A605160996008612C
:1028A000036801330360704730B40D68B5F1FF3F32
:1028B00011D000F108031C465B681A68AA42FAD9D5
:1028C00063684B6099608C606160086103680133E4
:1028D000036030BC70470469F2E7036941688268AD
:1028E0008A60416851605A68824206D000220261C3
:1028F0001A68013A1A601868704782685A60F5E7EA
:102900000346406A18B11B6B1868C0F13800704765
:1029100010B5044602F02EF8A26BE36B9A4204D085
:10292000002402F049F8204610BD0124F9E710B553
:10293000044602F01FF8A36B23B9012402F03CF80F
:10294000204610BD0024F9E770B504461546866B95
:10295000026C5AB903681BB100200136A66370BD32
:10296000806801F0F1F90023A360F6E76DB94068D3
:1029700008F084FD226C636813446360A26893428C
:1029800019D3236863602846E7E7C06808F076FD3E
:10299000226C5142E3689B1AE3602268934202D2A0
:1029A000A3680B44E360022D01D00020D5E726B1D7
:1029B000013E0020D1E72846CFE70020CDE70346BF
:1029C000026C6AB110B50846D9681144D9609C6898
:1029D000A14201D31968D960D96808F04FFD10BD34
:1029E000704738B5054601F0C5FF95F8454064B21B
:1029F00001E0013C64B2002C0ADD6B6A43B105F1D1
:102A0000240001F0A5F80028F3D001F035F9F0E733
:102A1000FF2385F8453001F0CFFF01F0ABFF95F8BB
:102A2000444064B201E0013C64B2002C0ADD2B6931
:102A300043B105F1100001F08BF80028F3D001F04C
:102A40001BF9F0E7FF2385F8443001F0B5FF38BDEE
:102A500038B5E0B10D46044601F08CFF2368E26B07
:102A6000216C01FB0230A0600020A0636360013A8A
:102A700002FB0133E360FF2384F8443084F84530DF
:102A8000FDB9236963B901F097FF012038BD4FF00C
:102A9000500383F31188BFF36F8FBFF34F8FFEE7AF
:102AA00004F1100001F054F80028ECD04FF0E023BE
:102AB0004FF08052C3F8042DBFF34F8FBFF36F8FD9
:102AC000E1E704F11000FFF7D6FE04F12400FFF760
:102AD000D2FED8E738B51D46049C0B4649B92460A0
:102AE000E063236401212046FFF7B2FF84F84C50D5
:102AF00038BD2260F4E740B94FF0500383F31188EA
:102B0000BFF36F8FBFF34F8FFEE710B584B01C4645
:102B1000844653B192B189B94FF0500383F31188C1
:102B2000BFF36F8FBFF34F8FFEE74FF0500383F378
:102B30001188BFF36F8FBFF34F8FFEE76AB1502349
:102B40000393039B502B13D04FF0500383F3118852
:102B5000BFF36F8FBFF34F8FFEE70029EFD04FF029
:102B6000500383F31188BFF36F8FBFF34F8FFEE7DE
:102B7000039B012384F8463000949DF8183060468A
:102B8000FFF7A8FF204604B010BD40B94FF0500336
:102B900083F31188BFF36F8FBFF34F8FFEE7F0B55C
:102BA00083B00D461446064601FB00F0503001F09C
:102BB000B9FD074650B1002380F846300090234607
:102BC00000F1500229463046FFF784FF384603B033
:102BD000F0BD40B94FF0500383F31188BFF36F8FFE
:102BE000BFF34F8FFEE710B582B00C46884208D283
:102BF0004FF0500383F31188BFF36F8FBFF34F8FF4
:102C0000FEE702230093134600221146FFF773FFED
:102C100000B1846302B010BD40B94FF0500383F39C
:102C20001188BFF36F8FBFF34F8FFEE710B50C46CF
:102C3000884208D24FF0500383F31188BFF36F8F9F
:102C4000BFF34F8FFEE702220021FFF79EFF00B186
:102C5000846310BDF0B585B0019288B10F461D4662
:102C60000446B1B1022D20D1E36B012B1DD04FF0F2
:102C7000500383F31188BFF36F8FBFF34F8FFEE7CD
:102C80004FF0500383F31188BFF36F8FBFF34F8F63
:102C9000FEE7036C002BE5D04FF0500383F311885F
:102CA000BFF36F8FBFF34F8FFEE700F0F1FF0646D3
:102CB00058B9019B002B48D04FF0500383F3118883
:102CC000BFF36F8FBFF34F8FFEE700263DE02A462C
:102CD00039462046FFF738FE636A7BB948B14FF0AA
:102CE000E0234FF08052C3F8042DBFF34F8FBFF3A2
:102CF0006F8F01F061FE012005B0F0BD04F12400EA
:102D000000F026FF0028F4D04FF0E0234FF080526F
:102D1000C3F8042DBFF34F8FBFF36F8FE9E701F0C6
:102D20004BFE0020E8E702A800F058FF012619E05A
:102D3000002384F8443021E0002384F8453023E068
:102D40002046FFF74EFE00F0E3FD01F013FEA26BFC
:102D5000E36B9A42BBD3022DB9D0019B002BDED08E
:102D6000002EE0D001F028FE00F038FD01F002FE58
:102D700094F8442052B2B2F1FF3FD9D094F84520E4
:102D800052B2B2F1FF3FD7D001F016FE01A902A85E
:102D900000F030FFD8B92046FFF7BAFD0028CFD0A9
:102DA000019904F1100000F09FFE2046FFF719FE84
:102DB00000F0AEFD0028C8D14FF0E0234FF0805264
:102DC000C3F8042DBFF34F8FBFF36F8FBDE72046CD
:102DD000FFF707FE00F09CFD00208DE748B108B525
:102DE000002181600160C1600B460A46FFF732FF97
:102DF00008BD704710B5024600210120FFF7C5FE4F
:102E00000446FFF7EBFF204610BD10B582B00B461D
:102E10000090002211460120FFF76DFE0446FFF7E7
:102E2000DDFF204602B010BD38B538B104468568D4
:102E300000F028FF85420AD0002038BD4FF0500333
:102E400083F31188BFF36F8FBFF34F8FFEE7E36803
:102E5000013BE3600BB10120EFE71A46194620461B
:102E6000FFF7F8FE0120E8E72DE9F84390B10F469F
:102E700016461C460546B1B1022C20D1EB6B012B46
:102E80001DD04FF0500383F31188BFF36F8FBFF352
:102E90004F8FFEE74FF0500383F31188BFF36F8F1E
:102EA000BFF34F8FFEE7036C002BE5D04FF05003CC
:102EB00083F31188BFF36F8FBFF34F8FFEE701F0ED
:102EC0007FFEEFF311894FF0500383F31188BFF3B6
:102ED0006F8FBFF34F8FAA6BEB6B9A4206D3022C16
:102EE00004D0002089F31188BDE8F88395F8458067
:102EF0004FFA88F8AB6B224639462846FFF724FD87
:102F0000B8F1FF3F06D008F101035BB285F8453008
:102F10000120E7E76B6A0BB90120E3E705F1240024
:102F200000F016FE18B126B101203060DAE701206A
:102F3000D8E70120D6E7F0B585B0019290B10F46F1
:102F40000446C1B100F0A4FE064600BB019B002B65
:102F50005ED04FF0500383F31188BFF36F8FBFF340
:102F60004F8FFEE74FF0500383F31188BFF36F8F4D
:102F7000BFF34F8FFEE7036C002BE3D04FF05003FD
:102F800083F31188BFF36F8FBFF34F8FFEE70026E7
:102F90003EE039462046FFF712FD013DA563236957
:102FA00023B901F009FD012005B0F0BD04F11000C6
:102FB00000F0CEFD0028F4D04FF0E0234FF0805217
:102FC000C3F8042DBFF34F8FBFF36F8FE9E701F014
:102FD000F3FC0020E8E702A800F000FE012621E053
:102FE000002384F8443029E0002384F845302BE0A6
:102FF0002046FFF7F6FC00F08BFC09E02046FFF7C7
:10300000F0FC00F085FC2046FFF791FC00283FD142
:1030100001F0B0FCA56B002DBBD1019B002BD6D0DD
:10302000002ED8D001F0C8FC00F0D8FB01F0A2FCC3
:1030300094F844305BB2B3F1FF3FD1D094F84530FF
:103040005BB2B3F1FF3FCFD001F0B6FC01A902A8FB
:1030500000F0D0FD0028D1D12046FFF768FC002801
:10306000C6D0019904F1240000F03EFD2046FFF790
:10307000B8FC00F04DFC0028CAD14FF0E0234FF01F
:103080008052C3F8042DBFF34F8FBFF36F8FBFE79C
:10309000002089E770B584B0019158B10446036CF3
:1030A0008BB14FF0500383F31188BFF36F8FBFF3E1
:1030B0004F8FFEE74FF0500383F31188BFF36F8FFC
:1030C000BFF34F8FFEE700F0E3FD054650B9019BCB
:1030D0005BB14FF0500383F31188BFF36F8FBFF3E1
:1030E0004F8FFEE70026354655E0064653E0013B8C
:1030F000A36323683BB123694BB901F05DFC012652
:10310000304604B070BD00F0B7FEA060F3E704F1F4
:10311000100000F01DFD0028EFD04FF0E0234FF02D
:103120008052C3F8042DBFF34F8FBFF36F8FE4E7D6
:1031300046B14FF0500383F31188BFF36F8FBFF395
:103140004F8FFEE701F038FCDAE702A800F046FDF9
:1031500001252AE0002384F8443032E0002384F87B
:10316000453034E001F006FCA06800F0A1FD064601
:1031700001F022FC3BE02046FFF733FC00F0C8FBE7
:1031800009E02046FFF72DFC00F0C2FB2046FFF7C8
:10319000CEFB002842D101F0EDFBA36B002BA6D1A2
:1031A000019B002BC4D0002DCFD001F005FC00F016
:1031B00015FB01F0DFFB94F844305BB2B3F1FF3F45
:1031C000C8D094F845305BB2B3F1FF3FC6D001F0F0
:1031D000F3FB01A902A800F00DFD0028D1D1204683
:1031E000FFF7A5FB0028C6D02368002BBAD00199B1
:1031F00004F1240000F078FC2046FFF7F2FB00F019
:1032000087FB0028C7D14FF0E0234FF08052C3F86E
:10321000042DBFF34F8FBFF36F8FBCE70EB90026AD
:103220006EE701F0A7FB2046FFF76AFB0146A068A6
:1032300000F0D2FD01F0C0FBF1E780B170B50C46A3
:103240000546866800F01EFD864211D021462846BC
:10325000FFF720FF80B1EB680133EB600CE04FF02B
:10326000500383F31188BFF36F8FBFF34F8FFEE7D7
:10327000EB680133EB60012070BD00000023072BD9
:103280000CD8074A52F833200AB10133F7E7044A51
:1032900042F8331002EBC30358607047704700BF19
:1032A000B80400200023072B0FD8084A02EBC30202
:1032B0005268824201D00133F5E7044A002142F806
:1032C000331002EBC303596070477047B804002005
:1032D00038B110B50446FFF7E5FF94F846304BB11E
:1032E00010BD4FF0500383F31188BFF36F8FBFF30E
:1032F0004F8FFEE7204601F093FAF1E770B50446E0
:103300000D46164601F036FB94F844305BB2B3F13B
:10331000FF3F0DD094F845305BB2B3F1FF3F0BD0C7
:1033200001F04AFBA36B5BB12046FFF75AFB70BD6F
:10333000002384F84430EDE7002384F84530EFE7BC
:103340003246294604F1240000F0E6FBECE70000D9
:10335000084B1B681B6823B9074B4FF0FF321A60FC
:103360007047044B1B68DB68DB685A68024B1A60C5
:10337000704700BFFC040020A40900202DE9F0479D
:1033800080460D4617469946089EDDF824A00A9C03
:103390009200A521206B08F099F8236B07F1804279
:1033A000013A03EB820727F00707B5B34FF0000C93
:1033B000BCF10F0F0BD815F80C2004EB0C0383F8AD
:1033C000342015F80C3013B10CF1010CF0E7002398
:1033D00084F84330372E00D93726E662E6640025AC
:1033E0002565201DFFF752FA04F11800FFF74EFA89
:1033F0002461C6F13806A6616462656584F8585098
:103400004A464146384601F087FA2060BAF1000F7B
:1034100001D0CAF80040BDE8F087002384F83430BA
:10342000D8E7000038B5002407E004EB84029300DD
:103430000E481844FFF71FFA0134372CF5D90C4D0C
:103440002846FFF718FA0B4C2046FFF714FA0A48F3
:10345000FFF711FA0948FFF70EFA0948FFF70BFAD0
:10346000084B1D60084B1C6038BD00BF04050020E0
:10347000780900208C090020B0090020DC09002018
:10348000C8090020FC0400200005002010B50446F7
:1034900001F070FA224A136801331360214B1B6854
:1034A0005BB1214B1B686BB91E4B1B68DA6AE36A80
:1034B0009A4207D81B4B1C6004E01A4B1C6013682F
:1034C000012B29D0194A1368013313606364E06A41
:1034D000174B1B68984201D9154B186000EB800010
:1034E000211D144B03EB8000FFF7D3F901F064FAC0
:1034F0000D4B1B687BB10B4B1B68DA6AE36A9A427F
:1035000009D24FF0E0234FF08052C3F8042DBFF3EF
:103510004F8FBFF36F8F10BDFFF784FFD2E700BF5F
:1035200064090020F8040020C4090020700900206C
:10353000740900200405002010B5044690F85930A5
:1035400063B1012B11D0022B0ED04FF0500383F347
:103550001188BFF36F8FBFF34F8FFEE7006B01F051
:103560005FF9204601F05CF910BD01F059F9FBE765
:103570000F4B1B68D3B110B501F0FCF90D4BDB68A4
:10358000DC68201DFFF7A9F90B4A1368013B1360A3
:10359000074A1368013B136001F00EFA2046FFF75B
:1035A000CBFF034B1B68002BE6D110BD704700BF5B
:1035B00068090020DC0900206409002008B5FFF735
:1035C000D7FF074B1B68012BF9D94FF0E0234FF0D1
:1035D0008052C3F8042DBFF34F8FBFF36F8FEEE718
:1035E0000405002070B504460D46174B1E68174BA6
:1035F00018680430FFF771F9B4F1FF3F0DD034447F
:10360000124B1B685C60A64210D9114B18680F4B17
:1036100019680431FFF748F970BD002DEFD00B4B4E
:10362000196804310B48FFF734F9F5E70A4B1868BD
:10363000064B19680431FFF737F9084B1B68A342A2
:10364000EAD9064B1C60E7E7F0090020F8040020E7
:1036500000050020C8090020FC040020A409002067
:1036600030B587B00B9C7CB10C9DB5B15C25049541
:10367000049D5C2D1AD04FF0500383F31188BFF3E3
:103680006F8FBFF34F8FFEE74FF0500383F3118826
:10369000BFF36F8FBFF34F8FFEE74FF0500383F3FD
:1036A0001188BFF36F8FBFF34F8FFEE7049D0C9D12
:1036B0002C63022485F8594000240394029505AC3C
:1036C00001940A9C0094FFF759FE0C98FFF7DEFE68
:1036D000059807B030BD2DE9F04385B00746884610
:1036E00014461E46900001F01DF800B381465C2090
:1036F00001F018F80546B0B1C0F83090E5B10023EC
:1037000085F85930039302950D9B01930C9B009310
:103710003346224641463846FFF730FE2846FFF73B
:10372000B5FE012005E0484601F07AF8E6E74FF0E3
:10373000FF3005B0BDE8F0834FF0FF30F9E700003F
:1037400010B588B000240594069407AA06A905A818
:1037500000F06AFF059B0293069B019300942346A9
:10376000079A18491848FFF77BFF184B186040B1BB
:1037700000F0FCFB012806D0B0F1FF3F18D008B0E4
:1037800010BD0020F6E74FF0500383F31188BFF31C
:103790006F8FBFF34F8F0E4B4FF0FF321A600D4B00
:1037A00001221A600C4B00221A6001F07DF9E6E755
:1037B0004FF0500383F31188BFF36F8FBFF34F8F28
:1037C000FEE700BFB40E0108BD350008A0090020C7
:1037D000A4090020C4090020F0090020024A13684F
:1037E00001331360704700BF6C090020014B18685B
:1037F000704700BFF0090020F8B53A4B1B68002B5A
:1038000069D1394B1D6801351D60C5B9374B1B683F
:103810001B6843B14FF0500383F31188BFF36F8FE0
:10382000BFF34F8FFEE7314A1168314B18681060C3
:103830001960304A136801331360FFF789FD2E4B7E
:103840001B68AB423DD900272C4B1B68DB6A03EB9E
:1038500083039A002A4B9B58012B00D90127294B3F
:103860001B68002B3CD001273AE001271F4B1B6847
:103870001B6843B31D4B1B68DB68DC6863689D42B3
:1038800026D3261D3046FFF728F8A36A1BB104F1A2
:103890001800FFF722F8E36A1B4A1268934201D925
:1038A000194A136003EB83039A003146144810440D
:1038B000FEF7EFFFE26A114B1B68DB6A9A42D4D233
:1038C000D4E70027D2E70C4B4FF0FF321A60BBE77A
:1038D000094A1360B8E70D4A1368013313600027E3
:1038E0003846F8BD6C090020F0090020FC040020D7
:1038F00000050020A8090020A4090020F8040020E9
:1039000004050020F409002074090020AC090020FF
:1039100038B5354B1B6843B94FF0500383F311881A
:10392000BFF36F8FBFF34F8FFEE701F023F82E4BED
:103930001A68013A1A601B68002B4FD12B4B1B6889
:103940000BB900244BE00024294B1B681BB3284B08
:10395000DB68DC6804F11800FEF7BFFF251D284670
:10396000FEF7BBFFE06A234B1B68984201D9214B4D
:10397000186000EB800029461F4B03EB8000FEF728
:1039800088FFE26A1D4B1B68DB6A9A42DCD31C4B42
:1039900001221A60D8E70CB1FFF7DAFC194B1C685A
:1039A00084B9174B1C68D4B14FF0E0234FF080521C
:1039B000C3F8042DBFF34F8FBFF36F8F01240EE0C8
:1039C000013C07D0FFF718FF0028F9D00C4B01226B
:1039D0001A60F5E70B4B00221A60E2E7002400F0C2
:1039E000EBFF204638BD00BF6C09002064090020B1
:1039F000B00900207409002004050020F80400200C
:103A0000F4090020AC09002010B5A8B10446104B01
:103A10001B6843B14FF0500383F31188BFF36F8FDE
:103A2000BFF34F8FFEE7FFF7D9FE00212046FFF7D7
:103A3000D9FDFFF76DFF48B94FF0E0234FF08052FA
:103A4000C3F8042DBFF34F8FBFF36F8F10BD00BFBE
:103A50006C0900201F4B1B681BB11F4B01221A6011
:103A600070471D4B00221A601C4B1B6803EB83013F
:103A70008A001B498A585AB90BB1013BF6E74FF04F
:103A8000500383F31188BFF36F8FBFF34F8FFEE7AF
:103A900003EB830082000A4450684068506003EBE7
:103AA000830C4FEA8C020832114488420BD003EB9E
:103AB000830291000A4A0A445268D168094A116097
:103AC000064A13607047406862469100044A0A44FF
:103AD0005060ECE76C090020F40900207409002014
:103AE00004050020F804002058B110B50C46094A1E
:103AF00011681831FEF7D8FE01212046FFF772FD4C
:103B000010BD4FF0500383F31188BFF36F8FBFF3E5
:103B10004F8FFEE7F804002038B570B10D4614460B
:103B20000A4A11681831FEF7B4FE0CB14FF0FF35A8
:103B300021462846FFF756FD38BD4FF0500383F36A
:103B40001188BFF36F8FBFF34F8FFEE7F80400209B
:103B500038B5C368DC6824B304F118052846FEF7BD
:103B6000BCFE184B1B682BBB251D2846FEF7B5FE77
:103B7000E06A154B1B68984201D9134B186000EBA3
:103B800080002946114B03EB8000FEF782FEE26ABB
:103B90000F4B1B68DB6A9A4211D901200D4B18604C
:103BA00038BD4FF0500383F31188BFF36F8FBFF31D
:103BB0004F8FFEE729460848FEF76BFEE7E7002037
:103BC000EEE700BF6C090020740900200405002006
:103BD000F8040020F4090020B0090020034B1B6802
:103BE0000360034B1B684360704700BFA8090020B7
:103BF000F0090020F8B5C8B10C460546F9B100F04F
:103C0000B9FE1B4B19686B68C81A2268B2F1FF3FF6
:103C100026D0184E36682F68B74201D08B4224D97F
:103C2000824215D80023236001241AE04FF050038C
:103C300083F31188BFF36F8FBFF34F8FFEE74FF011
:103C4000500383F31188BFF36F8FBFF34F8FFEE7ED
:103C50005B1A134423602846FFF7C0FF002400E0EE
:103C6000002400F0A9FE2046F8BD0124F9E700BFBA
:103C7000F0090020A8090020014B01221A607047BA
:103C8000F4090020014B1868704700BFF8040020B9
:103C9000054B1B6833B1054B1B680BB10020704707
:103CA0000220704701207047C40900206C090020E1
:103CB00000283ED038B50446C36A204A1268D26A4A
:103CC00093422ED28269002A05DB1C4A1268D26A0E
:103CD000C2F138028261616903EB8303184A02EB87
:103CE0008303994205D0154B1B68DB6AE362012010
:103CF00038BD251D2846FEF7F0FD104B1B68D86A1D
:103D0000E062104B1B68984201D90E4B186000EB23
:103D1000800029460A4B03EB8000FEF7BAFD012024
:103D2000E6E7C26C054B1B68DB6A9A4203D30020AE
:103D3000DEE7002070470120DAE700BFF80400202A
:103D4000040500207409002000283BD038B5044643
:103D50001E4B1B68834208D04FF0500383F3118839
:103D6000BFF36F8FBFF34F8FFEE7036D43B94FF083
:103D7000500383F31188BFF36F8FBFF34F8FFEE7BC
:103D8000013B0365C16AC26C91421DD00BB100209A
:103D900038BD051D2846FEF7A0FDE06CE062C0F1CD
:103DA0003803A3610A4B1B68984201D9084B18607D
:103DB00000EB80002946074B03EB8000FEF769FD0E
:103DC0000120E5E7002070470020E1E7F80400202B
:103DD0007409002004050020002846D038B50446A8
:103DE000036D43B94FF0500383F31188BFF36F8F16
:103DF000BFF34F8FFEE7C26C8A4200D20A46E16AE7
:103E0000914201D0012B00D038BD184B1B68A34252
:103E100022D0E262A369002B02DBC2F13802A26168
:103E2000626901EB8101124B03EB81018A42EBD104
:103E3000251D2846FEF751FDE06A0E4B1B6898428F
:103E400001D90C4B186000EB80002946084B03EBAE
:103E50008000FEF71EFDD7E74FF0500383F3118873
:103E6000BFF36F8FBFF34F8FFEE77047F80400205A
:103E70000405002074090020054B1B6823B1044B86
:103E80001A68136D01331365014B1868704700BF42
:103E9000F8040020064B1A6813682BB9012303604D
:103EA00023B9D368186870470023F8E700207047EB
:103EB000F809002008B54160006191420CD8D21A7F
:103EC00083699A4201D3012008BD011D094B18687E
:103ED000FEF7EAFC0020F7E79A4201D2994206D2A7
:103EE000011D054B1868FEF7DFFC0020ECE7012000
:103EF000EAE700BFFC090020F809002030B583B0D4
:103F000000F038FD114B1B681BB100F055FD03B0EC
:103F100030BD0F4D2846FEF7AEFC0E4C2046FEF796
:103F2000AAFC0D4B1D600D4B1C60002300930C4B35
:103F30000C4A10210A20FEF7DEFD044B1860002811
:103F4000E3D00949FFF79AF9DFE700BF1C0B002017
:103F5000A00A0020B40A0020F8090020FC09002073
:103F6000CC0A0020000A0020BC0E010810B588B061
:103F7000FFF7C4FF124B1B68CBB1002405940694D5
:103F800007AA06A905A800F05BFB059B0293069B08
:103F90000193022300932346079A0A490A48FFF730
:103FA0005FFB0A4B186010B1012008B010BD4FF044
:103FB000500383F31188BFF36F8FBFF34F8FFEE77A
:103FC0001C0B0020C40E0108D1420008200B002069
:103FD000B8B19C4603461848006858B300B585B090
:103FE00000910192029305291CDCFFF751FE022883
:103FF00010D000231A4669460F480068FEF72AFED3
:1040000015E04FF0500383F31188BFF36F8FBFF3B8
:104010004F8FFEE70023069A694607480068FEF7BF
:1040200019FE04E0002362466946FEF71DFF05B055
:104030005DF804FB002070471C0B002070B582B0B7
:104040001B4B1B681A6862B3DB681E68DC68251DA1
:104050002846FEF742FC236A2046984794F8283009
:1040600013F0040FECD0A36933449E4207D263607F
:10407000246129460E4B1868FEF716FCE0E7002184
:1040800000910B4632462046FFF7A2FF0028D7D109
:104090004FF0500383F31188BFF36F8FBFF34F8F3F
:1040A000FEE7044A106802490860136002B070BD60
:1040B000F8090020FC09002038B50546FFF796FBFB
:1040C0000446074B1B68834205D800232B60044B32
:1040D0001C60204638BDFFF7B1FF01232B60F6E7D7
:1040E000C80A002070B582B006460D461749096817
:1040F000C968CC68201DFEF7F0FB94F828C01CF0BE
:10410000040F08D12CF0010C84F828C0236A204643
:10411000984702B070BDA16933462A463144204613
:10412000FFF7C8FE0028F1D0002100910B4632466F
:104130002046FFF74DFF0028E8D14FF0500383F3EE
:104140001188BFF36F8FBFF34F8FFEE7F809002090
:1041500070B582B006460C46FFF740FB01A8FFF79A
:10416000ABFF019B33BB05460CB9B04219D224B159
:10417000124A12681268DAB901242246711B104BE8
:104180001868FFF7BBF8FFF7C3FBA8B94FF0E023AF
:104190004FF08052C3F8042DBFF34F8FBFF36F8FE2
:1041A0000AE0FFF7B5FB29463046FFF79BFF03E027
:1041B0001C46E2E7FFF7ACFB02B070BDFC09002033
:1041C0001C0B002010B588B002E0049B002B0FDA16
:1041D000002204A93D4B1868FEF7ADFE002873D0FD
:1041E000049B002BF1DA07990698059B9847ECE7AA
:1041F000069C636913B1201DFEF76FFB03A8FFF750
:104200005BFF049B092BE3D8DFE803F005050530CD
:1042100037500505303794F8283043F0010384F80F
:104220002830059BA169024619442046FFF742FE4B
:104230000028CDD0236A2046984794F8283013F000
:10424000040FC5D0A269002100910B4605980244D5
:104250002046FFF7BDFE0028BAD14FF0500383F38C
:104260001188BFF36F8FBFF34F8FFEE794F82830AC
:1042700023F0010384F82830AAE794F8283043F0AB
:10428000010384F828300599A16131B10346024643
:1042900001442046FFF70EFE9AE74FF0500383F3E8
:1042A0001188BFF36F8FBFF34F8FFEE794F828306C
:1042B00013F0020F04D023F0010384F8283087E7BD
:1042C000204600F0ADFA83E708B010BD1C0B0020BB
:1042D00000B583B001A8FFF7DDFD0199FFF738FFB6
:1042E000FFF770FFF6E708B54FF0E0231B69FFF713
:1042F000CFFC012800D108BD00F0ACFBFBE70000BB
:10430000EFF305832BB9064B186828B901221A6010
:1043100070476FF0050070474FF0FF30704700BFE7
:10432000800D0020EFF3058373B90A4B1B68012B46
:104330000DD110B50024084BDC77064B02221A6021
:10434000FFF7FEF9204610BD6FF0050070474FF0F3
:10435000FF307047800D002000ED00E0F0B587B021
:1043600000240594EFF3058474BB68B322B3156889
:10437000936903B918235C1E372C49D8546814F08C
:10438000010F47D156696EB14FEA960C94682CB173
:10439000D7685B2F02D9176907B1C6B92CB14FF0A6
:1043A000FF340EE04FF0800CF0E7D4688CB914694C
:1043B00094B14FF0FF3404E01546002418234FF069
:1043C000800C012C0AD0ACB1059807B0F0BD0124D7
:1043D000F7E74FF0FF34F4E70024F2E7146992683E
:1043E0000292019400930B4662462946FFF738F982
:1043F0000590E9E705AA019200930B461FFA8CF29B
:104400002946FFF768F90128DED000230593DBE792
:104410000020DAE70020D8E708B5FFF733FC08BD35
:1044200008B5EFF3058333B908B9002008BDFFF7DD
:10443000EBFA0020FAE76FF00500F7E770B5EFF34D
:104440000583002B3FD1044600B1436813F00106F9
:1044500000D0012613F0080F38D14CB3A16811B178
:10446000E3684F2B19D899B14FF0FF334BBB1EB304
:104470000420FEF7BFFC05462DB104B12468214697
:104480002846FEF7FBFEFDB1F6B145F001051BE045
:10449000E3687BB14FF0FF33E8E726B10420FEF775
:1044A000B4FC0546E8E70120FEF7AFFC0546E3E76C
:1044B0000023DBE70023D9E70120FEF79BFC05463C
:1044C000DAE70025DFE70025284670BD0025FBE779
:1044D000EFF30582C2B910B503460C4620F0010087
:1044E00003F0010398B13BB1FEF7A7FE012811D0FC
:1044F00094B16FF001000EE0FEF7CCFD01280ED064
:104500007CB16FF0010006E06FF0050070476FF0BE
:10451000030000E0002010BD6FF00200FBE7002068
:10452000F9E76FF00200F6E7EFF30582B2B908B5DC
:10453000034620F0010003F0010390B12BB1FEF718
:1045400073FC012810D1002008BD00231A4619462B
:10455000FEF780FB01280AD10020F5E76FF0050087
:1045600070476FF00300EFE76FF00200ECE76FF0C9
:104570000200E9E770B582B0EFF30583002B49D163
:104580000E461446002849D0884249D34AB195685E
:1045900015B1D3684F2B14D8002D43D1E3680BB16C
:1045A00039E0002301280ED073BB3146FEF734FBFF
:1045B000054685B304B1246821462846FEF75EFE11
:1045C00029E00123EEE7B3B9032200210120FEF721
:1045D000DCFA0546002DECD0002EEAD000231A4666
:1045E00019462846FEF736FB0128E2D02846FEF79A
:1045F0006FFE00250FE0A3680322009200221146FF
:10460000FEF779FA0546E5E7A2683146FEF7E1FADA
:104610000546CEE70025284602B070BD0025FAE722
:104620000025F8E70025F6E7034B0360034B0B601A
:1046300080231360704700BF240D0020240B00204E
:10464000034B0360034B0B604FF4807313607047A0
:1046500084110020840D0020134A12F0070F1FD090
:10466000D11D21F00701C1F5EA43303313440A4656
:104670000E480260002141601344083B23F0070309
:104680000B48036059601960991A51601360094B17
:104690001960094B1960094B4FF000421A607047CE
:1046A00047F23053E4E700BFE411002028870020E0
:1046B000E01100201C8700201887002014870020AC
:1046C000164B1A461B688342FBD3516802EB010C60
:1046D000844509D0416800EB010C634509D00360B3
:1046E000904219D0106070474068014451601046F4
:1046F000F0E710B40A4C2468A3420BD05B6819445D
:10470000416013681B680360904200D010605DF840
:10471000044B70470460F7E7704700BF288700200C
:10472000E011002070B50546FFF758F8364B1B68BE
:10473000A3B1364B1B681D424ED135B1083515F07B
:10474000070F02D025F007050835002D46D0304B65
:104750001B68AB4251D32F4A146804E0FFF77CFF7B
:10476000E7E722461C466368AB4202D22368002B6F
:10477000F7D1254B1B68A34241D016680836236841
:10478000136063685B1B102B10D9601910F0070FC2
:1047900008D04FF0500383F31188BFF36F8FBFF33E
:1047A0004F8FFEE743606560FFF78AFF6268184934
:1047B0000B689B1A0B60184909688B4201D2164995
:1047C0000B60124B1B681343636000232360134A82
:1047D00013680133136002E0002600E00026FFF7B3
:1047E00097F816F0070F0CD04FF0500383F31188A1
:1047F000BFF36F8FBFF34F8FFEE70026EFE7002672
:10480000EDE7304670BD00BFE011002014870020A6
:1048100018870020288700201C8700202087002080
:10482000002834D038B50446A0F1080550F8043CFF
:10483000174A1268134208D14FF0500383F31188CE
:10484000BFF36F8FBFF34F8FFEE750F8081C41B1E5
:104850004FF0500383F31188BFF36F8FBFF34F8F77
:10486000FEE723EA020340F8043CFEF7B7FF54F8E2
:10487000041C084A13680B4413602846FFF720FF06
:10488000054A136801331360FFF742F838BD7047DB
:1048900014870020188700202487002082B000237E
:1048A00001930D4B1B68B3F1FF3F08D04FF050034D
:1048B00083F31188BFF36F8FBFF34F8FFEE74FF085
:1048C000500383F31188BFF36F8FBFF34F8F019BAA
:1048D000002BFCD002B07047480000200848006858
:1048E000006880F308884FF0000080F3148862B6F7
:1048F00061B6BFF34F8FBFF36F8F00DF00BF0000C3
:1049000008ED00E0DFF80C00016841F4700101607F
:104910007047000088ED00E04FF0807340F8043CE1
:1049200021F0010140F8081C054B40F80C3C40F810
:10493000202C6FF0020340F8243C4438704700BF3D
:104940009D4800080000000000000000000000007A
:10495000074B19680868B0E8F04F80F30988BFF387
:104960006F8F4FF0000080F311887047AFF3008025
:10497000F80400204FF0500383F31188BFF36F8FCA
:10498000BFF34F8F0B4A136801331360012B00D024
:1049900070474FF0E023D3F8043D13F0FF0FF7D03A
:1049A0004FF0500383F31188BFF36F8FBFF34F8F26
:1049B000FEE700BF48000020094B1B6843B94FF0D9
:1049C000500383F31188BFF36F8FBFF34F8FFEE760
:1049D000013B034A13600BB983F31188704700BF92
:1049E000480000200000000000000000000000005F
:1049F000EFF30980BFF36F8F154B1A681EF0100F8D
:104A000008BF20ED108A20E9F04F10602DE9090061
:104A10004FF0500080F31188BFF34F8FBFF36F8FBB
:104A2000FFF718F84FF0000080F3118809BC1968EF
:104A30000868B0E8F04F1EF0100F08BFB0EC108A05
:104A400080F30988BFF36F8F704700BFAFF300801A
:104A5000F804002008B54FF0500383F31188BFF32A
:104A60006F8FBFF34F8FFEF7C7FE28B14FF0E023E3
:104A70004FF08052C3F8042D002383F3118808BD42
:104A80004FF0E022002313619361054B1B68054939
:104A9000A1FB03139B09013B53610723136170477B
:104AA00040000020D34D62104FF0E023D3F8002DDA
:104AB0003D4B9A421CD04FF0E023D3F8002D3B4BE6
:104AC0009A421ED030B583B0394B1A78D2B20192D7
:104AD000FF221A701B78DBB28DF803309DF803308B
:104AE00003F05003334A1370334B07221A601BE064
:104AF0004FF0500383F31188BFF36F8FBFF34F8FD5
:104B0000FEE74FF0500383F31188BFF36F8FBFF3BD
:104B10004F8FFEE7284A1368013B13609DF803306E
:104B20005B00DBB28DF803309DF8033013F0800F8B
:104B3000F0D1214B1B68032B08D04FF0500383F3B7
:104B40001188BFF36F8FBFF34F8FFEE71B021A4A26
:104B5000136003F4E0631360019BDBB2144A13702B
:104B60004FF0E024D4F8203D43F47003C4F8203D16
:104B7000D4F8203D43F07043C4F8203DFFF780FF98
:104B800000250E4B1D60FFF7BDFED4F8343F43F007
:104B90004043C4F8343FFFF7A1FEFEF75BFFFFF789
:104BA0007DFE284603B030BD71C20F4170C20F4177
:104BB00000E400E030870020348700204800002017
:104BC000EFF305830F2B0FD9114A9B5CDBB2114A1F
:104BD00012789A4208D94FF0500383F31188BFF33B
:104BE0006F8FBFF34F8FFEE74FF0E023D3F80C3DFC
:104BF00003F4E063084A1268934208D94FF0500367
:104C000083F31188BFF36F8FBFF34F8FFEE77047B9
:104C1000F0E300E0308700203487002010B50A4C14
:104C200000224FF400512046FCF741FE6420FDF7BE
:104C3000E5F801224FF400512046FCF738FE6420CD
:104C4000FDF7DCF810BD00BF000C02404FF0C04380
:104C5000188070474FF0C043188003F50033198067
:104C6000704710B504462020FFF7F4FF21462120AD
:104C7000FFF7F0FF10BD70B501E0A0F5A070B0F532
:104C8000A07FFAD200E0F03AEF2AFCD8C0F59F747A
:104C90000134C2F1EF0201E0A1F5A071B1F5A07FEE
:104CA000FAD200E0F03BEF2BFCD8C1F59F7601363D
:104CB000C3F1EF039A4202D991B21A460B46B442AD
:104CC00002D9A1B234460E461B0299B295B22943CD
:104CD0004620FFF7BFFFB1B24720FFF7BBFFA4B2EA
:104CE00021464820FFF7B6FF29462046FFF7B9FFC7
:104CF0002220FFF7ABFF70BD08B5B0F5A07F02D250
:104D0000C0F5A07080B2EF2902D8C1F1F00189B2DC
:104D1000FFF7A7FF2220FFF799FF024B1A88188898
:104D200080B208BD0000026070B515461C46BDF893
:104D3000106000EB020CCB18013B0A460CF1FF316E
:104D4000FFF799FF002102E003480680013104FBD0
:104D500005F08842F8D870BD0000026000B583B04D
:104D6000FFF75CFF42F204011120FFF773FF4FF4DD
:104D70004C411320FFF76EFF4FF418511520FFF739
:104D800069FF42F22A511420FFF764FF33211220F9
:104D9000FFF760FF4CF604411320FFF75BFF012093
:104DA000FDF72CF84CF606411320FFF753FF0120C6
:104DB000FDF724F84CF64F411320FFF74BFF01207D
:104DC000FDF71CF846F24F711320FFF743FF42F244
:104DD00003011120FFF73EFF0120FDF70FF842F21B
:104DE00009613020FFF736FF42F22C413120FFF7F6
:104DF00031FF41F623713220FFF72CFF42F22541AB
:104E00003320FFF727FF42F226213420FFF722FF4D
:104E100042F223513520FFF71DFF41F61A4136209B
:104E2000FFF718FF41F21D313720FFF713FF40F65F
:104E300011313820FFF70EFF41F210213920FFF722
:104E400009FF41F215313A20FFF704FF43F21961DF
:104E50003B20FFF7FFFE4FF450613C20FFF7FAFEC6
:104E60000D213D20FFF7F6FE07211620FFF7F2FE89
:104E700013210220FFF7EEFE08210320FFF7EAFED0
:104E800041F227010120FFF7E5FE0120FCF7B6FF04
:104E900040F203310820FFF7DDFE0B210A20FFF767
:104EA000D9FE03210B20FFF7D5FE00210C20FFF7D0
:104EB000D1FE00214120FFF7CDFE00215020FFF759
:104EC000C9FE05216020FFF7C5FE0B217020FFF70A
:104ED000C1FE00217120FFF7BDFE00217820FFF701
:104EE000B9FE00217A20FFF7B5FE07217920FFF7F0
:104EF000B1FE51210720FFF7ADFE0120FCF77EFF38
:104F000053210720FFF7A6FE00217920FFF7A2FE1C
:104F10002220FFF79BFE01224FF480610648FCF738
:104F2000C6FC00200090F0234FF4A0720146FFF76A
:104F3000FBFE03B05DF804FB0004024038B5BDF889
:104F4000105003FB02F400EB020C0B44013B0A4639
:104F50000CF1FF31FFF78FFE02E0034A15801C467B
:104F6000631E002CF9DC38BD0000026010B50B4652
:104F700014460A460146FFF77EFE014B1C8010BD19
:104F80000000026008B54FF44841034801F076FE86
:104F9000024802F01BFA08BD38870020E0B800087C
:104FA000836801390D2914D8DFE801F0090B0D0FD2
:104FB00013131311071616070707002070475868C8
:104FC000704798687047D868704718697047986943
:104FD00070474FF0FF30704701207047012901D121
:104FE0000148704700207047F8BF0008826800231E
:104FF0000B804B80D368013B8B801369013BCB80D6
:10500000704700000939072911D8DFE801F00412C0
:105010000608100A0C0E08487047084870470848F0
:105020007047084870470848704708487047002094
:1050300070470748704700BF3F510008F150000813
:10504000D9500008835000087550000855500008DA
:105050002751000800B583B00023009301938DF819
:10506000041000926A460421806900F0D5FB03B069
:105070005DF804FB08B500220621806900F0CCFB36
:1050800008BD08B500220521806900F0C5FB08BDF8
:1050900000B583B0002300930193009101926A460A
:1050A0000321806900F0B8FB03B05DF804FB38B55C
:1050B0000446836823B1A068B0FA80F0400938BD87
:1050C0001C2001F07DFE0546A06023699B6898477F
:1050D00003F01CFCA861EEE738B50546FFF7E7FFD3
:1050E000044600220121A86900F096FB204338BD48
:1050F00070B582B005460C46164600230093019316
:10510000FFF7D5FFAB6863B15A6902B922465A610D
:105110005C609E60009401966A460721A86900F0D1
:105120007BFB02B070BD70B505460C461646FFF716
:10513000BEFFAB6813B1DC601E615C6170BD30B551
:1051400083B004460D4600230193FFF7B0FFA36828
:1051500033B11D60019501AA0221A06900F05CFB3A
:1051600003B030BD08B5084611469AB289B280B284
:10517000FFF7FCFE08BD00002DE9F84F814692467E
:105180001F460A9C0B9DDDF830B093F8008066182E
:10519000404B1B681B7C13F0030303D0022B3BD056
:1051A000BDE8F88FBBF1000F02D11DE0013DF7D043
:1051B000C4F103035A00C2F10601C0230B4103EA04
:1051C0000803D34031465BF8233052460136484647
:1051D000FFF7C8FF0134042CE8D197F801800137AC
:1051E0000024E3E7013DDBD0C4F103025200C2F129
:1051F0000601C0230B4103EA08033146D34052465F
:1052000001364846FFF7AEFF0134042CEAD197F887
:10521000018001370024E5E7BBF1000F0AD125E04A
:105220005BF82330524631464846FFF79BFF0CE0BF
:10523000013DB5D0C4F103035A00C2F10601C023F9
:105240000B4103EA0803D340EAD101360134042CB0
:10525000EED197F8018001370024E9E75246314644
:105260004846FFF77FFF0CE0013D99D0C4F10303EE
:105270005A00C2F10601C0230B4103EA0803D340E0
:10528000ECD101360134042CEED197F801800137BE
:105290000024E9E7180000202DE9F84F81469246E6
:1052A0001F460A9C0B9DDDF830B093F8008066180D
:1052B000404B1B681B7C13F0030303D0022B3BD035
:1052C000BDE8F88FBBF1000F02D11DE0013DF7D022
:1052D000C4F101039A00C2F10401F0230B4103EA77
:1052E0000803D34031465BF8233052460136484626
:1052F000FFF738FF0134022CE8D197F8018001371D
:105300000024E3E7013DDBD0C4F101029200C2F1C9
:105310000401F0230B4103EA08033146D34052460F
:1053200001364846FFF71EFF0134022CEAD197F8F8
:10533000018001370024E5E7BBF1000F0AD125E029
:105340005BF82330524631464846FFF70BFF0CE02E
:10535000013DB5D0C4F101039A00C2F10401F0236C
:105360000B4103EA0803D340EAD101360134022C91
:10537000EED197F8018001370024E9E75246314623
:105380004846FFF7EFFE0CE0013D99D0C4F1010360
:105390009A00C2F10401F0230B4103EA0803D34051
:1053A000ECD101360134022CEED197F8018001379F
:1053B0000024E9E7180000202DE9F84307460D46D0
:1053C00090461E46089CDDF82490254B1B681B7CEC
:1053D00013F0030303D0022B1FD0BDE8F883B9F10B
:1053E000000F0BD116E016F8013B59F82330424666
:1053F00029463846FFF7B6FE013C0135002CF2DCA9
:10540000EBE716F8013B424629463846FFF7AAFE6D
:10541000013C0135002CF4DCDFE7B9F1000F03D1CA
:1054200012E0013C01350136002CD6DD3378002B2B
:10543000F7D059F82330424629463846FFF792FE06
:10544000EFE7013C01350136002CC6DD3378002B37
:10545000F7D0424629463846FFF784FEF1E700BF01
:10546000180000202DE9F04180460C4617461E46E4
:10547000069D08E036F8023B3A4621464046FFF7D3
:1054800071FE013D0134002DF4DCBDE8F0812DE911
:10549000F04180460C4617461E46069D08E056F829
:1054A000043B3A4621464046FFF75CFE013D01348D
:1054B000002DF4DCBDE8F08108B5084691B280B259
:1054C000FFF71AFC08BDF8B504460D461646FFF76F
:1054D000F3FF074623699B68984787EA0003324633
:1054E00029462046FFF73EFEF8BD00002DE9F84FA3
:1054F000804691461F460A9C0B9D0C9BD3F800B03A
:10550000D3F804A00E192C4B1B681B7C03F003037B
:10551000032B4ED8DFE803F00C2D212D5B464A46C5
:105520004046FFF71FFE0134082C0AD0013D40D051
:10553000314601363A78802323411A42EED0534651
:10554000EDE701370024F1E753464A46314640462D
:10555000FFF708FE06E0013D2BD03A788023234177
:105560001A42F1D101360134082CF4D1013700245C
:10557000F1E703699B68984782460EE04A46314648
:105580004046FFF799FF8AEA00034A463146404603
:10559000FFF7E8FD06E0013D0BD03A788023234178
:1055A0001A42EBD101360134082CF4D10137002422
:1055B000F1E7BDE8F88F00BF180000202DE9F04F9B
:1055C00087B005460E4617469846DDF84090DDF850
:1055D00048A0139C119B013B1F2B21D8DFE803F04F
:1055E000233C20552020206C2020202020202083B8
:1055F0002020202020202020202020202020209536
:10560000159B02930195009623460BEB0702059923
:105610004046FFF76BFF54440BF1010BCB45EFDB2A
:1056200007B0BDE8F08F4FF0000B05914346804670
:10563000149E1D46F2E7159B0293019500962346A2
:105640000BEB070205994046FFF796FD54440BF11A
:10565000010BCB45EFDBE3E74FF0000B0591434631
:105660008046149E1D46F4E7159B02930195009613
:1056700023460BEB070205994046FFF70DFE544405
:105680000BF1010BCB45EFDBCAE74FF0000B0591A7
:1056900043468046149E1D46F4E701960095234636
:1056A0000BEB070205994046FFF786FE54440BF1C9
:1056B000010BCB45F1DBB3E74FF0000B05914346FF
:1056C0008046159E1D46F4E7CDF8008023460BEB7F
:1056D000070231462846FFF7C5FE54440BF1010B83
:1056E000CB45F1DB9CE74FF0000BF9E7CDF80080EC
:1056F00023460BEB070231462846FFF7C8FE544409
:105700000BF1010BCB45F1DB8AE74FF0000BF9E71A
:105710002DE9F04383B00746894615461E46DDF85D
:105720002880134B1B68DA6B14681B7C13F0010F85
:105730001AD188B2A9B2321A92B2A8EB01039BB275
:1057400001330132A4B200949BB292B2FFF7F6FB90
:1057500003B0BDE8F0832A4621463846FFF7B3FE82
:105760000134B442F7DD01354545F1DC4C46F8E73C
:105770001800002000B583B000930B46FFF7C8FF68
:1057800003B05DF804FB00B583B00092FFF7C0FFE3
:1057900003B05DF804FB704708B50020FEF74EFE2D
:1057A000044B1860002201210846FEF7E3FE024B7D
:1057B000186008BD384F01203C4F012008B5024B4E
:1057C0001868FEF7B1FE08BD384F012008B54FF04C
:1057D000FF31024B1868FEF77BFE08BD384F0120F1
:1057E00008B5FEF719FE08BD08B500231A4608499A
:1057F000084801F0A5FFF0224FF4A071002003F04B
:1058000021F9F0224FF4A071002003F033F908BD14
:10581000F4B40008CC0E0108012904D108B5FFF743
:105820009DFA002008BD4FF0FF30704730B583B0BF
:10583000204801F02EFD06250195042400947823CC
:105840006C223E21082002F03DF801950094B2231D
:105850006C227821082002F035F801950094EC23A1
:105860006C22B221082002F02DF8134801F011FD3E
:10587000019500943E236C222146082002F022F874
:105880004FF07F4001F005FD182210210B4802F077
:1058900005F8522210210A4802F000F88C2210214B
:1058A000084801F0FBFFC6221021074801F0F6FF6F
:1058B00003B030BD2A2AA5FF0000FFFF000F01083A
:1058C0000C0F0108180F0108240F010808B5102259
:1058D0000021094801F0E2FF28220021074801F0D9
:1058E000DDFF40220021064801F0D8FF58220021A8
:1058F000044801F0D3FF08BD300F0108380F01083C
:10590000B80E0108480F010808B510220021094807
:1059100001F0C4FF28220021074801F0BFFF402208
:105920000021064801F0BAFF58220021044801F086
:10593000B5FF08BD300F0108380F0108B80E010887
:10594000480F010808B510220021094801F0A6FF00
:1059500028220021074801F0A1FF4022002106482B
:1059600001F09CFF58220021044801F097FF08BD78
:10597000300F0108380F0108B80E0108480F010860
:1059800008B510220021094801F088FF28220021D3
:10599000074801F083FF40220021064801F07EFF06
:1059A00058220021044801F079FF08BD300F01089A
:1059B000380F0108B80E0108480F010808B5102279
:1059C0000021094801F06AFF28220021074801F060
:1059D00065FF40220021064801F060FF58220021A7
:1059E000044801F05BFF08BD300F0108380F0108C3
:1059F000B80E0108480F010808B510220021094817
:105A000001F04CFF28220021074801F047FF402207
:105A10000021064801F042FF58220021044801F00D
:105A20003DFF08BD300F0108380F0108B80E01080E
:105A3000480F010808B510220021094801F02EFF87
:105A400028220021074801F029FF402200210648B2
:105A500001F024FF58220021044801F01FFF08BD77
:105A6000300F0108380F0108B80E0108480F01086F
:105A700008B510220021094801F010FF282200215A
:105A8000074801F00BFF40220021064801F006FF05
:105A900058220021044801F001FF08BD300F010821
:105AA000380F0108B80E0108480F010808B5102288
:105AB0000021094801F0F2FE28220021074801F0E8
:105AC000EDFE40220021064801F0E8FE58220021A8
:105AD000044801F0E3FE08BD300F0108380F01084B
