:020000040800F2
:1000000000000220C5AE0008BD130008BF130008A1
:10001000C1130008C3130008C51300080000000046
:100020000000000000000000000000003156000841
:10003000C713000800000000D15600089F4E0008BA
:1000400015AF000815AF000815AF000815AF000880
:1000500015AF000815AF000815AF000815AF000870
:1000600015AF000815AF000815AF000815AF000860
:1000700015AF000815AF000815AF000815AF000850
:1000800015AF000815AF000815AF000815AF000840
:1000900015AF000815AF000815AF0008C913000818
:1000A00015AF000815AF000815AF000815AF000820
:1000B00015AF0008D513000815AF000815AF0008EC
:1000C00015AF000815AF000815AF000815AF000800
:1000D00015AF000815AF000815AF000815AF0008F0
:1000E00015AF000815AF000815AF000815AF0008E0
:1000F00015AF000815AF000815AF000815AF0008D0
:1001000015AF000815AF000815AF000815AF0008BF
:1001100015AF000815AF000815AF0008E51300087B
:1001200015AF000815AF000815AF000815AF00089F
:1001300015AF000815AF000815AF000815AF00088F
:1001400015AF000815AF000815AF000815AF00087F
:1001500015AF000815AF000815AF000815AF00086F
:1001600015AF000815AF000815AF000815AF00085F
:1001700015AF000815AF000815AF0008000000001B
:0801800015AF000815AF0008DF
:1001900010B5054C237833B9044B13B10448AFF3C1
:1001A00000800123237010BD7804002000000000AF
:1001B0001C61010808B5034B1BB103490348AFF3A9
:1001C000008008BD000000007C0400201C610108C4
:1001D00081F0004102E000BF83F0004330B54FEAF8
:1001E00041044FEA430594EA050F08BF90EA020F65
:1001F0001FBF54EA000C55EA020C7FEA645C7FEAF8
:10020000655C00F0E2804FEA5454D4EB5555B8BF1A
:100210006D420CDD2C4480EA020281EA030382EA8B
:10022000000083EA010180EA020281EA0303362D1D
:1002300088BF30BD11F0004F4FEA01314FF4801CF0
:100240004CEA113102D0404261EB410113F0004F02
:100250004FEA03334CEA133302D0524263EB4303B9
:1002600094EA050F00F0A780A4F10104D5F1200E57
:100270000DDB02FA0EFC22FA05F2801841F10001B2
:1002800003FA0EF2801843FA05F359410EE0A5F186
:1002900020050EF1200E012A03FA0EFC28BF4CF0B7
:1002A000020C43FA05F3C01851EBE37101F000456D
:1002B00007D54FF0000EDCF1000C7EEB00006EEB7A
:1002C0000101B1F5801F1BD3B1F5001F0CD3490804
:1002D0005FEA30004FEA3C0C04F101044FEA44525B
:1002E00012F5800F80F09A80BCF1004F08BF5FEAE2
:1002F000500C50F1000041EB045141EA050130BDC2
:100300005FEA4C0C404141EB0101013C28BFB1F5D3
:10031000801FE9D291F0000F04BF01460020B1FA1E
:1003200081F308BF2033A3F10B03B3F120020CDAF1
:100330000C3208DD02F1140CC2F10C0201FA0CF0CF
:1003400021FA02F10CE002F11402D8BFC2F1200C34
:1003500001FA02F120FA0CFCDCBF41EA0C019040EA
:10036000E41AA2BF01EB0451294330BD6FEA040433
:100370001F3C1CDA0C340EDC04F11404C4F120021E
:1003800020FA04F001FA02F340EA030021FA04F330
:1003900045EA030130BDC4F10C04C4F1200220FA87
:1003A00002F001FA04F340EA0300294630BD21FAC5
:1003B00004F0294630BD94F0000F83F4801306BF8B
:1003C00081F480110134013D4EE77FEA645C18BF7F
:1003D0007FEA655C29D094EA050F08BF90EA020F16
:1003E00005D054EA000C04BF1946104630BD91EA0E
:1003F000030F1EBF0021002030BD5FEA545C05D111
:100400004000494128BF41F0004130BD14F580044F
:100410003CBF01F5801130BD01F0004545F0FE41C3
:1004200041F470014FF0000030BD7FEA645C1ABFF8
:10043000194610467FEA655C1CBF0B46024650EA2F
:10044000013406BF52EA033591EA030F41F400215B
:1004500030BD00BF90F0000F04BF0021704730B5E1
:100460004FF4806404F132044FF000054FF00001B6
:1004700050E700BF90F0000F04BF0021704730B577
:100480004FF4806404F1320410F0004548BF40424C
:100490004FF000013EE700BF42004FEAE2014FEAA1
:1004A00031014FEA02701FBF12F07F4393F07F4F7C
:1004B00081F06051704732F07F4208BF704793F07F
:1004C0007F4F04BF41F40021704730B54FF4607492
:1004D00001F0004521F000411CE700BF50EA010295
:1004E00008BF704730B54FF000050AE050EA01023E
:1004F00008BF704730B511F0004502D5404261EBAE
:1005000041014FF4806404F132045FEA915C3FF4EE
:10051000D8AE4FF003025FEADC0C18BF03325FEA8B
:10052000DC0C18BF033202EBDC02C2F1200300FA3C
:1005300003FC20FA02F001FA03FE40EA0E0021FA61
:1005400002F11444BDE600BF70B54FF0FF0C4CF44F
:10055000E06C1CEA11541DBF1CEA135594EA0C0F01
:1005600095EA0C0F00F0DEF82C4481EA030621EA3C
:100570004C5123EA4C5350EA013518BF52EA033577
:1005800041F4801143F4801338D0A0FB02CE4FF029
:100590000005E1FB02E506F00042E0FB03E54FF059
:1005A0000006E1FB03569CF0000F18BF4EF0010E51
:1005B000A4F1FF04B6F5007F64F5407404D25FEA4D
:1005C0004E0E6D4146EB060642EAC62141EA555100
:1005D0004FEAC52040EA5E504FEACE2EB4F1FD0C42
:1005E00088BFBCF5E06F1ED8BEF1004F08BF5FEAC0
:1005F000500E50F1000041EB045170BD06F0004672
:1006000046EA010140EA020081EA0301B4EB5C041E
:10061000C2BFD4EB0C0541EA045170BD41F4801116
:100620004FF0000E013C00F3AB8014F1360FDEBF3B
:10063000002001F0004170BDC4F10004203C35DA17
:100640000C341BDC04F11404C4F1200500FA05F39A
:1006500020FA04F001FA05F240EA020001F000423B
:1006600021F0004110EBD37021FA04F642EB0601B1
:100670005EEA430E08BF20EAD37070BDC4F10C04DB
:10068000C4F1200500FA04F320FA05F001FA04F29F
:1006900040EA020001F0004110EBD37041F100018B
:1006A0005EEA430E08BF20EAD37070BDC4F1200596
:1006B00000FA05F24EEA020E20FA04F301FA05F2FE
:1006C00043EA020321FA04F001F0004121FA04F2A6
:1006D00020EA020000EBD3705EEA430E08BF20EA76
:1006E000D37070BD94F0000F0FD101F000464000B0
:1006F00041EB010111F4801F08BF013CF7D041EA32
:10070000060195F0000F18BF704703F00046520035
:1007100043EB030313F4801F08BF013DF7D043EA06
:100720000603704794EA0C0F0CEA135518BF95EABC
:100730000C0F0CD050EA410618BF52EA4306D1D143
:1007400081EA030101F000414FF0000070BD50EA62
:10075000410606BF1046194652EA430619D094EAEC
:100760000C0F02D150EA013613D195EA0C0F05D1D6
:1007700052EA03361CBF104619460AD181EA03012A
:1007800001F0004141F0FE4141F470014FF00000E2
:1007900070BD41F0FE4141F4780170BD70B54FF07D
:1007A000FF0C4CF4E06C1CEA11541DBF1CEA1355FD
:1007B00094EA0C0F95EA0C0F00F0A7F8A4EB0504DF
:1007C00081EA030E52EA03354FEA013100F08880D6
:1007D0004FEA03334FF0805545EA131343EA12639F
:1007E0004FEA022245EA111545EA10654FEA002654
:1007F0000EF000419D4208BF964244F1FD0404F50D
:10080000407402D25B084FEA3202B61A65EB030568
:100810005B084FEA32024FF480104FF4002CB6EB25
:10082000020E75EB030E22BFB61A754640EA0C00A5
:100830005B084FEA3202B6EB020E75EB030E22BFE5
:10084000B61A754640EA5C005B084FEA3202B6EB26
:10085000020E75EB030E22BFB61A754640EA9C00E5
:100860005B084FEA3202B6EB020E75EB030E22BFB5
:10087000B61A754640EADC0055EA060E18D04FEA73
:10088000051545EA16754FEA06164FEAC30343EA13
:1008900052734FEAC2025FEA1C1CC0D111F4801FE0
:1008A0000BD141EA00014FF000004FF0004CB6E7D9
:1008B00011F4801F04BF01430020B4F1FD0C88BF78
:1008C000BCF5E06F3FF6AFAEB5EB030C04BFB6EB83
:1008D000020C5FEA500C50F1000041EB045170BD76
:1008E0000EF0004E4EEA113114EB5C04C2BFD4EBA3
:1008F0000C0541EA045170BD41F480114FF0000E27
:10090000013C90E645EA060E8DE60CEA135594EAA2
:100910000C0F08BF95EA0C0F3FF43BAF94EA0C0FA5
:100920000AD150EA01347FF434AF95EA0C0F7FF41A
:1009300025AF104619462CE795EA0C0F06D152EA6E
:1009400003353FF4FDAE1046194622E750EA410652
:1009500018BF52EA43067FF4C5AE50EA41047FF463
:100960000DAF52EA43057FF4EBAE12E74FF0FF3CC8
:1009700006E000BF4FF0010C02E000BF4FF0010C99
:100980004DF804CD4FEA410C7FEA6C5C4FEA430C12
:1009900018BF7FEA6C5C1BD001B050EA410C0CBF61
:1009A00052EA430C91EA030F02BF90EA020F0020C3
:1009B000704710F1000F91EA030F58BF994208BF2A
:1009C00090422CBFD8176FEAE37040F001007047E7
:1009D0004FEA410C7FEA6C5C02D150EA013C07D13E
:1009E0004FEA430C7FEA6C5CD6D152EA033CD3D089
:1009F0005DF8040B704700BF8446104662468C4683
:100A00001946634600E000BF01B5FFF7B7FF0028B5
:100A100048BF10F1000F01BD4DF808EDFFF7F4FFDE
:100A20000CBF012000205DF808FB00BF4DF808ED69
:100A3000FFF7EAFF34BF012000205DF808FB00BF8C
:100A40004DF808EDFFF7E0FF94BF012000205DF8AE
:100A500008FB00BF4DF808EDFFF7CEFF94BF012063
:100A600000205DF808FB00BF4DF808EDFFF7C4FF5C
:100A700034BF012000205DF808FB00BF4FEA4102AF
:100A800012F5001215D211D56FF47873B3EB6252E0
:100A900012D94FEAC12343F0004343EA505311F007
:100AA000004F23FA02F018BF404270474FF0000099
:100AB000704750EA013005D111F0004008BF6FF0D7
:100AC000004070474FF00000704700BF4A0011D24D
:100AD00012F5001211D20DD56FF47873B3EB625298
:100AE0000ED44FEAC12343F0004343EA505323FAA4
:100AF00002F070474FF00000704750EA013002D119
:100B00004FF0FF3070474FF0000070474FEA41024E
:100B1000B2F1E04324BFB3F5001CDCF1FE5C0DD95B
:100B200001F0004C4FEAC0024CEA5070B2F1004FA5
:100B300040EB830008BF20F00100704711F0804FA8
:100B400021D113F13872BCBF01F00040704741F46D
:100B500080114FEA5252C2F11802C2F1200C10FA71
:100B60000CF320FA02F018BF40F001004FEAC12355
:100B70004FEAD32303FA0CFC40EA0C0023FA02F3F9
:100B80004FEA4303CCE77FEA625307D150EA0133CF
:100B90001EBF4FF0FE4040F44000704701F000409F
:100BA00040F0FE4040F40000704700BF7BB972B9CE
:100BB0000029BEBF00204FF0004106E008BF00281A
:100BC0001CBF6FF000414FF0FF3000F0BFB9ADF136
:100BD000080C6DE904CE002909DB002B1ADB00F0BC
:100BE0004DF8DDF804E0DDE9022304B0704740422F
:100BF00061EB4101002B1BDB00F040F8DDF804E065
:100C0000DDE9022304B0404261EB4101524263EB53
:100C100043037047524263EB430300F02FF8DDF8C3
:100C200004E0DDE9022304B0404261EB410170477A
:100C3000524263EB430300F021F8DDF804E0DDE904
:100C4000022304B0524263EB4303704753B94AB9DD
:100C5000002908BF00281CBF4FF0FF314FF0FF30C4
:100C600000F074B9ADF1080C6DE904CE00F006F89F
:100C7000DDF804E0DDE9022304B070472DE9F04718
:100C8000089D04468E46002B4DD18A42944669D970
:100C9000B2FA82F252B101FA02F3C2F1200120FA53
:100CA00001F10CFA02FC41EA030E94404FEA1C48A1
:100CB000210CBEFBF8F61FFA8CF708FB16E341EA9D
:100CC000034306FB07F199420AD91CEB030306F123
:100CD000FF3080F01F81994240F21C81023E634444
:100CE0005B1AA4B2B3FBF8F008FB103344EA0344E8
:100CF00000FB07F7A7420AD91CEB040400F1FF33FD
:100D000080F00A81A74240F207816444023840EA39
:100D10000640E41B00261DB1D4400023C5E9004372
:100D20003146BDE8F0878B4209D9002D00F0EF80F5
:100D30000026C5E9000130463146BDE8F087B3FA28
:100D400083F6002E4AD18B4202D3824200F2F98010
:100D5000841A61EB030301209E46002DE0D0C5E913
:100D6000004EDDE702B9FFDEB2FA82F2002A40F05F
:100D70009280A1EB0C014FEA1C471FFA8CFE012662
:100D8000200CB1FBF7F307FB131140EA01410EFB06
:100D900003F0884208D91CEB010103F1FF3802D2AD
:100DA000884200F2CB804346091AA4B2B1FBF7F0A7
:100DB00007FB101144EA01440EFB00FEA64508D9CA
:100DC0001CEB040400F1FF3102D2A64500F2BB8007
:100DD0000846A4EB0E0440EA03409CE7C6F1200756
:100DE000B34022FA07FC4CEA030C20FA07F401FA9C
:100DF00006F31C43F9404FEA1C4900FA06F3B1FB25
:100E0000F9F8200C1FFA8CFE09FB181140EA014189
:100E100008FB0EF0884202FA06F20BD91CEB010126
:100E200008F1FF3A80F08880884240F28580A8F17E
:100E300002086144091AA4B2B1FBF9F009FB1011D0
:100E400044EA014100FB0EFE8E4508D91CEB01016E
:100E500000F1FF346CD28E456AD90238614440EA11
:100E60000840A0FB0294A1EB0E01A142C846A64691
:100E700056D353D05DB1B3EB080261EB0E0101FA1A
:100E800007F722FA06F3F1401F43C5E90071002677
:100E90003146BDE8F087C2F12003D8400CFA02FCCD
:100EA00021FA03F3914001434FEA1C471FFA8CFEDD
:100EB000B3FBF7F007FB10360B0C43EA064300FBCD
:100EC0000EF69E4204FA02F408D91CEB030300F16B
:100ED000FF382FD29E422DD9023863449B1B89B222
:100EE000B3FBF7F607FB163341EA034106FB0EF3AB
:100EF0008B4208D91CEB010106F1FF3816D28B4258
:100F000014D9023E6144C91A46EA004638E72E4623
:100F1000284605E70646E3E61846F8E64B45A9D21B
:100F2000B9EB020864EB0C0E0138A3E74646EAE78A
:100F3000204694E74046D1E7D0467BE7023B614438
:100F400032E7304609E76444023842E7704700BFA1
:100F5000034613F8012B002AFBD1181A01387047F9
:100F600001F0FF01102A2BDB10F0070F08D010F85A
:100F7000013B013A8B422DD010F0070F42B3F6D15E
:100F8000F0B441EA012141EA014122F007047FF077
:100F900000070023F0E80256083C85EA010586EACE
:100FA000010685FA47F5A3FA87F586FA47F6A5FA0A
:100FB00087F68EB9EED1F0BC01F0FF0102F0070216
:100FC00032B110F8013B013A83EA010313B1F8D1C1
:100FD0000020704701387047002D06BF35460338A2
:100FE000073815F0010F07D1013015F4807F02BFDB
:100FF000013015F4C03F0130F0BC0138704700BF2C
:101000004FEA410C7FEA6C5C02D150EA013C0AD104
:101010004FEA430C7FEA6C5C02D152EA033C02D1F6
:101020004FF0000070474FF00100704738B50022C4
:10103000002304460D46FFF7F9FC28B9204629464F
:10104000BDE8384000F00AB8204605F1004100F044
:1010500005F8404261EB410138BD00BFD0B50C4BF3
:10106000002206460F46FFF76FFAFFF72FFD0446F2
:10107000FFF7F0F9074B0022FFF766FA02460B462E
:1010800030463946FFF7A8F8FFF720FD2146D0BDCE
:101090000000F03D0000F04108B50268034B9A42A1
:1010A00000D008BD01F036FAFBE700BF0014004095
:1010B00072B6FEE700B595B03022002108A80FF007
:1010C00007FE00230393049305930693079301936C
:1010D000204A116C41F080511164126C02F0805270
:1010E0000192019A02931C4B1A6842F480421A60E2
:1010F0001B6803F480430293029B012308934FF47F
:101100008033099302220E924FF480030F9304233D
:101110001093A82111911292139308A800F020FDBA
:1011200098B90F23039302230493002305934FF4EC
:10113000A05306934FF480530793052103A800F0B2
:1011400075FF20B915B05DF804FBFFF7B1FFFFF79D
:10115000AFFF00BF003802400070004008B501F04A
:10116000BFF9FFF7A7FF00F013F801F035FD01F01C
:1011700099FD01F0D1FD01F02BFE05F06DFD05F0AC
:10118000EFFC03F099FE01F099FB03F0A7FEFEE7E8
:101190002DE9F0438BB0002405940694079408943D
:1011A000099400944B4B1A6B42F010021A631A6BAD
:1011B00002F010020092009A01941A6B42F0800231
:1011C0001A631A6B02F080020192019A02941A6B60
:1011D00042F002021A631A6B02F002020292029AB1
:1011E00003941A6B42F008021A631A6B02F00802A9
:1011F0000392039A04941A6B42F001021A631B6B68
:1012000003F001030493049B334F22464FF498618B
:10121000384601F0F8F8DFF8C88022464FF4005154
:10122000404601F0F0F82D4D22460121284601F0FC
:10123000EAF81E23059306940126079605A9284679
:1012400000F0E8FF202305934FF4441306934FF07A
:101250000209CDF81C9005A9284600F0DBFF4023C9
:1012600005930694CDF81C9005A9284600F0D2FFFE
:101270004FF48063059306960794089405A93846B1
:1012800000F0C8FF4FF400530593069607940894A6
:1012900005A9404600F0BEFFC02305931123069325
:1012A0000794089405A9384600F0B4FF0596069601
:1012B0000794089405A9284600F0ACFF22460521B2
:1012C000172001F0C7F8172001F0FCF80BB0BDE8BB
:1012D000F08300BF003802400004024000100240CA
:1012E000000C024038B50221334801F085F820B3E4
:1012F00000240421304801F07FF808B944F00404C8
:1013000008212D4801F078F808B944F008041021AC
:10131000294801F071F808B944F01004202126484A
:1013200001F06AF801280AD04021234801F064F84E
:10133000012807D04CB9204638BD0224D9E744F033
:101340002004F1E744F04004F4E70A2003F0DCFE57
:101350000221194801F050F828B30025042116484D
:1013600001F04AF808B945F004050821124801F0D7
:1013700043F808B945F0080510210F4801F03CF882
:1013800008B945F0100520210B4801F035F8012877
:101390000BD04021084801F02FF8012808D0AC42BA
:1013A000C9D00024C7E70225D8E745F02005F0E7BB
:1013B00045F04005F3E700BF00100240FEE7FEE7FE
:1013C000FEE7FEE7FEE7704708B5202001F022F8AF
:1013D00008BD000008B5024800F00AF908BD00BFCA
:1013E000FC52012008B5024800F002F908BD00BF18
:1013F000E407002000B583B0002200920D4B596C29
:1014000041F480415964596C01F480410091009984
:101410000192196C41F0805119641B6C03F08053E8
:101420000193019B0F216FF0010001F013F803B04D
:101430005DF804FB0038024030B4036A026A22F00F
:10144000010202624268846924F073040D682C432F
:1014500023F0020C8B6843EA0C03104DA84203D022
:1014600005F58065A84205D123F00803CD682B431C
:1014700023F00403094DA84203D005F58065A84276
:1014800005D122F440724D692A438D692A43426096
:1014900084614A684263036230BC704700000140C7
:1014A00030B4036A026A22F4807202624268C4693C
:1014B00024F0730C0C6844EA0C0523F400738C6868
:1014C00043EA0423114CA04203D004F58064A042F7
:1014D00006D123F40063CC6843EA042323F4806339
:1014E0000A4CA04203D004F58064A04207D122F444
:1014F00040524C6942EA04128C6942EA041242608A
:10150000C5614A68C263036230BC70470000014095
:1015100030B4036A026A22F4805202624468C269EB
:1015200022F4E6420D6842EA052223F400538D6856
:1015300043EA0533094DA84203D005F58065A8426A
:1015400004D124F480444D6944EA85144460C261A6
:101550004A680264036230BC704700BF000001406B
:1015600090F83D30DBB2012B37D1022380F83D30BB
:101570000268D36843F00103D3600368194A9342B9
:1015800020D0B3F1804F1DD0A2F57C42934219D0F8
:1015900002F58062934215D002F58062934211D029
:1015A00002F5784293420DD002F57052934209D071
:1015B000A2F59432934205D01A6842F001021A60F3
:1015C000002070479A6802F00702062A07D01A68BE
:1015D00042F001021A60002070470120704700208D
:1015E000704700BF00000140704770477047704768
:1015F00070B504460368DE681D6915F0020F10D04F
:1016000016F0020F0DD06FF002021A61012303776A
:1016100003689B6913F0030F5ED0FFF7E6FF00231A
:10162000237715F0040F12D016F0040F0FD02368A3
:101630006FF004021A610223237723689B6913F475
:10164000407F4FD02046FFF7D0FF0023237715F0CF
:10165000080F12D016F0080F0FD023686FF00802A1
:101660001A61042323772368DB6913F0030F40D04A
:101670002046FFF7BAFF0023237715F0100F12D092
:1016800016F0100F0FD023686FF010021A610823B4
:1016900023772368DB6913F4407F31D02046FFF7BE
:1016A000A4FF0023237715F0010F02D016F0010FDD
:1016B0002DD115F0800F02D016F0800F2FD115F02C
:1016C000400F02D016F0400F31D115F0200F02D09C
:1016D00016F0200F33D170BDFFF786FF2046FFF7CD
:1016E00085FF9CE72046FFF77FFF2046FFF77EFF40
:1016F000ABE72046FFF778FF2046FFF777FFBAE712
:101700002046FFF771FF2046FFF770FFC9E7236807
:101710006FF001021A612046FFF7BEFCC9E723689B
:101720006FF080021A61204600F019FAC7E72368BB
:101730006FF040021A612046FFF759FFC5E72368A2
:101740006FF020021A61204600F008FAC3E700009B
:101750000368344A904212D0B0F1804F0FD0A2F506
:101760007C4290420BD002F58062904207D002F595
:101770008062904203D002F57842904203D123F078
:1017800070034A681343274A90422AD0B0F1804F31
:1017900027D0A2F57C42904223D002F5806290428D
:1017A0001FD002F5806290421BD002F57842904231
:1017B00017D002F57052904213D002F58062904229
:1017C0000FD002F5806290420BD0A2F59832904281
:1017D00007D002F58062904203D002F58062904209
:1017E00003D123F44073CA68134323F080034A698A
:1017F000134303608B68C3620B688362094B984292
:1018000003D003F58063984201D10B690363012380
:101810004361036913F0010F03D0036923F001034F
:10182000036170470000014040B310B5044690F8D2
:101830003D30F3B1022384F83D30214651F8040BCA
:10184000FFF786FF012384F8463084F83E3084F8A1
:101850003F3084F8403084F8413084F8423084F8D6
:10186000433084F8443084F8453084F83D3000201B
:1018700010BD80F83C3005F0ABF9DBE70120704784
:1018800040B310B5044690F83D30F3B1022384F81C
:101890003D30214651F8040BFFF75AFF012384F82D
:1018A000463084F83E3084F83F3084F8403084F885
:1018B000413084F8423084F8433084F8443084F86E
:1018C000453084F83D30002010BD80F83C3005F0F4
:1018D0005FF9DBE70120704730B4036A026A22F047
:1018E000100202624468826922F4E6420D6842EA0C
:1018F000052223F020038D6843EA0513114DA84209
:1019000003D005F58065A84206D123F08003CD6899
:1019100043EA051323F040030A4DA84203D005F51E
:101920008065A84207D124F440644D6944EA8504E7
:101930008D6944EA8504446082614A688263036277
:1019400030BC70470000014038B590F83C30012BA6
:1019500066D004460D46012380F83C300C2A5AD844
:10196000DFE802F0075959591B595959305959594B
:1019700044000068FFF760FD2268936943F00803A4
:1019800093612268936923F0040393612268936949
:1019900029690B43936100203EE00068FFF79CFF3C
:1019A0002268936943F4006393612268936923F486
:1019B0008063936122689369296943EA01239361F3
:1019C000002029E00068FFF76BFD2268D36943F02F
:1019D0000803D3612268D36923F00403D36122682A
:1019E000D36929690B43D361002015E00068FFF734
:1019F0008FFD2268D36943F40063D3612268D36901
:101A000023F48063D3612268D369296943EA0123FF
:101A1000D361002000E00120002384F83C3038BD71
:101A20000220FCE701F01F01012303FA01FC036A15
:101A300023EA0C030362036A02FA01F10B43036217
:101A40007047000038B504460D4600220068FFF7D5
:101A5000E9FF23681D4A934218D002F58062934241
:101A600014D02368196A41F21112114208D1196A7F
:101A700040F24442114203D11A6822F001021A6076
:101A80009DB9012384F83E30002038BD196A41F227
:101A900011121142E5D1196A40F244421142E0D1DB
:101AA0005A6C22F400425A64DBE7042D05D0082D5D
:101AB00007D0012384F84130E6E7012384F83F3062
:101AC000E2E7012384F84030DEE700BF0000014078
:101AD00090F83C30012B3DD010B4012380F83C300D
:101AE000022380F83D3003685A689C6822F0700C2D
:101AF0000A6842EA0C025A600368174A93421AD0F5
:101B0000B3F1804F17D0A2F57C42934213D002F577
:101B1000806293420FD002F5806293420BD002F5AF
:101B20007842934207D002F57052934203D0A2F557
:101B30009432934204D124F080044A6814439C6098
:101B4000012380F83D30002380F83C3018465DF8D2
:101B5000044B7047022070470000014070477047F7
:101B6000002800F0E08170B582B00446036813F0ED
:101B7000010F3BD09F4B9B6803F00C03042B2CD030
:101B80009C4B9B6803F00C03082B21D06368B3F5D2
:101B9000803F4FD0B3F5A02F52D0964B1A6822F455
:101BA00080321A601A6822F480221A606368002B5F
:101BB00050D000F0BBFC05468E4B1B6813F4003F71
:101BC00014D100F0B3FC401B6428F5D90320B1E127
:101BD000884B5B6813F4800FD8D0864B1B6813F4D6
:101BE000003F03D06368002B00F09F81236813F04F
:101BF000020F54D07F4B9B6813F00C0F3ED07D4BEF
:101C00009B6803F00C03082B33D0E368002B68D0EB
:101C1000794B01221A6000F089FC0546754B1B6860
:101C200013F0020F54D100F081FC401B0228F5D9BB
:101C300003207FE16F4A136843F480331360B5E7F4
:101C40006C4B1A6842F480221A601A6842F480329F
:101C50001A60ABE700F06AFC0546664B1B6813F49C
:101C6000003FC3D000F062FC401B6428F5D903207C
:101C700060E1604B5B6813F4800FC6D15D4B1B685D
:101C800013F0020F03D0E368012B40F05081594A52
:101C9000136823F0F803216943EAC1031360236842
:101CA00013F0080F42D063696BB3534B0122C3F8A2
:101CB000802E00F03BFC05464E4B5B6F13F0020F8D
:101CC00034D100F033FC401B0228F5D9032031E168
:101CD000484A136823F0F803216943EAC1031360FB
:101CE000DDE7454B00221A6000F020FC0546414B21
:101CF0001B6813F0020FD2D000F018FC401B022822
:101D0000F5D9032016E13C4B0022C3F8802E00F0E9
:101D10000DFC0546374B5B6F13F0020F06D000F049
:101D200005FC401B0228F5D9032003E1236813F0CA
:101D3000040F77D02F4B1B6C13F0805F33D100233F
:101D400001932C4B1A6C42F080521A641B6C03F006
:101D500080530193019B0125284B1B6813F4807F5E
:101D600023D0A368012B34D0052B38D0214B1A6F18
:101D700022F001021A671A6F22F004021A67A368A0
:101D8000002B3DD000F0D2FB06461A4B1B6F13F020
:101D9000020F46D100F0CAFB801B41F28833984203
:101DA000F3D90320C6E00025D6E7144A136843F4AC
:101DB0008073136000F0BAFB0646104B1B6813F4E7
:101DC000807FCED100F0B2FB801B0228F5D9032022
:101DD000B0E0084A136F43F001031367CFE7054BE8
:101DE0001A6F42F004021A671A6F42F001021A6772
:101DF000C5E700BF003802400000474200700040C5
:101E000000F094FB0646524B1B6F13F0020F08D0F4
:101E100000F08CFB801B41F288339842F3D90320F9
:101E200088E0EDB9A369002B00F08380484A9268EE
:101E300002F00C02082A51D0022B17D0454B002289
:101E40001A6600F073FB0446414B1B6813F0007FD9
:101E500042D000F06BFB001B0228F5D9032069E09B
:101E60003B4A136C23F080531364DBE7394B0022A9
:101E70001A6600F05BFB0546354B1B6813F0007FCC
:101E800006D000F053FB401B0228F5D9032051E097
:101E9000E369226A1343626A43EA8213A26A520820
:101EA000013A43EA0243E26A43EA0263284A536082
:101EB000284B01221A6600F039FB0446244B1B68AC
:101EC00013F0007F06D100F031FB001B0228F5D98A
:101ED00003202FE000202DE000202BE0012B2BD051
:101EE0001B4B5B6803F48001E269914226D103F049
:101EF0003F02216A8A4223D1616A47F6C0721A40C2
:101F0000B2EB811F1ED103F44031A26A5208013A9C
:101F1000B1EB024F18D103F07063E26AB3EB026FCA
:101F200014D1002006E001207047012002E00120CA
:101F300000E0002002B070BD0120FBE70120F9E7BE
:101F40000120F7E70120F5E70120F3E70120F1E7A1
:101F5000003802400000474208B5314B9B6803F04F
:101F60000C03042B57D0082B57D12D4B5A6802F085
:101F70003F025B6813F4800F2AD0294B5968C1F3E4
:101F8000881C4FEA4C11B1EB0C006EEB0E0E4FEAC1
:101F90008E1343EA90638101091A63EB0E03DB00A1
:101FA00043EA5173C90011EB0C0C43F100035902D1
:101FB00000234FEA4C2041EADC51FEF747FE184B64
:101FC0005B68C3F3014301335B00B0FBF3F025E032
:101FD000134B5968C1F3881C4FEA4C11B1EB0C004C
:101FE0006EEB0E0E4FEA8E1343EA90638101091ADD
:101FF00063EB0E03DB0043EA5173C90011EB0C0CD9
:1020000043F10003990200234FEA8C2041EA9C51DE
:10201000FEF71CFED3E7034800E0034808BD00BFFD
:102020000038024000127A000024F400002800F07A
:102030009B8070B50D4604464F4B1B6803F00703A9
:102040008B4208D2CBB24C4A1370136803F00703DB
:102050008B4240F08B80236813F0020F17D013F0EF
:10206000040F04D0454A936843F4E0539360236817
:1020700013F0080F04D0414A936843F4604393601F
:102080003E4A936823F0F003A1680B4393602368F2
:1020900013F0010F32D06368012B21D09A1E012A60
:1020A00025D9364A126812F0020F61D033498A6886
:1020B00022F0030213438B6000F038FA06462F4BE0
:1020C0009B6803F00C036268B3EB820F16D000F03C
:1020D0002DFA801B41F288339842F0D9032042E068
:1020E000264A126812F4003FE0D101203BE0234A67
:1020F000126812F0007FD9D1012034E01E4B1B681A
:1021000003F00703AB4207D9EAB21B4B1A701B68F6
:1021100003F00703AB422DD1236813F0040F06D060
:10212000164A936823F4E053E1680B4393602368F5
:1021300013F0080F07D0114A936823F46043216914
:1021400043EAC1039360FFF707FF0C4B9B68C3F39F
:1021500003130B4AD35CD8400A4B18600A4B18682B
:1021600000F08AFE002070BD012070470120FAE7D0
:102170000120F8E70120F6E7003C02400038024069
:10218000F8990108700000206C000020014B1868CD
:10219000704700BF7000002008B5FFF7F7FF044B41
:1021A0009B68C3F38223034AD35CD84008BD00BFB9
:1021B00000380240089A010808B5FFF7E7FF044B12
:1021C0009B68C3F34233034AD35CD84008BD00BFC9
:1021D00000380240089A01080F2303600B4B9A68ED
:1021E00002F0030242609A6802F0F00282609A688C
:1021F00002F4E052C2609B68DB0803F4E053036121
:10220000034B1B6803F007030B6070470038024064
:10221000003C024000230F2B00F2E48070B582B036
:1022200060E085685E000324B44025EA0405CC68BC
:10223000B4402C438460456825EA02054C68C4F329
:1022400000129A402A4342605AE0DC08083450F8F1
:10225000246003F0070295000F22AA4026EA020E2E
:102260000A69AA4042EA0E0240F824205CE00722F4
:1022700000E0002202FA0EF22A4302345A4D45F8D9
:1022800024205A4A94686FEA0C0224EA0C054E682E
:1022900016F4801F01D04CEA0405544CA560E46894
:1022A00002EA04054E6816F4001F01D04CEA04054A
:1022B0004E4CE560646802EA04054E6816F4003F7F
:1022C00001D04CEA0405494C6560246822404D6801
:1022D00015F4803F01D04CEA0402444C22600133E3
:1022E0000F2B7DD801229A400C6804EA020C32EAD6
:1022F0000404F4D14C6804F00304013C012C90D98F
:102300004A6802F00302032A09D0C4685D00032270
:10231000AA4024EA02048A68AA402243C2604A68AA
:1023200002F00302022A90D004684FEA430E03220F
:1023300002FA0EF224EA02044A6802F0030202FAE8
:102340000EF2224302604A6812F4403FC7D00022D6
:102350000192274A546C44F480445464526C02F451
:1023600080420192019A9C08A51C1F4A52F82550F0
:1023700003F003024FEA820E0F2202FA0EF225EA60
:1023800002051C4A90423FF474AF02F5806290420D
:102390001AD002F58062904218D002F58062904215
:1023A00016D002F58062904214D002F5806290420D
:1023B00012D002F58062904210D002F58062904205
:1023C0003FF455AF082255E7012253E7022251E7B7
:1023D00003224FE704224DE705224BE7062249E797
:1023E00002B070BD704700BF00380140003C0140A2
:1023F00000380240000002400369194201D0012068
:102400007047002070470AB18161704709048161FB
:102410007047000008B5054B5B69034200D108BD59
:10242000024B586100F010FBF9E700BF003C01408F
:10243000074AD36823F4E0631B041B0C000200F47A
:10244000E060034343F0BF6343F40033D36070475D
:1024500000ED00E000B5194BDB68C3F30223C3F1C4
:10246000070CBCF1040F28BF4FF0040C03F1040E5D
:10247000BEF1060F18D9033B4FF0FF3E0EFA0CFCDD
:1024800021EA0C0199400EFA03F322EA03031943EF
:1024900000280BDB0901C9B200F1604000F5614082
:1024A00080F800135DF804FB0023E5E700F00F005F
:1024B0000901C9B2024B1954F4E700BF00ED00E076
:1024C00014ED00E0002807DB00F01F0240090123A3
:1024D0009340024A42F82030704700BF00E100E01C
:1024E00008B50B4B1A6842F400721A601A6842F47D
:1024F00080621A601A6842F480721A600320FFF743
:1025000097FF0F2000F0B8FCFEF774FF002008BD15
:10251000003C0240034A1168034B1B780B441360D4
:10252000704700BFB806002068000020014B186803
:10253000704700BFB806002038B50446FFF7F6FF25
:102540000546B4F1FF3F02D0044B1B781C44FFF753
:10255000EDFF401BA042FAD338BD00BF6800002049
:10256000034AD2F8883043F47003C2F888307047C9
:1025700000ED00E008B504F08DFD4FF0FF320021C2
:10258000012002F06CFD4FF47A7002F0BDFD04F002
:1025900091FD024B83ED000AEFE700BFD406002057
:1025A00008B51FE040281AD151490B7803EB4303CB
:1025B000504A02EB83039B790B704FF4FA7002F0E0
:1025C000A3FD0CE04A490B7803EB4303494A02EBB5
:1025D00083035B780B704FF4FA7002F095FD0120D5
:1025E00002F092FDFEF77EFE434B18800028F6D0E5
:1025F0002028D7D80228F2D302381E28EFD801A30A
:1026000053F820F0C5250008DF2500089D260008A6
:10261000DF250008DF250008DF250008B9260008AF
:10262000DF250008DF250008DF250008DF2500087A
:10263000DF250008DF250008DF25000881260008C7
:10264000DF250008DF250008DF250008DF2500085A
:10265000DF250008DF250008DF250008DF2500084A
:10266000DF250008DF250008DF250008DF2500083A
:10267000DF250008DF250008DF250008D526000833
:102680001B490B7803EB43031A4A02EB83039B7845
:102690000B704FF4FA7002F037FDA0E714490B7885
:1026A00003EB4303134A02EB8303DB780B704FF415
:1026B000FA7002F029FD92E70D490B7803EB430312
:1026C0000C4A02EB83031B790B704FF4FA7002F093
:1026D0001BFD84E706490B7803EB4303054A02EB35
:1026E00083035B790B704FF4FA7002F00DFD76E70F
:1026F0007400002088000020E006002010B50BF0D8
:102700009DF904460BF0A2F9034622460021084633
:1027100009F092FC4FF07F4009F0D4FB002434E034
:1027200009F0C0FC544809F0CDFB0BF087F90446D2
:102730000BF08CF9034622460021084609F07CFC88
:102740004E4B1B88002B61D010BD012B36D0022BC5
:102750003AD0032B3ED0042B42D0494809F0BDFBB0
:1027600004F10A02DC239200C821282009F086FF28
:10277000DC234FF48C72C821282008F031FF3C2C58
:1027800034D0142002F0C0FC01343C2CD8DC3B4B8C
:102790001B88002BC4D13B4A82FB0432E317C3EBF6
:1027A000620303EB8303E31ACFD13C2CCDD0B023DB
:1027B000D8223021582009F03FFCCEE730225821A2
:1027C000314809F003FFC8E7302258212F4809F0AB
:1027D000FDFEC2E7302258212D4809F0F7FEBCE784
:1027E000302258212B4809F0F1FEB6E72A4809F0BB
:1027F00074FB2A4809F088FBCC228421284809F080
:102800007DFE4FF4FA7002F07FFCBAE709F04AFC53
:10281000194809F057FB0BF011F904460BF016F9B3
:10282000034622460021084609F006FC1D4809F02F
:102830006BFB1D4809F051FB002211461B4809F0B3
:10284000C5FE60224C211A4809F058FE4FF47A70F8
:1028500002F05AFC09F026FC60226A21154809F0B2
:102860004DFE7E227221144809F048FE4FF4FA60B2
:1028700002F04AFC68E700BFD0D0D0FFD0060020AD
:1028800000A5FFFF67666666EC1003080091030869
:1028900014110408D89002082A2AA5FF306C0108F8
:1028A000109A010834D201080000FFFFC41002088A
:1028B000189A0108289A0108349A010808B50E4AA6
:1028C00000210E4802F030FB0D4B18600D4A00212C
:1028D0000D4802F029FB0D4B18600D4A00210D48F0
:1028E00002F022FB0C4B18600C4A00210C4802F04D
:1028F0001BFB0C4B186008BDD09A01087525000819
:10290000C4060020AC9A0108A1250008C0060020DA
:10291000F49A0108D12A0008C8060020889A010804
:1029200055290008BC06002008B5084B1B6803B9F0
:1029300008BD02F0EFFA054B1B689842F8D300215E
:10294000024B19600248FFF77DF8F1E7CC06002042
:10295000FC52012000B583B009F0FEFBFFF7CEFE6C
:10296000274808F015FA0121264B186802F03EFBB3
:10297000022002F0C9FB1AE0234B9A6800920CCBAC
:102980000021224C94ED000A04F0BAF8204B1A788A
:102990005A701F4B1B7813B91D4B01221A7064200B
:1029A00002F0B2FBFFF7C0FF012002F0ADFB184BB5
:1029B0005A7818788242DFD1144B93ED000AD3ED98
:1029C000017AB4EE670AF1EE10FA0DD00E4B9A6858
:1029D00000920CCB012104F093F80C4B1A685A605A
:1029E0000C4B00221A80D4E70A4B00221A800121E6
:1029F000044B186802F0FAFA022002F085FBC8E7DF
:102A00003C9A0108C406002078000020D40600206B
:102A100074000020D006002000B583B0074B9A68F0
:102A200000920CCB0121064890ED000A0548007881
:102A300004F066F803B05DF804FB00BF78000020E6
:102A4000D406002074000020202800D0704708B56C
:102A500020210B48FFF7D0FC012800D008BD094A0F
:102A6000137803EB4303084901EB83035B7913708D
:102A700000235370054B01221A80FFF7CDFFEDE7CD
:102A8000001002407400002088000020D0060020C2
:102A900082B08446ADF80610ADF80420ADF80230DF
:102AA000BDF80620094B1A80BDF804205A80BDF8F5
:102AB00002209A80BDF80820DA80BDF80C201A8127
:102AC000BDF810205A81604602B07047780000209F
:102AD00000B589B004F03CFD304B18601B68002B3A
:102AE0004BD03223C8221421084609F0A5FA2C48FD
:102AF00009F00AFA2B4809F0F0F9142211462A4885
:102B000009F0FCFC4FF47A7002F0FEFA3223C8227E
:102B10001421084609F090FA2FE004F0B5FD234B8C
:102B20001988234B1A88234B1B882348008800B23E
:102B3000224C248824B2224D2D882DB20295019476
:102B400000901BB212B209B204A8FFF7A1FF1D4BFF
:102B500004980599069A07C31B4B93ED007ADFEDA5
:102B60001B7AB4EEE77AF1EE10FA13DD184B01226E
:102B70001A604FF4967002F0C7FA084B1B68002BDE
:102B8000EAD0144B1B78012BC7D0052BC5D0062BE0
:102B9000E2D1C2E70E4B00221A60EAE7E406002009
:102BA000A0A401088080FFFF509A0108445301202F
:102BB0004653012048530120585301205A53012005
:102BC0005C530120780000204C530120000070422B
:102BD000DC0600207400002008B50548054B0360A2
:102BE00000F09CF900B908BDFEF762FAFBE700BFF0
:102BF000E8060020003002400268094B9A4200D0EB
:102C0000704782B000230193064B1A6B42F4805246
:102C10001A631B6B03F480530193019B02B070474E
:102C20000030024000380240F0B587B00023019325
:102C30000293039304930593164B1B680BB107B0E3
:102C4000F0BD144B01221A6000260096124B9A6BBD
:102C500042F001029A639B6B03F001030093009B17
:102C60004FF68073019302270297032504950C24E5
:102C7000059401A90948FFF7CDFA4CF6B373019307
:102C8000029703960495059401A90548FFF7C2FA37
:102C9000D5E700BFF00600200038024000100240D7
:102CA000000C024010B588B00022019202920392FB
:102CB000049205920692079214484FF02043036055
:102CC00003F5827343608260C2600261102141613A
:102CD0008261C261026242624FF480538362C262C7
:102CE0000263426382634264022301930F240294CD
:102CF0000393049305911123069301A900F098F919
:102D000008B908B010BDFEF7D3F9FAE7F4060020C1
:102D100008B5FFF789FF08BD08B50F480F4B0360E2
:102D20004FF48273436000238360C3600361436197
:102D30004FF4802282612822C261036243624FF411
:102D4000005383620A23C36200F09EF900B908BDF4
:102D5000FEF7AEF9FBE700BF440700200038004053
:102D600000B589B00023039304930593069307935A
:102D70000268154B9A4202D009B05DF804FB0021AD
:102D8000019103F500331A6C42F480421A641A6C04
:102D900002F480420192019A02911A6B42F00202FF
:102DA0001A631B6B03F002030293029B4FF4704300
:102DB000039302230493032306930523079303A994
:102DC0000248FFF727FAD7E7003800400004024026
:102DD00008B50A480A4B03604FF4E133436000230F
:102DE0008360C36003610C2242618361C36103F0AD
:102DF000FDFF00B908BDFEF75BF9FBE79C0700206B
:102E00000010014000B589B000230393049305939B
:102E100006930793026803F1804303F588339A42CF
:102E200002D009B05DF804FB0021019103F5943351
:102E30005A6C42F010025A645A6C02F0100201926D
:102E4000019A02911A6B42F001021A631B6B03F0A4
:102E500001030293029B4FF4C06303930223049384
:102E6000032306930723079303A90248FFF7D2F928
:102E7000D7E700BF0000024030B589B00446002308
:102E80000193214B1A6C42F020021A641B6C03F070
:102E900020030193019B02A903A8FFF79DF9069B5C
:102EA000CBB9FFF779F903461848A0FB03239B0C25
:102EB000013B1748174A026040F2E732C2604360A4
:102EC0000023036183608361FEF7AEFC054630B1E9
:102ED000284609B030BDFFF75FF94300E4E70C482E
:102EE000FEF73EFB05460028F2D13720FFF7EAFA4D
:102EF0000F2C01D90125EBE7002221463720FFF7EF
:102F0000A9FA054B1C60E3E70038024083DE1B434F
:102F1000E4070020001400406C00002058B110B5F8
:102F2000044643791BB101236371002010BD037176
:102F3000FFF762FEF7E701207047000010B40A684F
:102F400050F8223023F0010340F822308B68082B20
:102F500025D000244A6822431343CA6813430A69F0
:102F600013434A691343CA6913430A6A13434A6AFB
:102F700013438A6A1343CA6A13430A6B13438A6969
:102F80001343CA6B1343096850F82140054A224095
:102F90001A4340F8212000205DF8044B704740247C
:102FA000D8E700BF8000F0FF10B5013250F82230A2
:102FB00003F0404C0B684C6843EA04138C6843EA06
:102FC0000423CC6843EA04430C6904F1FF3E43EA5E
:102FD0000E534C69A4F1020E43EA0E6389690B4358
:102FE0004CEA030340F82230002010BDB3F5804FB7
:102FF00005D06FF0704340F822300020704730B4A5
:1030000050F82230094C1C400B684D6843EA051308
:103010008D6843EA05238D692B43C96843EA014360
:10302000234340F82230002030BC70470000F0CF2E
:1030300040B370B50E461546044690F84930E3B1EA
:10304000214651F8080BFFF779FFA2683146206846
:10305000FFF7AAFF236BA26829466068FFF7C6FF47
:103060002268A16852F8213043F0010342F8213070
:10307000012384F84930002070BD80F84830FFF704
:1030800047FEDDE701207047002860D010B50446F8
:10309000436A33B94368B3F5827F05D00023C36127
:1030A00002E000230361436194F85130002B44D0C7
:1030B000022384F851302268136823F04003136020
:1030C000636803F48273A26802F404421343E26863
:1030D00002F400621343226902F0020213436269A0
:1030E00002F001021343A26902F400721343E26981
:1030F00002F038021343226A02F080021343A26AEC
:1031000002F40052216813430B60638B03F0040345
:10311000626A02F01002216813434B60A36AB3F5A0
:10312000005F10D02268D36923F40063D3610020CC
:103130006065012384F8513010BD84F8503020467A
:10314000FFF70EFEB4E72368A28D1A61EAE70120BB
:10315000704700F1080343604FF0FF328260C360A4
:1031600003610023036070470023036170474368D5
:103170004B609A688A605160996008610368013306
:103180000360704730B40D68B5F1FF3F11D000F116
:1031900008031C465B681A68AA42FAD963684B6048
:1031A00099608C606160086103680133036030BC22
:1031B00070470469F2E70369416882688A60416880
:1031C00051605A68824206D0002202611A68013AB0
:1031D0001A601868704782685A60F5E70346406ACB
:1031E00018B11B6B1868C0F13800704710B5044661
:1031F00002F030FAA26BE36B9A4204D0002402F092
:103200004BFA204610BD0124F9E710B5044602F040
:1032100021FAA36B23B9012402F03EFA204610BD27
:103220000024F9E770B504461546866B026C5AB95E
:1032300003681BB100200136A66370BD806801F0F1
:10324000F9F90023A360F6E76DB940680DF018FDA9
:10325000226C636813446360A268934219D32368A5
:1032600063602846E7E7C0680DF00AFD226C514212
:10327000E3689B1AE3602268934202D2A3680B447E
:10328000E360022D01D00020D5E726B1013E0020E9
:10329000D1E72846CFE70020CDE70346026C6AB1AC
:1032A00010B50846D9681144D9609C68A14201D381
:1032B0001968D960D9680DF0E3FC10BD704738B5C6
:1032C000054602F0C7F995F8454064B201E0013CBB
:1032D00064B2002C0ADD6B6A43B105F1240001F0F1
:1032E000ADF80028F3D001F03DF9F0E7FF2385F8B1
:1032F000453002F0D1F902F0ADF995F8444064B2DE
:1033000001E0013C64B2002C0ADD2B6943B105F1F8
:10331000100001F093F80028F3D001F023F9F0E752
:10332000FF2385F8443002F0B7F938BD38B5E0B175
:103330000D46044602F08EF92368E26B216C01FB16
:103340000230A0600020A0636360013A02FB0133F9
:10335000E360FF2384F8443084F84530FDB92369E5
:1033600063B902F099F9012038BD4FF0500383F39F
:103370001188BFF36F8FBFF34F8FFEE704F110008A
:1033800001F05CF80028ECD04FF0E0234FF08052C1
:10339000C3F8042DBFF34F8FBFF36F8FE1E704F144
:1033A0001000FFF7D6FE04F12400FFF7D2FED8E7A5
:1033B00038B51D46049C0B4649B92460E06323647C
:1033C00001212046FFF7B2FF84F84C5038BD22603F
:1033D000F4E740B94FF0500383F31188BFF36F8FC8
:1033E000BFF34F8FFEE710B584B01C46844653B13F
:1033F00092B189B94FF0500383F31188BFF36F8FF7
:10340000BFF34F8FFEE74FF0500383F31188BFF3F4
:103410006F8FBFF34F8FFEE76AB150230393039B77
:10342000502B13D04FF0500383F31188BFF36F8FED
:10343000BFF34F8FFEE70029EFD04FF0500383F327
:103440001188BFF36F8FBFF34F8FFEE7039B0123FC
:1034500084F8463000949DF818306046FFF7A8FFC6
:10346000204604B010BD40B94FF0500383F31188DB
:10347000BFF36F8FBFF34F8FFEE7F0B583B00D46FC
:103480001446064601FB00F0503001F0BFFF07462E
:1034900050B1002380F846300090234600F15002DE
:1034A00029463046FFF784FF384603B0F0BD40B9E7
:1034B0004FF0500383F31188BFF36F8FBFF34F8F2B
:1034C000FEE710B582B00C46884208D24FF0500398
:1034D00083F31188BFF36F8FBFF34F8FFEE7022393
:1034E0000093134600221146FFF773FF00B1846377
:1034F00002B010BD40B94FF0500383F31188BFF301
:103500006F8FBFF34F8FFEE710B50C46884208D28D
:103510004FF0500383F31188BFF36F8FBFF34F8FCA
:10352000FEE702220021FFF79EFF00B1846310BD79
:10353000F0B585B0019288B10F461D460446B1B181
:10354000022D20D1E36B012B1DD04FF0500383F3EC
:103550001188BFF36F8FBFF34F8FFEE74FF050031B
:1035600083F31188BFF36F8FBFF34F8FFEE7036CB8
:10357000002BE5D04FF0500383F31188BFF36F8F1A
:10358000BFF34F8FFEE700F0F9FF064658B9019BE5
:10359000002B48D04FF0500383F31188BFF36F8F97
:1035A000BFF34F8FFEE700263DE02A46394620460E
:1035B000FFF738FE636A7BB948B14FF0E0234FF064
:1035C0008052C3F8042DBFF34F8FBFF36F8F02F00B
:1035D00063F8012005B0F0BD04F1240000F02EFFD7
:1035E0000028F4D04FF0E0234FF08052C3F8042DB0
:1035F000BFF34F8FBFF36F8FE9E702F04DF8002064
:10360000E8E702A800F060FF012619E0002384F833
:10361000443021E0002384F8453023E02046FFF7C2
:103620004EFE00F0EBFD02F015F8A26BE36B9A4240
:10363000BBD3022DB9D0019B002BDED0002EE0D0F1
:1036400002F02AF800F038FD02F004F894F8442063
:1036500052B2B2F1FF3FD9D094F8452052B2B2F144
:10366000FF3FD7D002F018F801A902A800F038FFF8
:10367000D8B92046FFF7BAFD0028CFD0019904F150
:10368000100000F0A7FE2046FFF719FE00F0B6FD7F
:103690000028C8D14FF0E0234FF08052C3F8042D2A
:1036A000BFF34F8FBFF36F8FBDE72046FFF707FED5
:1036B00000F0A4FD00208DE748B108B5002181602D
:1036C0000160C1600B460A46FFF732FF08BD704734
:1036D00010B5024600210120FFF7C5FE0446FFF7A2
:1036E000EBFF204610BD10B582B00B4600900022C3
:1036F00011460120FFF76DFE0446FFF7DDFF20466F
:1037000002B010BD38B538B10446856800F030FF0E
:1037100085420AD0002038BD4FF0500383F3118852
:10372000BFF36F8FBFF34F8FFEE7E368013BE360AA
:103730000BB10120EFE71A4619462046FFF7F8FEC5
:103740000120E8E72DE9F84390B10F4616461C46E4
:103750000546B1B1022C20D1EB6B012B1DD04FF0EF
:10376000500383F31188BFF36F8FBFF34F8FFEE7D2
:103770004FF0500383F31188BFF36F8FBFF34F8F68
:10378000FEE7036C002BE5D04FF0500383F3118864
:10379000BFF36F8FBFF34F8FFEE702F081F8EFF3B7
:1037A00011894FF0500383F31188BFF36F8FBFF37C
:1037B0004F8FAA6BEB6B9A4206D3022C04D00020E9
:1037C00089F31188BDE8F88395F845804FFA88F8A9
:1037D000AB6B224639462846FFF724FDB8F1FF3F80
:1037E00006D008F101035BB285F845300120E7E718
:1037F0006B6A0BB90120E3E705F1240000F01EFE1F
:1038000018B126B101203060DAE70120D8E70120A5
:10381000D6E7F0B585B0019290B10F460446C1B12C
:1038200000F0ACFE064600BB019B002B5ED04FF0C3
:10383000500383F31188BFF36F8FBFF34F8FFEE701
:103840004FF0500383F31188BFF36F8FBFF34F8F97
:10385000FEE7036C002BE3D04FF0500383F3118895
:10386000BFF36F8FBFF34F8FFEE700263EE0394670
:103870002046FFF712FD013DA563236923B901F03E
:103880000BFF012005B0F0BD04F1100000F0D6FDE3
:103890000028F4D04FF0E0234FF08052C3F8042DFD
:1038A000BFF34F8FBFF36F8FE9E701F0F5FE002004
:1038B000E8E702A800F008FE012621E0002384F8D2
:1038C000443029E0002384F845302BE02046FFF700
:1038D000F6FC00F093FC09E02046FFF7F0FC00F056
:1038E0008DFC2046FFF791FC00283FD101F0B2FE8D
:1038F000A56B002DBBD1019B002BD6D0002ED8D0BC
:1039000001F0CAFE00F0D8FB01F0A4FE94F84430A8
:103910005BB2B3F1FF3FD1D094F845305BB2B3F165
:10392000FF3FCFD001F0B8FE01A902A800F0D8FDFA
:103930000028D1D12046FFF768FC0028C6D00199A5
:1039400004F1240000F046FD2046FFF7B8FC00F02B
:1039500055FC0028CAD14FF0E0234FF08052C3F845
:10396000042DBFF34F8FBFF36F8FBFE7002089E7B0
:1039700070B584B0019158B10446036C8BB14FF01F
:10398000500383F31188BFF36F8FBFF34F8FFEE7B0
:103990004FF0500383F31188BFF36F8FBFF34F8F46
:1039A000FEE700F0EBFD054650B9019B5BB14FF01F
:1039B000500383F31188BFF36F8FBFF34F8FFEE780
:1039C0000026354655E0064653E0013BA3632368D5
:1039D0003BB123694BB901F05FFE0126304604B0CC
:1039E00070BD00F0BFFEA060F3E704F1100000F02E
:1039F00025FD0028EFD04FF0E0234FF08052C3F8B0
:103A0000042DBFF34F8FBFF36F8FE4E746B14FF044
:103A1000500383F31188BFF36F8FBFF34F8FFEE71F
:103A200001F03AFEDAE702A800F04EFD01252AE097
:103A3000002384F8443032E0002384F8453034E039
:103A400001F008FEA06800F0A9FD064601F024FE82
:103A50003BE02046FFF733FC00F0D0FB09E02046B6
:103A6000FFF72DFC00F0CAFB2046FFF7CEFB002835
:103A700042D101F0EFFDA36B002BA6D1019B002BDF
:103A8000C4D0002DCFD001F007FE00F015FB01F0EF
:103A9000E1FD94F844305BB2B3F1FF3FC8D094F835
:103AA00045305BB2B3F1FF3FC6D001F0F5FD01A98F
:103AB00002A800F015FD0028D1D12046FFF7A5FB94
:103AC0000028C6D02368002BBAD0019904F1240045
:103AD00000F080FC2046FFF7F2FB00F08FFB00288F
:103AE000C7D14FF0E0234FF08052C3F8042DBFF34D
:103AF0004F8FBFF36F8FBCE70EB900266EE701F062
:103B0000A9FD2046FFF76AFB0146A06800F0DAFD38
:103B100001F0C2FDF1E780B170B50C46054686683C
:103B200000F026FD864211D021462846FFF720FFEF
:103B300080B1EB680133EB600CE04FF0500383F38E
:103B40001188BFF36F8FBFF34F8FFEE7EB68013330
:103B5000EB60012070BD00000023072B0CD8074A42
:103B600052F833200AB10133F7E7044A42F8331020
:103B700002EBC30358607047704700BF2C08002059
:103B80000023072B0FD8084A02EBC3025268824277
:103B900001D00133F5E7044A002142F8331002EB6B
:103BA000C3035960704770472C08002038B110B526
:103BB0000446FFF7E5FF94F846304BB110BD4FF0D7
:103BC000500383F31188BFF36F8FBFF34F8FFEE76E
:103BD000204601F099FCF1E770B504460D46164603
:103BE00001F038FD94F844305BB2B3F1FF3F0DD0E3
:103BF00094F845305BB2B3F1FF3F0BD001F04CFDC0
:103C0000A36B5BB12046FFF75AFB70BD002384F81D
:103C10004430EDE7002384F84530EFE7324629468B
:103C200004F1240000F0EEFBECE70000084B1B68F9
:103C30001B6823B9074B4FF0FF321A607047044BE3
:103C40001B68DB68DB685A68024B1A60704700BF6C
:103C500070080020180D00202DE9F04780460D4621
:103C600017469946089EDDF824A00A9C9200A521DB
:103C7000206B0DF02DF8236B07F18042013A03EB26
:103C8000820727F00707B5B34FF0000CBCF10F0F08
:103C90000BD815F80C2004EB0C0383F8342015F82E
:103CA0000C3013B10CF1010CF0E7002384F8433021
:103CB000372E00D93726E662E66400252565201DEB
:103CC000FFF752FA04F11800FFF74EFA2461C6F12B
:103CD0003806A6616462656584F858504A464146D4
:103CE000384601F08DFC2060BAF1000F01D0CAF80F
:103CF0000040BDE8F087002384F83430D8E70000A6
:103D000038B5002407E004EB840293000E48184401
:103D1000FFF71FFA0134372CF5D90C4D2846FFF771
:103D200018FA0B4C2046FFF714FA0A48FFF711FA6D
:103D30000948FFF70EFA0948FFF70BFA084B1D6018
:103D4000084B1C6038BD00BF78080020EC0C002038
:103D5000000D0020240D0020500D00203C0D0020FF
:103D6000700800207408002010B5044601F072FCB1
:103D7000224A136801331360214B1B685BB1214B4E
:103D80001B686BB91E4B1B68DA6AE36A9A4207D854
:103D90001B4B1C6004E01A4B1C601368012B29D0DC
:103DA000194A1368013313606364E06A174B1B6898
:103DB000984201D9154B186000EB8000211D144B6F
:103DC00003EB8000FFF7D3F901F066FC0D4B1B6895
:103DD0007BB10B4B1B68DA6AE36A9A4209D24FF057
:103DE000E0234FF08052C3F8042DBFF34F8FBFF391
:103DF0006F8F10BDFFF784FFD2E700BFD80C002003
:103E00006C080020380D0020E40C0020E80C002095
:103E10007808002010B5044690F8593063B1012BA2
:103E200011D0022B0ED04FF0500383F31188BFF353
:103E30006F8FBFF34F8FFEE7006B01F065FB2046ED
:103E400001F062FB10BD01F05FFBFBE70F4B1B684D
:103E5000D3B110B501F0FEFB0D4BDB68DC68201D13
:103E6000FFF7A9F90B4A1368013B1360074A13686F
:103E7000013B136001F010FC2046FFF7CBFF034B22
:103E80001B68002BE6D110BD704700BFDC0C002082
:103E9000500D0020D80C002008B5FFF7D7FF074BC6
:103EA0001B68012BF9D94FF0E0234FF08052C3F883
:103EB000042DBFF34F8FBFF36F8FEEE7780800201C
:103EC00070B504460D46174B1E68174B1868043032
:103ED000FFF771F9B4F1FF3F0DD03444124B1B686A
:103EE0005C60A64210D9114B18680F4B1968043159
:103EF000FFF748F970BD002DEFD00B4B1968043166
:103F00000B48FFF734F9F5E70A4B1868064B1968B8
:103F10000431FFF737F9084B1B68A342EAD9064B77
:103F20001C60E7E7640D00206C0800207408002086
:103F30003C0D002070080020180D002030B587B01F
:103F40000B9C7CB10C9DB5B15C250495049D5C2D4A
:103F50001AD04FF0500383F31188BFF36F8FBFF374
:103F60004F8FFEE74FF0500383F31188BFF36F8F3D
:103F7000BFF34F8FFEE74FF0500383F31188BFF379
:103F80006F8FBFF34F8FFEE7049D0C9D2C630224BF
:103F900085F8594000240394029505AC01940A9CCD
:103FA0000094FFF759FE0C98FFF7DEFE059807B066
:103FB00030BD2DE9F04385B00746884614461E46BD
:103FC000900001F023FA00B381465C2001F01EFA54
:103FD0000546B0B1C0F83090E5B1002385F85930FE
:103FE000039302950D9B01930C9B0093334622464D
:103FF00041463846FFF730FE2846FFF7B5FE012060
:1040000005E0484601F080FAE6E74FF0FF3005B0E2
:10401000BDE8F0834FF0FF30F9E7000010B588B03D
:1040200000240594069407AA06A905A801F070F9D2
:10403000059B0293069B019300942346079A184917
:104040001848FFF77BFF184B186040B100F06AFD7D
:10405000012806D0B0F1FF3F18D008B010BD0020F5
:10406000F6E74FF0500383F31188BFF36F8FBFF370
:104070004F8F0E4B4FF0FF321A600D4B01221A602A
:104080000C4B00221A6001F07FFBE6E74FF0500373
:1040900083F31188BFF36F8FBFF34F8FFEE700BF2D
:1040A0006C0E0208993E0008140D0020180D002027
:1040B000380D0020640D0020024A1368013313609C
:1040C000704700BFE00C0020014B1868704700BF2C
:1040D000640D002008B501F0E3FB014B186808BD32
:1040E000640D0020F8B53A4B1B68002B69D1394BA1
:1040F0001D6801351D60C5B9374B1B681B6843B18E
:104100004FF0500383F31188BFF36F8FBFF34F8FCE
:10411000FEE7314A1168314B186810601960304A67
:10412000136801331360FFF781FD2E4B1B68AB4210
:104130003DD900272C4B1B68DB6A03EB83039A00F5
:104140002A4B9B58012B00D90127294B1B68002BB8
:104150003CD001273AE001271F4B1B681B6843B383
:104160001D4B1B68DB68DC6863689D4226D3261DF7
:104170003046FFF720F8A36A1BB104F11800FFF7DF
:104180001AF8E36A1B4A1268934201D9194A13606C
:1041900003EB83039A00314614481044FEF7E7FF0F
:1041A000E26A114B1B68DB6A9A42D4D2D4E700273B
:1041B000D2E70C4B4FF0FF321A60BBE7094A13609D
:1041C000B8E70D4A13680133136000273846F8BD7D
:1041D000E00C0020640D002070080020740800200E
:1041E0001C0D0020180D00206C080020780800200D
:1041F000680D0020E80C0020200D002038B5354B5C
:104200001B6843B94FF0500383F31188BFF36F8FDE
:10421000BFF34F8FFEE701F01DFA2E4B1A68013AEB
:104220001A601B68002B4FD12B4B1B680BB9002465
:104230004BE00024294B1B681BB3284BDB68DC6870
:1042400004F11800FEF7B7FF251D2846FEF7B3FF5F
:10425000E06A234B1B68984201D9214B186000EBA0
:10426000800029461F4B03EB8000FEF780FFE26AC7
:104270001D4B1B68DB6A9A42DCD31C4B01221A607F
:10428000D8E70CB1FFF7D2FC194B1C6884B9174B67
:104290001C68D4B14FF0E0234FF08052C3F8042DD6
:1042A000BFF34F8FBFF36F8F01240EE0013C07D0A7
:1042B000FFF718FF0028F9D00C4B01221A60F5E730
:1042C0000B4B00221A60E2E7002401F0E5F92046DA
:1042D00038BD00BFE00C0020D80C0020240D0020C9
:1042E000E80C0020780800206C080020680D0020F1
:1042F000200D002010B5A8B10446104B1B6843B137
:104300004FF0500383F31188BFF36F8FBFF34F8FCC
:10431000FEE7FFF7D1FE00212046FFF7D1FDFFF7B2
:104320006DFF48B94FF0E0234FF08052C3F8042DE1
:10433000BFF34F8FBFF36F8F10BD00BFE00C0020A5
:104340001F4B1B681BB11F4B01221A6070471D4B8E
:1043500000221A601C4B1B6803EB83018A001B4977
:104360008A585AB90BB1013BF6E74FF0500383F37B
:104370001188BFF36F8FBFF34F8FFEE703EB83000E
:1043800082000A4450684068506003EB830C4FEA97
:104390008C020832114488420BD003EB8302910057
:1043A0000A4A0A445268D168094A1160064A1360F1
:1043B0007047406862469100044A0A445060ECE746
:1043C000E00C0020680D0020E80C00207808002098
:1043D0006C08002058B110B50C46094A1168183114
:1043E000FEF7D0FE01212046FFF76AFD10BD4FF019
:1043F000500383F31188BFF36F8FBFF34F8FFEE736
:104400006C08002038B570B10D4614460A4A116890
:104410001831FEF7ACFE0CB14FF0FF3521462846AF
:10442000FFF74EFD38BD4FF0500383F31188BFF303
:104430006F8FBFF34F8FFEE76C08002038B5C3685D
:10444000DC6824B304F118052846FEF7B4FE184BC7
:104450001B682BBB251D2846FEF7ADFEE06A154BF9
:104460001B68984201D9134B186000EB8000294665
:10447000114B03EB8000FEF77AFEE26A0F4B1B68DC
:10448000DB6A9A4211D901200D4B186038BD4FF0FC
:10449000500383F31188BFF36F8FBFF34F8FFEE795
:1044A00029460848FEF763FEE7E70020EEE700BF75
:1044B000E00C0020E80C0020780800206C080020A8
:1044C000680D0020240D0020034B1B680360034B84
:1044D0001B684360704700BF1C0D0020640D002066
:1044E000F8B5C8B10C460546F9B101F0B3F81B4B5D
:1044F00019686B68C81A2268B2F1FF3F26D0184EBF
:1045000036682F68B74201D08B4224D9824215D831
:104510000023236001241AE04FF0500383F3118835
:10452000BFF36F8FBFF34F8FFEE74FF0500383F35E
:104530001188BFF36F8FBFF34F8FFEE75B1A1344F1
:1045400023602846FFF7C0FF002400E0002401F0AC
:10455000A3F82046F8BD0124F9E700BF640D002050
:104560001C0D0020014B01221A607047680D0020CD
:10457000014B1868704700BF6C080020054B1B6892
:1045800033B1054B1B680BB1002070470220704708
:1045900001207047380D0020E00C002000283ED09C
:1045A00038B50446C36A204A1268D26A93422ED2B2
:1045B0008269002A05DB1C4A1268D26AC2F13802FD
:1045C0008261616903EB8303184A02EB830399421A
:1045D00005D0154B1B68DB6AE362012038BD251D41
:1045E0002846FEF7E8FD104B1B68D86AE062104BC6
:1045F0001B68984201D90E4B186000EB80002946D9
:104600000A4B03EB8000FEF7B2FD0120E6E7C26C27
:10461000054B1B68DB6A9A4203D30020DEE70020CB
:1046200070470120DAE700BF6C08002078080020FE
:10463000E80C002000283BD038B504461E4B1B6810
:10464000834208D04FF0500383F31188BFF36F8F7C
:10465000BFF34F8FFEE7036D43B94FF0500383F371
:104660001188BFF36F8FBFF34F8FFEE7013B0365E8
:10467000C16AC26C91421DD00BB1002038BD051D2E
:104680002846FEF798FDE06CE062C0F13803A361B4
:104690000A4B1B68984201D9084B186000EB800058
:1046A0002946074B03EB8000FEF761FD0120E5E79B
:1046B000002070470020E1E76C080020E80C002093
:1046C00078080020002846D038B50446036D43B969
:1046D0004FF0500383F31188BFF36F8FBFF34F8FF9
:1046E000FEE7C26C8A4200D20A46E16A914201D0DA
:1046F000012B00D038BD184B1B68A34222D0E262C8
:10470000A369002B02DBC2F13802A261626901EBEE
:104710008101124B03EB81018A42EBD1251D284612
:10472000FEF749FDE06A0E4B1B68984201D90C4B1D
:10473000186000EB80002946084B03EB8000FEF771
:1047400016FDD7E74FF0500383F31188BFF36F8F47
:10475000BFF34F8FFEE770476C08002078080020F9
:10476000E80C0020054B1B6823B1044B1A68136D3D
:1047700001331365014B1868704700BF6C080020B7
:10478000F8B506460F4614461D4600F063FF214B60
:104790001B6893F85820D2B2022A0AD01D4B1A681F
:1047A000506D20EA060656651B68012283F85820E2
:1047B000CDB900F071FF00F04DFF1CB1154B1B6827
:1047C0005B6D2360134B1B6893F85830DBB2022BF0
:1047D00018D000240F4B1B68002283F8582000F0EB
:1047E0005BFF2046F8BD11462846FFF769FB4FF0F6
:1047F000E0234FF08052C3F8042DBFF34F8FBFF377
:104800006F8FD6E7034B1B68596D21EA07075F6579
:104810000124DFE76C080020F8B5A8B10F46144664
:104820001D46064600F016FF0DB1736D2B6096F81D
:104830005830DBB2022286F85820042C1FD8DFE85B
:1048400004F02B0C111619004FF0500383F311885C
:10485000BFF36F8FBFF34F8FFEE7726D174377651E
:1048600001241AE0726D01327265012415E077654A
:10487000012412E0022B16D0776501240DE0726D41
:10488000B2F1FF3F11D04FF0500383F31188BFF313
:104890006F8FBFF34F8FFEE70124012B07D000F08D
:1048A000FBFE2046F8BD0024F7E70124F5E7351D9F
:1048B0002846FEF780FCF06A144B1B68984201D929
:1048C000124B186000EB80002946114B03EB80006F
:1048D000FEF74DFCB36A43B14FF0500383F31188E8
:1048E000BFF36F8FBFF34F8FFEE7F26A094B1B6870
:1048F000DB6A9A42D3D94FF0E0234FF08052C3F8DD
:10490000042DBFF34F8FBFF36F8FC8E7E80C002073
:10491000780800206C08002008B32DE9F0410E460D
:1049200014461D46074600F0BBFFEFF311884FF019
:10493000500383F31188BFF36F8FBFF34F8F0DB117
:104940007B6D2B6097F85830DBB2022287F8582035
:10495000042C1FD8DFE804F02B0C111619004FF0BF
:10496000500383F31188BFF36F8FBFF34F8FFEE7C0
:104970007A6D16437E6501241AE07A6D01327A65FC
:10498000012415E07E65012412E0022B17D07E651C
:1049900001240DE07A6DB2F1FF3F12D04FF05003C9
:1049A00083F31188BFF36F8FBFF34F8FFEE70124AE
:1049B000012B08D088F311882046BDE8F08100243F
:1049C000F6E70124F4E7BB6A43B14FF0500383F3E9
:1049D0001188BFF36F8FBFF34F8FFEE7154B1B6836
:1049E0000BBB3D1D2846FEF7E6FBF86A124B1B6821
:1049F000984201D9104B186000EB800029460F4BFC
:104A000003EB8000FEF7B3FBFA6A0D4B1B68DB6A11
:104A10009A42CFD9069B13B10123069A1360094B22
:104A200001221A60C6E707F118010748FEF79FFB4D
:104A3000EAE700BFE00C0020E80C00207808002026
:104A40006C080020680D0020240D0020064B1A6819
:104A500013682BB90123036023B9D3681868704722
:104A60000023F8E7002070476C0D002008B5416076
:104A7000006191420CD8D21A83699A4201D3012075
:104A800008BD011D094B1868FEF77CFB0020F7E705
:104A90009A4201D2994206D2011D054B1868FEF7D1
:104AA00071FB0020ECE70120EAE700BF700D002059
:104AB0006C0D002030B583B000F0CCFD114B1B68AD
:104AC0001BB100F0E9FD03B030BD0F4D2846FEF7E5
:104AD00040FB0E4C2046FEF73CFB0D4B1D600D4B82
:104AE0001C60002300930C4B0C4A10210A20FEF797
:104AF00070FC044B18600028E3D00949FFF72CF83C
:104B0000DFE700BF900E0020140E0020280E0020CA
:104B10006C0D0020700D0020400E0020740D002050
:104B2000740E020810B588B0FFF7C4FF124B1B6863
:104B3000CBB100240594069407AA06A905A800F0A5
:104B4000F3FB059B0293069B0193022300932346EC
:104B5000079A0A490A48FFF7F1F90A4B186010B1A1
:104B6000012008B010BD4FF0500383F31188BFF34C
:104B70006F8FBFF34F8FFEE7900E00207C0E020870
:104B8000894E0008940E0020B8B19C460346184890
:104B9000006858B300B585B00091019202930529D1
:104BA0001CDCFFF7EBFC022810D000231A466946F4
:104BB0000F480068FEF7BCFC15E04FF0500383F38C
:104BC0001188BFF36F8FBFF34F8FFEE70023069A64
:104BD000694607480068FEF7ABFC04E00023624624
:104BE0006946FEF7AFFD05B05DF804FB0020704795
:104BF000900E002070B582B01B4B1B681A6862B320
:104C0000DB681E68DC68251D2846FEF7D4FA236A97
:104C10002046984794F8283013F0040FECD0A3698D
:104C200033449E4207D26360246129460E4B1868C4
:104C3000FEF7A8FAE0E7002100910B463246204635
:104C4000FFF7A2FF0028D7D14FF0500383F311885C
:104C5000BFF36F8FBFF34F8FFEE7044A106802491E
:104C60000860136002B070BD6C0D0020700D002054
:104C700038B50546FFF728FA0446074B1B68834200
:104C800005D800232B60044B1C60204638BDFFF77D
:104C9000B1FF01232B60F6E73C0E002070B582B017
:104CA00006460D4617490968C968CC68201DFEF7FD
:104CB00082FA94F828C01CF0040F08D12CF0010CE3
:104CC00084F828C0236A2046984702B070BDA169C5
:104CD00033462A4631442046FFF7C8FE0028F1D06B
:104CE000002100910B4632462046FFF74DFF002879
:104CF000E8D14FF0500383F31188BFF36F8FBFF3F8
:104D00004F8FFEE76C0D002070B582B006460C4652
:104D1000FFF7D2F901A8FFF7ABFF019B33BB0546B4
:104D20000CB9B04219D224B1124A12681268DAB929
:104D300001242246711B104B1868FEF74DFFFFF748
:104D40005DFAA8B94FF0E0234FF08052C3F8042D6C
:104D5000BFF34F8FBFF36F8F0AE0FFF74FFA29467B
:104D60003046FFF79BFF03E01C46E2E7FFF746FAF9
:104D700002B070BD700D0020900E002010B588B0FC
:104D800002E0049B002B0FDA002204A93D4B1868B7
:104D9000FEF73FFD002873D0049B002BF1DA079942
:104DA0000698059B9847ECE7069C636913B1201DA4
:104DB000FEF701FA03A8FFF75BFF049B092BE3D87A
:104DC000DFE803F00505053037500505303794F866
:104DD000283043F0010384F82830059BA16902467E
:104DE00019442046FFF742FE0028CDD0236A204612
:104DF000984794F8283013F0040FC5D0A269002119
:104E000000910B46059802442046FFF7BDFE00289E
:104E1000BAD14FF0500383F31188BFF36F8FBFF304
:104E20004F8FFEE794F8283023F0010384F82830F0
:104E3000AAE794F8283043F0010384F82830059954
:104E4000A16131B10346024601442046FFF70EFE40
:104E50009AE74FF0500383F31188BFF36F8FBFF3CE
:104E60004F8FFEE794F8283013F0020F04D023F0A0
:104E7000010384F8283087E7204600F045FB83E7EC
:104E800008B010BD900E002000B583B001A8FFF758
:104E9000DDFD0199FFF738FFFFF770FFF6E708B572
:104EA0004FF0E0231B69FFF769FB012800D108BD23
:104EB00000F040FCFBE70000EFF305832BB9064B45
:104EC000186828B901221A6070476FF00500704712
:104ED0004FF0FF30704700BFF4100020EFF3058360
:104EE00073B90A4B1B68012B0DD110B50024084B78
:104EF000DC77064B02221A60FFF790F8204610BDBF
:104F00006FF0050070474FF0FF307047F41000203D
:104F100000ED00E008B5EFF3058313B1FFF7DAF811
:104F200008BDFFF7D1F8FBE7F0B587B00024059482
:104F3000EFF3058474BB68B322B31568936903B9B2
:104F400018235C1E372C49D8546814F0010F47D140
:104F500056696EB14FEA960C94682CB1D7685B2FF6
:104F600002D9176907B1C6B92CB14FF0FF340EE072
:104F70004FF0800CF0E7D4688CB9146994B14FF00D
:104F8000FF3404E01546002418234FF0800C012C58
:104F90000AD0ACB1059807B0F0BD0124F7E74FF097
:104FA000FF34F4E70024F2E7146992680292019456
:104FB00000930B4662462946FEF7C0FF0590E9E7DD
:104FC00005AA019200930B461FFA8CF22946FEF7C0
:104FD000F0FF0128DED000230593DBE70020DAE7AD
:104FE0000020D8E708B5FFF7C3FA08BD30B585B093
:104FF00020B30446002921DB4FF0FF330393EFF386
:1050000005830BB30025029502AB00932B460122CA
:10501000FFF782FC009503AB2A4629462046FFF79E
:105020007BFC029B6BB14FF0E0234FF08052C3F842
:10503000042DBFF34F8FBFF36F8F02E06FF00303B8
:105040000393039805B030BD00230122FFF7E4FB72
:1050500003AB002211462046FFF7DEFBF1E72DE906
:10506000F04F85B0EFF305830193002B40D18146CB
:105070008A461746002841DB11F0020F06D09846F9
:10508000FFF722F883463E46019D23E08046F7E77E
:1050900005EA0905039B1D431AF0010F0DD039EAFB
:1050A000050327D06FB3FFF70FF8A0EB0B039E4269
:1050B0000BD3ABEB000006440BE019EA050F19D146
:1050C000002FF0D16FF0020514E0019E01E06FF0B7
:1050D00001057CB1334603AA41460020FFF750FB8F
:1050E00004460128D4D0002FF1D16FF00205F0E77B
:1050F0006FF00505284605B0BDE8F08F6FF0030599
:10510000F8E76FF00205F5E708B5EFF3058333B96B
:1051100008B9002008BDFFF7EDF80020FAE76FF0AE
:105120000500F7E770B5EFF30583002B3FD1044688
:1051300000B1436813F0010600D0012613F0080FF8
:1051400038D14CB3A16811B1E3684F2B19D899B18C
:105150004FF0FF334BBB1EB30420FEF7B9FA0546F0
:105160002DB104B1246821462846FEF7F5FCFDB1B7
:10517000F6B145F001051BE0E3687BB14FF0FF336A
:10518000E8E726B10420FEF7AEFA0546E8E701207D
:10519000FEF7A9FA0546E3E70023DBE70023D9E79A
:1051A0000120FEF795FA0546DAE70025DFE700253E
:1051B000284670BD0025FBE7EFF30582C2B910B5A4
:1051C00003460C4620F0010003F0010398B13BB107
:1051D000FEF7A1FC012811D094B16FF001000EE0A0
:1051E000FEF7C6FB01280ED07CB16FF0010006E08F
:1051F0006FF0050070476FF0030000E0002010BD65
:105200006FF00200FBE70020F9E76FF00200F6E71D
:10521000EFF30582B2B908B5034620F0010003F0B0
:10522000010390B12BB1FEF76DFA012810D10020D7
:1052300008BD00231A461946FEF77AF901280AD15B
:105240000020F5E76FF0050070476FF00300EFE70F
:105250006FF00200ECE76FF00200E9E770B582B092
:10526000EFF30583002B49D10E461446002849D0A0
:10527000884249D34AB1956815B1D3684F2B14D8E9
:10528000002D43D1E3680BB139E0002301280ED093
:1052900073BB3146FEF72EF9054685B304B1246889
:1052A00021462846FEF758FC29E00123EEE7B3B972
:1052B000032200210120FEF7D6F80546002DECD090
:1052C000002EEAD000231A4619462846FEF730F988
:1052D0000128E2D02846FEF769FC00250FE0A3680C
:1052E0000322009200221146FEF773F80546E5E717
:1052F000A2683146FEF7DBF80546CEE700252846D2
:1053000002B070BD0025FAE70025F8E70025F6E7B2
:10531000034B0360034B0B6080231360704700BF97
:1053200098100020980E0020034B0360034B0B6085
:105330004FF4807313607047F8140020F8100020B9
:10534000134A12F0070F1FD0D11D21F00701C1F53C
:10535000EA43303313440A460E480260002141609C
:105360001344083B23F007030B480360596019609E
:10537000991A51601360094B1960094B1960094B68
:105380004FF000421A60704747F23053E4E700BF25
:10539000581500209C8A002054150020908A002077
:1053A0008C8A0020888A0020164B1A461B6883428C
:1053B000FBD3516802EB010C844509D0416800EB36
:1053C000010C634509D00360904219D0106070470A
:1053D0004068014451601046F0E710B40A4C24685C
:1053E000A3420BD05B681944416013681B680360DB
:1053F000904200D010605DF8044B70470460F7E7FE
:10540000704700BF9C8A00205415002070B50546E7
:10541000FEF752FE364B1B68A3B1364B1B681D428C
:105420004ED135B1083515F0070F02D025F007052C
:105430000835002D46D0304B1B68AB4251D32F4A64
:10544000146804E0FFF77CFFE7E722461C46636828
:10545000AB4202D22368002BF7D1254B1B68A34235
:1054600041D0166808362368136063685B1B102BF5
:1054700010D9601910F0070F08D04FF0500383F3D4
:105480001188BFF36F8FBFF34F8FFEE743606560F6
:10549000FFF78AFF626818490B689B1A0B6018496E
:1054A00009688B4201D216490B60124B1B681343EB
:1054B000636000232360134A13680133136002E022
:1054C000002600E00026FEF799FE16F0070F0CD02C
:1054D0004FF0500383F31188BFF36F8FBFF34F8FEB
:1054E000FEE70026EFE70026EDE7304670BD00BF7F
:1054F00054150020888A00208C8A00209C8A002075
:10550000908A0020948A0020002834D038B50446C0
:10551000A0F1080550F8043C174A1268134208D15C
:105520004FF0500383F31188BFF36F8FBFF34F8F9A
:10553000FEE750F8081C41B14FF0500383F3118887
:10554000BFF36F8FBFF34F8FFEE723EA020340F8EC
:10555000043CFEF7B1FD54F8041C084A13680B44E0
:1055600013602846FFF720FF054A136801331360D4
:10557000FEF744FE38BD7047888A00208C8A0020E0
:10558000988A002082B0002301930D4B1B68B3F171
:10559000FF3F08D04FF0500383F31188BFF36F8FA4
:1055A000BFF34F8FFEE74FF0500383F31188BFF333
:1055B0006F8FBFF34F8F019B002BFCD002B0704761
:1055C0008400002008480068006880F308884FF0D5
:1055D000000080F3148862B661B6BFF34F8FBFF34B
:1055E0006F8F00DF00BF000008ED00E0DFF80C0067
:1055F000016841F4700101607047000088ED00E02F
:105600004FF0807340F8043C21F0010140F8081C81
:10561000054B40F80C3C40F8202C6FF0020340F89A
:10562000243C4438704700BF855500080000000046
:10563000074B19680868B0E8F04F80F30988BFF39A
:105640006F8F4FF0000080F311887047AFF3008038
:105650006C0800204FF0500383F31188BFF36F8F65
:10566000BFF34F8F0B4A136801331360012B00D037
:1056700070474FF0E023D3F8043D13F0FF0FF7D04D
:105680004FF0500383F31188BFF36F8FBFF34F8F39
:10569000FEE700BF84000020094B1B6843B94FF0B0
:1056A000500383F31188BFF36F8FBFF34F8FFEE773
:1056B000013B034A13600BB983F31188704700BFA5
:1056C0008400002000000000000000000000000036
:1056D000EFF30980BFF36F8F154B1A681EF0100FA0
:1056E00008BF20ED108A20E9F04F10602DE9090075
:1056F0004FF0500080F31188BFF34F8FBFF36F8FCF
:10570000FEF71EFE4FF0000080F3118809BC1968F7
:105710000868B0E8F04F1EF0100F08BFB0EC108A18
:1057200080F30988BFF36F8F704700BFAFF300802D
:105730006C08002008B54FF0500383F31188BFF3C5
:105740006F8FBFF34F8FFEF7CDFC28B14FF0E023F2
:105750004FF08052C3F8042D002383F3118808BD55
:105760004FF0E022002313619361054B1B6805494C
:10577000A1FB03139B09013B53610723136170478E
:1057800070000020D34D62104FF0E023D3F8002DBD
:105790003D4B9A421CD04FF0E023D3F8002D3B4BF9
:1057A0009A421ED030B583B0394B1A78D2B20192EA
:1057B000FF221A701B78DBB28DF803309DF803309E
:1057C00003F05003334A1370334B07221A601BE077
:1057D0004FF0500383F31188BFF36F8FBFF34F8FE8
:1057E000FEE74FF0500383F31188BFF36F8FBFF3D1
:1057F0004F8FFEE7284A1368013B13609DF8033082
:105800005B00DBB28DF803309DF8033013F0800F9E
:10581000F0D1214B1B68032B08D04FF0500383F3CA
:105820001188BFF36F8FBFF34F8FFEE71B021A4A39
:10583000136003F4E0631360019BDBB2144A13703E
:105840004FF0E024D4F8203D43F47003C4F8203D29
:10585000D4F8203D43F07043C4F8203DFFF780FFAB
:1058600000250E4B1D60FFF7C1FED4F8343F43F016
:105870004043C4F8343FFFF7A5FEFEF761FDFFF794
:1058800081FE284603B030BD71C20F4170C20F4186
:1058900000E400E0A48A0020A88A00208400002000
:1058A000EFF305830F2B0FD9114A9B5CDBB2114A32
:1058B00012789A4208D94FF0500383F31188BFF34E
:1058C0006F8FBFF34F8FFEE74FF0E023D3F80C3D0F
:1058D00003F4E063084A1268934208D94FF050037A
:1058E00083F31188BFF36F8FBFF34F8FFEE77047CD
:1058F000F0E300E0A48A0020A88A002010B50A4C3A
:1059000000224FF400512046FCF77DFD6420FCF797
:1059100013FE01224FF400512046FCF774FD642071
:10592000FCF70AFE10BD00BF000C02404FF0C04360
:10593000188070474FF0C043188003F5003319807A
:10594000704710B504462020FFF7F4FF21462120C0
:10595000FFF7F0FF10BD70B501E0A0F5A070B0F545
:10596000A07FFAD200E0F03AEF2AFCD8C0F59F748D
:105970000134C2F1EF0201E0A1F5A071B1F5A07F01
:10598000FAD200E0F03BEF2BFCD8C1F59F76013650
:10599000C3F1EF039A4202D991B21A460B46B442C0
:1059A00002D9A1B234460E461B0299B295B22943E0
:1059B0004620FFF7BFFFB1B24720FFF7BBFFA4B2FD
:1059C00021464820FFF7B6FF29462046FFF7B9FFDA
:1059D0002220FFF7ABFF70BD08B5B0F5A07F02D263
:1059E000C0F5A07080B2EF2902D8C1F1F00189B2F0
:1059F000FFF7A7FF2220FFF799FF024B1A881888AC
:105A000080B208BD0000026070B515461C46BDF8A6
:105A1000106000EB020CCB18013B0A460CF1FF3181
:105A2000FFF799FF002102E003480680013104FBE3
:105A300005F08842F8D870BD0000026000B583B060
:105A4000FFF75CFF42F204011120FFF773FF4FF4F0
:105A50004C411320FFF76EFF4FF418511520FFF74C
:105A600069FF42F22A511420FFF764FF332112200C
:105A7000FFF760FF4CF604411320FFF75BFF0120A6
:105A8000FCF75AFD4CF606411320FFF753FF0120A7
:105A9000FCF752FD4CF64F411320FFF74BFF01205E
:105AA000FCF74AFD46F24F711320FFF743FF42F225
:105AB00003011120FFF73EFF0120FCF73DFD42F2FC
:105AC00009613020FFF736FF42F22C413120FFF709
:105AD00031FF41F623713220FFF72CFF42F22541BE
